:020000040800F2
:10000000504D0020F9010008990F0008890E0008E2
:10001000F50E000895030008914F0008000000004D
:10002000000000000000000000000000894F0008F0
:1000300065050008000000000F020008110200081A
:10004000130200081302000813020008130200083C
:10005000130200081302000813020008130200082C
:10006000130200081302000813020008130200081C
:10007000130200081302000813020008130200080C
:1000800013020008130200081302000813020008FC
:1000900013020008130200081302000813020008EC
:1000A00013020008130200081302000813020008DC
:1000B00013020008130200081302000813020008CC
:1000C00013020008130200081302000813020008BC
:1000D00013020008130200081302000813020008AC
:1000E000130200081302000813020008130200089C
:1000F000130200081302000813020008130200088C
:10010000130200081302000813020008130200087B
:10011000130200081302000813020008130200086B
:10012000130200081302000813020008130200085B
:1001300000F002F800F050F814A696E8000CB24463
:10014000B344DA4501D100F047F8BAE80F000FA632
:1001500096E83000A5EB040504EB0607AAEB0704BC
:10016000A7F101074FEA15154FEA3414A4F1010471
:10017000AC4201D300F030F813F0010F18BFFB1AA6
:1001800043F0010300F001F8DBE71847F4500000EA
:1001900014510000103A24BF78C878C1FAD8520729
:1001A00024BF30C830C144BF04680C6070470000F1
:1001B000704700000023002400250026103A28BFC5
:1001C00078C1FBD8520728BF30C148BF0B607047C9
:1001D0001FB51FBD10B510BD00F094F81146FFF714
:1001E000F7FF04F009FF00F0B2F803B4FFF7F2FFE5
:1001F00003BC00F0B9F800000948804709480047EF
:10020000FEE7FEE7FEE7FEE7FEE7FEE7FEE7FEE7C6
:10021000FEE7FEE704480549054A064B7047000023
:100220008D4F00083101000850470020504D00203C
:10023000504900205049002072B6704762B670479E
:10024000EFF3108072B6704780F31088704730BFAC
:10025000704720BF7047B0FA80F0704790FAA0F066
:10026000B0FA80F0704790FAA0F070474FF00002AB
:100270000429C0F0128010F0030C00F01B80CCF1B8
:10028000040CBCF1020F18BF00F8012BA8BF20F826
:10029000022BA1EB0C0100F00DB85FEAC17C24BF7A
:1002A00000F8012B00F8012B48BF00F8012B704724
:1002B0004FF0000200B5134694469646203922BFFF
:1002C000A0E80C50A0E80C50B1F12001BFF4F7AF4A
:1002D000090728BFA0E80C5048BF0CC05DF804EB2C
:1002E000890028BF40F8042B08BF704748BF20F89A
:1002F000022B11F0804F18BF00F8012B7047704798
:1003000070477047754600F02BF8AE460500694609
:10031000534620F00700854618B020B5FFF77AFF56
:10032000BDE820404FF000064FF000074FF00008F6
:100330004FF0000BAC46ACE8C009ACE8C009ACE833
:10034000C009ACE8C00921F007018D46704710B51F
:100350000446AFF300802046BDE81040FFF745BFDC
:10036000004870471000002001491820ABBEFEE78E
:10037000260002007047000080B500F069FB45F2DE
:100380002C21C0F600010968B0FBF1F0BDE8804007
:1003900001F0A4BFFEE7000070B540F27004C2F2A5
:1003A00000040025656000F0BDF82560C4E9025531
:1003B000C4E90455A561FFF743FF2188A560013119
:1003C0002180618800294FF0000111D1064600F01C
:1003D000C3F86188206109B1A16808E000F0BCF8A9
:1003E0002169A268411A60618A4288BF114630467D
:1003F000A161C4E90255FFF727FFBDE8704000F096
:1004000057B8000070B5FFF71BFF40F27005C2F24D
:100410000005AC68FFF718FFA8690026241A38BF4A
:100420003446FFF70DFFAE60FFF70EFF204670BDAC
:10043000B0B5FFF705FF40F27004C2F20004E568B2
:10044000FFF702FFA069281A38BF0020B0BD0000E6
:1004500010B540F27004C2F20004208861880130B7
:10046000208019B1481C608010BD00BF00F074F8F6
:1004700061882061481C608010BD000010B540F20A
:100480007004C2F20004608801380104608018BF63
:1004900010BD00F061F82169A268411A8A426061CA
:1004A00038BFA160E068884238BFE16010BD00003D
:1004B000B0B5FFF7C5FE40F27005C2F20005044674
:1004C000288869880130288019B900F045F86988C2
:1004D0002861481C688005F11C00102100F00CFD0B
:1004E000688801380104688004D02046BDE8B04027
:1004F000FFF7AABE00F030F82969AA68411A8A42BB
:10050000686138BFA960E868884238BFE960204662
:10051000BDE8B040FFF798BE40F27001C2F20001A2
:100520004860704780B54EF6FC50CEF2000001687E
:1005300041F08071016041F20000CEF20000002124
:100540004160016841F00101016000F081FABDE8FD
:100550008040FFF7E1BF000041F20400CEF200004E
:1005600000687047704700002DE9F04F82B00E68B8
:10057000002E00F0E980A0F1804241F6004540F2F3
:100580000043A2F58432C4F201050624C4F201033B
:100590004FEAB227A84208BF05244FF0000E4FF0E3
:1005A00001080F254FF0000A4FF0000B052F38BF50
:1005B0004FEAB224009408E00E680AF1010A36FA04
:1005C0000AF20EF1040E00F0BF8008FA0AFC16EAE7
:1005D0000C09F1D04E684FF6FF72C1F2100296423C
:1005E00012DC122E56D8DFE806F0350B4D49555572
:1005F000555555555555555555555545510000BFFF
:10060000D1F80CB046E000BF4FF6FF72C1F22102F4
:1006100096420FDC0022C1F2110296421AD000224B
:10062000C1F21202964215D00022C1F22102964276
:1006300010D02FE00022C1F2220296420AD00022FE
:10064000C1F23102964205D00022C1F23202964236
:1006500020D100BF8A684AB1012A14BFC0F814C073
:10066000C0F810C04FF0080B14E000BF4FF0040BAF
:1006700010E000BFCA6802F1040B0BE04FF0000B62
:1006800008E000BFCA6802F1080B03E0CA6802F183
:100690000C0B00BF02467446B9F5807F24BF0432BC
:1006A000203C166805FA04F726EA07070BFA04F659
:1006B00037431760CA79D2067FF57EAF41F218073B
:1006C000C4F202073A684FF6084542F001023A6068
:1006D0003A68CFF6FF7502F001020192019A2AF002
:1006E00003021A440F2457590EF00C06B440A743D6
:1006F000009C04FA06F6374357514E6840F20C440A
:10070000F2029A6854BF22EA090242EA0902C4F2DC
:1007100001049A602268B70254BF22EA090242EA41
:10072000090222605A68B70354BF22EA090242EA6A
:1007300009025A600F251A68F70354BF22EA09021A
:1007400042EA09021A6037E702B0BDE8F08F000004
:10075000002A08BF090401617047000044F24C7090
:10076000C2F200000068704780B542F20000C4F297
:100770000200016841F010010160032000F07AF8E6
:100780000F2000F005F800F027F8002080BD0000E1
:1007900070B540F20006C2F2000640F2080132785D
:1007A000C2F200014FF47A730968B3FBF2F2044617
:1007B000B1FBF2F1084600F051FB0F2C4FF00105A0
:1007C00008D838B94FF0FF3021460022002500F04C
:1007D00025F87460284670BD82B041F21800C4F25A
:1007E00002000168022241F001010160016801F08C
:1007F000010101910199416841F0805141604068D7
:1008000000F08050009000980420C4F201000168BC
:1008100062F31A61016002B07047000010B54EF635
:100820000C5CCEF2000CDCF80030C3F3022E8EF02C
:100830000704042C28BF0424BEF103034FF0FF3E3D
:100840000EFA04F438BF0023A14399400EFA03F3D3
:100850009A43114300F00F0200F160430901043A8A
:1008600003F564436244002848BF02F10C03197089
:1008700010BD00004EF60C51CEF200010A684FF692
:10088000FF031A4060F30A2242F0806040F0FD70DE
:1008900008607047002804BF012070472DE9F0432D
:1008A00081B042F20008C4F202080446D8F8000001
:1008B0000D4600F0070081420CD9D8F8000020F066
:1008C00007002843C8F80000D8F8000000F007002F
:1008D000A8426CD1206841F204098107C4F20209E0
:1008E00017D5410705D5D9F8001041F4E061C9F8E2
:1008F0000010010705D5D9F8001041F46051C9F87E
:100900000010D9F80010A26821F0F0011143C9F8D5
:100910000010C00742D1D8F8000000F0070085425F
:100920000CD2D8F8000020F007002843C8F80000D7
:10093000D8F8000000F00700A84238D1206841072D
:1009400007D5D9F80010E26821F4E0611143C9F835
:100950000010000708D5D9F80000216920F4605084
:1009600040EAC100C9F80000D9F8002002F00C00EC
:10097000082841F20020C0F27A004DD145F25623FA
:10098000C2F38341C0F60003595CD20338D440F669
:100990000010C0F23D0048433EE000BF606859F8D7
:1009A000041C022808D0012826D1890306D401207E
:1009B00001B0BDE8F08300BF8901F8D5D9F8001077
:1009C00021F003010843C9F80000FFF7C7FE0646FF
:1009D00041F28837D9F80000616800F00C00B0EBF4
:1009E000810F98D0FFF7BAFE801BB842F2D90320DE
:1009F00001B0BDE8F08300BF8907D8D5DEE700BFAE
:100A0000D9F8002045F2E413C2F34042C0F60003D7
:100A10009A5C4843B0FBF2F0D9F8001045F2D412CA
:100A2000C1F30311C0F60002515C40F2080220FA43
:100A300001F140F20400C2F200000068C2F20002BC
:100A40001160FFF7A5FE002001B0BDE8F0830000B3
:100A500040F20800C2F2000000687047002804BF9E
:100A6000012070472DE9F04182B00446007841F240
:100A70000006C007C4F202060CD0706800F00C003B
:100A8000042840F081803068800303D56068002826
:100A900000F04681207880071BD5706810F00C0F9D
:100AA00009D0706800F00C00082840F0878070685A
:100AB000C00300F183803068800703D520690128D6
:100AC00040F02E813068616920F0F80040EAC100F2
:100AD00030602078000713D4207840072CD4E569D3
:100AE000002D00F01881706800F00C00082840F01C
:100AF000A780012D40F00481012002B0BDE8F08103
:100B0000A069002800F084800020C4F24220012166
:100B1000C0F88014FFF722FE054600BF706A800708
:100B200000F1B280FFF71AFE401B0228F6D903201D
:100B300002B0BDE8F08100BFF0695FEAC00808D4E8
:100B4000F06940F08050F061F06900F08050009052
:100B5000009847F20007C4F200073868C00549D47E
:100B6000386840F480703860FFF7F8FD054600BF34
:100B70003868C0053ED4FFF7F1FD401B6428F7D963
:100B8000032002B0BDE8F081706800F00C00082876
:100B900003D17068C0033FF576AF61683068002903
:100BA00000F00C81B1F5A02F00F00081B1F5803F7D
:100BB00040F01A8140F480301CE100BF2069002819
:100BC00040F20000C4F2422000F088800121016060
:100BD000FFF7C4FD054600BF306880073FF572AFE0
:100BE000FFF7BCFD401B0228F6D9032002B0BDE888
:100BF000F08100BFE168306A002900F09D8005297E
:100C000000F09280012940F0AF8040F00100B1E097
:100C10000020C4F242200021C0F88014FFF79EFD9E
:100C2000054600BF706A80077FF556AFFFF796FD57
:100C3000401B0228F6D9032002B0BDE8F08100BFB6
:100C40000027C4F2422700203866FFF787FD022DF7
:100C500005460DD13068800140F1DE80FFF77EFD52
:100C6000401B02284FF00300F4D902B0BDE8F08128
:100C7000306880014FD5FFF771FD401B02284FF00F
:100C80000300F5D9F1E700BF40F20800C2F200000E
:100C9000006844F6D351C1F26201A0FB0101480A89
:100CA000019000BF00BF0198411E002801913FF450
:100CB00013AF00BF0198411E002801913FF40CAF13
:100CC00000BF0198411E002801913FF405AF00BF0D
:100CD0000198411E00280191E4D1FDE60021016048
:100CE000FFF73CFD054600BF306880077FF5F1AE99
:100CF000FFF734FD401B02284FF00300F4D9B4E79E
:100D00007068216A00F480328A4209D1616A00F475
:100D10007010884204D1002002B0BDE8F08100BF0D
:100D2000012002B0BDE8F08140F004003062306A7A
:100D300040F001001EE000BF20F001003062306A88
:100D400020F004003062FFF709FD054641F28837C4
:100D5000306A800720D5FFF701FD401BB8424FF0F5
:100D60000300F5D981E700BF20F001003062306A4E
:100D700020F004003062FFF7F1FC054641F28837AD
:100D8000306A800708D4FFF7E9FC401BB842F7D966
:100D9000032002B0BDE8F081B8F1000F3FF59FAE2F
:100DA000F06920F08050F06199E600BF40F48020A7
:100DB0003060306840F480301CE000BF20F48030A8
:100DC0003060306820F480203060FFF7C7FC0546B3
:100DD000306880037FF55EAEFFF7C0FC401B6428DF
:100DE0004FF00300F4D940E720F4803030603068E1
:100DF00020F480203060FFF7B1FC054630688003A6
:100E00003FF548AEFFF7AAFC401B6428F6D9032043
:100E100002B0BDE8F08100BF206AB0F5803F05D187
:100E20007168A26821F40031114371607168626ACF
:100E300021F4741111430843706001203866FFF7F4
:100E40008DFC0446306880013FF565AFFFF786FCF6
:100E5000001B02284FF00300F4D906E7411E0020D2
:100E6000B0EB116F1CBF012070474EF21002CEF2A2
:100E7000000251604EF62351CEF20001F0230B70B8
:100E80000721906011607047FEE7000070B586B0E2
:100E9000002541F21800CDE90455CDE90255C4F210
:100EA0000200016841F6004441F0800101600168E0
:100EB000C4F2010401F0800101910199016800224E
:100EC00041F0040101600068FF2100F0040001907E
:100ED00001982046FF26FFF73BFC0120CDE90305E2
:100EE0000220059002A920460296FFF73DFB06B0BE
:100EF00070BD0000FEE70000F0B581B0002818BF0B
:100F0000002901D101B0F0BD044610F003000CD05F
:100F10004E1E80F00307BE4238BF37467D1C204678
:100F20002946FFF7A3F92C44F11B042909D321F02A
:100F3000030520460E462946FFF7BAF92C4406F071
:100F400003010029DED02046FFF790F901B0F0BD83
:100F500040F29C00C2F2000044F24851C5F2410147
:100F6000024642F8041F0021C0E90C11C0E9022129
:100F7000C0E90411C0E90611C0E90811816240F21C
:100F8000B021C2F200014FF42053C0E90F11C0E9B3
:100F90001133026070470000FEE700007047000058
:100FA00044F26450C2F200000068002808BF704795
:100FB00000470000B0B5044600F0CEF845F22C2002
:100FC000C0F6000000684CF6CD41CCF6CC41A0FB49
:100FD000010144F21800C2F200000025057044F23D
:100FE000A420C2F20000057044F2A520C2F2000065
:100FF000057044F2A430C2F20000056044F2A8304B
:10100000C2F20000056044F21210C2F20000057046
:1010100044F21310C2F20000057044F21410C2F240
:101020000000057044F2A820C2F20000056044F2FE
:10103000AC20C2F20000056044F2B020C2F2000011
:101040000560C80844F2B421C2F20001086045F20C
:10105000EC10C0F60000016844F2B820C2F20000B3
:10106000057041B145F2E810C0F60000006810B10B
:101070008900FFF71DF944F26C50C2F200000560D0
:1010800044F27050C2F20000056044F27450C2F2A3
:101090000000056044F26450C2F20000056044F2B2
:1010A0006850C2F20000056044F27850C2F20000BD
:1010B000056044F27C50C2F20000056044F2B63094
:1010C000C2F20000057002F021FB02F0E3FB2046B3
:1010D00001F01CF92088C0BB204601F0F9FC2088F3
:1010E00098BB204601F002FD208870BB204601F02D
:1010F000FFFD208848BB204602F036FB208820BB3D
:10110000204602F065FD2088F8B9204602F0E4FF91
:101110002088D0B9204601F0EBFB2088A8B92046F2
:1011200001F014FA208880B9204603F02BFD2088B6
:1011300058B9204602F062FF2088002818BFB0BDD1
:10114000204603F08DFD208800B1B0BD01F0DCF831
:10115000BDE8B040FFF722BFB0B545F2EC1145F253
:10116000E810C0F60001C0F600000D6804681DB16B
:10117000A9002046FFF79CF804EB850044F280515B
:101180000438C2F200010860B0BD000044F2A4209F
:10119000C2F200000078012818BF704710B5FFF7B1
:1011A0004FF844F21801C2F200010A78D2B344F2B7
:1011B000A523C2F200031B78013A13431B060A70F1
:1011C00030D1044602F06AFA0146204644F2241463
:1011D00001EB4102C2F2000454F8222044F2A4348C
:1011E00044F21313C2F20004C2F20003246819701F
:1011F00044F2A831A242C2F200010A6012D044F2C5
:10120000AC33D2F89010C2F200031C680131C2F86E
:101210009010611C19604EF60451CEF200014FF09F
:1012200080520A60BDE81040FFF70EB844F2A521D5
:1012300044F21800C2F20001C2F2000009780078FE
:10124000C9B2084318BF704710B5FEF7F9FF04464E
:1012500002F024FA44F2241300EB4001C2F200032E
:1012600053F8211044F2A43344F21312C2F20003E3
:10127000C2F200021B68107044F2A8309942C2F218
:101280000000016012D044F2AC32D1F89000C2F2FA
:10129000000213680130C1F89000581C10604EF62F
:1012A0000450CEF200004FF0805101602046BDE8AE
:1012B0001040FEF7C9BF000044F21801C2F200015D
:1012C000097800291EBF46F662510180704744F23A
:1012D000A421C2F20001097801291EBF45F68961E7
:1012E0000180704770B544F2A526C2F2000631783D
:1012F000F92905D945F20921BDE870400180704700
:101300000546FEF79DFF0446FFF7A2F83078411C22
:10131000317030B9FFF720F944F2A821C2F2000180
:101320000860FFF7ABF82046FEF78EFF0021284645
:10133000BDE8704001807047F0B581B014460D469D
:101340000646FEF77DFF0746FFF782F845F22C20A0
:10135000C0F6000000684CF6CD41CCF6CC41A0FBB5
:101360000101701EB0FA80F044F2B8224009C2F2C6
:101370000002107044F2B420C2F20000002D08BF39
:10138000CD080560FFF77AF83846FEF75DFF0020CC
:10139000208001B0F0BD0000F0B581B044F2180625
:1013A000C2F20006317829B146F66556068001B0D2
:1013B000F0BD00BF44F2A421C2F200010978012966
:1013C00016D144F2A527C2F200073978B1B105461B
:1013D000FEF736FF0446FFF73BF838780138010680
:1013E000387011D0FFF74AF846F6635660E000BF48
:1013F00045F68966068001B0F0BD00BF46F664562A
:10140000068001B0F0BD00BFFFF7A6F844F2A821A6
:10141000C2F200010A6844F2AC21C2F200010B687A
:10142000801A834238BF086044F2B021C2F2000142
:101430000A68824238BF0860FFF720F82046FEF7AE
:1014400003FF38783178C0B2084339D1FEF7F8FE8F
:10145000044602F023F944F2241300EB4001C2F2E7
:10146000000353F8211044F2A43344F21312C2F2E1
:101470000003C2F200021B68107044F2A8309942C7
:10148000C2F20000016012D044F2AC32D1F89000F8
:10149000C2F2000213680130C1F89000581C1060BD
:1014A0004EF60450CEF200004FF08051016000264D
:1014B0002046FEF7C9FE2846068001B0F0BD00BFF9
:1014C00000262846068001B0F0BD0000B0B544F209
:1014D000A425C2F200052978044619B145F68A60B0
:1014E0002080B0BD02F0DAF844F21311C2F200011C
:1014F000087044F21211C2F20001087044F2241183
:1015000000EB4000C2F2000151F8200044F2A83183
:10151000C2F20001086044F2A431C2F20001086086
:101520000120287003F014FE43F699202080B0BDFE
:10153000F0B581B00446FEF783FE0546FEF788FF4E
:1015400044F2F400C2F200000026066044F22200D9
:10155000C2F20000068044F2C620C2F200000680FB
:1015600044F2A030C2F20000066044F28440C2F2AD
:101570000000066044F25450C2F20000066044F2DB
:101580001400C2F20000066044F2AC20C2F2000077
:10159000066044F20010C2F200000681FEF76EFF02
:1015A0002846FEF751FEFEF74BFE0546FEF750FFBC
:1015B00044F2B030C2F20000076800BFFEF75EFFE1
:1015C0002846FEF741FEBFB1FEF73AFE0546FEF79C
:1015D0003FFFC7E92D66BE67C7F8A860C7E9276661
:1015E000C7E92366FEF7B8FFC7F89800A7F8706050
:1015F000D7F8C070E2E700BFFEF722FE0546FEF70F
:1016000027FF44F21C10C2F200000668FEF736FF06
:101610002846FEF719FE7EB1002700BFFEF710FE38
:101620000546FEF715FFB785B669FEF727FF284682
:10163000FEF70AFE002EF1D103F066F903F09EFBDF
:101640000020208001B0F0BD2DE9F04182B00446B9
:1016500044F28C40C2F200000DF1060100F06CFC77
:10166000BDF8067027B1278002B0BDE8F08100BF49
:101670000DF1060202200021002600F0C9FCBDF891
:101680000670002FEFD1FEF7DBFD0546FEF7E0FE0A
:1016900044F2C828C2F20008C8F80060FEF7EEFE67
:1016A0002846FEF7D1FD45F22C2045F21821C0F660
:1016B0000000C0F60001006809680DF106058842C7
:1016C00098BF0A21B0FBF1F000212A4600F0A0FCEF
:1016D00044F28C40C2F20000294600F06DFABDF8D9
:1016E0000670002FBFD1FEF7ABFD0546FEF7B0FE3A
:1016F00044F2A030C2F2000000270760D8F80000D2
:1017000044F2CC21C2F20001086044F2D420C2F2BB
:10171000000001210170FEF7B1FE2846FEF794FD9E
:10172000278002B0BDE8F08144F26850C2F20000A8
:101730000068002808BF7047004700002DE9F04FFF
:1017400089B044F21807C2F200073F781A9D2FB102
:1017500047F24A10288009B0BDE8F08F70B18AB115
:10176000139C9CB145F22826C0F60006159F3668EA
:10177000B7420FD246F63060ECE700BF47F2AD103B
:10178000E8E700BF47F24F10E4E700BF46F62F60DE
:10179000E0E700BFDDF850B0BB451DD2DDF8489052
:1017A000B9F1200F15D244F22C06DDE918EADDE983
:1017B00016C8C2F20006B04202D0B9F1000F08D03C
:1017C00043F64C76C2F20006B04209D0B9F11F0FC1
:1017D00006D146F27320BDE746F63160BAE700BF96
:1017E000CDE903ECCDE90521CDE9073002F086FC17
:1017F0000AF0030000210328298003D1B900204604
:10180000FEF756FD04EB8B06DDF814B00799584639
:1018100022463346CDE9007A00F058FB089DB8F126
:10182000000F286044F2B420C2F20000006885F87E
:101830003790AE6018BF4046C5E91580039805F1A2
:10184000200168600698AF6381E811080798049941
:10185000E8620020E86705F16400A5F83CA001F00B
:10186000E9F9284600F070F8FEF7EAFC0446FEF7B6
:10187000EFFD44F2A525C2F200052878411C00289E
:10188000297008BF02F028F9FEF7F8FD2046FEF7A0
:10189000DBFC089C94F8370001F040FF204602F082
:1018A0007BF844F2B030C2F2000001680022002947
:1018B000C4F8BC2018BFC1F8BC40C4F8C01044F242
:1018C000B431C2F200010A880460501C44F2A42220
:1018D000C2F2000216780880FEF7B2FC0446FEF75A
:1018E000B7FD2878012EA0F1010028700ED1000666
:1018F00008BF02F005F9FEF7C1FD2046FEF7A4FC83
:1019000009B0BDE8F04FFFF791BC00BF000607D05B
:10191000FEF7B4FD204609B0BDE8F04FFEF794BCD9
:1019200002F0EEF844F22000C2F200000588FEF753
:10193000A5FD2046FEF788FC002D3FF40CAF09B052
:10194000BDE8F04F02F09CB844F26C51C2F20001C5
:101950000968002908BF7047084700002DE9F041D9
:1019600044F21802C2F2000212782AB147F24E1075
:101970000880BDE8F08100BF044643F64C70C2F217
:101980000000844244D044F22C00C2F200008442A1
:1019900044D0884674B9FEF753FC0546FEF758FD5F
:1019A00044F2A430C2F200000468FEF767FD284646
:1019B000FEF74AFCFEF744FC0546FEF749FD44F2FB
:1019C000A527C2F200073878411C0028397008BFEB
:1019D00002F082F8FEF752FD2846FEF735FC94F837
:1019E0003600072800F2B280DFE800F0221E04046F
:1019F000251E0404204602F069FF94F83400C11E3D
:101A0000042901D3012816D1204601F053FA12E02F
:101A100047F24C100880BDE8F08100BF47F24D103E
:101A20000880BDE8F08100BF204602F04FFF02E0D1
:101A3000204601F0EFFF04F16405284601F0D8F8D4
:101A4000204600F0AFF8214651F8BC3F084650F858
:101A5000042F5BB1002A0FBF03F1C002C3F8C020FE
:101A6000C2F8BC300246084607E000BF44F2B0317D
:101A7000C2F200010A6012B1BC320021116044F2CE
:101A8000B431C2F200010A8800260660501E0880A8
:101A900045F27820C0F60000C4E908062846002177
:101AA000C4E90066C4E90266C4E90466C4E90666DE
:101AB000E6872664E665A4F86060C4E90A662663E2
:101AC00001F0B8F84FF00040A663A687C4E91D6690
:101AD000C4E91F66C4F88460C4F88760C4E9296655
:101AE000C4E92B66C4E91160C4E91366C4E915664C
:101AF000C4E92366C4F89460FEF72EFDC4E9260607
:101B00000020C2F2FF00606345F26620C0F60000CC
:101B1000C4E92D66C4E92F66C4F8C400FEF790FB43
:101B20000446FEF795FC387801380106387008BF86
:101B300001F0E6FFFEF7A2FC2046FEF785FBA8F8C1
:101B40000060BDE8F041FFF771BB00BFFEF778FB16
:101B50000446FEF77DFC38780138010638700BD05A
:101B6000FEF78CFC2046FEF76FFB46F62D60A8F8CA
:101B70000000BDE8F08100BF01F0C2FF44F2200088
:101B8000C2F200000588FEF779FC2046FEF75CFBF8
:101B90000DB101F075FF46F62D60A8F80000BDE814
:101BA000F081000044F27051C2F20001096800297E
:101BB00008BF704708470000F0B585B00C460546E1
:101BC000FEF73EFB0646FEF743FC44F2A430C2F2A9
:101BD00000000768FEF752FC3046FEF735FB002D8B
:101BE00018BFBD4204D147F25710208005B0F0BDA8
:101BF00044F21800C2F20000007878B10020CDE96C
:101C00000000029045F25420C5F2453029460022DA
:101C10000023039400F0D8FC05B0F0BD284621460F
:101C200005B0BDE8F04002F0B3BB000044F27451CF
:101C3000C2F200010968002908BF70470847000088
:101C40002DE9F04744F21807C2F200073F782FB1A0
:101C500046F2AE1018800020BDE8F08741F400473E
:101C6000B7F5004F34D10F4605469846002A1CBFF1
:101C7000002010601646FEF7E3FA0446FEF7E8FB84
:101C800044F2A43AC2F2000ADAF80000416C29B327
:101C900001394164002E1CBF006C30600D46FEF718
:101CA0005BFCDAF800100A6CD1F8A830801A834285
:101CB000C1F8A40038BFC1F8A800FEF7DFFB20463A
:101CC000FEF7C2FA0020A8F800002846BDE8F08719
:101CD00045F6256018800020BDE8F08738B2B0F1E5
:101CE000FF3F13DD44F2A529C2F2000999F8000074
:101CF000C0B1FEF7C3FB2046FEF7A6FA46F66350D6
:101D0000A8F800000020BDE8F08700BFFEF7B6FB92
:101D10002046FEF799FA46F2B010A8F8000000201D
:101D2000BDE8F087012089F8000001F0D5FEFEF73C
:101D3000A5FB2046FEF788FA0020002107222B464B
:101D400000F0E4FFFEF77CFA0446FEF781FB99F809
:101D500000000138010689F8000008BF01F0D0FE3C
:101D6000FEF78CFB2046FEF76FFAFFF75FFAFEF7EF
:101D700067FA0446FEF76CFBDAF8001091F835209C
:101D8000032A1FD0012A404614D01ABB36B3086C70
:101D90003060FEF7E1FBDAF800100A6CD1F8A830E9
:101DA000801A8342C1F8A40038BFC1F8A8000022FD
:101DB000404614E0002E1CBF0A6C326046F2A912A5
:101DC0000DE000BF002E1CBF00223260404647F2EB
:101DD000D92204E046F62E6201E000BF00224D6CDD
:101DE0000280FEF74BFB2046FEF72EFA2846BDE8A0
:101DF000F08700002DE9F04381B044F21807C2F2E9
:101E000000073F7837B147F259151D8001B0BDE892
:101E1000F08300BF002946F2D52518BF002AF4D070
:101E20000E46904699460746FEF70AFA0446FEF724
:101E30000FFB44F2A430C2F200000568002F18BF67
:101E40003D46286860B1AF8FFEF718FB2046FEF7CD
:101E5000FBF9F80714D1002047F25415306008E070
:101E6000FEF70CFB2046FEF7EFF90020306047F24A
:101E700052154B46464630601D8001B0BDE8F083E8
:101E80006A6A002110684B4600283046464611D049
:101E90000160A86B0025401A30601D8001B0BDE8CC
:101EA000F08300BFBC686CB9FC686CB93F69043151
:101EB000002FEDD102EB81077C68002CF2D00131BC
:101EC000E6E700BF0231E3E70331E1E770B5DDF893
:101ED00010E0844602EB8E004FF0043240F8402DB3
:101EE00044F289424FF00236C0F60002C0E90936DA
:101EF00000F134034FF0807E4FF012344FF0033581
:101F000083E804504FF006324FF00533C0E90B541C
:101F10004FF0113C4FF00734C0E9013200F10C02E0
:101F20004FF0103E4FF009364FF0083582E8704010
:101F3000C0E907C170BD000043F64C72C2F2000256
:101F4000904225D044F22C02C2F20002904223D0EB
:101F500044F21802C2F200021278002A08BF02F00E
:101F60009BBB80B584B00022CDE90022029245F2ED
:101F70005432C5F25532034610468C4619460022AB
:101F80000023CDF80CC000F01FFB04B080BD00BFE3
:101F900047F25B100880704747F25C10088070477A
:101FA000B0B544F27850C2F200000068002818BFB3
:101FB0008047FEF7D1FA44F2A43544F2A832C2F2C7
:101FC0000005C2F2000229681268914207D0D1E9E7
:101FD0002634C31AC1F894302344C1F89C30C2F8A7
:101FE0009800FEF70FFA2968D1F8B420824238BF72
:101FF000C1F8B40044F2B020C2F20000D1F8B83009
:102000000268934238BFC1F8B82000210160B0BD1A
:102010002DE9F04144F21803C2F200031B782BB102
:1020200047F275201080BDE8F08100BF44F2A5277B
:10203000C2F200073B782BB146F663501080BDE832
:10204000F08100BF082961D8DFE801F00660066072
:1020500007606060060000BFB0B305460C469046BE
:10206000FEF7EEF80646FEF7F3F93878411C002833
:10207000397008BF01F030FDFEF700FA3046FEF778
:10208000E3F844F2A436C2F200063068012180F879
:10209000361029462246434602F072FBB8F800008B
:1020A000C0B1FEF7CDF80446FEF7D2F93878013812
:1020B0000106387008BF01F023FDFEF7DFF9204666
:1020C000BDE8F041FEF7C0B847F27E201080BDE8C1
:1020D000F08100BF306801F09DFCFEF7B1F80446C6
:1020E000FEF7B6F9387801380106387008BF01F0FC
:1020F00007FDFEF7C3F92046FEF7A6F8FFF796F8AE
:102100000020A8F80000BDE8F08100BF45F625607A
:102110001080BDE8F08100002DE9F04381B044F269
:102120001807C2F200073F78099C2FB147F27520CB
:10213000208001B0BDE8F08344F2A529C2F2000975
:1021400099F8006036B146F66350208001B0BDE8D2
:10215000F08300BF089E06F00E05082D16D8DFE8B4
:1021600005F00515051511151515050041EA0007BF
:1021700017431F4306D147F27E20208001B0BDE8FF
:10218000F08300BF6FF01E073E4205D045F6256084
:10219000208001B0BDE8F0830F2E09D942F21077FC
:1021A000B9420FD347F27920208001B0BDE8F08317
:1021B000B3F57A7F10D347F27B20208001B0BDE8D1
:1021C000F08300BFB0F57A7F12D347F278202080E9
:1021D00001B0BDE8F08300BF3C2A05D347F27A2066
:1021E000208001B0BDE8F0833C29DBD26428ECD22A
:1021F00045F22C27C0F600073F684FF4FA76B6FB8D
:10220000F7F6C1EB0111334444F6D3567B43C1F2D8
:102210006206A3FB06364FF46163584300EB81006E
:102220001044784300EB9616002EA4D0FEF708F871
:102230008046FEF70DF999F80000411C002889F846
:10224000001008BF01F048FCFEF718F94046FDF702
:10225000FBFF44F2A438C2F20008D8F800000121C4
:1022600080F8361031462A46234602F089FA208843
:10227000B0B1FDF7E5FF0446FEF7EAF899F8000073
:102280000138010689F8000008BF01F039FCFEF7AB
:10229000F5F8204601B0BDE8F043FDF7D5BF00BF1B
:1022A000D8F8000001F0B6FBFDF7CAFF0546FEF7BF
:1022B000CFF899F800000138010689F8000008BF3E
:1022C00001F01EFCFEF7DAF82846FDF7BDFFFEF729
:1022D000ADFF0020208001B0BDE8F0834EF2100178
:1022E0000138CEF200014860D1F8100D20F07F4097
:1022F000C1F8100D086840F005000860086840F05B
:1023000002000860704700007047000043F640710B
:10231000C2F2000100220A6043F64471C2F20001D9
:102320000A800280704700002DE9F04F81B0DDF88F
:1023300028901E4690460D460446FDF781FF07464D
:10234000FEF786F8B8F5004F06DAB8F1000F0BD0AB
:10235000B8F1010F0CD0ABE048F20100804507D086
:10236000B8F5004F40F0A480206A284302E000BF87
:10237000206AA8432062208A6662002800F08A80D2
:1023800044F2A52AC2F2000A9AF80000411C002873
:102390008AF8001008BF01F09FFBFEF76FF838467F
:1023A000FDF752FFA568AF68002F47D04FF0000B34
:1023B000B7F8880000F00F000138072800F2868087
:1023C0006D68DFE800F0050B83198383831300BF7A
:1023D000216AD7F8800008422CD113E0206AD7F890
:1023E000801031EA00000DD124E000BF206AD7F848
:1023F0008010084006D11DE0216AD7F88000014016
:10240000814217D1C7F8840097F83600A7F834B096
:10241000811F02293E6407D30238012807D83846B5
:1024200001F06AFF002000E0042087F836003846FB
:1024300000F040FD15B1AF68002FB9D1FDF700FFE6
:102440000546FEF705F89AF80000013801068AF8FB
:10245000000008BF01F054FBFEF710F82846FDF716
:10246000F3FE0FFA88F0002858BFFEF7DFFEFDF7F5
:10247000E7FE0546FDF7ECFF246AFDF7FFFF28465F
:10248000FDF7E2FE0020A9F80000204601B0BDE8FB
:10249000F08F00BFFDF7F2FF3846FDF7D5FE0020B4
:1024A000246AA9F80000204601B0BDE8F08F00BF03
:1024B000FDF7E4FF3846FDF7C7FE45F6256000242A
:1024C000A9F80000204601B0BDE8F08FFDF7B8FE86
:1024D0000446FDF7BDFF9AF80000013801068AF8AE
:1024E000000005D0FDF7CAFF2046FDF7ADFE0EE067
:1024F00001F006FB44F22000C2F200000588FDF75F
:10250000BDFF2046FDF7A0FE0DB101F0B9FA43F67C
:10251000FF20D4E743F6487544F2C826C2F200050E
:10252000C2F20006FDF78CFE0446FDF791FF286815
:10253000316801302860481C3060FDF79FFF20465D
:10254000FDF782FEFEF72CFDECE7000080B58AB0B7
:1025500045F2F01245F2F81143F6487CC0F600024D
:1025600045F2F413C0F60001C2F2000C1268C0F686
:102570000003D1F800E0002108901F201B68CCF870
:1025800000104FF00B0C8DE80D0043F64C7042F23A
:102590001552CDE90411CDE9061CC2F2000005A1D7
:1025A000C0F600020023CDF80CE0FFF7C7F80AB030
:1025B00080BD00BF75432F4F532D494949204964C1
:1025C0006C65205461736B002DE9F04F81B00746B4
:1025D0000D989B460090DDF830A0DDE90A9516467F
:1025E0000C46FDF72DFE8046FDF732FF44F2200039
:1025F00045F20022C2F20000C0F6000201881288F3
:10260000914239D244F2220CC2F2000CBCF80020F4
:102610004B1C038044F21C008A4298BFACF8003087
:10262000C2F2000001684A680F60026044F22410A0
:10263000C1E90246A1F810B0C1F814900D83C1F8A9
:102640001CA0C2F200000121018144F22C01C2F25F
:102650000001C0E900110020002401F05FF844F2FD
:102660001210C2F20000007878B144F21411C2F2E4
:1026700000010870002408E044F22800C2F20000C3
:10268000018844F253640131018000980480FDF711
:10269000F5FE404601B0BDE8F04FFDF7D5BD0000A6
:1026A00010B584B044F22404C2F20004D4F800C08F
:1026B00044F65311DCF80000C4F64331884221DCB3
:1026C00045F25331C4F24971884235DC44F253512A
:1026D000C4F24D11884267D044F64641C4F24171BC
:1026E000884240F08F80BCF81820DCF80800DCF845
:1026F0001410DCF81C300DF10E040094FFF714FEEA
:1027000004B010BD45F25331C5F2553188422FDC7B
:1027100044F65411C4F64331884251D045F2542155
:10272000C5F2453188426DD1DCF808000DF10E018B
:1027300001F02EFE04B010BD45F25431C4F24971CF
:10274000884261D044F65451C4F25371884259D141
:10275000BCF81020BCF81830DCE90201DCF81C40A1
:102760000DF10E0CCDE9004C01F012FD04B010BDCE
:1027700045F25431C5F25531884251D045F251519C
:10278000C5F2455188423DD1BCF81020BCF8183044
:10279000DCE90201DCF81C400DF10E0CCDE9004C27
:1027A00000F0F0FF04B010BDBCF81810DCF8080011
:1027B000DCF81C200DF10E0301F018FA04B010BD76
:1027C00044F21410C2F20000007844F2241100EB2D
:1027D0004000C2F2000101EB800001F0B5F9206871
:1027E0000DF10E03C26944F2BC30C2F200000021B8
:1027F00001F05AFE44F26050C2F200000168013953
:10280000016015D004B010BDBCF81810DCF8080049
:10281000DCF81C200DF10E0301F046FE04B010BDE3
:10282000DCF808000DF10E0101F036FF04B010BD18
:1028300044F25C51C2F2000109680160FDF78CFEB0
:10284000024644F28C40C2F200000DF10E0300215A
:1028500001F02AFE04B010BD44F2200544F2241811
:1028600044F2F40644F22407C2F20005C2F2000862
:102870004FF00009C2F20006C2F2000721E000BFDB
:10288000FDF7FCFD2046FDF7DFFCFDF765FE044685
:10289000FFF706FFFDF760FE3168001B814238BF7D
:1028A0003060FDF7CDFC0446FDF7D2FD386829887D
:1028B00040683860481E2880FDF7E0FD2046FDF79F
:1028C000C3FCFDF7BDFC0446FDF7C2FD28880028C7
:1028D000D6D10020A8F80890C8E9009900F030FF90
:1028E000FDF7CCFD2046FDF7AFFCFEF79FFCE8E7C7
:1028F00070B58AB045F2FC12C0F60002D2F800E0D2
:1029000044F22801C2F200010022BEF1000F0A8049
:102910000CD045F20021C0F600010D88012D0BD826
:1029200044F2546101800AB070BD00BF44F25261AC
:1029300001800AB070BD00BF44F2F40144F64E724B
:10294000C2F200010023C4F24E520B6005F0030CEA
:10295000042D714631D325F003047146002500BFD4
:102960000E4646F8202FC1E900260E4646F8402FB5
:10297000C1E909630E4604350B824B610B83C1E943
:1029800002330B864B630B87CB62C1E91233A1F88C
:1029900050304B65A1F8583046F8602FA9B2A142DB
:1029A00006F1200146F81C6C338273613383C6E95B
:1029B0000113F360D4D1A1F12004BCF1000F25D0A4
:1029C00001F120040025BCF1010F0D824D610D8342
:1029D00081E83400CD6001D10C4617E001F14003DD
:1029E00001F12006BCF1020F0D864D630D872CC648
:1029F000CD620BD001F160061C46A1F850504D6528
:102A0000A1F85850C1E91026C1E9125544F21C0141
:102A1000C2F20001C1F800E044F22401C2F2000158
:102A2000C1F800E044F22001C2F2000100220A8055
:102A300045F20421C0F60001096844F22203C2F203
:102A40000003C4F804E01A8081B145F20C2245F27B
:102A50002823C0F60002C0F6000312681B689A42E1
:102A60000AD244F2566101800AB070BD44F2556149
:102A700001800AB070BD00BF45F20823C0F6000314
:102A80001E68089003200023CDE90323079044F239
:102A90002C0042F65902CDE90031C2F2000005A136
:102AA000C0F60002CDE905330296FEF747FE0AB0F4
:102AB00070BD00BF75432F4F532D494949204953DD
:102AC00052205175657565205461736B00000000DC
:102AD00044F2F801C2F2000100220A6044F2FC0153
:102AE000C2F200010A800280704700002DE9F04127
:102AF00045F21021C0F60001D1F80080B8F1000FB6
:102B00006AD045F21421C0F60001B1F800E0BEF130
:102B1000000F67D0AEF101042104434649D0AEF165
:102B2000020189B204F0030C0329414623D34FF676
:102B3000FC7104EA010300244646002506F1400129
:102B4000374647F8301F324642F8207F3746043573
:102B500047F8102FAAB2C6E900743481F46074619A
:102B60003483F46174623485F46274633487F4638B
:102B70009A420E46E2D1BCF1000F0B4619D001F18A
:102B800010030024BCF1010FC1E900340C81CC60BA
:102B90000FD001F12003BCF1020FC1E904340C8312
:102BA000CC6106D001F130030022C1E908320A8568
:102BB000CA6244F200120021C2F20002C3E900110D
:102BC0001981D960C2F80080A2F804E0C2F80610AA
:102BD0000180BDE8F08100BF45F21E710180BDE8B3
:102BE000F08100BF45F21D710180BDE8F081000059
:102BF00001464089002808BF704780B544F20012A2
:102C0000C2F20002D2F800C0D1E9003EC3F800C011
:102C1000D388C2F800E0A3EB000C9388A2F806C0AA
:102C2000034493800022C1F80A20C1E90022BDE8D4
:102C30008040704701810021C0F80A10C0E90011EE
:102C4000704700002DE9F04144890689DDF81CC079
:102C5000B4421FD244F20015C2F20005AE88FEB1A4
:102C6000D5F800E0013EDEF80070AE802F60EF88FE
:102C7000B5F808807E1CB7B2B845EE8038BF2E810B
:102C8000A4B1DB061AD403680546C3F800E00023AC
:102C900017E000BF46F29350ACF80000BDE8F081A9
:102CA00045F21D70ACF80000BDE8F081012300245E
:102CB000C0E900EE4381CEF8004008E0054655F833
:102CC000043FC5F800E0CEF80030631C43818589DD
:102CD000069C9D4238BF83810020CEF80410AEF8D8
:102CE0000820CEF80C40ACF80000BDE8F0810000F0
:102CF00044F20C11C2F2000100220A6044F21011E9
:102D0000C2F200010A800280704700002DE9F04104
:102D100082B044F2A438C2F20008D8F80060054638
:102D20000C46002086F8342086F8350073B10DF18A
:102D3000060C3046194602226346022701F020FDA8
:102D4000BDF8060020B186F8367004E0022000E0ED
:102D5000032086F8360096F83700D6E9032344F2BC
:102D6000241700EB4001C2F2000707EB81014BB1D1
:102D70000889002AA0F101000881DA6014BF1361FC
:102D80004B600DE032B108890A60013808810020EB
:102D9000106105E000220A81C1E9002200F0D0FCA8
:102DA0000020F0603061DCB3D8F80010C5E9000005
:102DB000C5E904002883E861208A01220028EC602C
:102DC000CA870D63A9603FD091F83720A168013010
:102DD0002082F1B104F108008B6893F837309A42F1
:102DE0004ED34968A9B18B6893F837309A4247D3DC
:102DF000496871B18B6893F837309A4240D349687B
:102E000039B18B6893F837309A4239D34968002931
:102E1000E2D1204650F80C1F29604D603CE000BF15
:102E2000D8F8001091F83420C887072A086313D017
:102E3000022A1BD145F26820C0F60000C1F8C40088
:102E400002B0BDE8F08100BF002022822860A560AA
:102E500004F10C0020E000BF45F26F20C0F6000036
:102E6000C1F8C40002B0BDE8F08100BF45F26620A1
:102E7000C0F60000C1F8C40002B0BDE8F08100BF98
:102E80000A682AB10846C5E90021556004E000BF80
:102E900000220D60C5E900210560D4E90101D8F8E0
:102EA00000208968C2F8C400096AE16102B0BDE887
:102EB000F0810000C28F002A00F07E80B0B5036B65
:102EC00012F0030C0AD0D968B1F810E0BEF1010F7E
:102ED00008D100248C60CC600FE000BF9446042A27
:102EE00068D36DE0D3E9004524B13DB365602C6043
:102EF00003E000BF00242C608D60AEF101050D825F
:102F00000021BCF1010F1960596005D12033A2F1F5
:102F1000010C042A4ED353E0D96AB1F810E0BEF197
:102F2000010F03D100248C60CC600EE0D3E908458A
:102F300044B16DB365602C6007E000BF002565609B
:102F4000C9E700BF00242C608D60AEF101050D8241
:102F50000021BCF1020F1962596205D14033A2F180
:102F6000020C042A26D32BE0D96CB1F810C0BCF1B6
:102F7000010F03D100258D60CD6010E0D3E910541E
:102F800055B1002C00F09E806C60256007E000BF0A
:102F900000256560C8E700BF002525608C60ACF1A6
:102FA00001050D820021C3E910116033A2F1030C69
:102FB000042A05D2BDE8B0400021C18701637047F3
:102FC00003F16C024FF0000E0DE000BFC1E902EE0C
:102FD000013BACF1040C0B8242E903EE5FEA0C41C9
:102FE00002F18002E6D052F8603C198A012903D12F
:102FF000C3E902EE10E000BF52E91B4544B1002DC9
:1030000019BF65602C60C4F804E0DC6004E000BF18
:10301000C5F800E09D6000BF4C1E52F8401C1C82A9
:103020000B8A42F86CEC012B42F868EC02D1C1E942
:1030300002EE0FE052E9134524B13DB165602C600A
:1030400008E000BFC5F800E08D6003E0C4F804E0CC
:10305000CC6000BF5C1E52F8203C0C82198A42F8FA
:103060004CEC012942F848EC02D1C3E902EE0FE032
:1030700052E90B4524B13DB165602C6008E000BF0A
:10308000C5F800E09D6003E0C4F804E0DC6000BF28
:103090004C1E11681C820B8A42F82CEC012B42F862
:1030A00028EC3FF493AF52E903451CB135B165609C
:1030B0002C608DE7C5F800E08D6089E7C4F804E076
:1030C000CC6085E700246C6056E700002DE9F041F4
:1030D0000C4691F83610DDF818C08F1F022F80467D
:1030E00026D3881E012888BFBDE8F08194F83400FB
:1030F000032843D1E18F002957D0206BC768B8451A
:103100004DD08DB2012D50D0C76AB84542D0022DA6
:103110004BD0C76CB8453FD0032D46D0C76EB845DD
:103120003CD004390F0400F18000E7D13DE000BF3E
:1031300094F83400032827D1E18F002900F08D8016
:10314000206BC768B84500F082808DB2012D00F079
:103150008480C76AB84575D0022D00F07E80C76CA8
:10316000B84571D0032D00F07880C76EB8456DD09A
:1031700004390F0400F18000E3D16EE004F1400057
:10318000E265A4F860300EE004F14000E265A4F8C6
:10319000603060E0203002E0403000E06030C0E9A4
:1031A000048203831C30C0F800C0B8F1000F00F0A7
:1031B0001981E18F002900F00581226B11F0030CC9
:1031C00008D0D3681D8A012D06D100209860D860F0
:1031D00013E000BF0846F3E0D2E9000E40B1BEF1B3
:1031E000000F2BD0C0F804E0CEF8000005E000BFCF
:1031F0000020CEF80000C3F808E0681E1882002006
:10320000BCF1010F1060506002D12032481ED7E09F
:10321000D36A1D8A012D03D19860D8606BE000BF8E
:10322000D2E9080E002861D0BEF1000F00F0AA809C
:10323000C0F804E0CEF800005DE000BF0027476062
:10324000C5E700BF203002E0403000E06030C0E958
:10325000048203831C30C0F800C0204601F036FB16
:10326000B8F1000F00F09C81E18F002900F0888107
:10327000226B11F0030C07D0D3681D8A012D05D1F4
:1032800000209860D86012E0084677E1D2E9000E8D
:1032900040B1BEF1000F4DD0C0F804E0CEF8000000
:1032A00005E000BF0020CEF80000C3F808E0681E6B
:1032B00018820020BCF1010F1060506002D1203252
:1032C000481E5BE1D36A1D8A012D03D19860D86046
:1032D00039E000BFD2E9080E80B3BEF1000F5BD029
:1032E000C0F804E0CEF800002DE000BF0020CEF8CA
:1032F0000000C3F808E0681E18820020BCF1020F2D
:103300001062506202D14032881E59E0D06C038AAC
:10331000012B03D10027C0E902774AE0D2E9105C13
:10332000A5B3BCF1000F41D0C5F804C0CCF80050E3
:103330003FE000BF00274760A4E700BF0020CEF8B1
:103340000000C3F808E0681E18820020BCF1020FDC
:103350001062506202D14032881E0FE1D06C038AA5
:10336000012B03D10027C0E9027700E1D2E9105C0C
:10337000B5B1BCF1000F00F0F780C5F804C0CCF87F
:103380000050F4E00027476047E700BF0027CCF873
:103390000070C0F808C00CE00027476097E700BF46
:1033A0000027CCF80070C0F808C0E0E000276F608C
:1033B000C560013B03820020C2E910006032C81ED4
:1033C000042943D20020D8F80810E087206345F292
:1033D0006620C0F60000C4F8C40009B18868006A1D
:1033E000C8F81C00204601F071FA94F83600400736
:1033F00000F1B38094F8370000F090F994F837109A
:1034000044F21210C2F2000044F22412037801EBDD
:103410004100C2F2000202EB8000028999420DD104
:10342000002A00F1040500F087802968002301329A
:10343000E36001F10C0310268BE000BF002A00F0CE
:1034400081800168013201F110037EE002F16C011C
:1034500000220AE0C3E902226F1E04381F8241E9FC
:103460000322030401F18001ACD051F8605C2B8A87
:10347000012B03D1C5E902220CE000BF51E91B6713
:1034800036B1002F19BF77603E607260EE6001E0D8
:103490003A60AF605F1E51F8403C2F821D8A41F8B0
:1034A0006C2C012D41F8682C02D1C3E902220DE0F9
:1034B00051E9137627B13EB17E60376006E000BF68
:1034C00032609E6002E000BF7A60DF606F1E51F8DC
:1034D000205C1F822B8A41F84C2C012B41F8482C90
:1034E00002D1C5E902220DE051E90B7627B13EB1C8
:1034F0007E60376006E000BF3260AE6002E000BF71
:103500007A60EF605F1E0B682F821D8A41F82C2CB9
:10351000012D41F8282C9DD051E9037627B13EB109
:103520007E60376098E700BF32609E6094E700BF1E
:103530007A60DF6090E700BF0021E1601026012281
:10354000034606E0031D0021012200270C26054644
:1035500027611C600281A1512C60002084F8360094
:103560000020A086BDE8F08100276F60C560013BA8
:1035700003820020C2E910006032C81E042917D25D
:103580000020D8F80810E087206345F26620C0F6D6
:103590000000C4F8C40009B18868006AC8F81C00BB
:1035A000042084F836000020A086BDE8F08100BF2A
:1035B00002F16C0100220AE0C3E902226F1E043806
:1035C0001F8241E90322030401F18001D8D051F8A0
:1035D000605C2B8A012B03D1C5E902220CE000BFFD
:1035E00051E91B7637B1002E19BF7E6037607A60D3
:1035F000EF6001E03260AE605F1E51F8403C2F8208
:103600001D8A41F86C2C012D41F8682C02D1C3E9C8
:1036100002220DE051E9137627B13EB17E6037609A
:1036200006E000BF32609E6002E000BF7A60DF60AB
:103630006F1E51F8205C1F822B8A41F84C2C012B05
:1036400041F8482C02D1C5E902220DE051E90B7680
:1036500027B13EB17E60376006E000BF3260AE60E9
:1036600002E000BF7A60EF605F1E0B682F821D8A48
:1036700041F82C2C012D41F8282C9DD051E90376DE
:1036800027B13EB17E60376098E700BF32609E6030
:1036900094E700BF7A60DF6090E7000010B544F265
:1036A0001811C2F20001086830B10024FCF7D3FD04
:1036B0002044C0B210BD00BF083100246FF07F026B
:1036C00051F8040C50B9086880B94868B0B98868E6
:1036D0005440002801F11001F2D0E7E744F0200443
:1036E000FCF7B9FD2044C0B210BD00BF44F0400457
:1036F000FCF7B1FD2044C0B210BD00BF44F060042F
:10370000FCF7A9FD2044C0B210BD000044F218101F
:10371000C2F2000000210160704700001F2144F246
:1037200018138143C0F34210C2F200034FF0010CA2
:1037300053F820200CFA01F1114343F82010704790
:103740001F2144F218138143C0F34210C2F2000358
:103750004FF0010C53F820200CFA01F122EA01018C
:1037600043F820107047000044F21C11C2F200011F
:1037700000220A6044F22011C2F200010A80028095
:10378000704700002DE9F04F83B00293DDE90C840F
:1037900091460E460746FCF753FD8346FCF758FE5C
:1037A00044F2A52AC2F2000A9AF80000411C00283F
:1037B0008AF8001008BF00F08FF9FCF75FFE58464A
:1037C000FCF742FD3D8A8DB30298A346800558BFA1
:1037D0000125BC68A1686468384632464B46CDF87E
:1037E0000080FFF773FC013D2804F3D1FCF728FDAE
:1037F0000446FCF72DFE9AF80000013801068AF80D
:10380000000008BF00F07CF9FCF738FE2046FCF70A
:103810001BFD029800B2002858BFFDF707FD0020ED
:10382000ABF8000003B0BDE8F08F00BF029907F1CC
:10383000200001F0100331464A46CDE90084FFF72D
:1038400001FAFCF7FDFC0446FCF702FE9AF80000C2
:10385000013801068AF8000008D0FCF70FFE204668
:1038600003B0BDE8F04FFCF7EFBC00BF00F048F933
:1038700044F22000C2F200000588FCF7FFFD20465C
:10388000FCF7E2FC002DCDD003B0BDE8F04F00F016
:10389000F7B8000044F22410C2F2000000210181B8
:1038A000C0E900118182C0E903110184C0E9061159
:1038B0008185C0E909110187C0E90C11A0F8441005
:1038C000C0E90F11A0F85010C0E91211A0F85C1067
:1038D000C0E91511A0F86810C0E91811A0F874101B
:1038E000C0E91B11A0F88010C0E91E11A0F88C10CF
:1038F000C0E92111A0F89810C0E92411A0F8A41083
:10390000C0E92711A0F8B010C0E92A11A0F8BC1036
:10391000C0E92D11A0F8C810C0E93011A0F8D410EA
:10392000C0E93311A0F8E010C0E93611A0F8EC109E
:10393000C0E93911A0F8F810C0E93C11A0F8041151
:10394000C0E93F11A0F81011C0E94211A0F81C1104
:10395000C0E94511A0F82811C0E94811A0F83411B8
:10396000C0E94B11A0F84011C0E94E11A0F84C116C
:10397000C0E95111A0F85811C0E95411A0F8641120
:10398000C0E95711A0F87011C0E95A11A0F87C11D4
:10399000C0E95D117047000090F8371044F224121E
:1039A00001EB4101C2F2000202EB81010A894AB136
:1039B00051F8043F01328A800022C0E90323D86015
:1039C0000860704701220A810022C0E903220860D2
:1039D00041F8040F704700000189022938BF704781
:1039E0000AD1D0E900120023C1E90332C2E903136E
:1039F000C0E90021704700BFD0E900124FF0000C71
:103A0000CB68C3F810C0C1E903C2D160C0E900317E
:103A10007047000010B590F837C0D0E9033144F288
:103A200024140CEB4C02C2F2000404EB820269B1D4
:103A30001489002BA4F101041481CB6014BF196117
:103A400051600021C0E9031110BD00BF53B11189BD
:103A5000136001391181002119610021C0E90311AE
:103A600010BD00BF0021044660461181C2E900116B
:103A7000FFF766FE20460021C0E9031110BD0000DB
:103A800080B5FCF7DDFB44F21311C2F20001002205
:103A90000A7044F22C02C2F2000244F2A831D2F8B9
:103AA000903044F2AC3CC2F20001C2F2000C0A6059
:103AB000591CDCF80030C2F89010591CCCF80010EA
:103AC0004EF60451CEF200014FF080520A60BDE87C
:103AD0008040FCF7B9BB000044F2A520C2F2000010
:103AE0000078012818BF704780B5FCF735FD44F217
:103AF000A821C2F200010860BDE8804070470000C4
:103B000044F2A520C2F200000078002818BF7047D8
:103B100080B5FCF721FD44F2A821C2F200010A6839
:103B200044F2AC21C2F200010B68801A8342BDE866
:103B3000804038BF086044F2B021C2F200010A6838
:103B4000824238BF0860704744F2B821C2F20001D7
:103B50000978012918BF7047B0B50546FCF770FB1E
:103B60000446FCF775FC286850B143F64C71C2F26C
:103B70000001884204D0816D51B10139816507D0BF
:103B8000FCF77CFC2046BDE8B040FCF75DBB00BF05
:103B900028890228F4D344F2A520C2F2000000785C
:103BA0000028EDD12846FFF717FF286844F2B42219
:103BB000416DC2F200021268002918BF0A468265F0
:103BC000FCF75CFC2046BDE8B040FCF73DBB0000C4
:103BD00044F2BC21C2F2000100220A6044F2C0217A
:103BE000C2F200010A800280704700002DE9F04710
:103BF00082B09846164689460746FCF721FB0546E3
:103C0000FCF726FC388AB8B144F2A52AC2F2000AB1
:103C10009AF80000411C00288AF8001008BFFFF73E
:103C20005BFFFCF72BFC2846FCF70EFB5FEA895094
:103C300014D4012414E000BF386A441C38D3FCF7C4
:103C40001DFC2846FCF700FB002446F6C551204623
:103C5000A8F8001002B0BDE8F08700BF3C8A64B14C
:103C6000BD6800BFA9686D68384600220023009631
:103C7000FFF72CFA013C2004F4D13C6AFCF7E0FA8F
:103C80000546FCF7E5FB9AF80000013801068AF8C2
:103C9000000008BFFFF734FFFCF7F0FB2846FCF7F5
:103CA000D3FA0FFA89F0002858BFFDF7BFFA06E0F3
:103CB000C7E90846FCF7E2FB2846FCF7C5FA0021F5
:103CC0002046A8F8001002B0BDE8F08784B044F2A6
:103CD000D427C2F2000745F218213878C0F6000157
:103CE0000E6801280AD074000DF10E05204600214F
:103CF0002A46FEF78DF938780128F7D10DF10E0428
:103D00002046FDF715FC45F22C20C0F600000068A7
:103D100044F2A528B04298BF0A26B0FBF6F04FF057
:103D2000000A42F2107BC2F20008019015E000BFC9
:103D3000FCF712FC44F2A031C2F20001029A0968B9
:103D4000801A81423EBF44F2A031C2F200010860F5
:103D5000019800212246FEF75BF9FCF7FDFB0646C1
:103D6000FCF766FB44F21401C2F200010860FCF7A4
:103D700067FA0746FCF76CFB44F2C821C2F2000167
:103D8000086844F2D025C2F200052860C1F800A0FE
:103D9000FCF774FB3846FCF757FA44F2CC20C2F229
:103DA0000000006829680296884209D941F68022FD
:103DB000C0F2060290420BD2012342F2107229E0B7
:103DC00044F2C420C2F20000A0F800B03BE000BF03
:103DD00040F60012C0F23D02904203D20A234FF493
:103DE0007A7217E045F60022C0F26222904203D2B6
:103DF000642264230EE000BF48F20042C1F2D77291
:103E000090424FF0010242F2107338BF0A2238BFCD
:103E10004FF47A73B0FBF3F05143B1FBF0F044F28E
:103E2000C621C2F20001ABEB0000098882B29142C8
:103E300044F2C421C2F20001088004D244F2C62137
:103E4000C2F200010880FDF76FFCFCF7F9F90746A4
:103E5000FCF7FEFA44F2B030C2F200000668FCF74C
:103E60000DFB3846FCF7F0F9002E59D0002514E080
:103E7000FCF704FB3846FCF7E7F9D6F8A000054448
:103E8000FCF7DEF90746FCF7E3FAD6F8C060FCF76A
:103E9000F5FA3846FCF7D8F9B6B3FCF7D1F907467E
:103EA000FCF7D6FA98F80000411C002888F80010AA
:103EB00008BFFFF711FEFCF7E1FA3846FCF7C4F93A
:103EC000D6F89C00C6E927A0FCF7BAF90746FCF72C
:103ED000BFFA98F800000138010688F80000C7D141
:103EE000FFF70EFE44F22000C2F20000A146048853
:103EF000FCF7C4FA3846FCF7A7F9002C4C46BCD0B6
:103F0000FFF7BEFDB9E700BF55B141F68020C0F212
:103F10000600854208D2012042F2107626E000BF5A
:103F20004FF00109002623E040F60010C0F23D00EA
:103F3000854203D20A204FF47A7617E045F6002036
:103F4000C0F26220854203D2642664200EE000BFE6
:103F500048F20040C1F2D77085424FF0010642F2AC
:103F6000107038BF0A2638BF4FF47A70B5FBF0F9ED
:103F7000FCF766F90546FCF76BFA44F2B030C2F282
:103F800000000768FCF77AFA2846FCF75DF91FB3D2
:103F9000D7F8A00023467043B0FBF9F081B2594531
:103FA00088BF42F21070B7F88E1082B29142A7F823
:103FB0008C0038BFA7F88E0007F1B00107F1AC0202
:103FC0003846FDF717FFFCF73BF90546FCF740FACA
:103FD000D7F8C070D6E700BF44F2C220C2F200009A
:103FE000007801287FF4A4AE44F2C220C2F200009F
:103FF00080F800A02046FDF79BFA99E644F2C8211C
:10400000C2F2000100220A6044F2D021C2F2000193
:104010000A6044F2CC21C2F200010A6044F2D421C9
:10402000C2F200010A7045F21C21C0F600010968C5
:1040300044F2C223C2F2000300291A703ED045F2B6
:10404000242245F22823C0F60002C0F600031268BD
:104050001B689A423EBF46F62C610180704745F2CC
:104060001623C0F6000393F800C0BCF11F0F22BF57
:1040700046F62A610180704780B58AB045F2202358
:10408000C0F600031B6808900020CDE90232CDE99C
:104090000400069044F2D82043F6CD424FF0030EC0
:1040A000CDE900C1C2F2000006A1C0F60002002363
:1040B000CDF81CE0FDF742FB0AB080BD46F62B614F
:1040C0000180704775432F4F532D49494920537440
:1040D0006174205461736B0044F2B031C2F200018C
:1040E00000220A6044F2B431C2F200010A8044F2B4
:1040F000AC31C2F200010A6002807047B0B545F2EF
:10410000782104460025C0F60001C0E90055C0E949
:104110000255C0E90455C0E90655C5870564C56563
:10412000A0F860506430C4E908150021C4E90A55BC
:104130002563FEF77FFD4FF00040A563A587C4E926
:104140001D55C4E91F55C4F88450C4F88750C4E90C
:104150002955C4E92B55C4E91150C4E91355C4E9E4
:104160001555C4E92355C4F89450FCF7F5F9C4E992
:1041700026054FF00050606345F26620C0F600004F
:10418000C4E92D55C4E92F55C4F8C400B0BD0000E2
:104190002DE9F04F83B0DDE90CB5984692460E4606
:1041A0000746FCF74DF80446FCF752F944F2A529FE
:1041B000C2F2000999F80000411C002889F800109B
:1041C00008BFFFF789FCFCF759F92046FCF73CF8DB
:1041D00044F2A430C2F200000168002F18BF394633
:1041E00091F83600002207282A805DD8012202FAC1
:1041F00000F010F0330F27D191F83400022823D1BA
:10420000002032465346CDF800B0FEF75FFFFCF7C2
:1042100017F80446FCF71CF999F80000013801066C
:1042200089F8000008BFFFF76BFCFCF727F9204670
:10423000FCF70AF80FFA88F0002859D403B0BDE85B
:10424000F04FFCF7F3BF00BF01F164003146524666
:104250004346CDE900B5FEF7F5FCFBF7F1FF044658
:10426000FCF7F6F899F800000138010689F800001B
:1042700008D0FCF703F9204603B0BDE8F04FFBF788
:10428000E3BF00BFFFF73CFC44F22000C2F2000095
:104290000588FCF7F3F82046FBF7D6FF45B303B0DB
:1042A000BDE8F04FFFF7ECBBFBF7CAFF0446FCF795
:1042B000CFF899F800000138010689F8000005D010
:1042C000FCF7DCF82046FBF7BFFF0EE0FFF718FC19
:1042D00044F22000C2F200000688FCF7CFF8204626
:1042E000FBF7B2FF0EB1FFF7CBFB46F62D6028803F
:1042F00003B0BDE8F08F000010B5044600F0E6FA08
:1043000094F83600400748BF10BD94F83700FFF717
:1043100005FA94F8371044F21210C2F2000044F289
:104320002413027801EB4100C2F2000303EB80008A
:10433000038991420CD100F104028BB1116803F1A1
:10434000010C0023E36001F10C0E102319E000BF03
:1043500073B1016803F1010C01F1100E0DE000BF13
:104360000021E16010234FF0010C864609E000BFF8
:1043700000F1040E00214FF0010C002222610C23F9
:104380000246CEF80040A0F808C0E150146010BD0D
:1043900070B50E460546FBF753FF0446FCF758F888
:1043A00095F8360000210728318063D8DFE800F057
:1043B0000404040410444E3AFCF760F82046FBF76E
:1043C00043FF47F253103080BDE87040FCF72EBF2A
:1043D00044F2A526C2F200063078411C0028317054
:1043E00008BFFFF779FBFCF749F82046FBF72CFFE5
:1043F00095F88A000138010685F88A0005D1002069
:1044000085F836002846FFF777FFFBF719FF0446CB
:10441000FCF71EF8307801380106307008BFFFF74E
:104420006FFB1DE095F88A000138010685F88A00C7
:1044300016D1032012E000BF95F88A00013801066A
:1044400085F88A000CD1012008E000BF95F88A00A9
:104450000138010685F88A0002D1022085F836006D
:10446000FCF70CF82046FBF7EFFEBDE87040FCF7C8
:10447000DDBE00BFFCF702F82046FBF7E5FE46F67E
:104480002D60308070BD000080B582B044F2A43051
:10449000C2F200000068FDF7C9FB0DF10601002023
:1044A000FDF75CFA02B080BD2DE9F04381B099467A
:1044B000154688460646FBF7C3FE0746FBF7C8FFCE
:1044C00044F2A524C2F200042078411C0028217087
:1044D00008BFFFF701FBFBF7D1FF3846FBF7B4FE3F
:1044E00044F2A430C2F200000768002E18BF37461D
:1044F00097F8360000210728A9F800103D6400F263
:104500008D80012101FA00F010F0330F20D0786C7B
:10451000451C48D27D64FBF793FE0646FBF798FFE7
:1045200020780138010620706FD1FFF7E9FA44F2D4
:104530002000C2F200000488FBF7A0FF3046FBF722
:1045400083FE0CB1FFF79CFA284601B0BDE8F0836A
:1045500097F83400072823D1002039460022002391
:104560000095FEF7B3FD7D6CFBF76AFE0646FBF790
:104570006FFF207801380106207008BFFFF7C0FAEE
:10458000FBF77CFF3046FBF75FFE0FFA88F0002850
:10459000DAD4FCF74BFE284601B0BDE8F08300BF3B
:1045A000786C451C26D3FBF74BFE0546FBF750FF06
:1045B000207801380106207008D0FBF75FFF2846FD
:1045C000FBF742FE46F6C5505FE000BFFFF798FAE2
:1045D00044F22000C2F200000488FBF74FFF284697
:1045E000FBF732FE002CEDD0FFF74AFA46F6C55035
:1045F0004BE000BF7D64FBF723FE0646FBF728FF78
:10460000207801380106207018D0FBF737FF3046BC
:10461000FBF71AFE284601B0BDE8F083FBF710FE59
:104620000546FBF715FF20780138010620701BD0E6
:10463000FBF724FF2846FBF707FE24E0FFF760FAAC
:1046400044F22000C2F200000488FBF717FF304656
:10465000FBF7FAFD002C3FF477AFFFF711FA28467D
:1046600001B0BDE8F08300BFFFF74AFA44F2200032
:10467000C2F200000488FBF701FF2846FBF7E4FDC7
:104680000CB1FFF7FDF946F62D600025A9F80000F2
:10469000284601B0BDE8F083F0B581B00E4605466E
:1046A000FBF7CEFD0446FBF7D3FE44F2A430C2F282
:1046B00000000068002D44F2A52708BF054685428A
:1046C000C2F200070CD1387850B1FBF7D7FE204674
:1046D000FBF7BAFD46F66350308001B0F0BD00BF75
:1046E00095F836000021072831803FD8DFE800F038
:1046F0000C2E080A0404040495F88A00013029E00D
:10470000062024E0072022E03878411C0028397078
:1047100008BFFFF7E1F9FBF7B1FE2046FBF794FD78
:10472000042085F83600012085F88A002846FFF726
:1047300071F9FBF785FD0446FBF78AFE38780138EE
:104740000106387008D1FFF7DBF905E0052085F890
:104750003600012085F88A00FBF790FE2046FBF723
:1047600073FD01B0BDE8F040FCF760BDFBF786FECD
:104770002046FBF769FD46F62D60308001B0F0BDA4
:10478000B0B5042A0ED144F2B832C2F20002126867
:104790004FF6FE7C8D1A05EB0C04644516D9C0E972
:1047A000131528E091B1082A1CD144F2B832C2F2A4
:1047B0000002856C12680D44D4432C448C4228BFFF
:1047C0005518A91AC0E91255016513E04FF0000E03
:1047D000C0F84CE0C0F850E047F27E21C0F81CE081
:1047E0001980B0BD44F2B832C2F200021268551806
:1047F000C0E91351294645F24025C0F600052D8831
:10480000B1FBF5F404FB151143F63045C2F2000587
:1048100005EBC10EBEF804C0BCF1000F2ED0DEF8CF
:104820000010002942D0CC6CA41A0C65056DA5427D
:104830002DD94C690D46DCB1E16C891A2165056DF5
:104840008D4223D96169254691B1CC6CA41A0C65BF
:10485000056DA5421BD94C690D464CB1E16C891A16
:104860002165056D8D4211D9616925460029DAD18E
:10487000002105F11402C0E9051516E00021C0E988
:104880000511CEF80000012112E000BF21460A46C2
:1048900052F8184F24B1C0E90514606105E000BF6B
:1048A0000022C0E905128861724610600CF1010116
:1048B000BEF806208DB2AA42AEF8041038BFAEF89A
:1048C00006100021C0F81CE01980B0BDC1690029A4
:1048D00008BF70470A6800238242036506D0D0E90A
:1048E00005235A613AB1936105E000BF4269002A8D
:1048F0000A6018BF93618B880022C0E90522C2615B
:10490000C264581E8880704745F24020C0F60000FF
:104910000088002808BF704780B543F6304E00F08D
:10492000030C00220428C2F2000E4FF000030AD349
:1049300020F003000EEBC30104339842CA80CA8101
:10494000CA82CA83F6D1BCF1000F0BD00EEBC300B4
:104950000021BCF1010FC18004D0BCF1020FC18164
:1049600018BFC182BDE88040704700002DE9F04FBC
:1049700081B0FBF765FC0446FBF76AFD44F2A5280D
:10498000C2F2000898F80000411C002888F80010C6
:1049900008BFFFF7A1F8FBF771FD2046FBF754FCB9
:1049A000FBF7DAFD44F2B837C2F2000745F24022C5
:1049B0003968C0F6000212880131B1FBF2F381467A
:1049C00003FB121243F63043C2F2000353F8326085
:1049D0003960002E00F0888000244FF4407A4FF0B8
:1049E000040B13E0D5E905120029516118BF8A6153
:1049F0008188C5E905440139EC61EC64818085F862
:104A000036B0A5F834A0002E00F06E8096F836007F
:104A10003546766901380628F5D8DFE800F0070545
:104A2000270513053B0000BFEDE700BFE86C3968C0
:104A3000401A286558D1284685F83640FFF75CFCB7
:104A4000E1E700BFE86C3968401A28654CD1E86995
:104A500085F836B00028D6D001682C65A94237D039
:104A6000A969002E4E6118BFB16135E0E86C396864
:104A7000401A286538D1EC65A5F86040FBF76CFD5D
:104A800028642846FEF716FA2846FFF735FC85F815
:104A90003640B6E7E86C3968401A286524D1EC65E1
:104AA000A5F86040FBF758FD28642846FEF702FA97
:104AB000E8690028A3D001682C65A9427FF492AF71
:104AC0006969002901603FF493AF00228A618FE792
:104AD00006600EB10021B1618188C5E90544013944
:104AE000EC61EC6481808EE7FBF736FD44F2844193
:104AF000C2F200010A68A0EB0900824238BF0860D8
:104B0000FBF79EFB0446FBF7A3FC98F80000013876
:104B1000010688F8000007D0FBF7B0FC204601B082
:104B2000BDE8F04FFBF790BBFEF7EAFF44F2200030
:104B3000C2F200000588FBF7A1FC2046FBF784FBCE
:104B400025B101B0BDE8F04FFEF79ABF01B0BDE856
:104B5000F08F000082B044F2A4266C460DF10605E9
:104B6000C2F200060020002122462B46FDF768F81D
:104B7000BDF806000028F5D130780128F2D1FFF702
:104B8000F5FEEFE710B58AB0044644F2B830C2F241
:104B900000000021016045F24020C0F600000088BE
:104BA00044F28442C2F20002116030B1C10043F607
:104BB0003040C2F20000FBF77BFB45F23420C0F628
:104BC0000000006880B145F23C2145F22822C0F681
:104BD0000001C0F600020968126891420AD247F249
:104BE000132020800AB010BD47F2122020800AB0A6
:104BF00010BD00BF45F23022C0F6000212781F2A15
:104C000004D347F2112020800AB010BD45F23823AA
:104C1000C0F600031B68CDE9002044F2BC3044F626
:104C2000553208944FF00B0C0024CDE90231C2F24A
:104C3000000006A1C0F600020023CDE9044406945A
:104C4000CDF81CC0FCF77AFD0AB010BD75432F4F9C
:104C5000532D494949205469636B205461736B009B
:104C600010B58AB0044644F28840C2F20000002128
:104C7000016045F24420C0F6000045F22C22006895
:104C8000C0F600021268002808BF0A20B2FBF0F04C
:104C900044F25C52C2F20002106044F26052C2F26E
:104CA0000002106044F25850C2F20000016045F268
:104CB0005420C0F60000008844F25452C2F20002B0
:104CC000116030B1C10043F6B860C2F20000FBF7DA
:104CD000EFFA45F24820C0F60000006880B145F2C6
:104CE000502145F22822C0F60001C0F600020968F2
:104CF000126891420AD247F2483020800AB010BDB3
:104D000047F2473020800AB010BD00BF45F2422272
:104D1000C0F6000212781F2A04D347F246302080E2
:104D20000AB010BD45F24C23C0F600031B68CDE964
:104D3000002044F28C4044F6E15208944FF00B0CF2
:104D40000024CDE90231C2F2000006A1C0F6000243
:104D50000023CDE904440694CDF81CC0FCF7EEFC1A
:104D60000AB010BD75432F4F532D4949492054694E
:104D70006D6572205461736B0000000045F2542091
:104D8000C0F600000088002808BF704780B543F6D1
:104D9000B86E00F0030C00220428C2F2000E4FF09F
:104DA00000030AD320F003000EEBC3010433984242
:104DB000CA80CA81CA82CA83F6D1BCF1000F0BD067
:104DC0000EEBC3000021BCF1010FC18004D0BCF187
:104DD000020FC18118BFC182BDE88040704700004A
:104DE00084B045F25420C0F60000078844F2585AB7
:104DF00043F6B8664FF000080DF10E05C2F2000A46
:104E0000C2F200064FF0030B11E000BFFBF7A4FB5A
:104E100001990DF10E05441A2846FCF7BDFA44F23B
:104E20005451C2F200010868A04238BF0C60002053
:104E3000002102AA2B46FCF703FF2846FCF73CFAA8
:104E4000FBF78AFBDAF8001001900131B1FBF7F2B1
:104E5000CAF8001002FB171256F83220002AD5D0EB
:104E6000104603E0B9F1000F4846CFD08169DAF867
:104E700000408C42CAD1B4FBF7F1D0F8109001FB8E
:104E8000174156F83120824206EBC10208D0416931
:104E9000B9F1000FC1F8109018BFC9F8141007E05D
:104EA000B9F1000FC2F8009002D00021C9F8141027
:104EB0009188038D0139022BC0E90488918039D192
:104EC000416A0A19B2FBF7F3826103FB172302223E
:104ED00056F8335080F82A2006EBC30285B3C1612F
:104EE000A969091BE961C3698B4230D92B6929463D
:104EF000DBB19969091BD961C5698D4226D91D6944
:104F0000194695B1A969091BE961C3698B421ED98C
:104F10002B6929464BB19969091BD961C5698D4235
:104F200014D91D691946002DDAD101F11003C0E929
:104F3000048119E080F82AB0826812BB92E700BFB2
:104F4000C0F814801060012111E000BF1D462B46FF
:104F500053F8141F21B1C0E90451086104E000BFF7
:104F6000C0E9045868611346918818600131D388FC
:104F70008DB29180AB4238BFD1808268002A3FF465
:104F800071AFC16890476DE770470000704700003F
:104F9000FEE7000084B041F60044C4F20104FBF7D0
:104FA000EBF9FBF7F9F9FBF7D3FF0DF10E052846F6
:104FB000FCF74AFBFBF726FA002600BF204601213A
:104FC0000022FBF7C5FB0020002100224FF4FA73FA
:104FD000CDE90065FDF7A0F8204601210122FBF78D
:104FE000B7FB0020002100224FF4FA73CDE90065E1
:104FF000FDF792F8E2E700009AB00DF12A0420468E
:10500000FBF7D8FFFBF7B0FB00250120CDE91555D4
:10501000CDE91355109014904FF4E0104FF4803107
:105020000226199010A8CDE91115CDE91761FBF7FB
:1050300015FD28B1EFF3108072B600BFFEE700BF88
:105040000F20CDE90B064FF48060CDE90E050BA8CB
:1050500002210D95FBF71EFC20B1EFF3108072B614
:10506000FEE700BFFBF712FF00204021062244F2BA
:1050700084530326C2F20003CDE90221CDE90400E6
:10508000069044F2846045F2B902CDE90063C2F2B1
:10509000000006A1C0F60002002308940796FCF762
:1050A0004DFB2046FCF712FAFEE700BF73746172F5
:1050B00074207461736B0000B0B58AB0FBF75CF9C3
:1050C0000DF126042046FCF7BFFAFBF79BF90120FF
:1050D00001212246FCF730F9FBF7B2F80546FBF751
:1050E000B7F944F2A520C2F2000001784A1C002959
:1050F000027008BFFEF7F0FCFBF7C0F92846FBF78B
:10510000A3F800204021062240F2E8030894C2F2EE
:1051100000030424CDE90221CDE90400069040F209
:10512000E81044F695720325CDE90043C2F2000071
:1051300004A1C0F6000200230795FCF7FFFA0AB0AD
:10514000B0BD00BF6C65645F706331330000000068
:1051500018484FF0FF010170002080F309881648BD
:10516000016881F3088815484FF08051016062B6EC
:10517000FEE772B6EFF3098028B1203880E8F00F1F
:105180000F490968086000B50E4880475DF804EBD8
:105190000D480E490A78027009480D490A680260F4
:1051A000106890E8F00F203080F309884EF0040E6C
:1051B00062B6704722ED00E08045002004ED00E07B
:1051C000A4430020A11F0008124100201341002029
:1051D000A8430020000000000000000001020304BA
:1051E0000607080901020000B02A00208000000024
:1051F000B02C00200C00000080000000B02E002029
:105200000A000000F02F00200C00000080000000C9
:10521000F031002064000B000A000000303800204C
:105220000C0000008000000040000000E8030000C7
:105230000A000000303A00200C000000800000004E
:1052400011000B000A000000B83C00200C00000018
:1052500080000000110002030405060708090A0B7C
:105260000C0D0E0F101020005461736B2051005470
:1052700061736B2053656D003F5461736B000000D8
:10528000A052000800000020100000009401000857
:10529000B052000810000020404D0000B40100088A
:1052A000010000001000000000127A000000000061
:0400000508000131BD
:00000001FF
