:020000040800F2
:10000000A8070020F9010008792C0008252800081D
:10001000752C0008C5030008C92D00080000000069
:10002000000000000000000000000000812C00081B
:1000300045090008000000007D2C0008BD2C0008C8
:10004000130200081302000813020008130200083C
:10005000130200081302000813020008130200082C
:10006000130200081302000813020008130200081C
:10007000130200081302000813020008130200080C
:100080001302000813020008B5020008130200085A
:1000900013020008130200081302000813020008EC
:1000A00013020008C52C0008130200081302000800
:1000B000D12C000813020008DD2C000813020008F0
:1000C00013020008130200081302000813020008BC
:1000D00013020008130200081302000813020008AC
:1000E000130200081302000813020008130200089C
:1000F000130200081302000813020008130200088C
:10010000130200081302000813020008130200087B
:10011000130200081302000813020008130200086B
:10012000130200081302000813020008130200085B
:1001300000F002F800F050F814A696E8000CB24463
:10014000B344DA4501D100F047F8BAE80F000FA632
:1001500096E83000A5EB040504EB0607AAEB0704BC
:10016000A7F101074FEA15154FEA3414A4F1010471
:10017000AC4201D300F030F813F0010F18BFFB1AA6
:1001800043F0010300F001F8DBE71847C436000034
:10019000E4360000103A24BF78C878C1FAD8520774
:1001A00024BF30C830C144BF04680C6070470000F1
:1001B000704700000023002400250026103A28BFC5
:1001C00078C1FBD8520728BF30C148BF0B607047C9
:1001D0001FB51FBD10B510BD00F031F81146FFF777
:1001E000F7FF02F01FFE00F04FF803B4FFF7F2FF35
:1001F00003BC00F057F80000094880470948004751
:10020000FEE7FEE7FEE7FEE7FEE7FEE7FEE7FEE7C6
:10021000FEE7FEE704480549054A064B7047000023
:10022000C12C000831010008A8010020A807002007
:10023000A8030020A8030020704770477047754648
:1002400000F02CF8AE4605006946534620F0070042
:10025000854618B020B5FFF7DDFFBDE820404FF020
:1002600000064FF000074FF000084FF0000BAC46BF
:10027000ACE8C009ACE8C009ACE8C009ACE8C0090A
:1002800021F007018D46704710B50446AFF300809A
:100290002046BDE81040FFF7A8BF000000487047A7
:1002A0001800002001491820ABBEFEE7260002001E
:1002B0007047000040F29C00C2F2000000F07CBCDD
:1002C000B0B5044600688168C90709D0816821F08B
:1002D0000101816000F058FF21688968C90701D1D8
:1002E0000020B0BD054602E08068C007F8D000F0ED
:1002F0004BFF411B20680329F6D38168C907F3D05F
:10030000A06A40F01000A062E06A40F00100E062E4
:100310000120B0BDB0B582B0044600200190216834
:100320008A68D2074BD1886840F00100886040F2AB
:100330001000C2F2000000684DF68361C4F21B3168
:10034000A0FB0101880C01900198A0B1019801382F
:100350000190019878B1019801380190019850B14D
:10036000019801380190019828B101980138019055
:1003700001980028EAD100F007FF21688968C907C1
:100380001CD1054603E000BF8068C00716D100F00D
:10039000FBFE411B20680329F6D38168C907F3D10E
:1003A000A06A40F01000A062E06A40F00100E06244
:1003B000002084F82400012002B0B0BD002002B06B
:1003C000B0BD0000FEE700002DE9F04385B041F626
:1003D00000090820C4F2010901900020029001A93F
:1003E000484600F0D1FD4846082100F0C1FE98B310
:1003F00040F2141500204FF6FA76C2F200054FF6CF
:10040000F97700BF2968044628464F6201F084FC52
:10041000286800BF416A89B2B1420BD2416A89B2F1
:10042000B14207D2416A89B2B14203D2416A89B26C
:10043000B142EFD3284601F0F3FC4846082100F012
:1004400097FE18B1C72C04F10100DBD3C62C03D9E9
:10045000012005B0BDE8F0834846082100F088FE81
:1004600020B1002005B0BDE8F08300BF40F21415B4
:1004700000204FF6FA76C2F200054FF6F97800BF79
:10048000296807462846C1F8248001F045FC286801
:10049000416A89B2B1420BD2416A89B2B14207D2F4
:1004A000416A89B2B14203D2416A89B2B142EFD303
:1004B000284601F0B5FC4846082100F059FE18B95D
:1004C000EF2F07F10100DBD30020EE2F88BF0120C2
:1004D00005B0BDE8F08300002DE9F04F81B000F0D9
:1004E00031F9FFF771FFCC2000F088F9442000F0CB
:1004F00085F900F027F9FFF767FFCC2000F07EF9BF
:10050000BE2000F07BF900F095F8044600F092F868
:100510004FF0400808EA841141EAC01400F08AF85C
:100520004FF0600909EA540141EAC01400F082F872
:100530004FF0700A0AEA540141EAC01400F07AF858
:100540004FF0780B0BEA540141EAC01400F072F846
:100550007C2505EA540141EAC01400F06BF87E27BF
:1005600007EA540141EAC01400F064F8C4F34601FC
:1005700041EAC01600F05EF8044600F05BF808EAB5
:10058000841141EAC01400F055F809EA540141EA27
:10059000C01400F04FF80AEA540141EAC01400F018
:1005A00049F80BEA540141EAC01400F043F805EAA7
:1005B000540141EAC01400F03DF807EA540141EA51
:1005C000C01400F037F8C4F3460141EAC010C1B2CC
:1005D0000022072988BF4FF0FF3286EA020150400F
:1005E000C9B241EA002000B202F045FE0023C3F682
:1005F000E473002202F056FE02F00EFE01B0BDE8E8
:10060000F08F000080B584B04FF4006000900120AE
:10061000CDE901000320039042F20000C4F2010082
:10062000694600F0B1FC00F08DF8FFF7CDFE04B094
:1006300080BD0000F0B585B0082041F600040190AF
:100640000120C4F2010402900320049001A9204675
:100650004FF6FA7600F098FC20460821002200F0C0
:100660008DFD40F21415C2F2000528684FF6F871AE
:100670004162284601F050FB286800BF416A89B2F8
:10068000B1420BD2416A89B2B14207D2416A89B202
:10069000B14203D2416A89B2B142EFD3284601F098
:1006A000BFFB204608210122082700F067FD00203B
:1006B000029001A92046019700F066FC28684FF6D9
:1006C000EE714162284601F027FB2868416A89B231
:1006D000B1420BD2416A89B2B14207D2416A89B2B2
:1006E000B14203D2416A89B2B142EFD3284601F048
:1006F00097FB2046082100F03BFD044628684FF692
:10070000C8714162284601F007FB2868416A89B236
:10071000B1420BD2416A89B2B14207D2416A89B271
:10072000B14203D2416A89B2B142EFD340F2141010
:10073000C2F20000002C18BF012401F071FB20461A
:1007400005B0F0BD70B584B0082041F600040090FB
:100750000120C4F201040190032003906946204661
:100760004FF6FA7600F010FC20460821002200F037
:1007700005FD40F21415C2F2000528684FF60C5131
:100780004162284601F0C8FA286800BF416A89B270
:10079000B1420BD2416A89B2B14207D2416A89B2F1
:1007A000B14203D2416A89B2B142EFD3284601F087
:1007B00037FB20460821012200F0E0FC28684FF6B4
:1007C000EB714162284601F0A7FA2868416A89B2B4
:1007D000B1420BD2416A89B2B14207D2416A89B2B1
:1007E000B14203D2416A89B2B142EFD340F2141050
:1007F000C2F2000001F014FB04B070BD2DE9F04717
:1008000084B0044641F600080820C4F201080090B4
:10081000032001250390694640464FF6FA7701957B
:1008200000F0B2FB40F21416C2F200064FF6BE7999
:100830004FF6F87A08E000BF3046640801F0F0FA9D
:10084000082D05F1010579D240460821002200F06B
:1008500095FC3068E10737D1C0F82490304601F0AC
:100860005BFA3068416A89B2B9420BD2416A89B2F7
:10087000B94207D2416A89B2B94203D2416A89B208
:10088000B942EFD3304601F0CBFA404608210122AD
:1008900000F074FC3068C0F824A0304601F03CFA47
:1008A000306800BF416A89B2B942C5D2416A89B293
:1008B000B942C1D2416A89B2B942BDD2416A89B254
:1008C000B942EFD3B8E700BFC0F824A0304601F02A
:1008D00023FA3068416A89B2B9420BD2416A89B2BF
:1008E000B94207D2416A89B2B94203D2416A89B298
:1008F000B942EFD3304601F093FA40460821012275
:1009000000F03CFC3068C0F82490304601F004FA56
:10091000306800BF416A89B2B942BFF48DAF416A05
:1009200089B2B942BFF488AF416A89B2B942BFF413
:1009300083AF416A89B2B942ECD37DE704B0BDE828
:10094000F087000070470000EFF3108072B600BF20
:10095000FEE7000070B582B004460020019094F8D4
:100960002400012802D1022002B070BD012084F8C9
:1009700024002046FFF7A4FC2046FFF7CBFC28B15B
:10098000002184F8241002B070BD00BF0646A06AA2
:1009900041F2021188430230A06240F21000C2F21C
:1009A00000000568022000F0ABFCB5FBF0F0400051
:1009B00001900198A8B100BF0198013801900198F9
:1009C00078B1019801380190019850B1019801382F
:1009D0000190019828B101980138019001980028F0
:1009E000EAD12068816841F00801816000F0CCFB09
:1009F00021688A6812070FD4886840F00400886074
:100A000000F0C2FB21688968490715D401216FF005
:100A10000302304622E000BF054602E08868000776
:100A2000EAD500F0B1FB401B21680B28F6D388689B
:100A30000007F3D50EE000BF054602E080684007DE
:100A4000E4D500F0A1FB411B20680B29F6D3816897
:100A50004907F3D5012010216FF01202A36A1A4052
:100A60001143A162002184F8241002B070BD00007F
:100A70007047000070B581B00022009290F82420E9
:100A8000012A03D10221084601B070BD4A68012342
:100A9000062A02EB820E80F8243007D8D0F800C076
:100AA0006FF004030CF134060CE000BFD0F800C076
:100AB0000C2A87BF0CF12C066FF040030CF13006B6
:100AC0006FF022030EEB03021F23346803FA02F5D2
:100AD0000B6824EA050503FA02F22A433260092B67
:100AE00003EB43021AD9DCF80C601E3A072589682B
:100AF0009540AE43914023F001023143102ACCF8D7
:100B00000C1015D142F20041C4F201018C4517D0FE
:100B1000816A41F02001816201210AE0DCF8103095
:100B2000072689689640B34391401943CCF81010CA
:100B30000021002280F82420084601B070BD00BFCB
:100B400089680902F4D4DCF80810102B41F4000184
:100B5000CCF80810ECD140F21001C2F20001096893
:100B60004DF68362C4F21B32A1FB0212910C01EB21
:100B700081014900009100990029D9D000990139DB
:100B8000009100990029D3D0009901390091009972
:100B90000029CDD000990139009100990029C7D0D2
:100BA000009901390091009900294FF00001E5D129
:100BB000BFE700007047000070B504460068056894
:100BC0004668B10627D515F0020124D0A16AC906EE
:100BD00003D4A16A41F40071A162816801F460212B
:100BE000B1F5602F10D1217B71B9416821F020014E
:100BF0004160A06A20F48070A062A06AC00403D49F
:100C0000A06A40F00100A0622046FFF7D3FF2068F1
:100C10006FF012010160310633D515F0040130D0B8
:100C2000A16AC90603D4A16A41F40051A162816896
:100C300001F4E041B1F5E04F10D1416821F08001AD
:100C40004160A06A20F48050A062A06AC00511D45F
:100C5000A06A40F00100A0620CE000BF41684905B5
:100C600008D4816801F46021B1F5602F02D1217BA5
:100C70000029E2D02046FFF7FBFE20686FF00C0150
:100C8000016070060ED515F0010008BF70BDA06AA6
:100C900040F48030A062204600F0BCF820686FF07D
:100CA0000101016070BD0000002804BF01207047F1
:100CB000B0B50446806A28B121688868C0070CD1A5
:100CC00015E000BF0020E06284F82400204600F018
:100CD000A3F821688868C00709D0886820F001005F
:100CE000886000F051FA21688A68D20730D1A06A82
:100CF000C00644D4A06A41F2021290430230A062BE
:100D0000E36981F0804080F49E3083F440221043F8
:100D1000D4E9010208BF4FF4002343EA000C531E3C
:100D2000B3FA83F35D091346B2F5807F18BF2B0237
:100D3000207D257B01284CEA45002CD135B3A56ADE
:100D400045F02005A562E56A45F00105E56222E06F
:100D5000054602E08868C007C9D000F015FA401BBC
:100D600021680328F6D38868C007F3D0A06A40F052
:100D70001000A062E06A40F00100E062A06AA06A90
:100D800040F01000A0620120B0BD00BFA56903EBD8
:100D90004533A3F5C0534D68B2F5807F25F469450E
:100DA00043EA05034B608B684FF2FD75CFF6E175A2
:100DB00003EA050343EA00038B6001D0012A07D14F
:100DC00022690023CFF6F07303EB025201E000BF6B
:100DD0000022CB6A23F470031A43CA62896840F682
:100DE000FE62CFF61F721140814207D10020E062FF
:100DF000A16A012262F30101A162B0BDA06A40F0C4
:100E0000100020F00200A062E06A40F00100E06201
:100E10000120B0BD7047000080B586B0014640F6A5
:100E20000000C4F20100096800F5E05291424FF061
:100E30000001CDE90411CDE9021101D006B080BD59
:100E400041F21801C4F202010A6842F400720A6019
:100E50000A6802F400720192019A0A6842F00402E0
:100E60000A60096801F004010191019908210291C9
:100E70000321039102A900F087F81220002100222B
:100E800000F002FA122000F0EDF906B080BD00007B
:100E900010B5044690F82400012804BF022010BDBC
:100EA000012084F824002046FFF734FA20B1002006
:100EB00084F82400012010BD42F2044C2068A16A8D
:100EC000C4F2010C40F2013291430CF57F7201F53E
:100ED00080719042A16229D0A16A21F48011A1629F
:100EE0004168490504D5A16A012363F30D31A1626C
:100EF000A16A0023C9044FF0000144BFE16A21F058
:100F00000601E1626FF0020184F82430016081681B
:100F100001F46021B1F5602F1BD1904214D081689B
:100F200041F4A0018160002010BD00BFDCF800107A
:100F300011F4702FD0D0A16A41F48011A162DCF8C5
:100F400000104905CFD4D3E7DCF8001011F4702F5E
:100F5000E5D0816841F480118160002010BD00005F
:100F6000B0B5044600F010F9054640F20800C2F2A0
:100F700000000078611C18BF044400BF00F004F9B1
:100F8000401BA042FAD3B0BD2DE9F04F82B00E68ED
:100F9000002E00F0E980A0F1804241F6004540F2C9
:100FA0000043A2F58432C4F201050624C4F2010311
:100FB0004FEAB227A84208BF05244FF0000E4FF0B9
:100FC00001080F254FF0000A4FF0000B052F38BF26
:100FD0004FEAB224009408E00E680AF1010A36FADA
:100FE0000AF20EF1040E00F0BF8008FA0AFC16EABD
:100FF0000C09F1D04E684FF6FF72C1F21002964212
:1010000012DC122E56D8DFE806F0350B4D49555547
:10101000555555555555555555555545510000BFD4
:10102000D1F80CB046E000BF4FF6FF72C1F22102CA
:1010300096420FDC0022C1F2110296421AD0002221
:10104000C1F21202964215D00022C1F2210296424C
:1010500010D02FE00022C1F2220296420AD00022D4
:10106000C1F23102964205D00022C1F2320296420C
:1010700020D100BF8A684AB1012A14BFC0F814C049
:10108000C0F810C04FF0080B14E000BF4FF0040B85
:1010900010E000BFCA6802F1040B0BE04FF0000B38
:1010A00008E000BFCA6802F1080B03E0CA6802F159
:1010B0000C0B00BF02467446B9F5807F24BF043292
:1010C000203C166805FA04F726EA07070BFA04F62F
:1010D00037431760CA79D2067FF57EAF41F2180711
:1010E000C4F202073A684FF6084542F001023A603E
:1010F0003A68CFF6FF7502F001020192019A2AF0D8
:1011000003021A440F2457590EF00C06B440A743AB
:10111000009C04FA06F6374357514E6840F20C44DF
:10112000F2029A6854BF22EA090242EA0902C4F2B2
:1011300001049A602268B70254BF22EA090242EA17
:10114000090222605A68B70354BF22EA090242EA40
:1011500009025A600F251A68F70354BF22EA0902F0
:1011600042EA09021A6037E702B0BDE8F08F0000DA
:101170008068084018BF012070470000002A08BF9F
:10118000090401617047000040F2A410C2F200009F
:101190000068704740F2080040F2A411C2F200005B
:1011A000C2F2000100780A6810440860704700002D
:1011B00080B542F20000C4F20200016841F0100163
:1011C0000160032000F08CF80F2000F005F800F01B
:1011D00027F8002080BD000070B540F20806C2F27A
:1011E000000640F210013278C2F200014FF47A7327
:1011F0000968B3FBF2F20446B1FBF2F1084600F0D5
:10120000A7FC0F2C4FF0010508D838B94FF0FF307C
:1012100021460022002500F037F87460284670BD92
:1012200082B041F21800C4F202000168022241F0CB
:1012300001010160016801F001010191019941681A
:1012400041F080514160406800F08050009000986B
:101250000420C4F20100016862F31A61016002B067
:1012600070470000002848BF704700F01F010122AE
:1012700002FA01F11C2202EAD0004EF20012CEF274
:10128000000281507047000010B54EF60C5CCEF2A3
:10129000000CDCF80030C3F3022E8EF00704042C9F
:1012A00028BF0424BEF103034FF0FF3E0EFA04F4FE
:1012B00038BF0023A14399400EFA03F39A43114328
:1012C00000F00F0200F160430901043A03F56443A2
:1012D0006244002848BF02F10C03197010BD0000E1
:1012E0004EF60C51CEF200010A684FF6FF031A4089
:1012F00060F30A2242F0806040F0FD7008607047A1
:10130000411E0F294FF000003DD8DFE801F00B2B04
:101310003C093C3C3C093C3C3C3C3C3C3C3D00BF2B
:1013200000F0EAB941F20400C4F20200C16940F2DF
:1013300002320A40B2F5817F04BF4FF4004070478B
:1013400001F44071B1F5407F50D0B1F5007F1CBF72
:1013500000207047006A49F64041800701EAE070CA
:10136000704700BF80B500F0B3F941F20401C4F248
:10137000020109680222C1F3813102EB4101B0FB95
:10138000F1F0BDE88040704741F20401C4F202016F
:101390000A6851F8040CC0015CBF00207047C2F31A
:1013A000834016A3185CD20306D440F60012C0F2A4
:1013B0003D0250430CE000BF0A6814A3C2F3404250
:1013C0009A5C41F20023C0F27A03B3FBF2F250437D
:1013D0000968490248BF70474AF6AB214000CAF687
:1013E000AA21A0FB01014808704700BF50F8040C77
:1013F0004FF22441800301EAE070704702030405C4
:10140000060708090A0B0C0D0E0F10100102000050
:101410002DE9F04182B00446007841F21C06C00775
:10142000C4F202064AD030685FEAC00808D43068C7
:1014300040F080503060306800F08050019001989A
:1014400047F20007C4F200073868C00512D43868B4
:1014500040F480703860FFF797FE05463868C00595
:1014600008D4FFF791FE401B6428F7D9032002B08F
:10147000BDE8F081706810F4407012D0616801F42A
:10148000407188420DD0706840F24042C4F242225E
:10149000012320F4407113600023C00713607160C2
:1014A00026D17068616820F440700843B8F1000FDD
:1014B000706003D4306820F080503060206881076D
:1014C00007D556F8181CA26821F44041114346F88C
:1014D000181CC00607D556F8180C616920F4800066
:1014E000084346F8180C002002B0BDE8F08100BFA8
:1014F000FFF74AFE054641F2883700BF7068800753
:10150000CFD4FFF741FE401BB8424FF00300F5D99E
:10151000EAE70000002804BF012070472DE9F043EE
:1015200081B042F20008C4F202080446D8F8000074
:101530000D4600F0070081420CD9D8F8000020F0D9
:1015400007002843C8F80000D8F8000000F00700A2
:10155000A8426CD1206841F204098107C4F2020953
:1015600017D5410705D5D9F8001041F4E061C9F855
:101570000010010705D5D9F8001041F46051C9F8F1
:101580000010D9F80010A26821F0F0011143C9F849
:101590000010C00742D1D8F8000000F007008542D3
:1015A0000CD2D8F8000020F007002843C8F800004B
:1015B000D8F8000000F00700A84238D120684107A1
:1015C00007D5D9F80010E26821F4E0611143C9F8A9
:1015D0000010000708D5D9F80000216920F46050F8
:1015E00040EAC100C9F80000D9F8002002F00C0060
:1015F000082841F20020C0F27A004DD143F63D03A5
:10160000C2F38341C0F60003595CD20338D440F6DC
:101610000010C0F23D0048433EE000BF606859F84A
:10162000041C022808D0012826D1890306D40120F1
:1016300001B0BDE8F08300BF8901F8D5D9F80010EA
:1016400021F003010843C9F80000FFF79DFD06469D
:1016500041F28837D9F80000616800F00C00B0EB67
:10166000810F98D0FFF790FD801BB842F2D903207C
:1016700001B0BDE8F08300BF8907D8D5DEE700BF21
:10168000D9F8002043F62C03C2F34042C0F6000311
:101690009A5C4843B0FBF2F0D9F8001043F614020C
:1016A000C1F30311C0F60002515C40F2100220FAAF
:1016B00001F140F20C00C2F200000068C2F2000228
:1016C0001160FFF789FD002001B0BDE8F083000044
:1016D00040F2100041F20401C2F20000C4F2020123
:1016E0000068096843F62402C1F3C221C0F6000273
:1016F000515CC8407047000041F2040CC4F2020C77
:10170000DCF8003003F00C00082841F20020C0F2A1
:101710007A0018BF704743F63D01C3F38342C0F619
:1017200000018A5CD90305D440F60010C0F23D00E8
:1017300050437047DCF8001043F62C03C1F34041DE
:10174000C0F60003595C5043B0FBF1F07047000055
:10175000002804BF012070472DE9F04182B0044603
:10176000007841F20006C007C4F202060CD070688F
:1017700000F00C00042840F081803068800303D51D
:101780006068002800F04681207880071BD57068CB
:1017900010F00C0F09D0706800F00C00082840F021
:1017A00087807068C00300F183803068800703D5AC
:1017B0002069012840F02E813068616920F0F8002E
:1017C00040EAC10030602078000713D42078400739
:1017D0002CD4E569002D00F01881706800F00C0031
:1017E000082840F0A780012D40F00481012002B0BC
:1017F000BDE8F081A069002800F084800020C4F2D8
:1018000042200121C0F88014FFF7BEFC054600BF4E
:10181000706A800700F1B280FFF7B6FC401B022817
:10182000F6D9032002B0BDE8F08100BFF0695FEA9D
:10183000C00808D4F06940F08050F061F06900F011
:1018400080500090009847F20007C4F20007386803
:10185000C00549D4386840F480703860FFF794FCC4
:10186000054600BF3868C0053ED4FFF78DFC401B1D
:101870006428F7D9032002B0BDE8F081706800F059
:101880000C00082803D17068C0033FF576AF61688B
:101890003068002900F00C81B1F5A02F00F0008124
:1018A000B1F5803F40F01A8140F480301CE100BF68
:1018B0002069002840F20000C4F2422000F0888035
:1018C00001210160FFF760FC054600BF306880071A
:1018D0003FF572AFFFF758FC401B0228F6D90320F2
:1018E00002B0BDE8F08100BFE168306A002900F075
:1018F0009D80052900F09280012940F0AF8040F0E2
:101900000100B1E00020C4F242200021C0F88014A0
:10191000FFF73AFC054600BF706A80077FF556AFB7
:10192000FFF732FC401B0228F6D9032002B0BDE8C5
:10193000F08100BF0027C4F2422700203866FFF77D
:1019400023FC022D05460DD13068800140F1DE8078
:10195000FFF71AFC401B02284FF00300F4D902B035
:10196000BDE8F081306880014FD5FFF70DFC401BCA
:1019700002284FF00300F5D9F1E700BF40F2100054
:10198000C2F20000006844F6D351C1F26201A0FB2C
:101990000101480A019000BF00BF0198411E0028C4
:1019A00001913FF413AF00BF0198411E002801913F
:1019B0003FF40CAF00BF0198411E002801913FF495
:1019C00005AF00BF0198411E00280191E4D1FDE65A
:1019D00000210160FFF7D8FB054600BF3068800793
:1019E0007FF5F1AEFFF7D0FB401B02284FF003005C
:1019F000F4D9B4E77068216A00F480328A4209D1D0
:101A0000616A00F47010884204D1002002B0BDE881
:101A1000F08100BF012002B0BDE8F08140F0040079
:101A20003062306A40F001001EE000BF20F001008B
:101A30003062306A20F004003062FFF7A5FB0546F3
:101A400041F28837306A800720D5FFF79DFB401BA5
:101A5000B8424FF00300F5D981E700BF20F0010044
:101A60003062306A20F004003062FFF78DFB0546DB
:101A700041F28837306A800708D4FFF785FB401BA6
:101A8000B842F7D9032002B0BDE8F081B8F1000FE9
:101A90003FF59FAEF06920F08050F06199E600BFFD
:101AA00040F480203060306840F480301CE000BF9B
:101AB00020F480303060306820F480203060FFF700
:101AC00063FB0546306880037FF55EAEFFF75CFB85
:101AD000401B64284FF00300F4D940E720F4803025
:101AE0003060306820F480203060FFF74DFB054601
:101AF000306880033FF548AEFFF746FB401B642883
:101B0000F6D9032002B0BDE8F08100BF206AB0F52D
:101B1000803F05D17168A26821F4003111437160E2
:101B20007168626A21F474111143084370600120E6
:101B30003866FFF729FB0446306880013FF565AF42
:101B4000FFF722FB001B02284FF00300F4D906E741
:101B5000411E0020B0EB116F1CBF012070474EF2F8
:101B60001002CEF2000251604EF62351CEF2000177
:101B7000F0230B70072190601160704770470000E0
:101B80007047000090F83C20012A4FF0020242D03A
:101B900010B580F83D200268D2F804E0D2F808C001
:101BA0000C682EF07003234340F6FF34C4F20004A7
:101BB000A242536010DCB2F1804F1FD040F20043CC
:101BC000C4F200039A4219D040F60003C4F20003A5
:101BD0009A4213D017E000BF40F60043C4F200035E
:101BE0009A420BD043F20043C4F201039A4205D05B
:101BF00042F60043C4F201039A4204D149682CF032
:101C00008003194391600121002280F83D1080F883
:101C10003C20BDE81040104670470000002804BF7B
:101C20000120704710B5044690F83D0028B9002007
:101C300084F83C00204600F01FF8022084F83D00A4
:101C40002068211D01F050F8012084F8460084F836
:101C50003E0084F83F0084F8400084F8410084F896
:101C6000420084F8430084F8440084F8450084F876
:101C70003D00002010BD000010B584B00068B0F138
:101C8000804F2FD040F60001C4F20001884219D0E5
:101C900042F60041C4F2010188421CBF04B010BDED
:101CA00041F21C00C4F2020050F8041C192441F453
:101CB000006140F8041C50F8040C00F4006003902C
:101CC00003981DE041F21C00C4F2020001681E24CA
:101CD00041F004010160006800F0040001900198E7
:101CE0000EE000BF41F21C00C4F2020001681C2497
:101CF00041F001010160006800F0010002900298CB
:101D0000204600210022FFF7BFFA204604B0BDE8BC
:101D10001040FFF7A7BA000090F83D1001291CBF42
:101D200001207047022180F83D10006840F6FF3125
:101D3000C4F2000188420FDCB0F1804F1ED040F2A7
:101D40000041C4F20001884218D040F60001C4F2FC
:101D50000001884212D018E040F60041C4F20001B0
:101D600088420BD043F20041C4F20101884205D001
:101D700042F60041C4F20101884206D1816801F0B7
:101D80000701062904BF00207047016841F00101E6
:101D9000016000207047000090F83D1001291CBF31
:101DA00001207047022180F83D10006840F6FF32A4
:101DB000C168C4F20002904241F00101C1600FDC31
:101DC000B0F1804F1ED040F20041C4F200018842C1
:101DD00018D040F60001C4F20001884212D018E089
:101DE00040F60041C4F2000188420BD043F20041AA
:101DF000C4F20101884205D042F60041C4F201015B
:101E0000884206D1816801F00701062904BF00203D
:101E10007047016841F00101016000207047000037
:101E20000146006841F21113026A1A4204D00122ED
:101E3000002081F83D207047026A40F244431A4274
:101E4000F5D1026822F0010202600122002081F82F
:101E50003D20704790F83C20012A4FF002026CD0E0
:101E600080B580F83D20D0F800C04FF67772DCF8DE
:101E7000083023EA0202CCF808200B684F2B29DC3B
:101E80001F2B45DD202B46D0302B44D0402B40F07B
:101E9000AF80D1F804E0C968DCF82030DCF82020FD
:101EA00022F00102CCF82020DCF8182022F0F00209
:101EB00042EA011123F00A0242EA0E02CCF818109D
:101EC000CCF82020DCF8081041F0470121F0300167
:101ED00028E000BF6F2B33DDB3F5005F74D0B3F59E
:101EE000805F21D0702B40F08380D1E901E3C96885
:101EF000DCF8082043EA0E0322F47F4243EA012182
:101F00001143CCF80810DCF8081041F0770109E023
:101F10000BB1102B6CD1DCF8081021F070011943C3
:101F200041F00701CCF808100022012180F83D1093
:101F3000002180F83C10BDE880401046704700BF8B
:101F4000502B21D0602B53D1D1F804E0C968DCF8C4
:101F50002030DCF8202022F01002CCF82020DCF821
:101F6000182022F4704242EA013123F0A00242EA32
:101F70000E12CCF81810CCF82020DCF8081041F034
:101F8000670121F01001CDE7D1F804E0C968DCF861
:101F90002030DCF8202022F00102CCF82020DCF8F0
:101FA000182022F0F00242EA011123F00A0242EA6C
:101FB0000E02CCF81810CCF82020DCF8081041F004
:101FC000570121F02001ADE7D1E901E3C968DCF850
:101FD000082043EA0E0322F47F4243EA0121114321
:101FE000CCF80810DCF8081041F480419AE700BFF3
:101FF00001229AE77047000070B504460068C56882
:102000000669B10716D515F0020113D06FF0020171
:102010000161012121778069800703D02046FFF705
:10202000E9FF05E0204600F08FF8204600F0ECF9CB
:1020300000202077700719D515F0040016D020680D
:102040006FF00401016102212177806910F4407F63
:1020500004D02046FFF7CEFF06E000BF204600F088
:1020600073F8204600F0D0F900202077300717D50C
:1020700015F0080014D020686FF0080101610421F8
:102080002177C069800703D02046FFF7B3FF05E042
:10209000204600F059F8204600F0B6F900202077DD
:1020A000F00619D515F0100016D020686FF0100159
:1020B000016108212177C06910F4407F04D02046D7
:1020C000FFF798FF06E000BF204600F03DF82046ED
:1020D00000F09AF900202077F00718BF15F00100F2
:1020E00002D1300609D412E020686FF001010161CD
:1020F000204600F053FA300609D515F0800006D0CE
:1021000020686FF0800101612046FFF737FD7006FF
:1021100009D515F0400006D020686FF0400101613C
:10212000204600F0E9FAB00658BF70BD15F0200057
:1021300008D021686FF0200220460A61BDE8704097
:10214000FFF71EBD70BD00007047000090F83C30E6
:10215000012B04BF022070474FEAB202032A00F2AB
:102160001D812DE9F041DFE802F003C7479100BF70
:10217000036843F200461D6A1A6A25F0020522F040
:1021800001021A621A465C6852F818CF8F68D1F8BB
:1021900000E0C4F20106B34245EA070505D042F665
:1021A0000047C4F20107BB4205D1CF6825F00C05FA
:1021B00027F004073D43B34205D042F60046C4F27F
:1021C0000106B34205D1D1E9056724F440743443D4
:1021D0003C432CF0730747EA0E075C609F614F6831
:1021E00009695F631D629F6947F008079F619F69E6
:1021F00027F004079F61C6E0036843F200461D6AAA
:102200001A6A25F4007522F480721A621A46D3F80D
:1022100004C052F81CEF8F68D1F80080C4F20106A8
:10222000B34245EA072505D042F60047C4F201074C
:10223000BB4208D1CF6840F2FF443F0225F440651D
:1022400027EA04042543B34205D042F60044C4F211
:102250000104A34206D1D1E905462CF44057264398
:1022600047EA061C2EF0730747EA0807C3F804C0C4
:10227000DF614F680969DF631D62DF6947F00807A6
:10228000DF61DF6927F00407DF617CE0036843F268
:102290000047D3F820C01A6AC4F2010722F4805222
:1022A0001A621A465C6852F81C5FD1F800E08E682A
:1022B000BB4205D042F60047C4F20107BB4204D13D
:1022C0004F6924F4804444EA87142CF4005747EA09
:1022D000063725F4E64646EA0E265C60DE614E6867
:1022E00009691E641F62DF6947F40067DF61DF6907
:1022F00027F48067DF6145E0036843F200481D6A08
:102300001A6A25F0200522F010021A621A465C684B
:1023100052F818CF8F68D1F800E0C4F201084345A5
:1023200045EA071505D042F60047C4F20107BB4253
:1023300007D1CF686FF0400625F0C00506EA071602
:102340003543434505D042F60046C4F20106B34288
:1023500006D1D1E9056724F440643E4344EA86048B
:102360002CF4E64747EA0E275C609F614F680969D5
:102370009F631D629F6947F400679F619F6927F40F
:1023800080679F6109021368194311600021BDE84D
:10239000F041002280F83C200846704701210022CD
:1023A00080F83C2008467047002804BF0120704791
:1023B00010B5044690F83D0028B9002084F83C0090
:1023C000204600F01FF8022084F83D002068211DFF
:1023D00000F08AFC012084F8460084F83E0084F86E
:1023E0003F0084F8400084F8410084F8420084F8FB
:1023F000430084F8440084F8450084F83D00002040
:1024000010BD00007047000070470000C1B10429F2
:1024100008D0082914BF41224022825C012A05D03D
:1024200016E000BF3F22825C012A11D10222082956
:1024300010D0042914BF80F8412080F83F200BE021
:1024400090F83E20012A03D1022280F83E2003E0CA
:102450000120704780F84020006801F01F01012230
:10246000036A02FA01F123EA01020262026A1143DD
:1024700040F6FF32C4F20002904201620EDCB0F17D
:10248000804F25D040F20041C4F2000188421FD0A5
:1024900040F60001C4F2000118E000BF40F6004120
:1024A000C4F20001884213D043F20042C4F2010298
:1024B00042F600419042C4F2010101D088420ED19F
:1024C000436C904243F40043436401D0884206D1F8
:1024D000816801F00701062904BF002070470168E8
:1024E00041F00101016000207047000010B5026852
:1024F00001F01F0E4FF0010C146A0CFA0EF324EADF
:102500000303136243F20044136AC4F20104A242BB
:10251000136205D042F60043C4F201039A4209D186
:10252000136A41F21114234204D1136A40F2444465
:1025300023420FD0136A41F21114234213D1136ABC
:1025400040F2444423420ED1136823F00103136088
:1025500009E000BF536C23F400435364136A41F253
:1025600011142342EBD0082912D004290AD00029E3
:102570004FF0010114BF80F8411080F83E10002098
:1025800010BD00BF012180F83F10002010BD00BF2A
:10259000012180F84010002010BD000040F2CC0165
:1025A000C2F20001884218BF7047F0B581B040F216
:1025B0007806C2F20006B08940F20004411CB0F572
:1025C0007A7FC2F20004B1810FD30020B081FDF701
:1025D00083FFF08100F04FFE0023C4F224030022A9
:1025E00000F0BEFC00F08AFC6060F088411C6428AA
:1025F000F18047D30020F08060680021C4F2C82138
:1026000001F03CF800F0B6FFC10842F2C5025143A8
:10261000090D67224A43920A02EB8202A1EB4201B2
:10262000CAB243F62E01C0F600018A5C20807276A1
:10263000820841F27B435A43520C41F69A1302FB43
:1026400003F52D0C05EB8505A2EB450292B28A5CE1
:102650004CF6CD45B27682B26A43D20C53431B0C82
:1026600003EB8303A2EB43039BB2CB5C02EB82023E
:10267000A0EB4200F37680B2085C3077B07E40F089
:102680008000B0763089411C6428318103D300205A
:10269000308100F0C9F870790130707170790928C3
:1026A00004BF0120707170793044007E717900F0B0
:1026B000E9FA64680021C4F22011204600F013FFFB
:1026C0000021054600280746C4F2C811204618BF5D
:1026D000012700F0F3FE002818BF01200146002D5D
:1026E0001CBF0121002031713170B770F07001B052
:1026F000BDE8F0407047000070470000B0B540F6FC
:102700000004C4F201040546C20920468021FEF7F8
:1027100035FD204620210122FEF730FD20462021F4
:102720000022FEF72BFDC5F3801220468021FEF724
:1027300025FD204620210122FEF720FD20462021F4
:102740000022FEF71BFDC5F3401220468021FEF754
:1027500015FD204620210122FEF710FD20462021F4
:102760000022FEF70BFDC5F3001220468021FEF784
:1027700005FD204620210122FEF700FD20462021F4
:102780000022FEF7FBFCC5F3C00220468021FEF7C5
:10279000F5FC204620210122FEF7F0FC20462021F6
:1027A0000022FEF7EBFCC5F3800220468021FEF7F5
:1027B000E5FC204620210122FEF7E0FC20462021F6
:1027C0000022FEF7DBFCC5F3400220468021FEF725
:1027D000D5FC204620210122FEF7D0FC20462021F6
:1027E0000022FEF7CBFC05F0010220468021FEF717
:1027F000C5FC204620210122FEF7C0FC20462021F6
:102800000022FEF7BBFC20464FF480710122FEF748
:10281000B5FC20464FF480710022BDE8B040FEF7C1
:10282000ADBC0000FEE70000B0B540F27805C2F292
:102830000005287841F200440128C4F2010413D1B4
:1028400068890130688168890A2813D16878C0F1E5
:102850000101697004F50060CAB20121FEF78EFC27
:102860000020688106E000BF04F50060012100221D
:10287000FEF784FCA8784FF46041421EA4F5006086
:1028800018BF0122FEF77AFCE878012818D120460B
:102890004FF400510122FEF771FC20464FF48051A5
:1028A0000022FEF76BFC2879012812D040F25C1060
:1028B000C2F200000821BDE8B040FFF717BE00BF1C
:1028C00020464FF440510122FEF758FC2879012898
:1028D000ECD140F25C10C2F200000821BDE8B0402B
:1028E000FFF794BDB0B584B040F29C0042F20041C5
:1028F000C2F20000C4F20101002401254FF460225D
:1029000005730475C261C0E9001484600561FEF7B7
:10291000CBF9002818BFFEF717F80320CDE9010511
:1029200040F29C00C2F2000001A90394FEF7A2F855
:10293000002818BFFEF708F804B0B0BD2DE9F04F2D
:1029400085B04FF0000A41F21800CDE903AACDE9A5
:1029500001AAC4F20200016841F6004441F04001BE
:1029600001600168C4F2010401F040010091009986
:102970000168A4F5806541F08001016001680122D1
:1029800001F08001009100990168042641F00401E2
:1029900001600168012701F00401009100990168BC
:1029A00041F008010160016801F0080100910099FF
:1029B000016841F0200101600068042100F020005E
:1029C000009000982846FEF7D9FB20464FF6FF718D
:1029D0000022FEF7D3FBA4F5A05840464FF4D07177
:1029E0000022FEF7CBFBA4F5805948464FF4604126
:1029F0000122FEF7C3FBA4F5006B58464FF440518B
:102A00000022FEF7BBFBCDE90167032001AE049075
:102A1000284631460397FEF7B7FAFF20CDE90107B4
:102A2000022520463146CDE90355FEF7ADFA4FF4B5
:102A30007F4001A981E88104204631460495FEF7D4
:102A4000A3FA4FF4D07001A981E8810440463146D1
:102A50000495FEF799FA4FF46040CDE90107484626
:102A60003146CDE90375FEF78FFA4FF44050CDE9BA
:102A7000010758463146CDE90355FEF785FA05B002
:102A8000BDE8F08F80B586B040F2CC0042F600423F
:102A90000021C2F20000C4F2010241F61F434FF0D0
:102AA000090C0591CDE90311CDE90011C0E900231E
:102AB000C0E9021CC0E904118161FFF7AFF80028EA
:102AC00018BFFDF741FF4FF48050029040F2CC0058
:102AD000C2F2000002A9FFF7BDF9002818BFFDF7F8
:102AE00033FF40F2CC00C2F200006946FFF74AF81B
:102AF000002818BFFDF728FF06B080BD80B586B05E
:102B000040F214100021C2F200004FF0804247232F
:102B10004FF6FF7C0591CDE90311CDE90011C0E925
:102B20000023C0E9021C01618161FFF777F80028EA
:102B300018BFFDF709FF4FF48050029040F21410C7
:102B4000C2F2000002A9FFF785F9002818BFFDF7BF
:102B5000FBFE40F21410C2F200006946FFF712F8C3
:102B6000002818BFFDF7F0FE06B080BDB0B594B0E8
:102B700040F6000540F25C10C4F200050021C2F2EC
:102B8000000040F2CF2240F2E7330E91CDE90C1164
:102B90000991CDE90711CDE90511CDE90311CDE981
:102BA0000111C0E90052C0E9021301618161FFF720
:102BB00035F8002818BFFDF7C7FE4FF480500B9082
:102BC00040F25C10C2F200000BA9FFF743F90028A5
:102BD00018BFFDF7B9FE40F25C10C2F20000FFF72B
:102BE000E3FB002818BFFDF7AFFE40F25C100024A5
:102BF000C2F2000008A9CDE90844FEF7C3FF00288F
:102C000018BFFDF7A1FE602001903220CDE902043B
:102C1000059440F25C14C2F2000401A92046082287
:102C2000FFF794FA002818BFFDF78EFE21680020F8
:102C3000A942CDE912001190109001D014B0B0BD9E
:102C400041F21800C4F20200016841F0080101607D
:102C5000006810A900F008000F900F984FF48070E2
:102C6000109002201190139005F58230FEF78CF938
:102C700014B0B0BDFEE70000FEE7000070470000A2
:102C800070470000B0B50C46FFF738FD601E4FF4EA
:102C9000004141F6004521FA00F4C4F2010528463E
:102CA00021460022FEF76AFA012000F08FF828463C
:102CB00021460122BDE8B040FEF760BAFEF76ABACD
:102CC0007047000040F2CC00C2F20000FFF794B958
:102CD00040F21410C2F20000FFF78EB940F25C100F
:102CE000C2F20000FFF788B910B540F6FF32036862
:102CF000C4F2000240F6004E43F2004C9042C4F28F
:102D0000000EC4F2010C21DCB0F1804F28D040F25B
:102D10000044C4F20004A04222D040F60004C4F2F1
:102D20000004A0421CD0904220DCB0F1804F27D09C
:102D300040F20042C4F20002904221D040F600026C
:102D4000C4F2000290421BD01EE000BF704507D0C5
:102D5000604505D042F60044C4F20104A042E2D12D
:102D60004C6823F0700323439042DEDD704507D0AA
:102D7000604505D042F60042C4F20102904203D100
:102D8000CA6823F4407313434C6923F08002D1F8DE
:102D900000E08B68224360450260C362C0F828E00F
:102DA00005D042F60042C4F20102904201D1096905
:102DB0000163012141610169C90708BF10BD0169B3
:102DC00021F00101016110BDFEE7000040B340F2B7
:102DD0001001C2F200010B6844F64032C0F24C020E
:102DE000934238BF704710B54CF66B2C4FF6184E17
:102DF000C6F65F3CCFF6FF7E934208D3A3FB0C34AC
:102E0000630D03FB0EF300BF013300BFFCD3013899
:102E100004D00B689342F1D2F9E700BFBDE810403F
:102E20007047000096B0FEF7C3F900240120CDE9F9
:102E30001144CDE90F440C9010904FF4E0104FF482
:102E40008031022515900CA80694CDE90444CDE903
:102E50000244CDE90D14CDE91351FEF779FC28B1F8
:102E6000EFF3108072B600BFFEE700BF0F20CDE980
:102E700007054FF48060CDE90A0407A802210994F0
:102E8000FEF748FB20B1EFF3108072B6FEE700BFFB
:102E9000022001904FF40040039001A8FEF7B8FA19
:102EA00020B1EFF3108072B6FEE700BFFFF746FDDA
:102EB000FFF718FDFFF7E6FDFFF758FEFFF71EFED0
:102EC00040F2CC00C2F20000FEF766FF40F29C0424
:102ED000C2F200042046FDF73DFD2046FDF7D8FF75
:102EE000FDF790FB40B100BFC820FEF739F8FDF7B1
:102EF00089FB0028F8D100BFFEE7000021F0004266
:102F000001F00043A2F16052B2F5801F28BFD2F158
:102F10007F6C0BD95FEA001C43EAC20242EB50709F
:102F200018BF704728BF20F001007047B2F5801F1E
:102F3000BCBF184670474FEA410C1CF5001F02D277
:102F4000084600F062BC70B500F056FA0000008937
:102F5000FFF7F6BF4FF00040A0F58000704700007B
:102F60002DE9C04130B4DFF8A8C23CEA111418BF03
:102F70003CEA131400F0F0801CEA111481EA030506
:102F800044EAD57418BF1CEA131500F0CB80A4EBFB
:102F9000050404F17F7404F500344FF0004545EA60
:102FA000C12145EAC32341EA505143EA52534FEA53
:102FB000C0204FEAC222994208BF904200F0A08090
:102FC0004FEA13650FF24816765D4FEA134506FB8C
:102FD00005F7C7F1807706FB07F74FEAD737A7FB5E
:102FE00003687642A7FB06CEC8F5803838BFA8F143
:102FF000010807FB08E6A6FB028C4FF0000EE6FB7B
:1030000003CED8F100086FEA0C0C5CF1000C6FEAFB
:103010000E0E4EF1004EA6FB0C584FF00007E6FBDB
:103020000E87A1FB08C6A0FB07CE16EB0E064FF0DD
:10303000000545F10005E1FB076515F1E04E7EBF97
:10304000A4F580345FEA46066D4116F1800745F12C
:1030500000054FEA172747EA05674FEA15254FEAAB
:103060000666A6F1DE46B6F1805F20D9384605EB4C
:10307000C47124F0010C01EB0C11BCF1FE6F02D8FD
:10308000F0BCBDE8008124425CBF01F5801E9EEAD1
:10309000C47F02D4F0BCBDE80081244200F1398035
:1030A000A1F1C041F0BCBDE8004100F0F3B94FEA26
:1030B000D02040EA41504FEAD1214FEAD22242EAE1
:1030C00043524FEAD323A7FB028607FB036605FBA7
:1030D00002661EEA0E0F58BFA6EB0056B6EB00566E
:1030E0004FEA520E4EEAC37E18EB0E0E56EB530E0D
:1030F000BCD518EB02085E417F1C55F10005B5E711
:103100004FF480154FF000074FF000064FF0000815
:10311000ACE701F1C04101F000414FF00000F0BC0C
:10312000BDE800810CEA131511EA0C1F00D00CE079
:1031300013EA0C1F00F025804FF0000081EA030124
:1031400001F00041F0BCBDE80081F0BCBDE80041E9
:1031500081EA030100F09EB9F0BCBDE8004170B502
:1031600000F04AF9097EFC3E00F007B84FF000007D
:1031700081EA030101F00041704781EA030100F098
:1031800089B9F0BCBDE8004122494FF0000070470A
:10319000FFFDFBF9F7F5F4F2F0EEEDEBE9E8E6E41C
:1031A000E3E1E0DEDDDBDAD8D7D5D4D3D1D0CFCDA3
:1031B000CCCBCAC8C7C6C5C4C2C1C0BFBEBDBCBBDC
:1031C000BAB9B8B7B6B5B4B3B2B1B0AFAEADACABD7
:1031D000AAA9A8A8A7A6A5A4A3A3A2A1A09F9F9EB1
:1031E0009D9C9C9B9A999998979796959594939363
:1031F000929191908F8F8E8E8D8C8C8B8B8A8989FA
:10320000888887878685858484838382828181807C
:103210000000FF070000F87F4FEA41034FEA5353D5
:10322000A3F58063D3F11E03C8BFD3F1210C0CDDDD
:103230004FF0004242EAC12242EA505232FA03FC05
:103240008CEAE17CACEBE1707047102BC4BF00202E
:10325000704703F5787CBCF1FF3F04D06FF000426B
:1032600082EA2100704770B500F0C6F849922480C8
:1032700000207047F2E710F0004248BF4042B0FA29
:1032800080F310FA03F10AD0C3F11D0303F5806344
:1032900002EB03524FEA415002EBD12170474FF04D
:1032A0000000704770B5DFF848C11CEA111E1EBF50
:1032B0001CEA13159EEA0C0F95EA0C0F00F06F80C4
:1032C00081EA03044EEAD47EAE4421EA4C1123EA9B
:1032D0004C1341F4801143F48013AEF17F7EA1FBC7
:1032E000024CA0FB0365361955EB0C05A1FB034C02
:1032F0004CF10003A0FB021C16EB0C06654153F1D8
:103300000003094218BF46F0010613F4007F0BD1F9
:103310004FEA03314FEA053041EA155140EA1650B1
:1033200034036FF003020AE04FEAC3214FEAC520DD
:1033300041EA555140EA5650F4026FF0020202EBA6
:103340002E4201EB025585EACE710AD05FEA440CA9
:1033500018BF24F0004450F1000041F1000120EAC0
:10336000D47040F2FE7C624500D270BDA84214BF0A
:103370004FF080444FF04044002E08BF0024BEF1BF
:10338000806FA8BFA1F1C041BDE8704080F282808B
:1033900001F1C04101F000414FF0000070470CEA1C
:1033A00013159EEA0C0F18BF95EA0C0F06D081EAA0
:1033B000030E4FF000000EF0004170BD00F01CF84D
:1033C0008900013E00F007B800F009B84FEA430C4D
:1033D0005FEA5C5C08D081EA030100F05BB84FEA69
:1033E000410C5FEA5C5CF6D102494FF00000704787
:1033F0000000FF070000F87F0EF1020E2EF0030E12
:103400005EF8046B364205D4012A43EB030515F53B
:10341000001F12D8012841EB010C1CF5001F0CD82D
:103420000ED14FEAD17C0CEB4C0C0CF1020C15F5D3
:10343000001F08BF4CEBD37C04E04FF0080C01E008
:103440004FEAD37C0CEB4C0526FA05F606F007068E
:10345000B6F1040C06D20EEB860CBDE870404CF0C1
:10346000010C6047DFE80CF0090B02024FF000414D
:10347000A1F500214FF0000070BD1946104601284B
:1034800051EB010418BFD4F5001484BF002001F0F3
:10349000004170BD0808A0F500114FEA31017047E6
:1034A00010B500F033F80CBF0120002010BD10B59E
:1034B00000F02CF814BF0120002010BD10B500F062
:1034C00075F88CBF0120002010BD10B500F06EF81B
:1034D0002CBF0120002010BD10B500F09BF894BF58
:1034E0000120002010BD10B500F094F834BF012079
:1034F000002010BD401058BFC0F14040491058BFD7
:10350000C1F140418142EFF30080704750EA010C65
:1035100000F113801CF5000F58BFBCF5000F01D45B
:103520008842704707D710F5000F58BF11F5000FFC
:1035300015D488427047894270471CF5000F04D5A6
:10354000BCF5000FF7D5814270474FF0807C1CEB33
:10355000400F38BF1CEB410F01D28142704710B5BC
:1035600000F00DF9922449004FF000504FF08051C7
:10357000FFF7C0BF41000B0ED3F19E0208D950F4F3
:1035800000034FEA032323FA02F048BF404270478A
:1035900010B500F0F4F800BF499224800020704775
:1035A0006FF0004282EA20007047000050EA010CF0
:1035B00000F113801CF5000F58BFBCF5000F01D4BB
:1035C0008842704707D710F5000F58BF11F5000F5C
:1035D00015D488427047894270471CF5000F04D506
:1035E000BCF5000FF7D5814270474FF0807C1CEB93
:1035F000400F38BF1CEB410F01D28142704710B51C
:1036000000F0BDF8922449004FF080504FF0005177
:10361000FFF770BF50EA010C00F113801CF5000F9A
:1036200058BFBCF5000F01D48842704707D710F58A
:10363000000F58BF11F5000F15D48842704789421A
:1036400070471CF5000F04D5BCF5000FF7D581427B
:1036500070474FF0807C1CEB400F38BF1CEB410FD4
:1036600001D28142704710B500F089F892244900D8
:103670004FF000504FF08051FFF73CBF4FF47F0CEC
:103680001CEAD0121EBF1CEAD11392EA0C0F93EA77
:103690000C0F00F0478090EA010F48BF42F480729F
:1036A0004FF0004C4CEA00204CEA012102EB0302EF
:1036B000A0FB0113A2F50002002918BF43F001038B
:1036C0005B0028BF4FEA330342EB22425FEA132C30
:1036D0004CEBC2502EBFBCEB436FB2F57C0F704772
:1036E0004FEA036CBCF1004F08BF20F00100B2F5B7
:1036F0007C0F38BF70470BD582F0FF0212F5803F78
:10370000C8BF704700F1C040D8BF00F0004070470C
:1037100000F5000C5FEA4C0C48BF7047B0F1C040A8
:1037200000F073B80CEAD11390EA010F48BF42F4DD
:103730008072624538BF634504D280EA010000F020
:103740000040704710B500F01AF800BF8900013E34
:1037500000F007B800F009B85FEA410C5FEA1C6CA2
:1037600008D080EA010000F050B85FEA400C5FEA40
:103770001C6CF6D14FF00040A0F5800070470EF1B0
:10378000020E2EF0030E5EF8044B244204D44FEADE
:103790004102B2F17F4F11D84FEA4003B3F17F4F9E
:1037A0000CD80ED14FEAD07C0CEB4C0C0CF1020C77
:1037B000B2F17F4F08BF4CEBD17C04E04FF0080C16
:1037C00001E04FEAD17C0CEB4C0324FA03F404F043
:1037D0000704B4F1040C06D20EEB840CBDE81040D3
:1037E0004CF0010C6047DFE80CF0070802024FF0D4
:1037F0000040A0F5800010BD0846420018BFD2F17D
:10380000807288BF00F0004010BDFF2141EAD05017
:10381000C005704700000000000000000102030422
:1038200006070809000000000102030401023F0628
:103830005B4F666D7D077F6F777C395E790203048D
:1038400005060708090A0B0C0D0E0F1010000000EA
:1038500070380008000000201800000094010008E3
:10386000883800081800002090070000B401000804
:103870005D07000000007041010000001000000022
:0838800000127A0000000000B4
:0400000508000131BD
:00000001FF
