:020000040800F2
:10000000B007002019020008B52F0008692E00086B
:10001000B12F0008FD0C0008E130000800000000CE
:10002000000000000000000000000000BD2F0008DC
:10003000190D000800000000B92F0008C12F0008AA
:1000400033020008330200083302000833020008BC
:1000500033020008330200083302000833020008AC
:10006000330200083302000833020008330200089C
:100070003302000833020008010D00080D0D0008CE
:100080003302000833020008410C00083302000864
:10009000330200083302000833020008330200086C
:1000A000330200083302000833020008330200085C
:1000B000330200083302000833020008330200084C
:1000C000330200083302000833020008330200083C
:1000D00033020008D530000833020008330200085C
:1000E000330200083302000833020008330200081C
:1000F000330200083302000833020008330200080C
:1001000033020008330200083302000833020008FB
:1001100033020008330200083302000833020008EB
:1001200033020008330200083302000833020008DB
:1001300000F002F800F060F814A696E8000CB24453
:10014000B344DA4501D100F057F8BAE80F000FA622
:1001500096E83000A5EB040504EB0607AAEB0704BC
:10016000A7F101074FEA15154FEA3414A4F1010471
:10017000AC4201D300F040F813F0010F18BFFB1A96
:1001800043F0010300F001F8DBE71847903F00005F
:10019000B03F0000103A24BF78C878C1FAD852079F
:1001A00024BF30C830C144BF04680C6070470000F1
:1001B000704700000023002400250026103A28BFC5
:1001C00078C1FBD8520728BF30C148BF0B607047C9
:1001D000662903F04187642900F0528000207047AF
:1001E0001FB500F0B7FB04000020002103F008FC5D
:1001F000E0601FBD10B510BD00F0ACFC1146FFF76C
:10020000EFFF02F06FFF00F0CAFC03B4FFF7F2FF4C
:1002100003BC00F00DFD0000094880470948004775
:10022000FEE7FEE7FEE7FEE7FEE7FEE7FEE7FEE7A6
:10023000FEE7FEE704480549054A064B7047000003
:10024000C52F000831010008B0010020B0070020D0
:10025000B0030020B00300200FB41CB5074B06AA62
:100260007B4469460090059800F05BFB00206946DE
:1002700000F06AFB1CBC5DF814FB0000E506000002
:100280002DE9F0410646002410687529314616A56F
:1002900010D0AFF30080002802DA404213A507E037
:1002A00031688A0701D512A502E0490704D511A5D6
:1002B000012401E0AFF3008000210A2206F12407A7
:1002C00009E0B0FBF2FCB0FBF2F302FB1C003030A3
:1002D00078541846491C0028F3D123462A46304654
:1002E000BDE8F04100F0B1B8000000002D000000B2
:1002F0002B000000200000002DE9F0474FF0000A1D
:1003000089460446C0F820A02046E16888470028B6
:1003100076D0252806D0D4E901219047206A401CD8
:100320002062F1E7E168204600258847C4F81CA058
:1003300006460027C4F818A02A2E09D0304603F03C
:1003400057FB38B304EB8708303EC8F8186019E053
:1003500059F8041B204604EB87029161E168884745
:10036000012F064618D1E069002820DA25F0200583
:100370001DE0D8F8180000EB800006EB4000303894
:10038000C8F818002046E1688847064603F030FBAD
:100390000028EED1012F0AD02E2E08D12046E16888
:1003A00088477F1C0646022F45F02005C4DBA06964
:1003B000002803DA404245F00105A061E80701D0BA
:1003C00025F01005B6B1A6F14100192802D8203653
:1003D00045F400654A463146204625604D46FFF704
:1003E000F7FE58B1012806D0ED1D25F0070000F1F9
:1003F000080989E704E005F1040985E730468AE742
:10040000206ABDE8F08710B5431C02E010F8011B1C
:1004100071B18107FAD14FF0013202C88C1A8C43B6
:1004200014EAC211F9D0C01A0A0603D0C01E10BDCA
:10043000C01A10BD0A0401D0801E10BD0902FCD0F4
:10044000401E10BD7047704770472DE9F0470D46BC
:1004500099469246044600F124080168880604D5AE
:10046000E06921F01001216000E00120A84201DDD7
:10047000471B00E00027A1697A1902EB0900081A5E
:10048000A0612078C00602D42046AFF30080002689
:1004900008E0D4E901211AF806009047206A401CC0
:1004A000761C20624E45F4DB2078C0060AD5204633
:1004B000AFF3008006E0D4E9012130209047206AA4
:1004C000401C2062381EA7F10107F4DC07E0D4E9E4
:1004D000012118F805009047206A401C2062281E60
:1004E000A5F10105F3DC2046AFF30080207800067B
:1004F00002D50220BDE8F0870120FBE72DE9FF4F80
:100500000C461E464FF0FF378BB0D2E90001DDF8F4
:1005100060800A908A46C1F30A5505B93D4600211C
:1005200008464FF00000BAF1000F00F4400005DA71
:1005300000EB80004FF4400101EA50004FEA90596F
:10054000B9F1010F00DDB9460A9850EA4A000ED011
:1005500044F61050A5F2FF3545432F14B8F1000FB3
:100560001ED07542291E1EDDC9F100021CE0B8F143
:10057000010F4FF0000001D0302103E0F24305E00D
:100580002154401CB042FBDB3046002200212154A4
:100590000B99C1F80880C1E900200FB0BDE8F08FC9
:1005A000BD1B6D1CDEE74A4600DA694206A800F072
:1005B0005BFA06AB93E8070003AB83E807005046FD
:1005C0000A9902F039FE8DE80700A0F500501F38A7
:1005D00000900398002D0ADD42F21F014A460844AC
:1005E000002303A90390684603F0A2F809E0A0F5F0
:1005F00000504A461F38002303A90390684603F0C1
:10060000ACF88DE807000004000C03D04FF0FF3079
:10061000410800E01046B8F1000F03D0002200921C
:1006200015461EE0751E05D400F098F9303262556B
:100630006D1EF9D5B3460122084302D000227F1C6B
:1006400004E02078302801D100227F1E002A09977B
:1006500084D01DE0112D07DA00F080F930326255A8
:100660006D1C50EA0102F5D1084302D00098C8B1D0
:100670000EE00021681E05E0235C625C6354225496
:10068000401E491C8142F7DBAB46A81B401E099067
:10069000002004F80B000B98099AC0F80880C0E904
:1006A000002B7AE711264FF0000857E72DE9F04FAD
:1006B00088460446D21D22F0070191B0D1E900011D
:1006C000CDE90A0103F080F902460B98C00F01D072
:1006D0002D2007E02068810701D52B2002E0202192
:1006E00001EAC000032A099001D0072A05DB03466E
:1006F0004146204600F078F90BE12078800601D5CC
:10070000E06900E00620B8F1650F814606D0B8F137
:10071000660F18D0B8F1670F70D131E00020B9F141
:10072000110F009001DB112301E009F101030AAA76
:1007300001A90CA8FFF7E2FEDDE90C70002609F123
:100740000105834647E001204B4600904FF00047EB
:100750000AAA01A90CA8FFF7D1FEDDE90DB00C999A
:100760005D46002610B909F101000D18B9EB05002E
:1007700003D4C0F1FF3609F10105A5EB09002BE018
:10078000B9F1010F01DA4FF001090020B9F1110FA1
:100790000090484601DD112300E003460AAA01A9A2
:1007A0000CA8FFF7ABFEDDE90C704D460026834632
:1007B000207800070AD4AB4500DA5D4601A8012D78
:1007C00004DD411911F8011C302907D04F4502DA28
:1007D00017F1040F04DA012082460FE06D1EEEE7E8
:1007E000002F02DCED1B3E4403E0781CA84200DD34
:1007F0007D1CB81B00F1010A4FF00047207800076C
:1008000003D4AA4501DB4FF0FF3A0021B7F1004FB6
:100810000DF143088DF8431024D002202B23002F24
:1008200001DA7F422D230A21021EA0F1010000DC23
:100830005FB197FBF1FC97FBF1F201FB1C7C1746C3
:100840000CF1300C08F801CDEEE7A8F101000370BF
:100850002188090501D5452100E06521A0F10108A5
:1008600000F8011C09980FA9A1EB0807FF1D00B1B2
:100870000120411901EBEA70A1693844081A401EB1
:10088000A0612078C00602D42046AFF3008009980A
:1008900028B1D4E901219047206A401C20622078C9
:1008A000C00622D52046AFF300801EE0002E04DBF8
:1008B000B34502DD01A8805D00E03020D4E90121CC
:1008C0009047206A401C2062761CAAF101005FEA72
:1008D000000A0AD100F03EF8C0680168405CD4E923
:1008E00001219047206A401C2062281EA5F10105C5
:1008F000DCDC07E0D4E9012118F8010B9047206AFD
:10090000401C2062381EA7F10107F3DC2046AFF33C
:100910000080032011B041E601694A1C0261087899
:10092000704700B58FB0CDE901310021059105492F
:100930007944CDE9031011466846FFF7DDFC0FB09E
:1009400000BD0000E5FFFFFF0A6802F8010B0A6026
:1009500070470000004870473000002030B5B0F10B
:100960000A0271F100034FEA900E4EEA817EB0EB6D
:100970000E0061EB91014FEA101E4EEA017E10EB72
:100980000E0041EB11114FEA102E4EEA016E10EBF2
:100990000E0041EB11214FEA104E4EEA014E10EBD2
:1009A0000E0041EB1141401841F100014FEAD00027
:1009B00040EA41704FEAD1014FEA810444EA907461
:1009C00010EB800544EB01046D1944EB0404521B49
:1009D000A3414FF0000348BF0A3200D530BD401C90
:1009E00041F1000130BD00002DE9F0411F460446F1
:1009F00003260168072A01F4006004DB08B116A58C
:100A000005E016A503E008B115A500E015A521F045
:100A100010002060A069C01EA0610FB1401EA0613F
:100A20002046AFF300804FB1D4E90121384690470A
:100A3000206A401C2062C01C206206E0206AFAE79F
:100A4000D4E9012115F8010B9047761EF8D2204613
:100A5000AFF30080BDE8F0814E414E006E616E0044
:100A6000494E4600696E66002DE9F04781461646FC
:100A70008AB0354878440DC88DE80D003248784476
:100A8000801C03AC0DC884E80D0041F69B3008447F
:100A9000372190FBF1F290FBF1F5A5F1800501FB08
:100AA00012041B3C02D56442012000E00020DFF864
:100AB00098A080460027FA44AAF1BE0A0EE0E0079B
:100AC0000AD03246684607EB470101230AEB810151
:100AD00002F043FE8DE8070064107F1C002CEED16D
:100AE000194F7F44AE3F19E0E80715D007EB04101B
:100AF0000DF1180A90E80E008AE80E00C068F04276
:100B000001D1981908903246012306A903A802F0E2
:100B100024FE03AB83E807006D10641C002DE3D1B5
:100B20004FF0010332466946B8F1000F03A802D026
:100B300002F0FEFD01E002F010FEC9E90001C9F873
:100B400008200AB0BDE8F087603600000048704712
:100B5000100000207546FFF7F9FFAE460500694614
:100B6000534620F00700854618B020B5FFF762FB1A
:100B7000BDE820404FF000064FF000074FF000089E
:100B80004FF0000BAC46ACE8C009ACE8C009ACE8DB
:100B9000C009ACE8C00921F007018D46704710B5C7
:100BA0000446AFF300802046BDE81040FFF72DBBA0
:100BB0004FF0013C50F8042B51F8043B9A4221D1EC
:100BC000A2EB0C03934313EACC1317D150F8042B78
:100BD00051F8043B9A4215D1A2EB0C03934313EA5C
:100BE000CC130BD150F8042B51F8043B9A4209D195
:100BF000A2EB0C03934313EACC13DBD04FF00000BD
:100C0000704700BFD01A01BAB1FA81F101F01801A2
:100C100022FA01F0CB40DBB2C0B2C01AC1F1200110
:100C20002CFA01F3D11A914311EAC311E6D17047AE
:100C300001491820ABBEFEE7260002007047000005
:100C400040F2AC00C2F2000000F018B9B0B582B0BA
:100C500004460020019021688A68D2074BD1886839
:100C600040F00100886040F20800C2F20000006815
:100C70004DF68361C4F21B31A0FB0101880C019089
:100C80000198A0B1019801380190019878B10198BC
:100C900001380190019850B10198013801900198F4
:100CA00028B101980138019001980028EAD100F09C
:100CB00051FF21688968C9071CD1054603E000BFC0
:100CC0008068C00716D100F045FF411B206803294A
:100CD000F6D38168C907F3D1A06A40F01000A06282
:100CE000E06A40F00100E062002084F82400012066
:100CF00002B0B0BD002002B0B0BD0000FEE70000B1
:100D000040F22010C2F2000000F080BC40F2DC0093
:100D1000C2F2000000F07ABC70470000EFF31080D0
:100D200072B600BFFEE700007047000070B581B0EA
:100D30000022009290F82420012A03D102210846C3
:100D400001B070BD4A680123062A02EB820E80F8CA
:100D5000243007D8D0F800C06FF004030CF134063B
:100D60000CE000BFD0F800C00C2A87BF0CF12C06A5
:100D70006FF040030CF130066FF022030EEB03021C
:100D80001F23346803FA02F50B6824EA050503FA09
:100D900002F22A433260092B03EB43021AD9DCF832
:100DA0000C601E3A072589689540AE43914023F0B8
:100DB00001023143102ACCF80C1015D142F2004147
:100DC000C4F201018C4517D0816A41F02001816293
:100DD00001210AE0DCF81030072689689640B34309
:100DE00091401943CCF810100021002280F82420F3
:100DF000084601B070BD00BF89680902F4D4DCF870
:100E00000810102B41F40001CCF80810ECD140F28E
:100E10000801C2F2000109684DF68362C4F21B3278
:100E2000A1FB0212910C01EB810149000091009994
:100E30000029D9D000990139009100990029D3D017
:100E400000990139009100990029CDD0009901390C
:100E5000009100990029C7D00099013900910099AB
:100E600000294FF00001E5D1BFE700007047000006
:100E7000806A70470068C06C7047000070B5044617
:100E8000006805684668B10627D515F0020124D030
:100E9000A16AC90603D4A16A41F40071A162816804
:100EA00001F46021B1F5602F10D1217B71B9416847
:100EB00021F020014160A06A20F48070A062A06A45
:100EC000C00403D4A06A40F00100A0622046FFF7EE
:100ED000CDFF20686FF012010160310633D515F0A7
:100EE000040130D0A16AC90603D4A16A41F40051BB
:100EF000A162816801F4E041B1F5E04F10D1416891
:100F000021F080014160A06A20F48050A062A06AB4
:100F1000C00511D4A06A40F00100A0620CE000BF3F
:100F20004168490508D4816801F46021B1F5602F5A
:100F300002D1217B0029E2D02046FFF7F5FE206890
:100F40006FF00C01016070060ED515F0010008BFAE
:100F500070BDA06A40F48030A062204600F0BCF86A
:100F600020686FF00101016070BD0000002804BF1F
:100F700001207047B0B50446806A28B121688868AE
:100F8000C0070CD115E000BF0020E06284F8240007
:100F9000204600F0A3F821688868C00709D0886857
:100FA00020F00100886000F0D5FD21688A68D20732
:100FB00030D1A06AC00644D4A06A41F20212904324
:100FC0000230A062E36981F0804080F49E3083F4B7
:100FD00040221043D4E9010208BF4FF4002343EA42
:100FE000000C531EB3FA83F35D091346B2F5807FFC
:100FF00018BF2B02207D257B01284CEA45002CD10F
:1010000035B3A56A45F02005A562E56A45F00105FE
:10101000E56222E0054602E08868C007C9D000F01A
:1010200099FD401B21680328F6D38868C007F3D0D8
:10103000A06A40F01000A062E06A40F00100E062A7
:10104000A06AA06A40F01000A0620120B0BD00BFFD
:10105000A56903EB4533A3F5C0534D68B2F5807F16
:1010600025F4694543EA05034B608B684FF2FD7533
:10107000CFF6E17503EA050343EA00038B6001D074
:10108000012A07D122690023CFF6F07303EB025245
:1010900001E000BF0022CB6A23F470031A43CA6246
:1010A000896840F6FE62CFF61F721140814207D177
:1010B0000020E062A16A012262F30101A162B0BDD9
:1010C000A06A40F0100020F00200A062E06A40F048
:1010D0000100E0620120B0BD7047000080B586B01D
:1010E000014640F60000C4F20100096800F5E05234
:1010F00091424FF00001CDE90411CDE9021101D078
:1011000006B080BD41F21801C4F202010A6842F43F
:1011100000720A600A6802F400720192019A0A6879
:1011200042F004020A60096801F00401019101998A
:10113000082102910321039102A900F011FC122061
:101140000021002200F086FD122000F071FD06B0A3
:1011500080BD00002DE9F04182B000270D46044615
:10116000019700F0F7FC21688A68D20544D406464E
:101170004868C00503D4C86A10F4700F46D040F226
:101180000800C2F20000076842F292480220C1F251
:10119000492800F09BFD216844F624130A69B7FB37
:1011A000F0F0C2F292431A4206D1CA6844F6241300
:1011B000C0F292031A425BD00A6912EA080F07D103
:1011C000CA6842F29243C0F249031A4200F0C0805A
:1011D0000A6949F24923C0F224031A424FF0FC0283
:1011E00054D1CF681F4208BF5422019B02FB00F775
:1011F000BB4250D3C3E000BFA06A40F02000A06211
:1012000084F82470012002B0BDE8F08108688007EE
:1012100000F1B580681C00F0A880FDB9086880075F
:1012200070D50868800700F1AA800868800769D532
:101230000868800700F1A3800868800762D5086805
:10124000800700F19C80086880075BD508688007EC
:10125000E4D594E00868800700F1918000F07AFC02
:10126000801B2168A842F5D908688007F2D449E0BC
:101270000A6912EA080F4FF0290207D1CB6842F23F
:101280009247C0F249073B4208BF1422019B02FB70
:1012900000F7BB4273D2681C52D05DBB0198B842C4
:1012A00030D30198013001900198B84267D201987B
:1012B000B84227D30198013001900198B8425ED21C
:1012C0000198B8421ED30198013001900198B842AC
:1012D00055D20198B84215D3019801300190019878
:1012E000B842DBD34BE000BF019801300190019878
:1012F000B84235D200F02EFC801BA842F4D90198E8
:10130000B842F1D2A06A40F00400A062002084F844
:101310002400032002B0BDE8F08100BF0198013035
:1013200001900198B8422AD20198013001900198A9
:10133000B84224D20198013001900198B8421ED2DF
:101340000198013001900198B842E7D317E000BF3F
:101350005422019B02FB00F7BB429CD30FE000BF6D
:1013600021680CE00868800709D40868800706D463
:10137000086880075CBF08685FEA8070F2D56FF08C
:1013800012000860A06A40F40070A062886800F44F
:101390006020B0F5602F01D1207B18B1002002B091
:1013A000BDE8F081A06A20F48070A062A06AC00449
:1013B000F4D4A06A40F00100A062002002B0BDE8B1
:1013C000F081000010B5044690F82400012804BF05
:1013D000022010BD012084F824002046FFF736FCCF
:1013E00020B1002084F82400012010BD42F2044CFA
:1013F0002068A16AC4F2010C40F2013291430CF55D
:101400007F7201F580719042A16229D0A16A21F416
:101410008011A1624168490504D5A16A012363F3E3
:101420000D31A162A16A0023C9044FF0000144BF3D
:10143000E16A21F00601E1626FF0020184F82430D4
:101440000160816801F46021B1F5602F1BD19042E9
:1014500014D0816841F4A0018160002010BD00BF5C
:10146000DCF8001011F4702FD0D0A16A41F4801183
:10147000A162DCF800104905CFD4D3E7DCF80010F6
:1014800011F4702FE5D0816841F480118160002053
:1014900010BD0000014690F82100022816D108680E
:1014A000D1E90FC3026822F00E020260026822F046
:1014B00001020260012000FA03F2CCF8042081F856
:1014C00021000020002281F820207047042088633A
:1014D0000120002281F820207047000090F82110A0
:1014E000022927D1026840F2040C1368C4F2020CEE
:1014F00023F00E03136013680CF17C018A4223F081
:10150000010111601AD940F20841C4F202018A4275
:1015100050D040F21C41C4F202018A4242D040F253
:101520003041C4F202018A4248D14FF48073CCF8B2
:1015300000345CE004218163012070474321C4F240
:1015400002018A420EDD6B21C4F202018A421BDCD9
:101550004421C4F202018A423ED05821C4F2020161
:101560008A4223E00821C4F202018A4232D01C21BF
:10157000C4F202018A4237D03021C4F202018A4209
:1015800014D14FF4807230E06C21C4F202018A421F
:1015900026D08021C4F202018A4207D14FF0807226
:1015A00023E000BF1023CCF8003420E04FF4803259
:1015B0001BE000BF0123CCF8003418E00CF5886173
:1015C0004FF480338A4208BF4FF48053CCF8003484
:1015D0000DE000BF012208E04FF4805205E000BF9B
:1015E0004FF4801201E000BF1022CCF8002001214E
:1015F00080F82110416B0022002980F8202004BFD0
:101600000020704780B58847002080BD10B5D0E924
:101610000FE3D0F800C0DEF80020DCF80010DA405C
:1016200054072DD511F004042AD0DCF800108906E7
:1016300005D4DCF8001021F00401CCF800100422DD
:10164000C4F2020202F17C018C4569D940F20841E2
:10165000C4F202018C4500F0B78040F21C41C4F294
:1016600002018C4500F0A88040F23041C4F2020132
:101670008C4540F0AD804FF48061C2F80014F3E077
:1016800094072FD511F002042CD0DCF80010890645
:1016900008D4DCF8001021F00A01CCF80010012178
:1016A00080F821100422C4F2020202F17C018C4570
:1016B0004CD940F20841C4F202018C4500F0BC80D4
:1016C00040F21C41C4F202018C4500F0AD8040F2B2
:1016D0003041C4F202018C4540F0B8804FF40071F3
:1016E000BCE000BF120740F1D78011F0080108BF2D
:1016F00010BDDCF8001021F00E01CCF80010012123
:1017000001FA03F2CEF80420816380F82110016B06
:101710000022002980F8202040F0A880BCE000BF13
:101720004321C4F202018C4526DD6B21C4F2020183
:101730008C4533DC4421C4F202018C4500F07E80EC
:101740005821C4F202018C453AE000BF4321C4F2A3
:1017500002018C4548DD6B21C4F202018C4555DC49
:101760004421C4F202018C4500F086805821C4F265
:1017700002018C455CE000BF0821C4F202018C45E7
:1017800054D01C21C4F202018C456BD03021C4F22C
:1017900002018C4514D14FF4806164E06C21C4F2E5
:1017A00002018C454ED08021C4F202018C4507D144
:1017B0004FF0806157E000BF4021C2F8001453E0B1
:1017C0004FF480214FE000BF0421C2F800144BE029
:1017D00002F588634FF480219C4508BF4FF4804197
:1017E000C2F8001440E000BF0821C4F202018C4599
:1017F00040D01C21C4F202018C4545D03021C4F2F6
:1018000002018C4514D14FF400713EE06C21C4F20A
:1018100002018C4534D08021C4F202018C4507D1ED
:101820004FF0007131E000BF202117E004211AE0E1
:101830004FF4003129E000BF02210FE04FF4804156
:1018400011E000BF4FF480010DE000BF02F5886396
:101850004FF400319C4508BF4FF40051C2F800140A
:1018600014E000BF40211160C16AA9B1BDE8104079
:10187000084700BF022108E04FF4005105E000BF17
:101880004FF4001101E000BF20211160816A0022A5
:10189000002980F82020E9D110BD00000146002871
:1018A0004FF0010008BF70472DE9F04740F2000CEF
:1018B000C4F2020C0A684FF6F8330CF5816ECBF6D1
:1018C000FD73724538BF03F5806303EB020E4CF6DF
:1018D000CD43CCF6CC43AEFB033E0CF580636FF0FA
:1018E0000304D1E9019AD1F80C803CBF0023C4F273
:1018F000020304EA9E04C1E90F34022381F8213077
:10190000136843F6F074A34301F1100743EA090397
:10191000F0CF43EA0A0343EA080323432B4333434C
:101920003B43136000228A6381F8210081F8202064
:101930000020BDE8F0477047B0B5044600F00AF952
:10194000054640F20000C2F200000078611C18BF9A
:10195000044400BF00F0FEF8401BA042FAD3B0BD23
:101960002DE9F04F82B00E68002E00F0E980A0F162
:10197000804241F6004540F20043A2F58432C4F2B1
:1019800001050624C4F201034FEAB227A84208BFAA
:1019900005244FF0000E4FF001080F254FF0000A0C
:1019A0004FF0000B052F38BF4FEAB224009408E037
:1019B0000E680AF1010A36FA0AF20EF1040E00F07E
:1019C000BF8008FA0AFC16EA0C09F1D04E684FF6FF
:1019D000FF72C1F21002964212DC122E56D8DFE8D6
:1019E00006F0350B4D4955555555555555555555D9
:1019F00055555545510000BFD1F80CB046E000BF29
:101A00004FF6FF72C1F2210296420FDC0022C1F2B2
:101A1000110296421AD00022C1F21202964215D04B
:101A20000022C1F22102964210D02FE00022C1F222
:101A3000220296420AD00022C1F23102964205D01B
:101A40000022C1F23202964220D100BF8A684AB118
:101A5000012A14BFC0F814C0C0F810C04FF0080B22
:101A600014E000BF4FF0040B10E000BFCA6802F1A1
:101A7000040B0BE04FF0000B08E000BFCA6802F156
:101A8000080B03E0CA6802F10C0B00BF0246744663
:101A9000B9F5807F24BF0432203C166805FA04F7AC
:101AA00026EA07070BFA04F637431760CA79D2060D
:101AB0007FF57EAF41F21807C4F202073A684FF68D
:101AC000084542F001023A603A68CFF6FF7502F02D
:101AD00001020192019A2AF003021A440F24575975
:101AE0000EF00C06B440A743009C04FA06F63743F8
:101AF00057514E6840F20C44F2029A6854BF22EAF1
:101B0000090242EA0902C4F201049A602268B7029B
:101B100054BF22EA090242EA090222605A68B70366
:101B200054BF22EA090242EA09025A600F251A68E4
:101B3000F70354BF22EA090242EA09021A6037E7B2
:101B400002B0BDE8F08F0000002A08BF090401615F
:101B50007047000040F2AC10C2F20000006870470D
:101B600040F2000040F2AC11C2F20000C2F20001EB
:101B700000780A68104408607047000080B542F29F
:101B80000000C4F20200016841F01001016003206E
:101B900000F08CF80F2000F005F800F027F8002086
:101BA00080BD000070B540F20006C2F2000640F2AF
:101BB00008013278C2F200014FF47A730968B3FB6E
:101BC000F2F20446B1FBF2F1084600F0BBFC0F2C28
:101BD0004FF0010508D838B94FF0FF3021460022F8
:101BE000002500F037F87460284670BD82B041F2DD
:101BF0001800C4F202000168022241F001010160F4
:101C0000016801F0010101910199416841F08051A1
:101C10004160406800F08050009000980420C4F2B9
:101C20000100016862F31A61016002B070470000B0
:101C3000002848BF704700F01F01012202FA01F19D
:101C40001C2202EAD0004EF20012CEF200028150B5
:101C50007047000010B54EF60C5CCEF2000CDCF8BC
:101C60000030C3F3022E8EF00704042C28BF042496
:101C7000BEF103034FF0FF3E0EFA04F438BF002319
:101C8000A14399400EFA03F39A43114300F00F0267
:101C900000F160430901043A03F5644362440028FB
:101CA00048BF02F10C03197010BD00004EF60C5134
:101CB000CEF200010A684FF6FF031A4060F30A22D1
:101CC00042F0806040F0FD7008607047411E0F29AF
:101CD0004FF000003DD8DFE801F00B2B3C093C3C05
:101CE0003C093C3C3C3C3C3C3C3D00BF00F0FEB968
:101CF00041F20400C4F20200C16940F202320A401B
:101D0000B2F5817F04BF4FF40040704701F4407189
:101D1000B1F5407F50D0B1F5007F1CBF0020704767
:101D2000006A49F64041800701EAE070704700BF51
:101D300080B500F0C7F941F20401C4F2020109685C
:101D40000222C1F3813102EB4101B0FBF1F0BDE8A9
:101D50008040704741F20401C4F202010A6851F860
:101D6000040CC0015CBF00207047C2F3834016A37F
:101D7000185CD20306D440F60012C0F23D02504374
:101D80000CE000BF0A6814A3C2F340429A5C41F21F
:101D90000023C0F27A03B3FBF2F250430968490210
:101DA00048BF70474AF6AB214000CAF6AA21A0FB03
:101DB00001014808704700BF50F8040C4FF224415D
:101DC000800301EAE0707047020304050607080972
:101DD0000A0B0C0D0E0F1010010200002DE9F0414E
:101DE00082B00446007841F21C06C007C4F2020625
:101DF0004AD030685FEAC00808D4306840F08050AC
:101E00003060306800F080500190019847F2000780
:101E1000C4F200073868C00512D4386840F48070F6
:101E20003860FFF797FE05463868C00508D4FFF70D
:101E300091FE401B6428F7D9032002B0BDE8F08171
:101E4000706810F4407012D0616801F440718842EB
:101E50000DD0706840F24042C4F24222012320F4C7
:101E6000407113600023C0071360716026D1706851
:101E7000616820F440700843B8F1000F706003D42B
:101E8000306820F0805030602068810707D556F810
:101E9000181CA26821F44041114346F8181CC006E2
:101EA00007D556F8180C616920F48000084346F8FD
:101EB000180C002002B0BDE8F08100BFFFF74AFE19
:101EC000054641F2883700BF70688007CFD4FFF71E
:101ED00041FE401BB8424FF00300F5D9EAE700008D
:101EE000002804BF012070472DE9F04381B042F281
:101EF0000008C4F202080446D8F800000D4600F0BD
:101F0000070081420CD9D8F8000020F007002843D0
:101F1000C8F80000D8F8000000F00700A8426CD113
:101F2000206841F204098107C4F2020917D541076C
:101F300005D5D9F8001041F4E061C9F80010010797
:101F400005D5D9F8001041F46051C9F80010D9F84E
:101F50000010A26821F0F0011143C9F80010C00779
:101F600042D1D8F8000000F0070085420CD2D8F822
:101F7000000020F007002843C8F80000D8F800004F
:101F800000F00700A84238D12068410707D5D9F8EA
:101F90000010E26821F4E0611143C9F80010000765
:101FA00008D5D9F80000216920F4605040EAC1004A
:101FB000C9F80000D9F8002002F00C00082841F20E
:101FC0000020C0F27A004DD144F20A13C2F38341DB
:101FD000C0F60003595CD20338D440F60010C0F2BA
:101FE0003D0048433EE000BF606859F8041C0228E9
:101FF00008D0012826D1890306D4012001B0BDE80C
:10200000F08300BF8901F8D5D9F8001021F0030151
:102010000843C9F80000FFF79DFD064641F28837E6
:10202000D9F80000616800F00C00B0EB810F98D087
:10203000FFF790FD801BB842F2D9032001B0BDE844
:10204000F08300BF8907D8D5DEE700BFD9F80020AC
:1020500044F20813C2F34042C0F600039A5C4843BE
:10206000B0FBF2F0D9F8001044F2F002C1F3031112
:10207000C0F60002515C40F2080220FA01F140F281
:102080000400C2F200000068C2F200021160FFF713
:1020900089FD002001B0BDE8F083000040F2080097
:1020A00041F20401C2F20000C4F2020100680968B2
:1020B00044F20012C1F30221C0F60002515CC84094
:1020C0007047000040F2080041F20401C2F2000033
:1020D000C4F202010068096844F20012C1F3C2218F
:1020E000C0F60002515CC8407047000041F2040C89
:1020F000C4F2020CDCF8003003F00C00082841F2B6
:102100000020C0F27A0018BF704744F20A11C3F3EE
:102110008342C0F600018A5CD90305D440F6001062
:10212000C0F23D0050437047DCF8001044F2081341
:10213000C1F34041C0F60003595C5043B0FBF1F0DD
:1021400070470000002804BF012070472DE9F041CE
:1021500082B00446007841F20006C007C4F20206CD
:102160000CD0706800F00C00042840F081803068CA
:10217000800303D56068002800F04681207880073E
:102180001BD5706810F00C0F09D0706800F00C00BF
:10219000082840F087807068C00300F183803068B1
:1021A000800703D52069012840F02E8130686169DD
:1021B00020F0F80040EAC10030602078000713D416
:1021C000207840072CD4E569002D00F01881706854
:1021D00000F00C00082840F0A780012D40F0048199
:1021E000012002B0BDE8F081A069002800F08480E1
:1021F0000020C4F242200121C0F88014FFF7AAFC9D
:10220000054600BF706A800700F1B280FFF7A2FCAC
:10221000401B0228F6D9032002B0BDE8F08100BFC0
:10222000F0695FEAC00808D4F06940F08050F061BE
:10223000F06900F080500090009847F20007C4F267
:1022400000073868C00549D4386840F480703860A9
:10225000FFF780FC054600BF3868C0053ED4FFF795
:1022600079FC401B6428F7D9032002B0BDE8F08157
:10227000706800F00C00082803D17068C0033FF5B7
:1022800076AF61683068002900F00C81B1F5A02FAD
:1022900000F00081B1F5803F40F01A8140F48030B9
:1022A0001CE100BF2069002840F20000C4F2422077
:1022B00000F0888001210160FFF74CFC054600BF5B
:1022C000306880073FF572AFFFF744FC401B0228DF
:1022D000F6D9032002B0BDE8F08100BFE168306AA2
:1022E000002900F09D80052900F09280012940F02E
:1022F000AF8040F00100B1E00020C4F24220002194
:10230000C0F88014FFF726FC054600BF706A8007FE
:102310007FF556AFFFF71EFC401B0228F6D90320BD
:1023200002B0BDE8F08100BF0027C4F242270020C0
:102330003866FFF70FFC022D05460DD1306880018D
:1023400040F1DE80FFF706FC401B02284FF003003F
:10235000F4D902B0BDE8F081306880014FD5FFF7B5
:10236000F9FB401B02284FF00300F5D9F1E700BF4D
:1023700040F20800C2F20000006844F6D351C1F2F6
:102380006201A0FB0101480A019000BF00BF019853
:10239000411E002801913FF413AF00BF0198411E78
:1023A000002801913FF40CAF00BF0198411E0028A6
:1023B00001913FF405AF00BF0198411E0028019133
:1023C000E4D1FDE600210160FFF7C4FB054600BF34
:1023D000306880077FF5F1AEFFF7BCFB401B022899
:1023E0004FF00300F4D9B4E77068216A00F480323A
:1023F0008A4209D1616A00F47010884204D1002039
:1024000002B0BDE8F08100BF012002B0BDE8F0815C
:1024100040F004003062306A40F001001EE000BF6E
:1024200020F001003062306A20F004003062FFF7D3
:1024300091FB054641F28837306A800720D5FFF7C7
:1024400089FB401BB8424FF00300F5D981E700BF7C
:1024500020F001003062306A20F004003062FFF7A3
:1024600079FB054641F28837306A800708D4FFF7C8
:1024700071FB401BB842F7D9032002B0BDE8F081E0
:10248000B8F1000F3FF59FAEF06920F08050F06189
:1024900099E600BF40F480203060306840F480301E
:1024A0001CE000BF20F480303060306820F48020D1
:1024B0003060FFF74FFB0546306880037FF55EAE66
:1024C000FFF748FB401B64284FF00300F4D940E7B6
:1024D00020F480303060306820F480203060FFF7D6
:1024E00039FB0546306880033FF548AEFFF732FB05
:1024F000401B6428F6D9032002B0BDE8F08100BF7C
:10250000206AB0F5803F05D17168A26821F40031DE
:10251000114371607168626A21F4741111430843B8
:10252000706001203866FFF715FB044630688001B3
:102530003FF565AFFFF70EFB001B02284FF00300CD
:10254000F4D906E7411E0020B0EB116F1CBF01203B
:1025500070474EF21002CEF2000251604EF6235147
:10256000CEF20001F0230B700721906011607047DC
:102570007047000070470000B0B582B001680A687B
:10258000CC684B6902F02F05202D04F0200505D101
:1025900025B102B0BDE8B04000F01CBD5FEA027C8E
:1025A0001EBF03F0010E04F4907313EB0E0341D130
:1025B000036BD50618D5012B16D114F0100313D0D8
:1025C000002201920A6801924A680192019A4969BF
:1025D00049064BD4818DC28DC38D002B18BF91420B
:1025E00040F0F48102B0B0BD13062DD514F0800385
:1025F0002AD090F84120212AF4D18268B2F5805F78
:1026000003D10269002A00F06782026A531C036248
:1026100012784A60C28C013A1304C284E2D1C868BD
:1026200020F08000C860C86840F04000C86002B078
:10263000B0BD00BFD30718BF14F4807340F0D08042
:10264000530700F1D380D8E05206CBD514F04002F6
:10265000C8D0CA6822F04002CA60202180F8411028
:1026600002B0BDE8B04000F0FDBB00BFC16B0A681E
:10267000526893B2002BB5D0858DAB42B2D2C285E1
:102680008969202900F0A180016851E8031F0268D0
:1026900021F4807142E80313DBB1016851E8031FA4
:1026A000026821F4807142E8031393B1016851E894
:1026B000031F026821F4807142E803134BB10168E3
:1026C00051E8031F026821F4807142E80313002BD4
:1026D000DAD1016851E8051F026821F0010142E8E2
:1026E0000513C3B3016851E8051F026821F0010119
:1026F00042E805137BB3016851E8051F026821F029
:10270000010142E8051333B3016851E8051F02686F
:1027100021F0010142E80513002BDAD11BE000BFD4
:10272000016851E8051F026821F0400142E80513E5
:10273000DBB1016851E8051F026821F0400142E861
:10274000051393B1016851E8051F026821F04001AB
:1027500042E805134BB1016851E8051F026821F0FA
:10276000400142E80513002BDAD1202180F8421005
:1027700000210163016851E8031F026821F0100184
:1027800042E80313DBB1016851E8031F026821F03E
:10279000100142E8031393B1016851E8031F026876
:1027A00021F0100142E803134BB1016851E8031F07
:1027B000026821F0100142E80313002BDAD1C16B4B
:1027C00004460846FEF766FE204602214163818DDD
:1027D000C28D891A89B202B0BDE8B040FFF7C8BE09
:1027E000436C43F001034364530706D5BEF1000F69
:1027F00003D0436C43F002034364930706D5BEF154
:10280000000F03D0436C43F004034364BCF1000F9A
:1028100006D55EEA050303D0436C43F00803436426
:10282000436C002B3FF4DEAE920605D525B104467D
:1028300000F0D0FB216820464969426C01F040015C
:1028400002F00802891800F0B98000BF016851E861
:10285000031F026821F4907142E80313BBB30168BF
:1028600051E8031F026821F4907142E8031373B327
:10287000016851E8031F026821F4907142E80313D4
:102880002BB3016851E8031F026821F4907142E8FC
:102890000313002BDAD11AE0016851E8051F026822
:1028A00021F0010142E80513DBB1016851E8051F81
:1028B000026821F0010142E8051393B1016851E873
:1028C000051F026821F0010142E805134BB10168C0
:1028D00051E8051F026821F0010142E80513002BB1
:1028E000DAD1016B012924D1016851E8031F026884
:1028F00021F0100142E80313DBB1016851E8031F26
:10290000026821F0100142E8031393B1016851E815
:10291000031F026821F0100142E803134BB1016864
:1029200051E8031F026821F0100142E80313002B55
:10293000DAD1202180F84210002101630168496941
:10294000490640F1C380016851E8051F026821F083
:10295000400142E80513DBB1016851E8051F026838
:1029600021F0400142E8051393B1016851E8051FC9
:10297000026821F0400142E805134BB1016851E8BB
:10298000051F026821F0400142E80513002BDAD14F
:10299000C16B002900F09A8042F6C972C0F60002AD
:1029A000044608464A63FEF799FD00283FF41AAE34
:1029B000E06B416B02B0BDE8B04008470446FFF74A
:1029C000D9FD0020606402B0B0BD00BF891A00BF0D
:1029D000026852E8032F036822F4907243E803254B
:1029E000BDB3026852E8032F036822F4907243E8F3
:1029F000032575B3026852E8032F036822F490722E
:102A000043E803252DB3026852E8032F036822F43C
:102A1000907243E80325002DDAD11AE0026852E8EB
:102A2000052F036822F0010243E80525DDB10268A5
:102A300052E8052F036822F0010243E8052595B10D
:102A4000026852E8052F036822F0010243E80525D9
:102A50004DB1026852E8052F036822F0010243E8F5
:102A60000525002DDAD1202280F8422000220263C1
:102A7000026852E8032F036822F0100243E803259E
:102A8000DDB1026852E8032F036822F0100243E828
:102A9000032595B1026852E8032F036822F0100263
:102AA00043E803254DB1026852E8032F036822F082
:102AB000100243E80325002DDAD1022289B24263D5
:102AC00002B0BDE8B040FFF753BD00BF02B0BDE8A3
:102AD000B040FFF74FBD00BF026A32F8023B6FF310
:102AE0005F234B60026295E5002804BF0120704718
:102AF00010B5044690F8410028B9002084F8400041
:102B0000204600F063F8242084F841002068D4E9CE
:102B10000212C36823F40053C360036923F44053D3
:102B20001A430261D4E904231143C268194341F2F4
:102B30000C639A431143C1604169A26921F4407159
:102B4000114343F60002C4F201029042416103D0F6
:102B5000FFF7A4FA02E000BFFFF7B4FAD4E90023BC
:102B6000192148439900B0FBF1F048F21F5CC5F20F
:102B7000EB1CA0FB0C314FF69C734909C0F6FF73A8
:102B800001FB0300322303EB0010A0FB0C03F02039
:102B900000EA531000EB0110C3F3431108449060A6
:102BA0001069202120F490401061506920F02A0023
:102BB0005061D06840F40050D0600020606484F818
:102BC000411084F84210606310BD00002DE9F0410F
:102BD00086B040F600050446C4F20105006805F51C
:102BE0004051002788420597CDE90377029703D02B
:102BF00006B0BDE8F08100BF41F21800C4F2020047
:102C0000016802AE41F480410160016840F244086D
:102C100001F48041019101990168C4F2020841F078
:102C2000040101600068314600F004000190019841
:102C30004FF4007002900220039003200590284674
:102C4000FEF78EFE4FF48060CDE90207284631463C
:102C50000497FEF785FE40F2DC0508F11400C2F28D
:102C600000058026C5E900072846C5E90276C5E9C2
:102C70000477C5E90677FEF711FE002818BFFEF7B6
:102C80004DF8E5636C6240F22015C2F20005102099
:102C90000021C5E900802846C5E90216C5E90411EE
:102CA000C5E90611FEF7FAFD002818BFFEF736F851
:102CB000252000210022A5636C62FEF7CBFF2520B2
:102CC000FEF7B6FF06B0BDE8F081000070470000D7
:102CD0002DE9F04381B0044690F84100202809D145
:102CE00000294FF0010018BF002A07D101B0BDE84C
:102CF000F08300BF022001B0BDE8F08300206064D3
:102D000021201D460E4684F841001746FEF722FF9B
:102D1000A784E784A1688146B1F5805F02D120696C
:102D200000285DD037460020E28C2168002A5DD063
:102D30006A1C24D0002D4AD0804600BF08680006D7
:102D400008D4FEF707FFA0EB0900A8427AD8216853
:102D5000C868F3E717B117F8010B04E038F8020B65
:102D600000276FF35F204860E08C0138E084E08C3E
:102D70000028E3D13AE000BF0A68120609D40A68C5
:102D8000120606D40A6812065CBF0A685FEA02628D
:102D9000F2D51FB117F8012B05E000BF30F8022B68
:102DA00000276FF35F224A60E28C013AE284E28CF2
:102DB000002AE4D11AE000BF30F8022B00276FF39D
:102DC0005F224A60E28C013AE284E28C72B10A68C6
:102DD000120635D5002FEFD017F8012BF1E700BF11
:102DE00000273046E28C2168002AA1D108684006FD
:102DF0001ED42DB3681C14D1086840062AD4086874
:102E0000400627D40868400624D4086840064FF0DE
:102E10000000F1D50DE000BF2068C16800684006E1
:102E200018D4FEF797FEA0EB0900A842F4D909E0F8
:102E30000020202184F8411001B0BDE8F08300BFDC
:102E4000FEF788FE0320202184F8411001B0BDE880
:102E5000F08300BF0020202184F8411001B0BDE8BC
:102E6000F083000070470000FEE70000B0B584B0BA
:102E700040F2AC0042F20041C2F20000C4F2010193
:102E800000244FF46022012504730475C261C0E977
:102E9000001484600561FEF769F8002818BFFDF78B
:102EA0003DFF0320CDE9010540F2AC00C2F2000075
:102EB00001A90394FDF73AFF002818BFFDF72EFF84
:102EC00004B0B0BD80B582B041F21400C4F202007B
:102ED0000168002241F0010101600068002100F05A
:102EE0000100019001980E20FEF7B4FE0E20FEF7BF
:102EF0009FFE0F2000210022FEF7ACFE0F2002B043
:102F0000BDE88040FEF794BE70B586B0002541F262
:102F10001800CDE90455CDE90255C4F2020001685C
:102F200041F2004441F0040101600168C4F201046F
:102F300001F00401019101990168002241F0200192
:102F4000016000684FF4405100F0200001900198AA
:102F500020464FF44056FEF7F7FD0120CDE903056A
:102F60000220059002A920460296FEF7F9FC06B061
:102F700070BD000080B540F2641043F60001C2F25B
:102F80000000C4F2010100234FF00C0C4FF4E132B9
:102F900080E80E00C0E90333C0E905C3C361FFF751
:102FA000A3FD002808BF80BDBDE88040FDF7B6BE88
:102FB000FEE70000FEE700007047000070470000D9
:102FC000FEF7CEBD70470000406A0021C185C18474
:102FD000FFF7D0BA81B090F84210222921D183683E
:102FE0000246B3F5805F09D152F8281F52F8183C09
:102FF000002B63D003685B680AE000BF52F8281F0B
:1030000013B90369002BF5D003685B6803F07F03F5
:103010000B70116801311160C18D01390A04C1853D
:1030200002D001B0704700BF0168CA6822F02002D8
:10303000CA60CA6822F48072CA604A6922F001023A
:103040004A61202180F8421000214163026B012A6D
:103050003CD10163016851E8031F026821F01001AF
:1030600042E80313DBB1016851E8031F026821F055
:10307000100142E8031393B1016851E8031F02688D
:1030800021F0100142E803134BB1016851E8031F1E
:10309000026821F0100142E80313002BDAD1016825
:1030A0000A68D20606D5002200920A680092496892
:1030B00000910099818D01B0FFF75ABA02685268F9
:1030C0006FF35F2221F8022B8162A5E701B0FFF7C1
:1030D000FDBD000040F26410C2F20000FFF74CBAE0
:1030E000FEE7000098B0FEF749FD00240120CDE97D
:1030F0001344CDE911440E9012904FF4E0104FF4B8
:103100008031022517900EA80894CDE90644CDE938
:103110000444CDE90F14CDE91551FFF713F828B198
:10312000EFF3108072B600BFFEE700BF0F20CDE9BD
:1031300009054FF48060CDE90C0409A802210B9425
:10314000FEF7CEFE20B1EFF3108072B6FEE700BFAF
:10315000022003904FF40040059003A8FEF73EFEC6
:1031600020B1EFF3108072B6FEE700BFFFF7CCFE90
:10317000FFF7A8FEFFF77AFEFFF7FCFE40F27008AB
:1031800040F2AC04C2F2000846F2666940F2641BE9
:10319000C2F20004C4F20A0908F108070FF2880A13
:1031A000C2F2000B04E000BF4FF4FA70FEF7C4FB5C
:1031B0002046FEF707F920464FF0FF31FDF7CAFF22
:1031C0002046FDF755FE8005EED52046FDF752FE60
:1031D00085B2A8F80000284600F0B6FD4FF600635F
:1031E0000022C4F2AF0300F053FC4FF066324B46AE
:1031F00000F0BEFD00F01AFCC8F8040000F0B6FEB6
:1032000003460E46384651462A46CDE90036FDF7BC
:1032100023F83846FDF7F7F882B2584639464FF0A2
:10322000FF33FFF755FDBFE74144433A20256420B3
:10323000252E3266760000005FEA400C08BF91F050
:10324000000F4FEA8C234FEAC12243EA51514FEA63
:103250001C5018BF00F5F0404FEA300018BF41F095
:1032600000415FEA6C5C00F02980BCF1FF3F08BFC1
:1032700040F080407047130C06BF12044FF0100C52
:103280004FF0000C130E04BF12020CF1080C130FC8
:1032900004BF12010CF1040C930F04BF92000CF157
:1032A000020CD30F04BF52000CF1010C11464FF079
:1032B0000002A0F11F00A0EB0C00704711F0004FBE
:1032C00008BF704731F000413FF4D5AF0B0C06BF8B
:1032D00009044FF0100C4FF0000C0B0E04BF090254
:1032E0000CF1080C0B0F04BF09010CF1040C8B0F3F
:1032F00004BF89000CF1020CCB0F04BF49000CF194
:10330000010CCCF1200322FA03F341EA030102FA93
:103310000CF2A0EB0C0000F10100704723F07F4796
:1033200020F07F4C80EA030000F00040ACEB070384
:1033300003F57C5303F1FF032DE9804909B44FEAFB
:10334000144324EA03484FEA154B25EA0B4E0FF2CB
:10335000042606EB13273E7803FB0667C7F5000734
:1033600007FB06F64FEAD64606F102064FEA543747
:1033700007FB066CCCF1005C4FEA1C472CEA074CBB
:103380000CFB06F507FB06F404EB15464FEA961610
:1033900049085FEA320234BF00204FF000404FEA94
:1033A000D13706FB07FC4FEA1C4C0CFB0BF7D21B7A
:1033B00003FB0CF761EB07010CFB0EF7B0EB0740CA
:1033C00072EB17420CFB08F734BFA2EB0742B2EBDB
:1033D000074261EB17414FEA0C444FEA910706FBA5
:1033E00007FC4FEA1C4C0CFB0BF7B0EBC74072EB31
:1033F000573203FB0CF734BFA2EBC742B2EBC74214
:1034000061EB57310CFB0EF7B0EBC70072EB577254
:103410000CFB08F734BFA2EBC702B2EBC70261EBAB
:1034200057714FEA816141EA92114FEA826242EAA2
:1034300090124FEA806004EBCC04039F4FEAD1372F
:1034400006FB07FC4FEA1C4C0CFB0BF7D21B03FBE3
:103450000CF761EB07010CFB0EF7B0EB074072EBCA
:1034600017420CFB08F734BFA2EB0742B2EB07424E
:1034700061EB17414FEA8C5504EB9C244FEA91070E
:1034800006FB07FC4FEA1C4C0CFB0BF7B0EBC740EC
:1034900072EB573203FB0CF734BFA2EBC742B2EB1F
:1034A000C74261EB57310CFB0EF7B0EBC70072EB74
:1034B00057720CFB08F734BFA2EBC702B2EBC7028E
:1034C00061EB57714FEA816141EA92114FEA8262E2
:1034D00042EA90124FEA806015EB4C2544F100045B
:1034E0004FEAD13706FB07FC4FEA1C4C0CFB0BF7ED
:1034F000D21B03FB0CF761EB07010CFB0EF7B0EBE3
:10350000074072EB17420CFB08F734BFA2EB0742EF
:10351000B2EB074261EB17414FEA813141EA924138
:103520004FEA823242EA90424FEA80304FEA0C760C
:1035300015EB1C1544F1000448EA03434EEA0B481E
:103540004FF0000EB2EB080C71EB030724BF62468C
:1035500039464EEB0E0E4FF0000B00185241494118
:103560004BEB0B0BB2EB080C71EB03077BF1000B81
:1035700024BF624639464EEB0E0E4FF0000B00188A
:10358000524149414BEB0B0BB2EB080C71EB0307BB
:103590007BF1000B24BF624639464EEB0E0E51EA1A
:1035A000020718BF46F0010616EB0E7655F1000231
:1035B00054F1000103D5BDE88901BDE80088BDE8EC
:1035C0008901BDE80048B619524141EB0101A3F160
:1035D0000103704780807F7E7D7C7B7A7978777667
:1035E00076757473727171706F6E6E6D6C6C6B6AE0
:1035F0006A6968686766666564646363626161607E
:10360000605F5F5E5E5D5D5C5C5B5B5A5A595958FA
:103610005857575656555555545453535252525164
:10362000515050504F4F4F4E4E4D4D4D4C4C4C4BBA
:103630004B4B4A4A4A494949484848474747474601
:10364000464645454544444444434343434242423D
:10365000424141419C46002B30D477002BD04FEAA9
:1036600037071CB503B44FF010004FF01001BAF14A
:10367000000F06D0BCF1000FDCBF40F0080040F0A6
:1036800008014FF000000FBCBDE810400BF1010B2A
:10369000BBF1010F08BF5FEA170722BF12F1010259
:1036A00011F101014FF0004143F1000300F000402F
:1036B00043EA00007047F9D35708D0E746EA0646C8
:1036C0004FEA164613F1400F1FDD13F1200FDFBF45
:1036D00016430A46002120335B42BED0C3F12007C7
:1036E00046EA06464FEA164602FA07F746EA070692
:1036F00022FA03F2C3F1200701FA07F742EA0702B0
:1037000021FA03F14FF00003A7E746EA020646EA72
:1037100006464FEA164646EA0106BCBF46EA06469A
:10372000360C4FF000034FF000024FF0000194E719
:103730002DE9804C70B49A46934691E8380007C84A
:1037400031EA400C48BF34EA430C03D5FFF7E6FDED
:10375000FFF780FFF0BCBDE8008C2DE9804C70B411
:103760009A46934691E8380007C810F0804F08BF8A
:1037700013F0804F03D100F005F8FFF76BFFF0BCAA
:10378000BDE8008C20F07F4723F07F4C80EA0300E7
:1037900000F0004007EB0C03A3F57C53A3F1FE03FC
:1037A00092F0000F00F0B38095F0000F00F07780EA
:1037B0002DE901494FEA114021EA00484FEA144639
:1037C00024EA064700FB06FC08FB06F607FB08F8A0
:1037D00018EB06484CEB164C00FB07F718EB0748B4
:1037E0004CEB17404FEA124B22EA0B4E4FEA1546BC
:1037F00025EA06470BFB06FC0EFB06F607FB0EFE52
:103800001EEB064E4CEB164C0BFB07F71EEB074E60
:103810004CEB174B18EB0B0840F1000018EB0E0BAC
:1038200058EB000840F100008F1A4FF000014FF0F4
:1038300000063CBFC943661B14BFB5EB040C002156
:103840003CBFC943F61B4FEA174427EA04454FEA39
:103850001C472CEA074C04FB076205FB07F70CFB2F
:1038600005F616EB074642EB174204FB0CFC16EB81
:103870000C4642EB1C421BEB060658EB0202414190
:103880004EEA8E0E46EA9E0601D5BDE80189B619BC
:10389000524141EB0101A3F10103BDE801894FEA67
:1038A000144524EA05464FEA114721EA074C05FB77
:1038B00007F406FB07F70CFB06F111EB074144EB9D
:1038C000174405FB0CFC11EB0C4144EB1C444FEA84
:1038D000124722EA074C05FB07F206FB07F70CFB31
:1038E00006F616EB074642EB174205FB0CFC16EBFF
:1038F0000C4642EB1C456A1854F1000148BF704762
:10390000B619524141EB0101A3F10103704795F053
:10391000000F37D04FEA114221EA02464FEA14471E
:1039200024EA074C02FB07F106FB07F70CFB06F441
:1039300014EB074441EB174102FB0CFC14EB0C4465
:1039400041EB1C414FEA154725EA074C02FB07F5FE
:1039500006FB07F70CFB06F616EB074645EB17458B
:1039600002FB0CFC16EB0C4645EB1C42121951F104
:10397000000148BF7047B619524141EB0101A3F164
:10398000010370474FEA144524EA05464FEA114700
:1039900021EA074C05FB07F106FB07F70CFB06F2D3
:1039A00012EB074241EB174105FB0CFC12EB0C42FA
:1039B00051EB1C414FF0000648BF7047921841EB95
:1039C0000101A3F101037047490050EAC12018BF6B
:1039D00004204A0D18BF40F0010040F2FF72B2EB24
:1039E000515F08BF40F00200012808BF0520704762
:1039F00030380A2801D201207047002070470000AB
:103A000010B500290AD00878002807D00548784466
:103A1000FDF7CEF8002801D0002010BD0248784400
:103A200010BD00002E0700002607000021F0004214
:103A300001F00043A2F16052B2F5801F28BFD2F11D
:103A40007F6C0BD95FEA001C43EAC20242EB507064
:103A500018BF704728BF20F001007047B2F5801FE3
:103A6000BCBF184670474FEA410C1CF5001F02D23C
:103A7000084600F0ECBA70B500F024FA00000089A6
:103A8000FFF7F6BF4FF00040A0F580007047000040
:103A90002DE9C04130B4DFF8A8C23CEA111418BFC8
:103AA0003CEA131400F0F0801CEA111481EA0305CB
:103AB00044EAD57418BF1CEA131500F0CB80A4EBC0
:103AC000050404F17F7404F500344FF0004545EA25
:103AD000C12145EAC32341EA505143EA52534FEA18
:103AE000C0204FEAC222994208BF904200F0A08055
:103AF0004FEA13650FF24816765D4FEA134506FB51
:103B000005F7C7F1807706FB07F74FEAD737A7FB22
:103B100003687642A7FB06CEC8F5803838BFA8F107
:103B2000010807FB08E6A6FB028C4FF0000EE6FB3F
:103B300003CED8F100086FEA0C0C5CF1000C6FEAC0
:103B40000E0E4EF1004EA6FB0C584FF00007E6FBA0
:103B50000E87A1FB08C6A0FB07CE16EB0E064FF0A2
:103B6000000545F10005E1FB076515F1E04E7EBF5C
:103B7000A4F580345FEA46066D4116F1800745F1F1
:103B800000054FEA172747EA05674FEA15254FEA70
:103B90000666A6F1DE46B6F1805F20D9384605EB11
:103BA000C47124F0010C01EB0C11BCF1FE6F02D8C2
:103BB000F0BCBDE8008124425CBF01F5801E9EEA96
:103BC000C47F02D4F0BCBDE80081244200F13980FA
:103BD000A1F1C041F0BCBDE8004100F0C1B94FEA1D
:103BE000D02040EA41504FEAD1214FEAD22242EAA6
:103BF00043524FEAD323A7FB028607FB036605FB6C
:103C000002661EEA0E0F58BFA6EB0056B6EB005632
:103C10004FEA520E4EEAC37E18EB0E0E56EB530ED1
:103C2000BCD518EB02085E417F1C55F10005B5E7D5
:103C30004FF480154FF000074FF000064FF00008DA
:103C4000ACE701F1C04101F000414FF00000F0BCD1
:103C5000BDE800810CEA131511EA0C1F00D00CE03E
:103C600013EA0C1F00F025804FF0000081EA0301E9
:103C700001F00041F0BCBDE80081F0BCBDE80041AE
:103C800081EA030100F06CB9F0BCBDE8004170B5F9
:103C900000F018F9097EFC3E00F007B84FF0000074
:103CA00081EA030101F00041704781EA030100F05D
:103CB00057B9F0BCBDE8004122494FF00000704701
:103CC000FFFDFBF9F7F5F4F2F0EEEDEBE9E8E6E4E1
:103CD000E3E1E0DEDDDBDAD8D7D5D4D3D1D0CFCD68
:103CE000CCCBCAC8C7C6C5C4C2C1C0BFBEBDBCBBA1
:103CF000BAB9B8B7B6B5B4B3B2B1B0AFAEADACAB9C
:103D0000AAA9A8A8A7A6A5A4A3A3A2A1A09F9F9E75
:103D10009D9C9C9B9A999998979796959594939327
:103D2000929191908F8F8E8E8D8C8C8B8B8A8989BE
:103D30008888878786858584848383828281818041
:103D40000000FF070000F87FB0FA80F310FA03F1DB
:103D50000AD0C3F11D0303F580634FEA03524FEA13
:103D6000415002EBD12170474FF000007047000036
:103D700070B5DFF848C11CEA111E1EBF1CEA1315FE
:103D80009EEA0C0F95EA0C0F00F06F8081EA0304A5
:103D90004EEAD47EAE4421EA4C1123EA4C1341F49E
:103DA000801143F48013AEF17F7EA1FB024CA0FB97
:103DB0000365361955EB0C05A1FB034C4CF10003D0
:103DC000A0FB021C16EB0C06654153F100030942EF
:103DD00018BF46F0010613F4007F0BD14FEA033100
:103DE0004FEA053041EA155140EA165034036FF0AE
:103DF00003020AE04FEAC3214FEAC52041EA5551C8
:103E000040EA5650F4026FF0020202EB2E4201EB40
:103E1000025585EACE710AD05FEA440C18BF24F03F
:103E2000004450F1000041F1000120EAD47040F25A
:103E3000FE7C624500D270BDA84214BF4FF08044A2
:103E40004FF04044002E08BF0024BEF1806FA8BF91
:103E5000A1F1C041BDE8704080F2828001F1C04113
:103E600001F000414FF0000070470CEA13159EEA84
:103E70000C0F18BF95EA0C0F06D081EA030E4FF025
:103E800000000EF0004170BD00F01CF88900013EFA
:103E900000F007B800F009B84FEA430C5FEA5C5C39
:103EA00008D081EA030100F05BB84FEA410C5FEAF9
:103EB0005C5CF6D102494FF0000070470000FF073C
:103EC0000000F87F0EF1020E2EF0030E5EF8046B78
:103ED000364205D4012A43EB030515F5001F12D81D
:103EE000012841EB010C1CF5001F0CD80ED14FEA44
:103EF000D17C0CEB4C0C0CF1020C15F5001F08BF2B
:103F00004CEBD37C04E04FF0080C01E04FEAD37C8B
:103F10000CEB4C0526FA05F606F00706B6F1040C84
:103F200006D20EEB860CBDE870404CF0010C6047E9
:103F3000DFE80CF0090B02024FF00041A1F500216F
:103F40004FF0000070BD19461046012851EB0104E6
:103F500018BFD4F5001484BF002001F0004170BDEB
:103F60000808A0F500114FEA3101704743004FEAFD
:103F7000D30C4FEA3C0C43401FBF40070CF160518B
:103F800013F0FE4F70471CF0006F03D10CF000419E
:103F9000002070470CF0004343EA507040EACC0028
:103FA00010B500F00EF800BF000000924FEA0001CB
:103FB000FFF7D6BF4FF00041A1F500214FF0000000
:103FC00070470EF1020E2EF0030E5EF8044B2442F1
:103FD00004D44FEA4102B2F17F4F11D84FEA4003B7
:103FE000B3F17F4F0CD80ED14FEAD07C0CEB4C0CC8
:103FF0000CF1020CB2F17F4F08BF4CEBD17C04E016
:104000004FF0080C01E04FEAD17C0CEB4C0324FA92
:1040100003F404F00704B4F1040C06D20EEB840C94
:10402000BDE810404CF0010C6047DFE80CF00708D9
:1040300002024FF00040A0F5800010BD084642008B
:1040400018BFD2F1807288BF00F0004010BDFF2180
:1040500041EAD050C0057047FCF728BB0240000081
:10406000000000A00000000005400000000000C8A3
:10407000000000000C4000000000409C0000000018
:10408000194000000020BCBE0000000034400000C9
:10409000BFC91B8E00000004B5400000504BCFD0BC
:1040A0006607E2CF010000006C4100003E8251AA89
:1040B000DFEEA73401000000D9420000DCB5A0E229
:1040C0003A301F97FFFFFFFFB4450000FD25A0C851
:1040D000E9A3C14FFFFFFFFFFF3F0000000000808A
:1040E00000000000FF3F0000000000800000000012
:1040F0000000000000000000010203040607080998
:104100000000000001020304010202030405060787
:1041100008090A0B0C0D0E0F101000005841000882
:104120000000002010000000940100086841000811
:1041300010000020A0070000B40100081C000000CF
:1041400043000000F8FFFFFF0C0000000E0000001D
:104150000F0000002E000000010000001000000011
:0841600000127A0000000000CB
:0400000508000131BD
:00000001FF
