:020000040800F2
:10000000C834002049010008811100081F100008B1
:1000100059110008F102000819340008000000001E
:100020000000000000000000000000001132000885
:1000300091030008000000006F020008F11F000893
:100040006301000863010008630100086301000800
:1000500063010008630100086301000863010008F0
:1000600063010008630100086301000863010008E0
:1000700063010008630100086301000863010008D0
:1000800063010008630100086301000863010008C0
:1000900063010008630100086301000863010008B0
:1000A000630100086532000863010008630100086D
:1000B0006301000863010008630100086301000890
:1000C0006301000863010008630100086301000880
:1000D0006301000863010008630100086301000870
:1000E0006301000863010008630100086301000860
:1000F0006301000863010008630100086301000850
:10010000630100086301000863010008630100083F
:10011000630100086301000863010008630100082F
:10012000630100086301000863010008630100081F
:10013000DFF810D000F06EF80048004719370008CB
:10014000AFF30080C83400200648804706480047C7
:10015000FEE7FEE7FEE7FEE7FEE7FEE7FEE7FEE777
:10016000FEE7FEE7613200083101000872B6704711
:1001700062B67047EFF3108072B6704780F3108854
:10018000704730BF704720BF7047B0FA80F07047AB
:1001900090FAA0F0B0FA80F0704790FAA0F07047A3
:1001A00040EA01039B0703D009E008C9121F08C0F9
:1001B000042AFAD203E011F8013B00F8013B521E79
:1001C000F9D27047D2B201E000F8012B491EFBD2F0
:1001D00070470022F6E710B513460A460446194652
:1001E000FFF7F0FF204610BD30B50B46014600205A
:1001F0002022012409E021FA02F59D4205D303FAE9
:1002000002F5491B04FA02F52844151EA2F1010269
:10021000F1DC30BD064C074D06E0E06840F001031C
:1002200094E8070098471034AC42F6D3FFF784FFF8
:100230007C3A00089C3A00081D484FF0FF0101700D
:10024000002080F309881B48016881F308881A4858
:100250004FF08051016062B6FEE717484FF08051C1
:100260000160704714484FF080510160704772B6CA
:10027000EFF3098028B1203880E8F00F0F490968B2
:10028000086000B50E4880475DF804EB0D480E4944
:100290000A78027009480D490A680260106890E8FF
:1002A000F00F203080F309884EF0F40E62B67047EC
:1002B00022ED00E0CC00002004ED00E0C4000020AE
:1002C000C51E00084600002047000020C80000208E
:1002D000AFF3008010B500F0CDFA04490968BDE81D
:1002E0001040B0FBF1F001F095BE00008439000829
:1002F000FEE70000B4B068221E496846FFF750FFD1
:100300001C49682268311AA8FFF74AFFDFF8689095
:10031000EA460DF1680B4FF48078002417485AF82C
:1003200024105BF82420B0FBF1F04108144B01EBE2
:1003300081065A43B2FBF0F7002514E00122414642
:10034000484600F023F9002000E0401C8642FCD81B
:1003500000224146484600F019F9002000E0401C08
:100360008642FCD86D1CBD42E8D3641C192CD5D341
:10037000D3E70000AC390008000C014000F915007B
:10038000A08601000148406870470000001000E0AE
:10039000704770472DE9F84FDFF8C891002409F144
:1003A000040A0AF1040B23460F270BF1040ED1E0D7
:1003B0000125A54006EA0502AA4276D1DFF8A8C1C8
:1003C0004E68A6EB0C0866452BD00DDC032E34D00E
:1003D00005DC36B3012E19D0022E2FD11BE0112ED1
:1003E00016D0122E2AD119E0B8F5881F19D006DCD4
:1003F000B8F5803F15D0B8F5801F1FD111E0B8F5D2
:10040000001F0ED0B8F5041F18D10AE0CB6815E024
:10041000CB681B1D12E0CB6808330FE0CB680C33B0
:100420000CE08B682BB1012B4FF0080303D0456122
:1004300004E0042302E0056100E00023FF2A01D864
:10044000064601E000F104064FEA840501D9A5F152
:100450002005D6F8008007FA05FC28EA0C0803FA04
:1004600005F548EA0508C6F800804D68ED0070D52E
:100470003E4DAE6946F00106AE61AD6924F003065B
:1004800005F0010500953A4D06EB050CDCF8085027
:10049000A607360F07FA06F825EA0805DFF8D48024
:1004A000404503D14FF0000825E052E0DFF8C88056
:1004B000404502D14FF001081DE0DFF8C080404503
:1004C00002D14FF0020816E0DFF8B480404502D1B7
:1004D0004FF003080FE0DFF8AC80404502D14FF049
:1004E000040808E0DFF8A080404502D14FF005087D
:1004F00001E04FF0060808FA06F848EA0508CCF8CB
:1005000008804D68D9F80060ED034D4601D51643CB
:1005100000E096432E604D68DAF80060AD03554662
:1005200001D5164300E096432E604D68DBF800606D
:10053000ED025D4601D5164300E096432E604D68FE
:10054000DEF80060AD02754601D5164300E0964323
:100550002E60641C0A681646E2407FF429AFBDE8AD
:10056000F88F00000004014000001110001002404C
:100570000000014000080140000C01400010014053
:100580000014014000180140001C01400AB1016143
:1005900070470904FBE700000148806870470000CD
:1005A000D0000020024881680278114481607047C1
:1005B000D0000020074810B5016841F0100101602B
:1005C000032000F08FF8002000F006F800F03EF85D
:1005D000002010BD0020024000B5014687B0002277
:1005E000192000F05FF8192000F04EF813488169D7
:1005F00041F400618161806905A900F40060069002
:10060000684600F017F900F04BF90D490D4AB0FBB0
:10061000F1F10D48491E0260416040F2E7320021CD
:10062000C0E90321816000F013FB10B1012007B085
:1006300000BD054800F03AFBF9E700000010024059
:1006400040420F00002C0140803000200C4808B5CB
:10065000816941F001018161816901F0010100912D
:10066000C16941F08051C161C06900F080500090C3
:100670000448416821F0E06141F00071416008BD2B
:100680000010024000000140002809DB00F01F02BA
:10069000012191404009800000F1E020C0F80011E4
:1006A00070470000F0B40E4B1B680C46C3F30223E6
:1006B000C3F10705042D00D90425191D072901D20E
:1006C000002300E0DB1E012606FA05F1491E214049
:1006D00099409E40761E16403143F0BC02F0AEBEFB
:1006E0000CED00E0064900F0070208684FF6FF0332
:1006F000184040EA0220034A104308607047000097
:100700000CED00E00000FA052DE9F0470F4605006A
:1007100061D0434E306800F00700B84209D230681B
:1007200020F0070038433060306800F00700B8421E
:1007300051D128683B4C810712D5400703D560682A
:1007400040F4E06060602878000703D5606840F4FA
:10075000605060606068A96820F0F0000843606045
:100760002878C00728D06868012810D0216802289E
:1007700010D0890700292EDA616821F003010143B6
:100780006160FFF709FF804641F288390DE021687A
:100790008903EFE78901EDE7FFF7FEFEA0EB080113
:1007A000494502D90320BDE8F0876068696800F018
:1007B0000C00B0EB810FEFD1306800F00700B842B9
:1007C0000BD9306820F0070038433060306800F003
:1007D0000700B84201D00120E5E72878400705D599
:1007E0006068E96820F4E0600843606028780007EA
:1007F00006D56068296920F4605040EAC100606055
:1008000000F05EF86168084AC1F30311515CC8400A
:100810000649086006480068FFF7DEFE0020C2E7D0
:10082000002002400010024038390008000000207B
:10083000D40000200F2202600C4A536803F0030327
:100840004360536803F0F0038360536803F4E0638C
:10085000C36052684FF4E06303EAD20202610448C5
:10086000006800F0070008607047000000100240B8
:10087000002002400148006870470000000000208E
:100880000448054900684968044AC1F30221515CE3
:10089000C84070470000002000100240483900089E
:1008A0000448054900684968044AC1F3C221515C03
:1008B000C84070470000002000100240483900087E
:1008C00012A185B00FC98DE80F0014A0144A00686A
:1008D00004905168134801F00C03042B10D0082B2E
:1008E0000ED1C1F38343C9031DF803000AD5516833
:1008F00004AAC1F34041515C0A4A5043B0FBF1F0F5
:1009000005B0704708494843FAE7000002030405B0
:10091000060708090A0B0C0D0E0F1010010200004B
:100920000010024000127A0000093D002DE9F84F46
:10093000040070D02078C04DC00749D06868C0F36B
:100940008100012807D06868C0F38100022809D11E
:100950006868C00306D52868800339D56068002818
:10096000E7D035E06068B0F5803F0BD010B1B0F54E
:10097000A02F11D0286820F480302860286820F447
:10098000802002E0286840F480302860606890B1E0
:10099000FFF702FE06460AE0286840F4802028603F
:1009A000F0E700BFFFF7F8FD801B642873D82868C4
:1009B0008003F7D50CE0FFF7EFFD064605E000BF2A
:1009C000FFF7EAFD801B6428F0D828688003F7D47D
:1009D00020789A4E80074FF001094FF0000839D572
:1009E000686810F00C0F07D06868C0F38100022817
:1009F00009D16868C00306D42868800714D5206927
:100A0000012808D110E02069B0B1C6F80090FFF7C6
:100A1000C3FD074605E00AE1FFF7BEFDC01B022843
:100A2000C4D828688007F7D52868616920F0F800E5
:100A300040EAC10028600DE0C6F80080FFF7ACFD79
:100A4000074604E0FFF7A8FDC01B022823D828684A
:100A50008007F7D4207800072CD57948A169D9B14F
:100A6000C0F80090FFF798FD074604E0FFF794FDFB
:100A7000C01B02280FD8686A8007F7D571484FF469
:100A8000FA510068B0FBF1F0009000BF0098411EE1
:100A90000091FAD20EE080E0C0F80080FFF77CFD04
:100AA000074604E0FFF778FDC01B022875D8686A86
:100AB0008007F7D42078400760D5E8690027C00098
:100AC00008D4E86940F08050E861E869012700F047
:100AD000805000905C480168C90513D401688346C2
:100AE00041F480710160FFF757FD824606E000BFC8
:100AF000FFF752FDA0EB0A0064284ED8DBF8000097
:100B0000C005F5D5E06801280AD008B1052813D042
:100B1000286A20F001002862286A20F0040002E020
:100B2000286A40F001002862E06841F2883B98B1F1
:100B3000FFF732FD82460BE0286A40F0040028628D
:100B4000EEE700BFFFF728FDA0EB0A0159455AD890
:100B5000286A8007F6D50CE0FFF71EFD824605E007
:100B6000FFF71AFDA0EB0A0159454CD8286A800707
:100B7000F6D41FB1E86920F08050E861E06988B3DD
:100B80006968C1F38101022944D00228C6F8608057
:100B900004D0FFF701FD044638E034E0FFF7FCFC29
:100BA000074604E0FFF7F8FCC01B02282BD8286892
:100BB0008001F7D4206AB0F5803F05D16868A1684C
:100BC00020F4003008436860D4E9080108436968EC
:100BD00021F4741108436860C6F86090FFF7DCFCEC
:100BE000044606E025E000BFFFF7D6FC001B022804
:100BF00009D828688001F7D51BE000BFFFF7CCFCBF
:100C0000001B022802D90320BDE8F88F2868800164
:100C1000F4D40EE00128F7D06868226A00F480312D
:100C2000914204D1616A00F47010884201D0012021
:100C3000EAE70020E8E7000000100240000042421E
:100C4000800442420000002000700040704770475E
:100C500010B5040003D094F83D0010B107E0012066
:100C600010BD002084F83C00204600F01EF8022051
:100C700084F83D00211D206802F0FAFA012084F872
:100C8000460084F83E0084F83F0084F8400084F871
:100C9000410084F8420084F8430084F8440084F85A
:100CA000450084F83D00002010BD704790F83D10CD
:100CB000012901D001207047022180F83D10016810
:100CC000CA6842F00102CA6000680E4988420ED02C
:100CD0000D4988420BD0B0F1804F08D00B498842B3
:100CE00005D00B49884202D00A49884204D1816864
:100CF00001F00701062903D0016841F001010160FC
:100D000000207047002C01400034014000040040E6
:100D100000080040000C0040704770B504460068B1
:100D200001694FF00005C943890715D4C168C9435B
:100D3000890711D4E91E01610120207720688069AC
:100D40008007204602D0FFF7E7FF04E000F098F8A4
:100D5000204600F096F8257720680169C9434907C5
:100D600017D4C168C943490713D46FF00401016166
:100D7000022020772068806910F4407F204602D04E
:100D8000FFF7CAFF04E000F07BF8204600F079F896
:100D9000257720680169C943090716D4C168C9438A
:100DA000090712D46FF00801016104202077206840
:100DB000C0698007204602D0FFF7AEFF04E000F0D4
:100DC0005FF8204600F05DF8257720680169C94387
:100DD000C90617D4C168C943C90613D46FF01001FE
:100DE0000161082020772068C06910F4407F204608
:100DF00002D0FFF791FF04E000F042F8204600F037
:100E000040F8257720680169C943C90708D1C1683E
:100E1000C943C90704D1891E0161204600F032F898
:100E200020680169C943090609D4C168C943090694
:100E300005D46FF0800101612046FFF707FF2068AD
:100E40000169C943490609D4C168C943490605D4A3
:100E50006FF040010161204600F01EF82068016932
:100E6000C94389060BD4C168C943890607D46FF00A
:100E7000200101612046BDE87040FFF7E8BE70BD6B
:100E80007047704700680349884201D1FFF78ABB69
:100E900070470000002C0140704770B5040004D07A
:100EA00094F83900002510B106E0012070BD84F8E7
:100EB0003850204600F022F8242084F839002068B9
:100EC000C16821F40051C160204602F017FA206881
:100ED000016921F4904101612068416921F02A01F2
:100EE00041612068C16841F40051C160E563202080
:100EF00084F8390084F83A00002070BD30B585B020
:100F000000240094019402940394006814498842D8
:100F100024D11448816941F480418161816901F4DF
:100F200080410491816941F00401816180690E4D25
:100F300000F0040004904FF4007000900220019033
:100F40000320039069462846FFF724FA2815CDE9C7
:100F50000004694628460294FFF71CFA05B030BD2C
:100F60000038014000100240000801402DE9F8431C
:100F7000044690F839001F4616460D4620284CD1ED
:100F8000C5B1BEB194F83800012846D0012084F8DC
:100F900038004FF00008C4F83C80212084F8390064
:100FA000FFF7FAFAA6848146E684A068B0F5805F70
:100FB00003D004E00120BDE8F883206928B12E4663
:100FC0005FF0000584F838800EE00026FAE7802103
:100FD000204602F0EFF9A0B9AEB116F8010B216876
:100FE0004860E08C401EE084E08C4B464FF00002ED
:100FF00000970028EBD14FF04001204602F0DAF9CB
:1010000030B10320D7E735F8020BC0F30800E6E75C
:10101000202084F839000020CDE70220CBE7FEE74E
:101020002DE9F04F85B000243848009401940294D3
:101030000394816941F080018161816901F080013F
:101040000491816941F004018161816901F0040129
:101050000491816941F020018161816901F02001E1
:101060000491816941F0080181618069DFF8A0A0E5
:1010700000F008000490002203215046FFF786FA92
:1010800001224FF47F415046FFF780FADFF884B029
:101090004FF4D077002239465846FFF777FA4FF4DD
:1010A0004058002241461C48FFF770FA4FF48079FF
:1010B000002249461948FFF769FA4FF603700125E7
:1010C0000226CDE90005CDE9024669465046FFF704
:1010D00061F900970396CDE9015469465846FFF738
:1010E00059F9CDF800800396CDE9015469460A48C4
:1010F000FFF750F9CDF800900396CDE90154694609
:101100000648FFF747F905B0BDE8F08F0010024030
:10111000001C01400008014000140140000C014087
:101120000C4810B50A4901604FF4E13141600021DB
:1011300081600C22C160C0E904128161C161FFF7C6
:10114000ACFE002803D0BDE81040FFF722B910BD67
:101150000038014040300020FEE7000008B5074D90
:101160004FF40054012221462846FFF70FFA6A4641
:101170000021012000F0D2FEF4E70000001401403D
:101180007047704702480068002800D00047704749
:101190001800002010B5044600F0A8F83E480021D1
:1011A000484A01703D4801703D4801703D4801606A
:1011B0003D4801603D4801703D4801703D48017067
:1011C0003D4801603D4801603D480160106830B114
:1011D0003D48006818B1126802C0521EFCD13B485D
:1011E00001603B4801603B4801603B4801603B486F
:1011F00001603B4801603B4801603B48017001F0E1
:101200005DF901F093F9204600F01AFF20880028CC
:1012100041D1204600F068FF208800283BD12046BD
:1012200000F06EFF2088002835D1204600F0D0FF66
:10123000208800282FD1204601F06CF92088002852
:1012400029D1204601F028FA2088002823D1204601
:1012500001F0CAFB208800281DD1204600F010FFB5
:101260002088002817D1204601F06AFE2088002837
:1012700011D1204601F018FB208800280BD1204610
:1012800001F0B8FE2088002805D100F0D7FEBDE8A7
:101290001040FFF776BF10BD2C0000202D0000206D
:1012A00060000020C4000020C8000020460000208C
:1012B0004700002048000020540000205800002073
:1012C0005C000020603900085C3900080C00002038
:1012D0001000002014000020180000201C00002036
:1012E00020000020240000208E0000200548064930
:1012F0000068096800EB8100044920F007000860DD
:10130000704700005C39000860390008CC000020FC
:10131000184810B5007801282BD1FEF72BFF0446A2
:101320001548017801B3491E11F0FF0101701BD16E
:1013300012480078C0B901F0AFF81149087011499E
:1013400000EB400051F820100F4801600F48006882
:10135000814209D051F8840F401C08600C48016894
:10136000491C0160FEF77EFF2046BDE81040FEF7F5
:1013700005BF10BD2D0000202C00002060000020C3
:1013800047000020E4110020C8000020C400002015
:10139000840000202DE9F041044616480E4615460B
:1013A000007810B142F6E16021E0F4B1FEF7E2FE10
:1013B00007461148C4E900060026266284F8256025
:1013C0004020A66284F8240004F1080000F097FF92
:1013D000204600F0EBFE09490888401C088038468A
:1013E000FEF7CCFE2E80BDE8F08145F6C35010809C
:1013F000F9E700002C0000204D555458440000200F
:101400002DE9F04F0646624889B01C460078129DCF
:1014100090468B4610B146F2AE109BE046B1B8F153
:10142000000F08D0B8F5004F05D045F6256091E0D3
:1014300045F6C3508EE057493068884202D045F6E1
:10144000C45087E04FF0000A0CB1C4F800A0FEF7CA
:1014500091FE814696F825004F4978B1376A0A68AF
:1014600097421FD1401C86F825000CB1B06A20605D
:101470004846FEF783FE45F282706BE008683062F2
:1014800090F8370086F82400012086F825000CB17A
:10149000B06A20604846FEF771FEA5F800A009B0CA
:1014A000BDE8F08F5FEA084005D54846FEF766FEC6
:1014B00046F2B0104EE03948007828B14846FEF7B1
:1014C0005DFE46F6635045E0884697F8370092F88F
:1014D000371088421ED997F83600082835D2DFE841
:1014E00000F00413161613131616384601F07EF892
:1014F000D8F8000090F8370087F8370000F0EAFFCE
:10150000384601F03DF805E087F8371002E038462C
:1015100000F0DCFE5B4604223146684600F064FEC3
:101520004846FEF72BFE00F0CFF8FEF723FED8F872
:10153000001091F835207AB1012A13D0022A20D068
:10154000032A15D046F62E6117E04846FEF716FE30
:1015500046F62D602880A2E70CB1096C2160A5F841
:1015600000A00BE00CB1096C216046F2A91104E067
:101570000CB1C4F800A047F2D9212980FEF7FEFD86
:101580008DE70CB1096C216045F6C251F5E700000A
:101590002C0000204D555458C4000020600000204D
:1015A0002DE9F84F0446444815468946007810B1A5
:1015B00046F20E2011E03CB1080008D0B1F5004F12
:1015C00005D045F6256008E045F6C35005E03B49E7
:1015D0002068884204D045F6C4501080BDE8F88FDA
:1015E000FEF7C8FDDFF8D8808246216AD8F80000EF
:1015F000814205D05046FEF7C1FD45F2817010E0F2
:10160000FEF7C0FE0646A06294F82500401E10F0CA
:10161000FF0084F8250006D05046FEF7AFFD45F2E6
:1016200083702880DAE7208A04F108074FF0000B66
:10163000B8B3D8F8001094F8243091F837209A42C3
:1016400014D0084600F0D2FFD8F8001094F8240017
:1016500081F8370000F03EFFD8F8000000F0ACFF42
:10166000D8F80000174990F8370008703868002350
:101670001A468168216291F8370084F8240001201D
:1016800084F825002046009600F099FE5046FEF7AB
:1016900075FD5FEA094001D400F016F8A5F800B026
:1016A0009CE7FFE7C4F820B05E4684F825B05046BA
:1016B000FEF764FD2E8091E72C0000204D55545814
:1016C000C400002046000020154810B5007800280E
:1016D00024D114480078002820D1FEF74BFD0446A1
:1016E00000F0DAFE10490870104900EB400051F894
:1016F00020000F4908600F490968884209D050F856
:10170000841F491C01600C480168491C0160FEF7F8
:10171000A4FD2046BDE81040FEF730BD10BD00001E
:101720002C0000206000002047000020E411002071
:10173000C8000020C40000208400002070B50446CA
:101740001048007810B146F6625019E00E48007853
:10175000012802D045F6896012E00C4D2878FA285D
:1017600002D345F209200BE0FEF704FD0646287877
:10177000401C287000F064FF3046FEF7FFFC00209C
:10178000208070BD2C0000202D0000206000002073
:1017900070B504461548007810B146F6655023E050
:1017A00013480078012802D045F689601CE0114DED
:1017B000287870B1FEF7DEFC06462878401E10F04F
:1017C000FF00287008D03046FEF7D8FC46F663507C
:1017D0000AE046F6645007E000F040FF3046FEF7AE
:1017E000CDFCFFF771FF0020208070BD2C00002091
:1017F0002D0000206000002070B50F4D04462878B1
:1018000018B145F68A60208070BD00F045FE0B4996
:1018100008700B4908700B4900EB400051F820009C
:10182000094908600949086001202870FEF704FD95
:1018300043F69920E7E700002D0000204700002034
:1018400046000020E4110020C8000020C400002051
:101850002DE9F0410646FEF78DFC224900250D805A
:1018600021490D6021490D6021490D6021490D601C
:1018700021490D81FEF782FCFEF77CFC1F490C68B4
:1018800016E000BFFEF776FCC4F8A85044F86C5F81
:1018900007462563A561A582E5826562A562FEF71C
:1018A00071FD44F8200FA4F134008581646A384644
:1018B000FEF764FC002CE5D1FEF75CFC10490C68D7
:1018C00004E000BFFEF756FCA585A469FEF756FCB0
:1018D000002CF7D101F072FA01F024FC3580BDE84C
:1018E000F08100006E0000208000002094000020A5
:1018F000B400002058000020D811002088000020EB
:101900004C000020F8B5044669461E4800F0C6FAAF
:10191000BDF8000028BB6A460021022000F0FEFA54
:10192000BDF80000E8B9FEF725FC174E002535602C
:10193000FEF724FC154916480A6803689A4202D942
:10194000B2FBF3F010B90A21B2FBF1F06A460021B4
:1019500000F0E4FA69460B4800F048F9BDF80000D1
:1019600008B12080F8BDFEF705FC0A490A4A0D605F
:1019700031681160094A01211170FEF7FFFB2580D3
:10198000F8BD000080160020700000208439000897
:101990007039000880000020740000207C000020C6
:1019A00002480068002800D0004770471C00002053
:1019B0002DE9FF4F83B004464C48DDE91785DDE98A
:1019C00010960078139F934610B147F24A1025E015
:1019D00054B1BBF1000F0AD066B145480068874298
:1019E0000BD246F6306019E047F2AD1016E047F230
:1019F0004F1013E046F62F6010E01298B84202D361
:101A000046F631600AE046F27320B9F1400F05D284
:101A1000B9F13F0F06D137498C4203D0288007B077
:101A2000BDE8F08F204600F0EFFF4FF0000AA5F868
:101A300000A05FEAC8700AD05FEA887007D5304618
:101A40000021524601E004C0491CB942FBD3129860
:101A5000CDE9007806EB80052B46324658460699BC
:101A600000F0E2F9C4F828B00699E1620499216215
:101A700084F83790A56020601698A763666260605E
:101A8000A4F83C800020514604EB8002401C116702
:101A900010F0FF00F8D004F15800149900F07EFB1C
:101AA000204600F02DF8FEF765FB054694F8370058
:101AB00000F010FD204600F07FFD204600F066FF9C
:101AC0000D490888401C08800C48007801282846E9
:101AD00004D007B0BDE8F04FFEF750BBFEF74EFB59
:101AE00007B0BDE8F04FFFF7EFBD00002C0000206D
:101AF00080390008201100208C0000202D000020DB
:101B000002490968002900D0084770470C000020EE
:101B100070B504462D480D46007810B147F24E10BE
:101B200004E02B48844203D147F24C10088070BD7A
:101B30002CB9FEF71FFB27490C68FEF71FFBFEF7C9
:101B400019FB064694F83600082838D2DFE800F082
:101B5000040828280B082828204600F047FD02E04A
:101B6000204601F00BF904F1580000F0FDFA204680
:101B700000F034F8204600F01BFF17490888401E8B
:101B80000880204600F040FFFF2084F836003046F1
:101B9000FEF7F4FA00202880BDE87040FFF794BDFE
:101BA00094F834000728DBD2DFE800F004050405D0
:101BB00005050500D4E7204600F0D3FBD0E730460A
:101BC000FEF7DCFA46F62D60288070BD2C00002060
:101BD00020110020C40000208C0000200249096868
:101BE000002900D0084770471000002070B5054656
:101BF0000E480C46007818B147F25510088070BDA9
:101C0000FEF7B8FA1DB10A4909688D4205D1FEF701
:101C1000B5FA47F25710208070BDFEF7AFFA2146A3
:101C20002846BDE8704000F043BF00002C000020B3
:101C3000C400002002490968002900D00847704705
:101C4000140000202DE9F0478246434814461E4602
:101C50000078884610B146F2AE1006E0080006D0C3
:101C6000B1F5004F03D045F62560188035E0002718
:101C700004B12760FEF77EFA384D81462968486C2A
:101C8000C8B1401E804648640CB1086C2060FEF765
:101C900079FB29680A6C801AC1F89800D1F89C2059
:101CA000824201D2C1F89C004846FEF767FA3780AD
:101CB0004046BDE8F0875FEA084005D54846FEF794
:101CC0005DFA46F2B01007E02548007838B1484682
:101CD000FEF754FA46F6635030800020E9E7002111
:101CE00053460722084600F07FFA4846FEF746FAB8
:101CF000FFF7EAFCFEF73EFA8046286890F83510B8
:101D000031B1012916D003291AD046F62E601BE006
:101D100074B1006C2060FEF735FB29680A6C801AEC
:101D2000C1F89800D1F89C20824201D2C1F89C00F1
:101D300037800AE00CB1006C206046F2A91003E085
:101D400004B1276047F2D92030802868446C4046AF
:101D5000FEF714FA2046ACE72C000020C400002057
:101D60006000002070B50D000646144607D0B5F59A
:101D7000004F04D045F625601080002070BDFEF7AE
:101D800001FB0246234629463046BDE8704000F07C
:101D9000EFBE00002DE9F0410546214816460F46EA
:101DA00000781C4610B147F2591007E046F2D520E2
:101DB00027B11EB1FEF7DEF91DB104E01880BDE8C1
:101DC000F08118490D684FF00008296841B195F875
:101DD0003C10C9070DD0FEF7D1F90020696A14E064
:101DE000FEF7CCF9C7F8008047F25210C6F8008021
:101DF00007E0FEF7C3F9C7F8008047F25410C6F8B1
:101E000000802080DBE7401C091D0A68002AFAD008
:101E10003860A96B081A3060A4F80080CFE7000092
:101E20002C000020C400002010B5029C02EB8402AC
:101E300022F007024FF0807442E90204164842F88B
:101E40000C0C4FF0123042F8100CA2F114004FF0BD
:101E5000023240E903134FF0113140F8101CD10059
:101E600040F8141C4FF0093140F8181C910040F85C
:101E70001C1C4FF007314FF0033440F8201C610068
:101E800040F8241C4FF0053140F8281D5100C0E9EE
:101E9000092440F8041D10BD592B0008074A127888
:101EA00012B147F25D1004E0054A904203D147F2B7
:101EB0005B100880704700F0A7BE00002C000020D7
:101EC00020110020114810B5006800B18047FEF7CE
:101ED00059FA0F490F4A09681268914209D0D1F89E
:101EE0008C30C31AC1F88830D1F890402344C1F82F
:101EF0009030C2F88C00084AD1F8A83010688342AC
:101F000001D2C1F8A8000020106010BD2000002000
:101F1000C4000020C80000205C0000202DE9F04132
:101F200006461D480D461446007810B147F275204C
:101F300023E01A48007810B146F663501DE045B121
:101F4000022D06D0042D05D0082D02D045F62560BF
:101F500013E086B1FEF70EF92A46114D07462346D7
:101F60003146286800F0CCFE208848B13846BDE8EC
:101F7000F041FEF703B947F27E201080BDE8F08102
:101F8000286800F033FB3846FEF7F8F8FFF79CFBB3
:101F900000202080F2E700002C00002060000020DC
:101FA000C400002008B500F01BF86A46002108486C
:101FB000FFF7D8FE07490868401E086007D10648A9
:101FC0006A460068086000210448FFF7CBFE08BDA0
:101FD0009C150020C0000020BC00002080160020BE
:101FE00002480068002800D0004770472400002005
:101FF00010B5FEF7BFF8064A1178491C1170FEF7BC
:10200000BDF8FFF7CFFFBDE81040FFF781B9000032
:102010002C0000204FF0E021401E48610648026875
:1020200022F07F420260086940F0050008610869FB
:1020300040F002000861704720ED00E070470000AA
:10204000034A00211160034A11800180704700009B
:102050003000002034000020074C084DFEF78AF8BD
:102060002168491C21602968491C2960FEF786F80F
:10207000FFF788F8F2E70000280000207000002039
:1020800000B50E4A89B0002111600B22059106911E
:10209000CDE907200A480B4A0B4B006812681B6801
:1020A0000292CDE903013F20CDE900030023074A56
:1020B00007A10C48FFF77CFC09B000BD28000020F8
:1020C00058390008543900085039000859200008D0
:1020D00075432F4F532D4949492049646C6520545D
:1020E00061736B0020110020034A00211160034A34
:1020F0001180018070470000380000203C00002063
:10210000F0B5164C216859B1154E318859B189B2D4
:10211000491E22688FB2002502F1100329460EE005
:1021200045F21E7118E045F21D7115E0E2E802313A
:102130006D1C22F8081BADB242F8041C1033BD42DE
:10214000F4D3116051601181D160064A2368136095
:1021500033889380D18011810180F0BD68390008F7
:1021600064390008D811002010B5428992B10A499B
:1021700003680C681C6043680B60CB8844891B1B98
:10218000CB808B88448923448B80002141818181CD
:1021900001604160104610BDD8110020018100216E
:1021A0004181818101604160704700000022074B3E
:1021B00005A14261C161196819B181614861186066
:1021C00070478261FBE70000200000004000002013
:1021D000034A00211160034A11800180704700000A
:1021E00040000020440000202DE9F041114D074639
:1021F0000C4628680026194680F8342080F835609F
:1022000000F0B0FB64B1FC6004F10806012239461D
:10221000286800F011F83946304600F075F802E001
:102220002868C687066320462968BDE8F04100F0AB
:102230001BB80000C400002010B5C287002423464C
:1022400001630EE04B6041F8103B641C41F8103B09
:10225000A4B241F80C3C21F8083C41F8043C41F898
:10226000180C9442EED310BD38B14268C1F8B420C6
:1022700081688968096AC161704791F83400022851
:1022800003D0072803D004A002E004A000E005A0CA
:10229000C1F8B40070470000200000005461736B67
:1022A000205100005461736B2053656D00000000E5
:1022B00005A2C1F8B420816811B18968096A00E0FB
:1022C00001A1C161704700002000000070B580F8D6
:1022D0003710C68F056B0FE0EC68208A08340128A0
:1022E00007D92946204600F04FF82946204600F03D
:1022F0000BF8761EB6B22035002EEDD170BD002150
:10230000016041600181704730B58A68002392F80E
:10231000374002891AB1521C028102680BE0012287
:1023200002814B600B60016014E0956895F83750AE
:10233000A54203D85268002AF7D107E032B11468E9
:1023400054B1C1E900426160116030BD4B60426828
:102350000A605160416030BD1160C1E90032016026
:1023600030BD70B50646C48F056B07E0E8682946A6
:10237000083000F009F8641EA4B22035002CF5D115
:102380000020F087306370BD10B502890023012A58
:102390000BD00A6862B14C6874B154602260028943
:1023A000521E02814B600B6010BD03604360F6E774
:1023B0004A6813600260F2E753604260EFE7F8B5E5
:1023C0000C46064691F836100025069808294ED28C
:1023D000DFE801F04D4D04044D4D282894F83410E9
:1023E000032910D02265A4F85430206436B1204669
:1023F000FFF7B7FF21463046FFF75AFF94F8360043
:10240000032806D008E000902146304600F030F85E
:10241000ECE7204600F0B2FC204600F099F884F882
:10242000365020E094F83410032910D02265A4F827
:102430005430206436B12046FFF793FF21463046E2
:10244000FFF736FF94F83600072806D008E0009022
:102450002146304600F00CF8ECE7204600F08EFCF8
:10246000042084F8360084F8355084F83450F8BDE0
:1024700070B50C6B049DC98F0AE0E668864204D1F2
:10248000C4E904022383E56170BD491E89B220348A
:102490000029F2D170BD000010B50024064802E00A
:1024A0002034E4B2001D01680029F9D00846FDF788
:1024B0006CFE2044C0B210BD04000020002004497E
:1024C000024600BF41F82020401C0228FAD3704782
:1024D0000400002000F01F0241090120C2F11F0288
:1024E0009040034A52F82130034342F821307047AC
:1024F0000400002000F01F0241090120C2F11F0268
:102500009040034A52F82130834342F8213070470B
:1025100004000020034A00211160034A1180018059
:10252000704700004C000020500000200020074BA6
:10253000014600BF00EB400203EB8202401C118108
:102540001160C0B251604028F4D37047E4110020FC
:1025500010B5044690F83700FFF7BCFF074994F820
:10256000370009788842204603D1BDE8104000F0CA
:1025700023B8BDE8104000F003B80000460000207A
:1025800090F837100B4A01EB410102EB8101002268
:102590000B8943B15B1C0B810B68C0E903320A68ED
:1025A00010610860704701230B81C26002610860FE
:1025B00048607047E411002090F837100A4A01EB98
:1025C000410102EB810100220B893BB15B1C0B81B5
:1025D000C2604A680261D0604860704701230B8185
:1025E000C26002610860F7E7E411002070B505469B
:1025F00090F83700114900EB400001EB8001D5E96C
:102600000302002442B10B895B1E0B81D06090B1A4
:1026100002612C61EC6070BD28B10A89521E0A81EA
:1026200004610860F5E70C810C604C6095F8370098
:10263000FFF760FFEDE74A60EBE70000E4110020E0
:10264000044810B50078012803D1FDF79BFE02492C
:10265000086010BD60000020540000200A4810B53A
:10266000007800280ED1FDF78DFE08490968401A50
:1026700007490A68824200D2086006490A68824215
:1026800000D2086010BD000060000020540000204F
:10269000580000205C000020034A00211160034A1A
:1026A0001180018070470000640000206800002055
:1026B0001CB56E4C6E4E2068450004E028466A4604
:1026C0000021FFF72BFC30780128F7D16846FFF78F
:1026D000BFF8684822680168914206D90A46216815
:1026E000B2FBF1F15FEA010803D100680A21B0FBF7
:1026F000F1F8DFF884B1614F42F210795FF0000623
:10270000FDF740FE0190FDF735FD5D495D4C0A681F
:1027100022600E60FDF732FD5B4823680168994234
:102720002BD95A48814202D24846012215E0584826
:10273000814203D24FF47A700A220EE0554881425A
:1027400002D26420024608E05348814203D20A20A4
:102750004FF47A7201E001204A46B1FBF2F158438E
:10276000B0FBF1F1A9EB01004C4980B2ABF80000DD
:102770000A88824203D2088001E0ABF80090FFF79C
:102780000FF90024FDF7F6FC3D680CE0FDF7F2FCC4
:1027900055F8901FC5E90061FDF7F0FC6868044436
:1027A000FDF7E8FC2D6AFDF7E9FC002DEED114B32E
:1027B0003648844202D24D46012015E03448844216
:1027C00003D24FF47A750A200EE03248844202D2D6
:1027D0006425284608E03048844203D20A254FF495
:1027E0007A7001E001254846B4FBF0F08246FDF71F
:1027F000C1FC3C681EE000250120F7E7D4F89400F6
:102800006843B0FBFAF080B2484500D94846A4F8C6
:102810008000B4F88210814201D2A4F8820004F151
:10282000A0026B46111D2046FFF7B4FAFDF7A2FC8B
:10283000D4F8B040FDF7A2FC002CDFD11848017895
:10284000012903D106706846FFF702F8FDF79AFDEB
:102850000199401A13490A68824200D208606A4608
:1028600000214046FFF75AFB4AE700007039000894
:102870007C000020843900086C00002088000020C3
:10288000700000207800002074000020801A0600EC
:1028900000093D00005A62020084D7176E00002034
:1028A0006A0000208000002030B51D4A89B0002158
:1028B00011601C4A11601C4A11601C4A11701C4AAC
:1028C00011701C4A136843B11B4B1C4D1C682D68CA
:1028D000AC4205D246F62C6108E046F62B6105E0D5
:1028E000174C25783F2D04D346F62A61018009B0A4
:1028F00030BD032505910691CDE9075011481B68AD
:1029000012680068CDE90120CDE9033120780090FC
:1029100000230D4A0DA11248FFF74AF8E7E700002F
:102920007000002078000020740000207C0000204F
:102930006A000020743900087C39000880390008DA
:102940006C39000878390008B126000875432F4F0C
:10295000532D4949492053746174205461736B00AD
:10296000E414002010B5044631B10A460146064879
:1029700000F096F9032000E0022084F8360020469B
:10298000BDE81040FFF732BEA0000020074B002238
:10299000C0F8AC20196829B1C0F8B010C1F8AC007B
:1029A00018607047C0F8B020FAE7000088000020E7
:1029B000D0E92B2100234AB181B1C2F8B010C1F88F
:1029C000AC20C0F8B030C0F8AC307047054A116098
:1029D00009B1C1F8AC30C0F8B0307047C2F8B030BF
:1029E000F1E7000088000020044A00211160044A39
:1029F0001180044A116001807047000088000020A7
:102A00008C0000208400002070B5002505608560E2
:102A10004560C560056145610446856121A0C4E942
:102A200007506562A562E56225642565A4F85450E7
:102A3000294604F15800FFF7B1FBA566E566656716
:102A4000A4F87C500020A56704EB8001401C0D67B2
:102A500010F0FF00F8D06564C4F89850C4F89C509A
:102A6000A56384F87E50C4F8A450C4F8A050A5878C
:102A7000A564E564A4F88050A4F88250C4F884509A
:102A8000C4F888503434FDF77DFCC4E91605656749
:102A900025706570A5704020E07004A0A567C4E9AA
:102AA0001F5070BD3F5461736B0000002000000098
:102AB00070B50D460446FDF75DFB064600202880F4
:102AC00094F83610082940D2DFE801F00404040429
:102AD0000B1F29333046FDF751FB47F25310288076
:102AE0000FE094F87E10491E11F0FF0184F87E106B
:102AF00004D184F836002046FFF72AFD3046FDF762
:102B00003DFBBDE87040FEF7DFBD94F87E00401E3F
:102B100010F0FF0084F87E00F0D1012012E094F85C
:102B20007E00401E10F0FF0084F87E00E6D10220F7
:102B300008E094F87E00401E10F0FF0084F87E004C
:102B4000DCD1032084F83600D8E73046FDF716FBC9
:102B500046F62D60288070BD044808B50068FFF770
:102B600069F869460020FEF7D3FF08BDC4000020C5
:102B70002DE9F8431E46144689460546FDF7FAFA44
:102B800007460DB91F480568002046F6C5582C6455
:102B9000308095F8360008282BD2DFE800F00404D6
:102BA0000D0D04040D0D6C6C601C1AD0641C3846AD
:102BB0006C64FDF7E3FA23E095F834000728F2D1BE
:102BC00000231A46294618460094FFF7F8FB3846BA
:102BD0006C6CFDF7D3FA5FEA094011D4FEF774FD7F
:102BE0000EE03846FDF7CAFAA6F800800020BDE8DE
:102BF000F8833846FDF7C2FA46F62D60308000248F
:102C00002046F4E7C400002070B50D460446FDF7E9
:102C1000B1FA0646204804B904680068844208D125
:102C20001E48007828B13046FDF7A8FA46F66350F2
:102C300030E00020288094F836100120082924D2A2
:102C4000DFE801F0040D16181E1E1E1E042184F874
:102C5000361084F87E002046FFF7C8FC01E005210D
:102C600009E03046FDF78AFABDE87040FEF72CBD5A
:102C7000062100E0072184F8361084F87E00F0E792
:102C800014F87E0F401C2070EBE73046FDF776FA13
:102C900046F62D60288070BDC40000206000002032
:102CA00030B50368002433B94C618A64C1E9064039
:102CB000016001210FE09D6C954216D39D694B6127
:102CC0008A6455B1C1E906509C6CA21A9A64996154
:102CD00069618188491C818030BDC1E906409C6CD6
:102CE000A21A9A6499610160F3E7521B1D465B6961
:102CF000002BE0D14C618A64C1E90650E8E700008E
:102D0000F0B51C461B4BDFF868C000251B6847F276
:102D10007E26042A04D0082A08D029B10A4614E0E5
:102D2000CA1A624500D882B985641EE0D0F84CE02A
:102D3000A3EB0E078F4202D90A46991804E0CA1B7A
:102D400062450BD852B17144C164012180F836103C
:102D500001460948FFF7A4FF2580F0BDB7FBF1F25B
:102D600001FB02E21144C0E912512680F0BD0000CF
:102D70000000FFFF900000209800002030B5D0E94F
:102D80000524C369002174B1626122B19461946C1D
:102D9000856C2C44946481619A88521E9A804161AA
:102DA0008164C16130BD32B19161946C856C2C44F9
:102DB00094641A60F0E719609980F1E770470000A9
:102DC0002DE9F047FDF7D6F98246FDF7DBFA1A4DFB
:102DD000074600262C6814B3A06CB046401E4FF086
:102DE0000409A06418E0761C94F83600B6B20128F5
:102DF00002D0052806D007E084F836802046FFF789
:102E0000A7FB01E084F8369064692C608CB1A88837
:102E1000401EA880C4F81880A06C0028E3D0EE8083
:102E2000FDF7B0FAC41B5046FDF7A8F92046BDE8EF
:102E3000F087A5F80480F2E7980000202DE9F0471C
:102E4000FDF798F98246FDF79DFA274D07460026C3
:102E50002C68DCB3A06C4FF00309401EB046A064A0
:102E600031E0761C94F83600B6B2032802D0072869
:102E700010D020E0C4F85080A4F85480FDF782FA06
:102E800020642046FFF76DFA2046FFF761FB84F8C7
:102E900036800CE0C4F85080A4F85480FDF772FA34
:102EA00020642046FFF75DFA042084F8360084F899
:102EB000359084F8348064692C608CB1A888401EF9
:102EC000A880C4F81880A06C0028CAD0EE80FDF756
:102ED00059FAC41B5046FDF751F92046BDE8F0876A
:102EE000A5F80480F2E70000A00000201CB5114FF7
:102EF000114D124E00216B4601AA0846FEF7A2FEB4
:102F0000BDF800000028F5D138780128F2D1FDF78E
:102F100031F92968491C2960FDF730F9FFF750FFA6
:102F20000446FFF78BFF316820448142E2D23060D3
:102F3000E0E700002D000020900000209400002019
:102F400030B51D4A89B0002111601C4A1C4B11602C
:102F500019609180D1801B4A9980D980136843B150
:102F6000194B1A4D1C682D68AC4205D247F213214B
:102F700008E047F2122105E0154C25783F2D04D3D7
:102F800047F21121018009B030BD0B250591069152
:102F9000CDE9075018680F4B12681B68CDE9030193
:102FA000CDE901232078009000230B4A0BA11048A3
:102FB000FEF7FEFCE7E700009000002098000020EC
:102FC000A00000208C3900089439000880390008DE
:102FD0008839000890390008ED2E000875432F4FFE
:102FE000532D494949205469636B205461736B0028
:102FF0009C15002030B50546294889B0002404609E
:1030000028482A492A4A04602748048029480B682E
:103010001BB11268B2FBF3F103E011680A22B1FBA5
:10302000F2F10160084624492A460860234825A198
:103030000460234804602748FEF7ACF9288800287C
:1030400015D12548016841B12449254B0A681B6800
:103050009A4205D247F2483008E047F2473005E08F
:10306000204A13783F2B04D347F24630288009B01A
:1030700030BD0B23CDE906431B4B089505941B6817
:1030800009680068CDE90103CDE9031410780090C8
:103090000023164A16A11C48FEF78AFCE7E7000049
:1030A000A8000020B0000020AC0000209C390008DF
:1030B00084390008BC000020C0000020B8000020B7
:1030C000B40000204F5320546D72204D7574657804
:1030D0000000000054160020A0390008A83900089C
:1030E0008039000898390008A439000829310008FF
:1030F00075432F4F532D4949492054696D657220FE
:103100005461736B00000000801600200EB501A80A
:103110000022009002AB11460148FEF771F90EBD86
:1031200054160020704700001CB5DFF88880DFF8D7
:103130008890DFF888A000216B4601AA0846FEF7B8
:1031400081FDFFF7E3FFFDF71DF9D8F800100646F3
:10315000491CC8F800100327D9F8004018E0684659
:10316000FEF7ECFAA0692569401EA0610CD1A08C85
:1031700002281BD0204600F023F884F82670A268AD
:1031800012B12046E16890472C466846FEF700FBE6
:10319000002CE4D1FDF7F6F8841B00F02FF8DAF8E4
:1031A0000010A142C7D2CAF80040C4E7206AA0615B
:1031B000E5E70000B8000020B0000020B4000020C7
:1031C0000C4B10B51C6800220169844203D11960C0
:1031D00029B14A6103E04369196101B14B610121E1
:1031E00080F826100449026142610888401E088068
:1031F00010BD0000B0000020AC00002008B56A46F9
:1032000000210248FEF7CCF908BD0000541600204A
:10321000704730B58FB028216846FCF7DAFF1421DB
:103220000AA8FCF7D6FF01210804CDE9001000240C
:10323000029402250491CDE907504FF4E010099063
:103240006846FDF773FB0F20CDE90A056802CDE95A
:103250000C4002210AA80E94FDF756FA0FB030BDBB
:10326000704700000148FDF758BD00008030002085
:10327000F0B502681C4B1D4D1D4E1E4F1E4C4FF0ED
:10328000804C984209D0A04207D0604505D0A842A2
:1032900003D0B04201D0B84204D122F0700E4A6887
:1032A00042EA0E02984209D0A04207D0604505D0FC
:1032B000A84203D0B04201D0B84203D122F44075F5
:1032C000CA682A434D6922F080022A4302608A6854
:1032D000C2620A688262984201D0A04201D10969A3
:1032E000016301214161F0BD002C01400004004058
:1032F00000080040000C00400034014070B5044656
:1033000000680169E26821F44051114301612169BB
:10331000A0680843616908432168CA6841F20C63E8
:103320009A430243CA6020684169A26921F440714E
:10333000114341611E492068884202D1FDF7B0FA6D
:1033400001E0FDF79DFA00EBC00101EB001260689F
:1033500064218000B2FBF0F3B3FBF1F36FF01806C9
:103360007343B2FBF0F5B2FBF0F605EB83053223B5
:1033700003EB0515B5FBF1F5B6FBF1F605F0F0052D
:1033800005EB0615B2FBF0F6B2FBF0F0B0FBF1F086
:103390006FF01802504306EB800003EB0010B0FB07
:1033A000F1F0216800F00F002844886070BD000033
:1033B000003801402DE9F041984617460E46044674
:1033C000069D1DE0681C1BD02DB1FDF7E5F8A0EBB4
:1033D0000800A84214D92068C16821F4D071C160E6
:1033E0002068416921F001014161202084F8390001
:1033F00084F83A00002084F838000320BDE8F0810A
:103400002068006836EA000004D00020B842D9D015
:103410000020F3E70120F9E7FEE700000FB4054BB9
:1034200010B503A9044A029800F028F810BC5DF812
:1034300014FB0000D1350008DC0000200907090E4C
:10344000002804DB00F1E02080F80014704700F051
:103450000F0000F1E02080F8141D704702E008C85A
:10346000121F08C1002AFAD170477047002001E0FE
:1034700001C1121F002AFBD1704700002DE9FF4F48
:1034800089B09B460446002506E025280BD05A4605
:103490000B999047641C6D1C20780028F5D10DB065
:1034A0002846BDE8F08F0027B8460122474900E0D2
:1034B000074314F8013F203B02FA03F00842F7D11A
:1034C00020782E2819D114F8010F47F004072A2874
:1034D0000ED06FF02F022078A0F1300109290CD80E
:1034E00008EB880102EB410100EB0108641CF2E7E4
:1034F0000A98641C50F8048B0A9020780028CED0DB
:10350000642808D0692806D075281ED05A460B9921
:1035100090476D1C58E00A994FF00A0901C90A91B9
:10352000002802DA40422D2102E0390504D52B2182
:103530008DF82010012103E0F90704D02021F7E7DE
:103540008A4608AE0DE00021FAE70A994FF00A0911
:1035500001C90A91F7E74946FCF746FE303106F803
:10356000011D0028F7D1ADEB060000F12009780716
:1035700001D44FF00108C84502DDA8EB090000E0C6
:1035800000208046002706E008A85A46C05D0B9937
:1035900090476D1C7F1C5745F6DB04E030205A46EF
:1035A0000B9990476D1CB8F10001A8F10108F5DCFA
:1035B00005E016F8010B5A460B9990476D1CB9F1BE
:1035C0000001A9F10109F4DC641C65E70928010088
:1035D00013B54FF6FF73012269460248FDF7C6FC9A
:1035E00000981CBD4030002008B50C4D4FF4FA7413
:1035F000012211462846FCF7C9FF6A4600212046F1
:10360000FEF78CFC002201212846FCF7BFFF6A462A
:1036100000212046FEF782FCEAE70000001C014082
:1036200008B50C4C4FF47A756E0001220221204639
:10363000FCF7ACFF6A4600212846FEF76FFC00222B
:1036400002212046FCF7A2FF6A4600213046FEF721
:1036500065FCEAE7001C014027A388B00FCB8DE88A
:103660000F0029A12A4ED1E90001E8460DF1100909
:10367000CDE9040108240025C4F10F0719F807104B
:1036800018F80100C5F10701C84000F001028021CF
:103690003046FCF77BFF012220213046FCF776FF05
:1036A000002220213046FCF771FF6D1CEDB2082D81
:1036B000E4D30122150229463046FCF767FF0022B9
:1036C00029463046FCF762FF0125124FA540A9B2FA
:1036D00000223846FCF75AFF06AA00210120FEF717
:1036E0001DFCA9B201223846FCF750FF641CE4B26D
:1036F000102CC0D3BEE700003F065B4F666D7D0710
:103700007F6F777C395E797102000202060408013E
:1037100000080140001C01408AB0FCF74BFFFFF796
:1037200078FDFDF77DFCFDF7FBFC09A8FDF732FDF8
:10373000FCF720FD0021044609AA0320059106910B
:10374000CDE907024FF4007233230A4DCDE902326E
:10375000CDE9000504910B46074A08A1A5F5A16033
:10376000FEF726F92046FCF709FD09A8FEF744F804
:10377000FEE70000401C0020B5370008737461723A
:1037800074207461736B000008B500244FF4FA755F
:10379000641C214604A0FFF741FE6A46002128462A
:1037A000FEF7BCFBF4E700006E756D203D2025643C
:1037B0000D0A00002DE9F0478AB0FCF789FD09A841
:1037C000FEF7A0F8FCF7D6FC00240326CDE9064658
:1037D000824609AD4FF00C0838490895059404203D
:1037E0008DE803018027CDE903742346344A35A1CF
:1037F0003748FEF7DDF8CDE90646364908950594C9
:1038000005208DE803013248CDE903740023324AD4
:1038100032A1B830FEF7CCF8CDE90646324908951A
:10382000059407208DE80301CDE9037400232F4A96
:103830002FA13248FEF7BCF8CDE90646304908957D
:10384000059406208DE803012C48CDE9037400237C
:103850002C4A2DA1B838FEF7ABF8CDE90646059401
:103860004FF008092B490895CDF80090CDE90118D3
:10387000CDE903740023284A28A12A48FEF798F8C6
:10388000CDE90646059428490895CDF80090CDE984
:1038900001181A48CDE903740023244A24A1B83042
:1038A000FEF786F80A4809A9B838FFF7ADF950467F
:1038B000FCF764FC0AB0BDE8F0870000402400205B
:1038C000E93500086C656430207461736B0000009A
:1038D000F017002040260020213600086C65643176
:1038E000207461736B000000402A002059360008E4
:1038F0006C656420706C617900000000181A00206B
:1039000040280020893700087072696E7420746145
:10391000736B0000402E00205D1100084D6F746F26
:1039200072000000881B0020402C0020F5020008D7
:1039300042757A7A65720000000000000000000005
:103940000102030406070809000000000102030445
:10395000E00000200C00000080000000E0020020D9
:103960008000000064000000E00400200A00000065
:103970000A000000200B00200C0000008000000066
:1039800040000000E803000001000000200D0020BE
:103990000C000000800000000B000000640000002C
:1039A000200F00200C00000080000000B901000082
:1039B000B9010000EF010000B90100004D02000054
:1039C0002C020000B9010000B9010000EF01000065
:1039D000B9010000950200004D020000B90100008D
:1039E000B901000072030000E60200004D02000071
:1039F0002C020000EF01000012030000120300007F
:103A0000E60200004D020000950200004D02000099
:103A10000000000009000000030000000C0000008E
:103A20000C0000000C00000018000000090000005D
:103A3000030000000C0000000C0000000C0000005F
:103A40001800000009000000030000000C00000046
:103A50000C0000000C0000000C0000000C00000036
:103A600009000000030000000C0000000C00000032
:103A70000C00000018000000000000009C3A000844
:103A800000000020E00000005C3400087C3B0008DF
:103A9000E0000020E83300006C3400080024F4004B
:103AA0000000000000000000000000000000000016
:103AB0000000000000000000000000000000000006
:103AC00000000000000000000000000000000000F6
:103AD00000000000000000000000000000000000E6
:103AE00000000000000000000000000000000000D6
:103AF00000000000000000000000000000000000C6
:103B000000000000000000000000000000000000B5
:103B100000000000000000000000000000000000A5
:103B20000000000000000000000000000000000095
:103B30000000000000000000000000000000000085
:103B40000000000000000000000000000000000075
:103B50000000000000000000000000000000000065
:103B60000000000000000000000000000100000054
:0C3B700010000000000000000000000039
:0400000508000131BD
:00000001FF
