:020000040800F2
:10000000D007002011020008E12F00089D2D0008F4
:10001000DD2F00082D0B00086534000800000000EB
:10002000000000000000000000000000E92F0008B0
:10003000490B000800000000E52F000825300008EB
:100040002B0200082B0200082B0200082B020008DC
:100050002B0200082B0200082B0200082B020008CC
:100060002B0200082B0200082B0200082B020008BC
:100070002B0200082B020008310B00083D0B000882
:100080002B0200082B0200082B0200082B0200089C
:100090002B0200082B0200082B0200082B0200088C
:1000A0002B0200082B0200082B0200082B0200087C
:1000B0002B0200082D3000082B0200082B0200083C
:1000C0002B0200082B0200082B0200082B0200085C
:1000D0002B020008593400082B0200082B020008EC
:1000E0002B0200082B0200082B0200082B0200083C
:1000F0002B0200082B0200082B0200082B0200082C
:100100002B0200082B0200082B0200082B0200081B
:100110002B0200082B0200082B0200082B0200080B
:100120002B0200082B0200082B0200082B020008FB
:1001300000F002F800F05DF814A696E8000CB24456
:10014000B344DA4501D100F054F8BAE80F000FA625
:1001500096E83000A5EB040504EB0607AAEB0704BC
:10016000A7F101074FEA15154FEA3414A4F1010471
:10017000AC4201D300F03DF813F0010F18BFFB1A99
:1001800043F0010300F001F8DBE7184708400000E6
:1001900028400000103A24BF78C878C1FAD8520726
:1001A00024BF30C830C144BF04680C6070470000F1
:1001B000704700000023002400250026103A28BFC5
:1001C00078C1FBD8520728BF30C148BF0B607047C9
:1001D000662903F05D87002070471FB500F030FBF3
:1001E00004000020002103F0EBFDE0601FBD10B50E
:1001F00010BD00F025FC1146FFF7EFFF03F060F99A
:1002000000F043FC03B4FFF7F2FF03BC00F086FCF0
:100210000948804709480047FEE7FEE7FEE7FEE79A
:10022000FEE7FEE7FEE7FEE7FEE7FEE704480549D6
:10023000054A064B704700002930000831010008CC
:10024000D0010020D0070020D0030020D0030020E0
:100250000FB41CB50C0007AA009007D04142A14280
:1002600002D32044401E01E04FF0FF30074B7B4497
:1002700069460190069800F0C8FA0020002C01D0D1
:10028000009908701CBC5DF814FB0000BF0500005D
:100290002DE9F0474FF0000A89460446C0F820A037
:1002A0002046E1688847002876D0252806D0D4E982
:1002B00001219047206A401C2062F1E7E168204656
:1002C00000258847C4F81CA006460027C4F818A0DB
:1002D0002A2E09D0304603F06BFD38B304EB8708B3
:1002E000303EC8F8186019E059F8041B204604EBAA
:1002F00087029161E1688847012F064618D1E069BD
:10030000002820DA25F020051DE0D8F8180000EBC1
:10031000800006EB40003038C8F818002046E1683D
:100320008847064603F044FD0028EED1012F0AD08D
:100330002E2E08D12046E16888477F1C0646022FF2
:1003400045F02005C4DBA069002803DA404245F0EF
:100350000105A061E80701D025F01005B6B1A6F1AE
:100360004100192802D8203645F400654A46314636
:10037000204625604D46FFF72BFF58B1012806D0D7
:10038000ED1D25F0070000F1080989E704E005F1FB
:10039000040985E730468AE7206ABDE8F08710B592
:1003A000431C02E010F8011B71B18107FAD14FF034
:1003B000013202C88C1A8C4314EAC211F9D0C01A57
:1003C0000A0603D0C01E10BDC01A10BD0A0401D019
:1003D000801E10BD0902FCD0401E10BD7047704742
:1003E00070472DE9FF4F0C461E464FF0FF378BB08C
:1003F000D2E90001DDF860800A908A46C1F30A550F
:1004000005B93D46002108464FF00000BAF1000F43
:1004100000F4400005DA00EB80004FF4400101EAEF
:1004200050004FEA9059B9F1010F00DDB9460A9822
:1004300050EA4A000ED044F61050A5F2FF3545436D
:100440002F14B8F1000F1ED07542291E1EDDC9F110
:1004500000021CE0B8F1010F4FF0000001D0302184
:1004600003E0F24305E02154401CB042FBDB304680
:100470000022002121540B99C1F80880C1E9002015
:100480000FB0BDE8F08FBD1B6D1CDEE74A4600DAF9
:10049000694206A800F05EFA06AB93E8070003ABDA
:1004A00083E8070050460A9903F0A6F88DE8070094
:1004B000A0F500501F3800900398002D0ADD42F28D
:1004C0001F014A460844002303A90390684603F02D
:1004D0000FFB09E0A0F500504A461F38002303A98E
:1004E0000390684603F019FB8DE807000004000C38
:1004F00003D04FF0FF30410800E01046B8F1000F84
:1005000003D00022009215461EE0751E05D400F0AF
:100510009BF9303262556D1EF9D5B346012208436E
:1005200002D000227F1C04E02078302801D1002274
:100530007F1E002A099784D01DE0112D07DA00F0F4
:1005400083F9303262556D1C50EA0102F5D108433F
:1005500002D00098C8B10EE00021681E05E0235CBF
:10056000625C63542254401E491C8142F7DBAB4657
:10057000A81B401E0990002004F80B000B98099A54
:10058000C0F80880C0E9002B7AE711264FF0000878
:1005900057E72DE9F04F88460446D21D22F00701A7
:1005A00091B0D1E90001CDE90A0103F0EDFB02466B
:1005B0000B98C00F01D02D2007E02068810701D5DE
:1005C0002B2002E0202101EAC000032A099001D07B
:1005D000072A05DB03464146204600F07BF90BE184
:1005E0002078800601D5E06900E00620B8F1650FAB
:1005F000814606D0B8F1660F18D0B8F1670F70D1F8
:1006000031E00020B9F1110F009001DB112301E06E
:1006100009F101030AAA01A90CA8FFF7E2FEDDE92E
:100620000C70002609F10105834647E001204B4686
:1006300000904FF000470AAA01A90CA8FFF7D1FECD
:10064000DDE90DB00C995D46002610B909F10100F5
:100650000D18B9EB050003D4C0F1FF3609F101050F
:10066000A5EB09002BE0B9F1010F01DA4FF0010908
:100670000020B9F1110F0090484601DD112300E080
:1006800003460AAA01A90CA8FFF7ABFEDDE90C702E
:100690004D4600268346207800070AD4AB4500DA91
:1006A0005D4601A8012D04DD411911F8011C302916
:1006B00007D04F4502DA17F1040F04DA0120824611
:1006C0000FE06D1EEEE7002F02DCED1B3E4403E061
:1006D000781CA84200DD7D1CB81B00F1010A4FF018
:1006E00000472078000703D4AA4501DB4FF0FF3A0A
:1006F0000021B7F1004F0DF143088DF8431024D0CD
:1007000002202B23002F01DA7F422D230A21021E13
:10071000A0F1010000DC5FB197FBF1FC97FBF1F267
:1007200001FB1C7C17460CF1300C08F801CDEEE7FC
:10073000A8F1010003702188090501D5452100E0D9
:100740006521A0F1010800F8011C09980FA9A1EB8F
:100750000807FF1D00B10120411901EBEA70A169F2
:100760003844081A401EA0612078C00602D42046F2
:10077000AFF30080099828B1D4E901219047206A9D
:10078000401C20622078C00622D52046AFF30080AE
:100790001EE0002E04DBB34502DD01A8805D00E011
:1007A0003020D4E901219047206A401C2062761C49
:1007B000AAF101005FEA000A0AD100F041F8C0681E
:1007C0000168405CD4E901219047206A401C206206
:1007D000281EA5F10105DCDC07E0D4E9012118F8A9
:1007E000010B9047206A401C2062381EA7F10107C8
:1007F000F3DC2046AFF30080032011B041E6000097
:1008000001694A1C02610878704700B58FB0CDE9D4
:1008100001310021059105497944CDE903101146C4
:100820006846FFF735FD0FB000BD0000E5FFFFFF94
:10083000D1E900239A4202D2531C0B60107070471A
:10084000004870473000002030B5B0F10A0271F165
:1008500000034FEA900E4EEA817EB0EB0E0061EB92
:1008600091014FEA101E4EEA017E10EB0E0041EBA3
:1008700011114FEA102E4EEA016E10EB0E0041EB03
:1008800011214FEA104E4EEA014E10EB0E0041EBE3
:100890001141401841F100014FEAD00040EA417097
:1008A0004FEAD1014FEA810444EA907410EB8005CD
:1008B00044EB01046D1944EB0404521BA3414FF0B7
:1008C000000348BF0A3200D530BD401C41F1000191
:1008D00030BD00002DE9F0411F46044603260168A3
:1008E000072A01F4006004DB08B116A505E016A58F
:1008F00003E008B115A500E015A521F01000206067
:10090000A069C01EA0610FB1401EA0612046AFF3D8
:1009100000804FB1D4E9012138469047206A401C3D
:100920002062C01C206206E0206AFAE7D4E90121B7
:1009300015F8010B9047761EF8D22046AFF30080E1
:10094000BDE8F0814E414E006E616E00494E46009A
:10095000696E66002DE9F047814616468AB0354833
:1009600078440DC88DE80D0032487844801C03ACF3
:100970000DC884E80D0041F69B300844372190FBF8
:10098000F1F290FBF1F5A5F1800501FB12041B3C8F
:1009900002D56442012000E00020DFF898A08046E4
:1009A0000027FA44AAF1BE0A0EE0E0070AD0324658
:1009B000684607EB470101230AEB810103F0ADF81C
:1009C0008DE8070064107F1C002CEED1194F7F4486
:1009D000AE3F19E0E80715D007EB04100DF1180A37
:1009E00090E80E008AE80E00C068F04201D1981924
:1009F00008903246012306A903A803F08EF803AB42
:100A000083E807006D10641C002DE3D14FF0010353
:100A100032466946B8F1000F03A802D003F068F827
:100A200001E003F07AF8C9E90001C9F808200AB02A
:100A3000BDE8F087AC370000004870471000002088
:100A40007546FFF7F9FFAE4605006946534620F0AC
:100A50000700854618B020B5FFF7E8FBBDE8204049
:100A60004FF000064FF000074FF000084FF0000B6A
:100A7000AC46ACE8C009ACE8C009ACE8C009ACE8D9
:100A8000C00921F007018D46704710B50446AFF349
:100A900000802046BDE81040FFF7B4BB4FF0013C9A
:100AA00050F8042B51F8043B9A4221D1A2EB0C03DD
:100AB000934313EACC1317D150F8042B51F8043B9D
:100AC0009A4215D1A2EB0C03934313EACC130BD13A
:100AD00050F8042B51F8043B9A4209D1A2EB0C03C5
:100AE000934313EACC13DBD04FF00000704700BFF4
:100AF000D01A01BAB1FA81F101F0180122FA01F01D
:100B0000CB40DBB2C0B2C01AC1F120012CFA01F314
:100B1000D11A914311EAC311E6D170470149182057
:100B2000ABBEFEE72600020070470000FEE70000B3
:100B300040F2F400C2F2000000F0CAB840F2B00087
:100B4000C2F2000000F0C4B870470000EFF310805C
:100B500072B600BFFEE70000014690F821000228AF
:100B600016D10868D1E90FC3026822F00E020260B4
:100B7000026822F001020260012000FA03F2CCF8C0
:100B8000042081F821000020002281F820207047F5
:100B9000042088630120002281F820207047000093
:100BA00090F82110022927D1026840F2040C136842
:100BB000C4F2020C23F00E03136013680CF17C01E5
:100BC0008A4223F0010111601AD940F20841C4F2AF
:100BD00002018A4250D040F21C41C4F202018A4212
:100BE00042D040F23041C4F202018A4248D14FF46F
:100BF0008073CCF800345CE00421816301207047ED
:100C00004321C4F202018A420EDD6B21C4F20201CB
:100C10008A421BDC4421C4F202018A423ED05821A0
:100C2000C4F202018A4223E00821C4F202018A428E
:100C300032D01C21C4F202018A4237D03021C4F2E2
:100C400002018A4214D14FF4807230E06C21C4F268
:100C500002018A4226D08021C4F202018A4207D1D1
:100C60004FF0807223E000BF1023CCF8003420E066
:100C70004FF480321BE000BF0123CCF8003418E0B1
:100C80000CF588614FF480338A4208BF4FF48053DB
:100C9000CCF800340DE000BF012208E04FF4805290
:100CA00005E000BF4FF4801201E000BF1022CCF835
:100CB0000020012180F82110416B0022002980F8DA
:100CC000202004BF0020704780B58847002080BDE9
:100CD00010B5D0E90FE3D0F800C0DEF80020DCF852
:100CE0000010DA4054072DD511F004042AD0DCF8A6
:100CF0000010890605D4DCF8001021F00401CCF8BE
:100D000000100422C4F2020202F17C018C4569D970
:100D100040F20841C4F202018C4500F0B78040F275
:100D20001C41C4F202018C4500F0A88040F2304121
:100D3000C4F202018C4540F0AD804FF48061C2F8EE
:100D40000014F3E094072FD511F002042CD0DCF846
:100D50000010890608D4DCF8001021F00A01CCF854
:100D60000010012180F821100422C4F2020202F1D5
:100D70007C018C454CD940F20841C4F202018C45FB
:100D800000F0BC8040F21C41C4F202018C4500F02E
:100D9000AD8040F23041C4F202018C4540F0B88091
:100DA0004FF40071BCE000BF120740F1D78011F092
:100DB000080108BF10BDDCF8001021F00E01CCF8CE
:100DC0000010012101FA03F2CEF80420816380F8BB
:100DD0002110016B0022002980F8202040F0A8801B
:100DE000BCE000BF4321C4F202018C4526DD6B212B
:100DF000C4F202018C4533DC4421C4F202018C456B
:100E000000F07E805821C4F202018C453AE000BF18
:100E10004321C4F202018C4548DD6B21C4F202017A
:100E20008C4555DC4421C4F202018C4500F08680DB
:100E30005821C4F202018C455CE000BF0821C4F2D5
:100E400002018C4554D01C21C4F202018C456BD0A8
:100E50003021C4F202018C4514D14FF4806164E06A
:100E60006C21C4F202018C454ED08021C4F20201F3
:100E70008C4507D14FF0806157E000BF4021C2F898
:100E8000001453E04FF480214FE000BF0421C2F86A
:100E900000144BE002F588634FF480219C4508BFA5
:100EA0004FF48041C2F8001440E000BF0821C4F2B2
:100EB00002018C4540D01C21C4F202018C4545D072
:100EC0003021C4F202018C4514D14FF400713EE090
:100ED0006C21C4F202018C4534D08021C4F202019D
:100EE0008C4507D14FF0007131E000BF202117E0A1
:100EF00004211AE04FF4003129E000BF02210FE085
:100F00004FF4804111E000BF4FF480010DE000BFBD
:100F100002F588634FF400319C4508BF4FF400513F
:100F2000C2F8001414E000BF40211160C16AA9B1E9
:100F3000BDE81040084700BF022108E04FF400510F
:100F400005E000BF4FF4001101E000BF2021116057
:100F5000816A0022002980F82020E9D110BD00001C
:100F6000014600284FF0010008BF70472DE9F04707
:100F700040F2000CC4F2020C0A684FF6F8330CF58C
:100F8000816ECBF6FD73724538BF03F5806303EBCA
:100F9000020E4CF6CD43CCF6CC43AEFB033E0CF533
:100FA00080636FF00304D1E9019AD1F80C803CBF53
:100FB0000023C4F2020304EA9E04C1E90F340223B1
:100FC00081F82130136843F6F074A34301F1100750
:100FD00043EA0903F0CF43EA0A0343EA0803234341
:100FE0002B4333433B43136000228A6381F8210083
:100FF00081F820200020BDE8F047704790F820C01D
:10100000BCF1010F04BF02207047F0B54FF0010E94
:1010100080F820E090F821C0BCF1010F26D14FF0FC
:10102000020C80F821C04FF0000CC0F838C0D0E9A5
:1010300000C4C56AC66BDCF80070102C27F00107ED
:10104000CCF80070006C0EFA00F070600846CCF826
:10105000043004BF10460A46CCF80800CCF80C2037
:10106000DCF8000045B140F00E000DE0002180F8F2
:1010700020100220F0BD00BF20F00400CCF80000DA
:10108000DCF8000040F00A00CCF80000DCF80000BA
:1010900040F00100CCF800000020F0BD2DE9F04F39
:1010A00082B00E68002E00F0E980A0F1804241F687
:1010B000004540F20043A2F58432C4F20105062443
:1010C000C4F201034FEAB227A84208BF05244FF03B
:1010D000000E4FF001080F254FF0000A4FF0000BF3
:1010E000052F38BF4FEAB224009408E00E680AF1D9
:1010F000010A36FA0AF20EF1040E00F0BF8008FA77
:101100000AFC16EA0C09F1D04E684FF6FF72C1F2E4
:101110001002964212DC122E56D8DFE806F0350B8C
:101120004D49555555555555555555555555554593
:10113000510000BFD1F80CB046E000BF4FF6FF727F
:10114000C1F2210296420FDC0022C1F21102964246
:101150001AD00022C1F21202964215D00022C1F22A
:101160002102964210D02FE00022C1F222029642C4
:101170000AD00022C1F23102964205D00022C1F20B
:101180003202964220D100BF8A684AB1012A14BFB8
:10119000C0F814C0C0F810C04FF0080B14E000BF36
:1011A0004FF0040B10E000BFCA6802F1040B0BE023
:1011B0004FF0000B08E000BFCA6802F1080B03E023
:1011C000CA6802F10C0B00BF02467446B9F5807F75
:1011D00024BF0432203C166805FA04F726EA070704
:1011E0000BFA04F637431760CA79D2067FF57EAF53
:1011F00041F21807C4F202073A684FF6084542F078
:1012000001023A603A68CFF6FF7502F001020192DE
:10121000019A2AF003021A440F2457590EF00C06C3
:10122000B440A743009C04FA06F6374357514E6872
:1012300040F20C44F2029A6854BF22EA090242EAE0
:101240000902C4F201049A602268B70254BF22EA7C
:10125000090242EA090222605A68B70354BF22EA2F
:10126000090242EA09025A600F251A68F70354BFBF
:1012700022EA090242EA09021A6037E702B0BDE831
:10128000F08F0000002A08BF0904016170470000C8
:1012900040F2C810C2F200000068704740F200003F
:1012A00040F2C811C2F20000C2F2000100780A68E0
:1012B000104408607047000080B542F20000C4F29C
:1012C0000200016841F010010160032000F08CF879
:1012D0000F2000F005F800F027F8002080BD000086
:1012E00070B540F20006C2F2000640F20801327802
:1012F000C2F200014FF47A730968B3FBF2F20446BC
:10130000B1FBF2F1084600F085FB0F2C4FF0010510
:1013100008D838B94FF0FF3021460022002500F0F0
:1013200037F87460284670BD82B041F21800C4F2EC
:1013300002000168022241F001010160016801F030
:10134000010101910199416841F08051416040687B
:1013500000F08050009000980420C4F20100016861
:1013600062F31A61016002B070470000002848BFB4
:10137000704700F01F01012202FA01F11C2202EA6B
:10138000D0004EF20012CEF20002815070470000F1
:1013900010B54EF60C5CCEF2000CDCF80030C3F356
:1013A000022E8EF00704042C28BF0424BEF1030390
:1013B0004FF0FF3E0EFA04F438BF0023A1439940DA
:1013C0000EFA03F39A43114300F00F0200F1604359
:1013D0000901043A03F564436244002848BF02F15E
:1013E0000C03197010BD00004EF60C51CEF2000136
:1013F0000A684FF6FF031A4060F30A2242F0806049
:1014000040F0FD7008607047002804BF012070475D
:101410002DE9F04381B042F20008C4F2020804460C
:10142000D8F800000D4600F0070081420CD9D8F82A
:10143000000020F007002843C8F80000D8F800009A
:1014400000F00700A8426CD1206841F2040981072E
:10145000C4F2020917D5410705D5D9F8001041F4A7
:10146000E061C9F80010010705D5D9F8001041F472
:101470006051C9F80010D9F80010A26821F0F001FD
:101480001143C9F80010C00742D1D8F8000000F09D
:10149000070085420CD2D8F8000020F0070028434E
:1014A000C8F80000D8F8000000F00700A84238D1C2
:1014B0002068410707D5D9F80010E26821F4E061FF
:1014C0001143C9F80010000708D5D9F800002169B8
:1014D00020F4605040EAC100C9F80000D9F80020AB
:1014E00002F00C00082841F20020C0F27A004DD131
:1014F00044F28413C2F38341C0F60003595CD20363
:1015000038D440F60010C0F23D0048433EE000BF32
:10151000606859F8041C022808D0012826D18903E4
:1015200006D4012001B0BDE8F08300BF8901F8D5E1
:10153000D9F8001021F003010843C9F80000FFF7B3
:10154000A7FE064641F28837D9F80000616800F02E
:101550000C00B0EB810F98D0FFF79AFE801BB842C9
:10156000F2D9032001B0BDE8F08300BF8907D8D5C8
:10157000DEE700BFD9F8002044F24013C2F3404236
:10158000C0F600039A5C4843B0FBF2F0D9F80010B3
:1015900044F22812C1F30311C0F60002515C40F27C
:1015A000080220FA01F140F20400C2F200000068D3
:1015B000C2F200021160FFF793FE002001B0BDE807
:1015C000F083000040F2080041F20401C2F2000082
:1015D000C4F202010068096844F23812C1F3022122
:1015E000C0F60002515CC8407047000040F208009D
:1015F00041F20401C2F20000C4F20201006809686D
:1016000044F23812C1F3C221C0F60002515CC84056
:1016100070470000002804BF012070472DE9F04109
:1016200082B00446007841F20006C007C4F2020608
:101630000CD0706800F00C00042840F08180306805
:10164000800303D56068002800F046812078800779
:101650001BD5706810F00C0F09D0706800F00C00FA
:10166000082840F087807068C00300F183803068EC
:10167000800703D52069012840F02E813068616918
:1016800020F0F80040EAC10030602078000713D451
:10169000207840072CD4E569002D00F0188170688F
:1016A00000F00C00082840F0A780012D40F00481D4
:1016B000012002B0BDE8F081A069002800F084801C
:1016C0000020C4F242200121C0F88014FFF7E0FDA1
:1016D000054600BF706A800700F1B280FFF7D8FDB1
:1016E000401B0228F6D9032002B0BDE8F08100BFFC
:1016F000F0695FEAC00808D4F06940F08050F061FA
:10170000F06900F080500090009847F20007C4F2A2
:1017100000073868C00549D4386840F480703860E4
:10172000FFF7B6FD054600BF3868C0053ED4FFF799
:10173000AFFD401B6428F7D9032002B0BDE8F0815B
:10174000706800F00C00082803D17068C0033FF5F2
:1017500076AF61683068002900F00C81B1F5A02FE8
:1017600000F00081B1F5803F40F01A8140F48030F4
:101770001CE100BF2069002840F20000C4F24220B2
:1017800000F0888001210160FFF782FD054600BF5F
:10179000306880073FF572AFFFF77AFD401B0228E3
:1017A000F6D9032002B0BDE8F08100BFE168306ADD
:1017B000002900F09D80052900F09280012940F069
:1017C000AF8040F00100B1E00020C4F242200021CF
:1017D000C0F88014FFF75CFD054600BF706A800703
:1017E0007FF556AFFFF754FD401B0228F6D90320C2
:1017F00002B0BDE8F08100BF0027C4F242270020FC
:101800003866FFF745FD022D05460DD13068800191
:1018100040F1DE80FFF73CFD401B02284FF0030043
:10182000F4D902B0BDE8F081306880014FD5FFF7F0
:101830002FFD401B02284FF00300F5D9F1E700BF50
:1018400040F20800C2F20000006844F6D351C1F231
:101850006201A0FB0101480A019000BF00BF01988E
:10186000411E002801913FF413AF00BF0198411EB3
:10187000002801913FF40CAF00BF0198411E0028E1
:1018800001913FF405AF00BF0198411E002801916E
:10189000E4D1FDE600210160FFF7FAFC054600BF38
:1018A000306880077FF5F1AEFFF7F2FC401B02289D
:1018B0004FF00300F4D9B4E77068216A00F4803275
:1018C0008A4209D1616A00F47010884204D1002074
:1018D00002B0BDE8F08100BF012002B0BDE8F08198
:1018E00040F004003062306A40F001001EE000BFAA
:1018F00020F001003062306A20F004003062FFF70F
:10190000C7FC054641F28837306A800720D5FFF7CB
:10191000BFFC401BB8424FF00300F5D981E700BF80
:1019200020F001003062306A20F004003062FFF7DE
:10193000AFFC054641F28837306A800708D4FFF7CC
:10194000A7FC401BB842F7D9032002B0BDE8F081E4
:10195000B8F1000F3FF59FAEF06920F08050F061C4
:1019600099E600BF40F480203060306840F4803059
:101970001CE000BF20F480303060306820F480200C
:101980003060FFF785FC0546306880037FF55EAE6A
:10199000FFF77EFC401B64284FF00300F4D940E7BA
:1019A00020F480303060306820F480203060FFF711
:1019B0006FFC0546306880033FF548AEFFF768FCD2
:1019C000401B6428F6D9032002B0BDE8F08100BFB7
:1019D000206AB0F5803F05D17168A26821F400311A
:1019E000114371607168626A21F4741111430843F4
:1019F000706001203866FFF74BFC044630688001B8
:101A00003FF565AFFFF744FC001B02284FF00300D1
:101A1000F4D906E7411E0020B0EB116F1CBF012076
:101A200070474EF21002CEF2000251604EF6235182
:101A3000CEF20001F0230B70072190601160704717
:101A4000704700007047000090F83C20012A4FF0DA
:101A5000020242D010B580F83D200268D2F804E0BE
:101A6000D2F808C00C682EF07003234340F6FF3410
:101A7000C4F20004A242536010DCB2F1804F1FD0C8
:101A800040F20043C4F200039A4219D040F600032A
:101A9000C4F200039A4213D017E000BF40F600439F
:101AA000C4F200039A420BD043F20043C4F2010394
:101AB0009A4205D042F60043C4F201039A4204D18F
:101AC00049682CF08003194391600121002280F8BD
:101AD0003D1080F83C20BDE81040104670470000E3
:101AE000002804BF0120704710B5044690F83D005F
:101AF00028B9002084F83C00204600F01FF802209E
:101B000084F83D002068211D01F096FA012084F838
:101B1000460084F83E0084F83F0084F8400084F8D2
:101B2000410084F8420084F8430084F8440084F8BB
:101B3000450084F83D00002010BD000080B586B04F
:101B400040F200410068C4F2000100228842CDE961
:101B500004220392029201D006B080BD41F2180027
:101B6000C4F20200436843F002034360436803F099
:101B700002030193019B036843F0080303600068BC
:101B800000F00800019001980220CDE9020201F561
:101B9000843002A90492FFF781FA1D20002100225F
:101BA000FFF7F6FB1D20FFF7E1FB06B080BD00004C
:101BB00090F83D1001291CBF01207047022180F8D8
:101BC0003D10006840F6FF31C4F2000188420FDC8E
:101BD000B0F1804F1ED040F20041C4F200018842B3
:101BE00018D040F60001C4F20001884212D018E07B
:101BF00040F60041C4F2000188420BD043F200419C
:101C0000C4F20101884205D042F60041C4F201014C
:101C1000884206D1816801F00701062904BF00202F
:101C20007047016841F00101016000207047000029
:101C300090F83C20012A4FF002026CD080B580F869
:101C40003D20D0F800C04FF67772DCF8083023EA68
:101C50000202CCF808200B684F2B29DC1F2B45DD36
:101C6000202B46D0302B44D0402B40F0AF80D1F811
:101C700004E0C968DCF82030DCF8202022F0010202
:101C8000CCF82020DCF8182022F0F00242EA011102
:101C900023F00A0242EA0E02CCF81810CCF82020F9
:101CA000DCF8081041F0470121F0300128E000BFC6
:101CB0006F2B33DDB3F5005F74D0B3F5805F21D0B7
:101CC000702B40F08380D1E901E3C968DCF808207B
:101CD00043EA0E0322F47F4243EA01211143CCF888
:101CE0000810DCF8081041F0770109E00BB1102B67
:101CF0006CD1DCF8081021F07001194341F00701A4
:101D0000CCF808100022012180F83D10002180F855
:101D10003C10BDE880401046704700BF502B21D0DA
:101D2000602B53D1D1F804E0C968DCF82030DCF82E
:101D3000202022F01002CCF82020DCF8182022F419
:101D4000704242EA013123F0A00242EA0E12CCF8BE
:101D50001810CCF82020DCF8081041F0670121F0C1
:101D60001001CDE7D1F804E0C968DCF82030DCF8D8
:101D7000202022F00102CCF82020DCF8182022F0EC
:101D8000F00242EA011123F00A0242EA0E02CCF804
:101D90001810CCF82020DCF8081041F0570121F091
:101DA0002001ADE7D1E901E3C968DCF8082043EA86
:101DB0000E0322F47F4243EA01211143CCF80810BC
:101DC000DCF8081041F480419AE700BF01229AE74D
:101DD000016840F20042C4F20002914200D0704714
:101DE000017F082906D0042918BF7047082100F098
:101DF0000FBB00BF10B540F27004C2F200042168AE
:101E00004CF6CD4C013121602168CCF6CC4CA1FBC5
:101E10000C32D20802EB820244F2421EA1EB4202D3
:101E2000C0F6000E1EF8022022772268A2FB0C23C7
:101E300049F69A1CDA08C1F6991CA2FB0C1303EBB5
:101E40008301A2EB41011EF8011048F21F52E17616
:101E50002168C5F2EB12A1FB02125109A1FB0C2370
:101E600003EB8302A1EB42011EF8011044F6D352AA
:101E7000A1762168C1F26202A1FB02129109A1FBC5
:101E80000C2303EB8302A1EB42011EF8011041F287
:101E9000597261762168CDF2B712A1FB0212510B83
:101EA000A1FB0C2303EB8302A1EB42011EF80110FE
:101EB00045F6C52221762168C0F67C224909A1FB9E
:101EC0000212D1094CF6CD424A43D20C02EB8202F7
:101ED000A1EB420189B21EF801104DF68362E17553
:101EE0002168C4F21B32A1FB0212910C41F69A1236
:101EF00001FB02F31B0C03EB8303A1EB430189B24B
:101F00001EF801104CF66B23A1752168C6F65F33ED
:101F1000A1FB0313990D4A43120C02EB8202A1EBC1
:101F2000420189B21EF8011061750C2100F070FAAF
:101F3000A060A0686168884204D9A0686168401AFE
:101F400006E000BF6068A168081A4FF6FF710844F8
:101F5000E060A0686060E06802F03CF8014642F290
:101F60000040C4F6741001F073FF2061BDE810401A
:101F70007047000090F83C30012B04BF02207047EE
:101F80004FEAB202032A00F28D80F0B5DFE802F0DA
:101F9000026428460368D1E900C5D1F80CE01C6A48
:101FA0001A6A40F6FF3722F001021A621A4652F806
:101FB000186FC4F20007BB427ADCB3F1804F00F027
:101FC000898040F20047C4F20007BB4200F08280E3
:101FD00040F60007C4F20007BB427BD096E000BF8A
:101FE0000768D1E900C5D1E902313C6A3A6A61F378
:101FF000071522F480723A623A4652F81C6F26F0B6
:10200000F30645EA06014FEA5C0666F349241160CF
:102010003C62116821F00C0111606CE00368D1E9A9
:1020200000E6D1E902C11C6A1A6A360222F4805223
:102030001A621A4652F81C5F4FF2FF07BE4325F49E
:10204000734561F30F364FEA5E0746EA050167F311
:102050004D3411601C621EE00368D1E900E6D1E94D
:1020600002C11C6A1A6A360222F010021A621A466B
:1020700052F8185F4FF2FF07BE4325F4734561F332
:102080000F3624F0A0040EF00A0746EA050144EAE0
:10209000071711601F6211684FEA0C2321F4406199
:1020A000116028E00121002280F83C20084670479A
:1020B00040F60047C4F20007BB420BD043F2004792
:1020C000C4F20107BB4205D042F60047C4F2010743
:1020D000BB421BD126F00306354324F00A070CF05F
:1020E0000A066EF3071537449D611F629F6927F04A
:1020F0000C079F618B681168194311600021BDE8CE
:10210000F040002280F83C200846704746F0010568
:10211000E3E70000002804BF0120704710B5044623
:1021200090F83D0028B9002084F83C00204600F0DB
:102130001FF8022084F83D002068211D00F07CFF7C
:10214000012084F8460084F83E0084F83F0084F8BB
:10215000400084F8410084F8420084F8430084F889
:10216000440084F8450084F83D00002010BD0000C4
:102170007047000031B3042908D0082919BF4FF077
:10218000450C41234FF0440C402302E04FF0430C38
:102190003F23C25C10F80C30012A4FF0010208BF47
:1021A000012B65D10222082922D0042956D180F8BA
:1021B0003F2080F843204FEAB103032B4FF0010288
:1021C00020D955E090F83E2090F84230012A4FF097
:1021D000010208BF012B4BD1022280F83E2080F87B
:1021E00042204FEAB103032B4FF001020AD93FE02E
:1021F00080F8402080F844204FEAB103032B4FF0D1
:10220000010235D844F2541C0068C0F6000C5CF89A
:1022100023C0C36801F01F0143EA0C03C360036AD3
:1022200002FA01F123EA01020262026A114340F656
:10223000FF32C4F20002904201621BDCB0F1804F19
:102240002AD040F20041C4F20001884224D040F676
:102250000001C4F2000188421ED024E080F8412031
:1022600080F845204FEAB103032B4FF00102C9D992
:102270001046704740F60041C4F2000188420BD07E
:1022800043F20041C4F20101884205D042F6004108
:10229000C4F20101884206D1816801F007010629D4
:1022A00004BF00207047016841F001010160002077
:1022B0007047000070B504460068C5680669B1073C
:1022C00016D515F0020113D06FF002010161012152
:1022D00021778069800703D02046FFF779FD05E06C
:1022E000204600F08FF8204600F08EF8002020777E
:1022F000700719D515F0040016D020686FF004019E
:10230000016102212177806910F4407F04D02046CA
:10231000FFF75EFD06E000BF204600F073F82046A0
:1023200000F072F800202077300717D515F008006C
:1023300014D020686FF00801016104212177C06981
:10234000800703D02046FFF743FD05E0204600F05C
:1023500059F8204600F058F800202077F00619D5EB
:1023600015F0100016D020686FF0100101610821EF
:102370002177C06910F4407F04D02046FFF728FD84
:1023800006E000BF204600F03DF8204600F03CF893
:1023900000202077F00718BF15F0010002D13006A9
:1023A00009D412E020686FF001010161204600F0BD
:1023B0002DF8300609D515F0800006D020686FF0A2
:1023C000800101612046FFF73BFB700609D515F03F
:1023D000400006D020686FF040010161204600F007
:1023E00023F8B00658BF70BD15F0200008D0216852
:1023F0006FF0200220460A61BDE87040FFF722BB63
:1024000070BD00007047000070470000704700007A
:102410004FEAB101032984BF00207047006800EB38
:102420008100406B7047000070470000704700005B
:1024300070470000B0B582B001680A68CC684B698B
:1024400002F02F05202D04F0200505D125B102B0A2
:10245000BDE8B04000F080BF5FEA027C1EBF03F021
:10246000010E04F4907313EB0E0341D1036BD506F8
:1024700018D5012B16D114F0100313D000220192AD
:102480000A6801924A680192019A496949064BD447
:10249000818DC28DC38D002B18BF914240F0F48115
:1024A00002B0B0BD13062DD514F080032AD090F8E9
:1024B0004120212AF4D18268B2F5805F03D10269FC
:1024C000002A00F06782026A531C036212784A6095
:1024D000C28C013A1304C284E2D1C86820F08000A3
:1024E000C860C86840F04000C86002B0B0BD00BF1E
:1024F000D30718BF14F4807340F0D080530700F165
:10250000D380D8E05206CBD514F04002C8D0CA68B8
:1025100022F04002CA60202180F8411002B0BDE8DC
:10252000B04000F095BB00BFC16B0A68526893B21F
:10253000002BB5D0858DAB42B2D2C28589692029E6
:1025400000F0A180016851E8031F026821F4807146
:1025500042E80313DBB1016851E8031F026821F46C
:10256000807142E8031393B1016851E8031F0268C8
:1025700021F4807142E803134BB1016851E8031F55
:10258000026821F4807142E80313002BDAD101685C
:1025900051E8051F026821F0010142E80513C3B3A9
:1025A000016851E8051F026821F0010142E80513A6
:1025B0007BB3016851E8051F026821F0010142E880
:1025C000051333B3016851E8051F026821F00101CA
:1025D00042E80513002BDAD11BE000BF016851E887
:1025E000051F026821F0400142E80513DBB10168D4
:1025F00051E8051F026821F0400142E8051393B13C
:10260000016851E8051F026821F0400142E8051306
:102610004BB1016851E8051F026821F0400142E812
:102620000513002BDAD1202180F84210002101632C
:10263000016851E8031F026821F0100142E803130A
:10264000DBB1016851E8031F026821F0100142E884
:10265000031393B1016851E8031F026821F01001D0
:1026600042E803134BB1016851E8031F026821F0EF
:10267000100142E80313002BDAD1C16B044608466F
:10268000FEF76AFA204602214163818DC28D891AC4
:1026900089B202B0BDE8B040FFF7C8BE436C43F05A
:1026A00001034364530706D5BEF1000F03D0436C0A
:1026B00043F002034364930706D5BEF1000F03D035
:1026C000436C43F004034364BCF1000F06D55EEA9B
:1026D000050303D0436C43F008034364436C002BB1
:1026E0003FF4DEAE920605D525B1044600F034FE77
:1026F000216820464969426C01F0400102F008025D
:10270000891800F0B98000BF016851E8031F026812
:1027100021F4907142E80313BBB3016851E8031F31
:10272000026821F4907142E8031373B3016851E821
:10273000031F026821F4907142E803132BB3016870
:1027400051E8031F026821F4907142E80313002B43
:10275000DAD11AE0016851E8051F026821F0010191
:1027600042E80513DBB1016851E8051F026821F05A
:10277000010142E8051393B1016851E8051F0268A1
:1027800021F0010142E805134BB1016851E8051F32
:10279000026821F0010142E80513002BDAD1016B38
:1027A000012924D1016851E8031F026821F01001BA
:1027B00042E80313DBB1016851E8031F026821F00E
:1027C000100142E8031393B1016851E8031F026846
:1027D00021F0100142E803134BB1016851E8031FD7
:1027E000026821F0100142E80313002BDAD1202106
:1027F00080F842100021016301684969490640F1EF
:10280000C380016851E8051F026821F0400142E8D9
:102810000513DBB1016851E8051F026821F0400192
:1028200042E8051393B1016851E8051F026821F0E1
:10283000400142E805134BB1016851E8051F0268E9
:1028400021F0400142E80513002BDAD1C16B0029C9
:1028500000F09A8043F21912C0F6000204460846BE
:102860004A63FEF79DF900283FF41AAEE06B416B16
:1028700002B0BDE8B04008470446FFF7D9FD00208C
:10288000606402B0B0BD00BF891A00BF026852E8A0
:10289000032F036822F4907243E80325BDB3026856
:1028A00052E8032F036822F4907243E8032575B3BE
:1028B000026852E8032F036822F4907243E803256C
:1028C0002DB3026852E8032F036822F4907243E8A4
:1028D0000325002DDAD11AE0026852E8052F0368BB
:1028E00022F0010243E80525DDB1026852E8052F18
:1028F000036822F0010243E8052595B1026852E819
:10290000052F036822F0010243E805254DB1026856
:1029100052E8052F036822F0010243E80525002D47
:10292000DAD1202280F8422000220263026852E8B5
:10293000032F036822F0100243E80325DDB102688B
:1029400052E8032F036822F0100243E8032595B1F3
:10295000026852E8032F036822F0100243E80325BF
:102960004DB1026852E8032F036822F0100243E8D9
:102970000325002DDAD1022289B2426302B0BDE8FC
:10298000B040FFF753BD00BF02B0BDE8B040FFF755
:102990004FBD00BF026A32F8023B6FF35F234B600A
:1029A000026295E5002804BF0120704710B5044677
:1029B00090F8410028B9002084F84000204600F03B
:1029C00063F8242084F841002068D4E90212C36827
:1029D00023F40053C360036923F440531A43026194
:1029E000D4E904231143C268194341F20C639A43AA
:1029F0001143C1604169A26921F44071114343F65A
:102A00000002C4F201029042416103D0FEF7DAFDF8
:102A100002E000BFFEF7EAFDD4E900231921484394
:102A20009900B0FBF1F048F21F5CC5F2EB1CA0FB73
:102A30000C314FF69C734909C0F6FF7301FB03008C
:102A4000322303EB0010A0FB0C03F02000EA53102C
:102A500000EB0110C3F3431108449060106920217A
:102A600020F490401061506920F02A005061D06835
:102A700040F40050D0600020606484F8411084F875
:102A80004210606310BD00002DE9F04186B040F6B1
:102A900000050446C4F20105006805F54051002711
:102AA00088420597CDE90377029703D006B0BDE8C9
:102AB000F08100BF41F21800C4F20200016802AECA
:102AC00041F480410160016840F2440801F4804112
:102AD000019101990168C4F2020841F0040101600A
:102AE0000068314600F00400019001984FF4007036
:102AF000029002200390032005902846FEF7CEFAAC
:102B00004FF48060CDE90207284631460497FEF76E
:102B1000C5FA40F2B00508F11400C2F200058026A3
:102B2000C5E900072846C5E90276C5E90477C5E985
:102B30000677FEF715FA002818BFFEF707F8E563D9
:102B40006C6240F2F405C2F2000510200021C5E9D4
:102B500000802846C5E90216C5E90411C5E9061139
:102B6000FEF7FEF9002818BFFDF7F0FF2520002131
:102B70000022A5636C62FEF70BFC2520FEF7F6FB36
:102B800006B0BDE8F08100007047000090F84130C9
:102B9000202B09D1944600294FF0010218BFBCF147
:102BA000000F05D11046704702221046704700BF43
:102BB00070B5002221230162A0F824C0A0F826C02D
:102BC000426480F841300468836B43F2A12E43F2E3
:102BD000513543F22516C0F6000EC0F60005C0F6CA
:102BE0000006C3E90AE5C3E90C62221D0446184643
:102BF0006346FEF703FA216820466FF040020A6040
:102C0000016851E8051F026841F0800142E80513A0
:102C1000DBB1016851E8051F026841F0800142E81C
:102C2000051393B1016851E8051F026841F0800166
:102C300042E805134BB1016851E8051F026841F0F5
:102C4000800142E80513002BDAD1002070BD00009E
:102C5000006843F60001C4F20101884218BF7047C2
:102C600040F20C00C2F20000012101707047000028
:102C700070470000B0B540F60004C4F201040546F8
:102C8000C20920468021FEF7FDFA204620210122BC
:102C9000FEF7F8FA204620210022FEF7F3FAC5F3EA
:102CA000801220468021FEF7EDFA204620210122E5
:102CB000FEF7E8FA204620210022FEF7E3FAC5F3EA
:102CC000401220468021FEF7DDFA20462021012215
:102CD000FEF7D8FA204620210022FEF7D3FAC5F3EA
:102CE000001220468021FEF7CDFA20462021012245
:102CF000FEF7C8FA204620210022FEF7C3FAC5F3EA
:102D0000C00220468021FEF7BDFA20462021012284
:102D1000FEF7B8FA204620210022FEF7B3FAC5F3E9
:102D2000800220468021FEF7ADFA204620210122B4
:102D3000FEF7A8FA204620210022FEF7A3FAC5F3E9
:102D4000400220468021FEF79DFA204620210122E4
:102D5000FEF798FA204620210022FEF793FA05F0AC
:102D6000010220468021FEF78DFA20462021012213
:102D7000FEF788FA204620210022FEF783FA20463B
:102D80004FF480710122FEF77DFA20464FF48071E6
:102D90000022BDE8B040FEF775BA0000FEE7000073
:102DA00080B582B041F21400C4F202000168002232
:102DB00041F0010101600068002100F00100019074
:102DC00001980E20FEF7E4FA0E20FEF7CFFA0F204E
:102DD00000210022FEF7DCFA0F2002B0BDE880409F
:102DE000FEF7C4BA2DE9F04F85B04FF0000B41F269
:102DF0001800CDE903BBCDE901BBC4F202000168B4
:102E000040F6000841F0800101600168C4F2010849
:102E100001F0800100910099016808F5A05641F089
:102E2000040101600168002201F004010091009991
:102E300001684FF6FF7741F008010160016801F079
:102E4000080100910099016841F0200101600068CB
:102E50004FF6FF7100F02000009000983046FEF71A
:102E600011FA40464FF4D0710022FEF70BFA08F534
:102E7000406528464FF4405100224FF4405AFEF777
:102E800001FA019701AF01244FF00209304639469B
:102E9000CDE9024BCDF81090FEF700F94FF4D07059
:102EA00001A981E8110840463946CDF81090FEF797
:102EB000F5F828463946CDE901A4CDE903B9FEF776
:102EC000EDF805B0BDE8F08F10B58AB040F23810CB
:102ED00040F200420021C2F20000C4F20002472387
:102EE0004FF6FF740991CDE90711CDE90411CDE941
:102EF0000211CDE90011C0E90023C0E9021401610B
:102F00008161FEF7EDFD002818BFFDF71FFE4FF4AD
:102F10008050069040F23810C2F2000006A9FEF779
:102F200087FE002818BFFDF711FE40F23810C2F2EC
:102F30000000FFF7EFF8002818BFFDF707FE40F28A
:102F400038100024C2F2000004A9CDE90444FEF7C1
:102F50007BFD002818BFFDF7F9FD0220CDE9000038
:102F600040F23810C2F2000069460822CDE902445E
:102F7000FFF700F8002818BFFDF7E8FD00200090DB
:102F80000120019040F23810C2F2000069460C2284
:102F9000FEF7F0FF002818BFFDF7D8FD0AB010BDFE
:102FA00080B540F2801043F60001C2F20000C4F286
:102FB000010100234FF00C0C4FF4E13280E80E00C9
:102FC000C0E90333C0E905C3C361FFF7EBFC002888
:102FD00008BF80BDBDE88040FDF7B8BDFEE700003A
:102FE000FEE700007047000070470000B0B50C46D7
:102FF000FFF740FE601E4FF4004141F6004521FA04
:1030000000F4C4F20105284621460022FEF73AF9F1
:10301000012000F029FA284621460122BDE8B040EF
:10302000FEF730B9FEF73AB97047000040F23810A9
:10303000C2F20000FFF73EB910B540F6FF32036858
:10304000C4F2000240F6004E43F2004C9042C4F23B
:10305000000EC4F2010C21DCB0F1804F28D040F208
:103060000044C4F20004A04222D040F60004C4F29E
:103070000004A0421CD0904220DCB0F1804F27D049
:1030800040F20042C4F20002904221D040F6000219
:10309000C4F2000290421BD01EE000BF704507D072
:1030A000604505D042F60044C4F20104A042E2D1DA
:1030B0004C6823F0700323439042DEDD704507D057
:1030C000604505D042F60042C4F20102904203D1AD
:1030D000CA6823F4407313434C6923F08002D1F88B
:1030E00000E08B68224360450260C362C0F828E0BC
:1030F00005D042F60042C4F20102904201D10969B2
:103100000163012141610169C90708BF10BD01695F
:1031100021F00101016110BD406A0021C185C18417
:10312000FFF786B9406A01684A6990F84130212B5F
:103130002DD112F080022AD00021C184016851E80B
:10314000031F026821F0C00142E80313DBB10168EC
:1031500051E8031F026821F0C00142E8031393B154
:10316000016851E8031F026821F0C00142E803131F
:103170004BB1016851E8031F026821F0C00142E829
:103180000313002BDAD1202180F84110016849692E
:1031900090F84220222A40F07D8011F0400179D041
:1031A0000021C185016851E8031F026821F4907174
:1031B00042E80313BBB3016851E8031F026821F41E
:1031C000907142E8031373B3016851E8031F02686A
:1031D00021F4907142E803132BB3016851E8031FF7
:1031E000026821F4907142E80313002BDAD11AE04F
:1031F000016851E8051F026821F0010142E805134A
:10320000DBB1016851E8051F026821F0010142E8C5
:10321000051393B1016851E8051F026821F001010F
:1032200042E805134BB1016851E8051F026821F01F
:10323000010142E80513002BDAD1016B012924D1E9
:10324000016851E8031F026821F0100142E80313EE
:10325000DBB1016851E8031F026821F0100142E868
:10326000031393B1016851E8031F026821F01001B4
:1032700042E803134BB1016851E8031F026821F0D3
:10328000100142E80313002BDAD1202180F842100C
:1032900000210163416C41F010014164FFF7C8B89F
:1032A0000168406A0968890648BFFFF7D1BC002160
:1032B000C18400BF016851E8051F026821F0800148
:1032C00042E8051383B3016851E8051F026821F045
:1032D000800142E805133BB3016851E8051F02680D
:1032E00021F0800142E80513F3B1016851E8051FA0
:1032F000026821F0800142E80513002BDAD113E0C7
:10330000016851E8031F026841F0400142E80313DD
:10331000002B08BF7047016851E8031F026841F0A5
:10332000400142E8031393B1016851E8031F0268AA
:1033300041F0400142E803134BB1016851E8031F1B
:10334000026841F0400142E80313002BD8D17047D6
:10335000406AFFF78DBC000081B090F8421022292E
:1033600021D183680246B3F5805F09D152F8281F46
:1033700052F8183C002B63D003685B680AE000BF7A
:1033800052F8281F13B90369002BF5D003685B6856
:1033900003F07F030B70116801311160C18D013999
:1033A0000A04C18502D001B0704700BF0168CA6835
:1033B00022F02002CA60CA6822F48072CA604A6998
:1033C00022F001024A61202180F84210002141636D
:1033D000026B012A3CD10163016851E8031F0268B6
:1033E00021F0100142E80313DBB1016851E8031F2B
:1033F000026821F0100142E8031393B1016851E81B
:10340000031F026821F0100142E803134BB1016869
:1034100051E8031F026821F0100142E80313002B5A
:10342000DAD101680A68D20606D5002200920A683D
:103430000092496800910099818D01B0FEF7F6BFB6
:10344000026852686FF35F2221F8022B8162A5E7C0
:1034500001B0FFF799BB000040F28010C2F20000FB
:10346000FEF7E8BFFEE7000040B340F20801C2F2F9
:1034700000010B6844F64032C0F24C02934238BF60
:10348000704710B54CF66B2C4FF6184EC6F65F3CE5
:10349000CFF6FF7E934208D3A3FB0C34630D03FBEE
:1034A0000EF300BF013300BFFCD3013804D00B681A
:1034B0009342F1D2F9E700BFBDE810407047000029
:1034C00092B0FDF7F9FE00240120CDE90D44CDE9CD
:1034D0000B4408900C904FF4E0104FF4803102251B
:1034E000119008A8CDE90914CDE90F51FEF792F823
:1034F00020B1EFF3108072B6FEE700BF0F20CDE9D8
:1035000003054FF48060CDE9060403A80221059469
:10351000FDF77AFF20B1EFF3108072B6FEE700BF2F
:10352000FFF760FCFFF73CFCFFF7CEFCFFF738FD30
:1035300040F23814C2F200042046FEF739FB204660
:103540000821FEF717FE20460C21FEF713FE40F27D
:103550007007C2F2000740F20C0640F28019C2F276
:10356000000607F11D040FF280084FF0000AC2F2B6
:10357000000900BF787D0121FFF738FDB87D0221E9
:10358000FFF734FDF87D0321FFF730FD387E04217D
:10359000FFF72CFD787E0521FFF728FDB87E062178
:1035A000FFF724FDF87E0721FFF720FD387F082173
:1035B000FFF71CFD30780028DCD0386900F01CFCD7
:1035C00003460D46204620214246CDE90035FCF752
:1035D0003FFE204686F800A0FCF7E1FE82B2484696
:1035E0002146FFF7D3FAC5E7467265713A20252ECA
:1035F000326620487A0D0A005FEA400C08BF91F05D
:10360000000F4FEA8C234FEAC12243EA51514FEA9F
:103610001C5018BF00F5F0404FEA300018BF41F0D1
:1036200000415FEA6C5C00F02980BCF1FF3F08BFFD
:1036300040F080407047130C06BF12044FF0100C8E
:103640004FF0000C130E04BF12020CF1080C130F04
:1036500004BF12010CF1040C930F04BF92000CF193
:10366000020CD30F04BF52000CF1010C11464FF0B5
:103670000002A0F11F00A0EB0C00704711F0004FFA
:1036800008BF704731F000413FF4D5AF0B0C06BFC7
:1036900009044FF0100C4FF0000C0B0E04BF090290
:1036A0000CF1080C0B0F04BF09010CF1040C8B0F7B
:1036B00004BF89000CF1020CCB0F04BF49000CF1D0
:1036C000010CCCF1200322FA03F341EA030102FAD0
:1036D0000CF2A0EB0C0000F10100704723F07F47D3
:1036E00020F07F4C80EA030000F00040ACEB0703C1
:1036F00003F57C5303F1FF032DE9804909B44FEA38
:10370000144324EA03484FEA154B25EA0B4E0FF207
:10371000042606EB13273E7803FB0667C7F5000770
:1037200007FB06F64FEAD64606F102064FEA543783
:1037300007FB066CCCF1005C4FEA1C472CEA074CF7
:103740000CFB06F507FB06F404EB15464FEA96164C
:1037500049085FEA320234BF00204FF000404FEAD0
:10376000D13706FB07FC4FEA1C4C0CFB0BF7D21BB6
:1037700003FB0CF761EB07010CFB0EF7B0EB074006
:1037800072EB17420CFB08F734BFA2EB0742B2EB17
:10379000074261EB17414FEA0C444FEA910706FBE1
:1037A00007FC4FEA1C4C0CFB0BF7B0EBC74072EB6D
:1037B000573203FB0CF734BFA2EBC742B2EBC74250
:1037C00061EB57310CFB0EF7B0EBC70072EB577291
:1037D0000CFB08F734BFA2EBC702B2EBC70261EBE8
:1037E00057714FEA816141EA92114FEA826242EADF
:1037F00090124FEA806004EBCC04039F4FEAD1376C
:1038000006FB07FC4FEA1C4C0CFB0BF7D21B03FB1F
:103810000CF761EB07010CFB0EF7B0EB074072EB06
:1038200017420CFB08F734BFA2EB0742B2EB07428A
:1038300061EB17414FEA8C5504EB9C244FEA91074A
:1038400006FB07FC4FEA1C4C0CFB0BF7B0EBC74028
:1038500072EB573203FB0CF734BFA2EBC742B2EB5B
:10386000C74261EB57310CFB0EF7B0EBC70072EBB0
:1038700057720CFB08F734BFA2EBC702B2EBC702CA
:1038800061EB57714FEA816141EA92114FEA82621E
:1038900042EA90124FEA806015EB4C2544F1000497
:1038A0004FEAD13706FB07FC4FEA1C4C0CFB0BF729
:1038B000D21B03FB0CF761EB07010CFB0EF7B0EB1F
:1038C000074072EB17420CFB08F734BFA2EB07422C
:1038D000B2EB074261EB17414FEA813141EA924175
:1038E0004FEA823242EA90424FEA80304FEA0C7649
:1038F00015EB1C1544F1000448EA03434EEA0B485B
:103900004FF0000EB2EB080C71EB030724BF6246C8
:1039100039464EEB0E0E4FF0000B00185241494154
:103920004BEB0B0BB2EB080C71EB03077BF1000BBD
:1039300024BF624639464EEB0E0E4FF0000B0018C6
:10394000524149414BEB0B0BB2EB080C71EB0307F7
:103950007BF1000B24BF624639464EEB0E0E51EA56
:10396000020718BF46F0010616EB0E7655F100026D
:1039700054F1000103D5BDE88901BDE80088BDE828
:103980008901BDE80048B619524141EB0101A3F19C
:103990000103704780807F7E7D7C7B7A79787776A3
:1039A00076757473727171706F6E6E6D6C6C6B6A1C
:1039B0006A696868676666656464636362616160BA
:1039C000605F5F5E5E5D5D5C5C5B5B5A5A59595837
:1039D00058575756565555555454535352525251A1
:1039E000515050504F4F4F4E4E4D4D4D4C4C4C4BF7
:1039F0004B4B4A4A4A49494948484847474747463E
:103A00004646454545444444444343434342424279
:103A1000424141419C46002B30D477002BD04FEAE5
:103A200037071CB503B44FF010004FF01001BAF186
:103A3000000F06D0BCF1000FDCBF40F0080040F0E2
:103A400008014FF000000FBCBDE810400BF1010B66
:103A5000BBF1010F08BF5FEA170722BF12F1010295
:103A600011F101014FF0004143F1000300F000406B
:103A700043EA00007047F9D35708D0E746EA064604
:103A80004FEA164613F1400F1FDD13F1200FDFBF81
:103A900016430A46002120335B42BED0C3F1200703
:103AA00046EA06464FEA164602FA07F746EA0706CE
:103AB00022FA03F2C3F1200701FA07F742EA0702EC
:103AC00021FA03F14FF00003A7E746EA020646EAAF
:103AD00006464FEA164646EA0106BCBF46EA0646D7
:103AE000360C4FF000034FF000024FF0000194E756
:103AF0002DE9804C70B49A46934691E8380007C887
:103B000031EA400C48BF34EA430C03D5FFF7E6FD29
:103B1000FFF780FFF0BCBDE8008C2DE9804C70B44D
:103B20009A46934691E8380007C810F0804F08BFC6
:103B300013F0804F03D100F005F8FFF76BFFF0BCE6
:103B4000BDE8008C20F07F4723F07F4C80EA030023
:103B500000F0004007EB0C03A3F57C53A3F1FE0338
:103B600092F0000F00F0B38095F0000F00F0778026
:103B70002DE901494FEA114021EA00484FEA144675
:103B800024EA064700FB06FC08FB06F607FB08F8DC
:103B900018EB06484CEB164C00FB07F718EB0748F0
:103BA0004CEB17404FEA124B22EA0B4E4FEA1546F8
:103BB00025EA06470BFB06FC0EFB06F607FB0EFE8E
:103BC0001EEB064E4CEB164C0BFB07F71EEB074E9D
:103BD0004CEB174B18EB0B0840F1000018EB0E0BE9
:103BE00058EB000840F100008F1A4FF000014FF031
:103BF00000063CBFC943661B14BFB5EB040C002193
:103C00003CBFC943F61B4FEA174427EA04454FEA75
:103C10001C472CEA074C04FB076205FB07F70CFB6B
:103C200005F616EB074642EB174204FB0CFC16EBBD
:103C30000C4642EB1C421BEB060658EB02024141CC
:103C40004EEA8E0E46EA9E0601D5BDE80189B619F8
:103C5000524141EB0101A3F10103BDE801894FEAA3
:103C6000144524EA05464FEA114721EA074C05FBB3
:103C700007F406FB07F70CFB06F111EB074144EBD9
:103C8000174405FB0CFC11EB0C4144EB1C444FEAC0
:103C9000124722EA074C05FB07F206FB07F70CFB6D
:103CA00006F616EB074642EB174205FB0CFC16EB3B
:103CB0000C4642EB1C456A1854F1000148BF70479E
:103CC000B619524141EB0101A3F10103704795F090
:103CD000000F37D04FEA114221EA02464FEA14475B
:103CE00024EA074C02FB07F106FB07F70CFB06F47E
:103CF00014EB074441EB174102FB0CFC14EB0C44A2
:103D000041EB1C414FEA154725EA074C02FB07F53A
:103D100006FB07F70CFB06F616EB074645EB1745C7
:103D200002FB0CFC16EB0C4645EB1C42121951F140
:103D3000000148BF7047B619524141EB0101A3F1A0
:103D4000010370474FEA144524EA05464FEA11473C
:103D500021EA074C05FB07F106FB07F70CFB06F20F
:103D600012EB074241EB174105FB0CFC12EB0C4236
:103D700051EB1C414FF0000648BF7047921841EBD1
:103D80000101A3F101037047490050EAC12018BFA7
:103D900004204A0D18BF40F0010040F2FF72B2EB60
:103DA000515F08BF40F00200012808BF052070479E
:103DB00030380A2801D201207047002070470000E7
:103DC00010B500290AD00878002807D005487844A3
:103DD000FCF764FE002801D0002010BD02487844A2
:103DE00010BD0000E6030000DE0300000808A0F597
:103DF00000114FEA3101704743004FEAD30C4FEAFC
:103E00003C0C43401FBF40070CF1605113F0FE4FC4
:103E100070471CF0006F03D10CF000410020704788
:103E20000CF0004343EA507040EACC0010B500F0BB
:103E3000E4F800BF000000924FEA0001FFF7D6BF90
:103E40004FF00041A1F500214FF000007047000045
:103E50004FF47F0C1CEAD0121EBF1CEAD11392EA69
:103E60000C0F93EA0C0F00F0858090EA010F48BF19
:103E700042F4807240F4000C41F400002CF07F41C9
:103E800020F07F4000B5A2EB030281420FF2081C34
:103E9000ACEB504E9EF800E0C0F100004FEA4E0E31
:103EA00000FB0EFC38BF49004FEA2C1C0CFB0EF344
:103EB0004FEACE1E0EEB635E4FEA112C0EFB0CFC9C
:103EC0004FEAC1214FEA1C5300FB031102F5FA022D
:103ED0004FEA112C0EFB0CFC4FEA01314FEADC4C8F
:103EE00000FB0C1142EB2242C14228BF09184CEBE7
:103EF00003335DF804EB10EB410143EBC250B2F524
:103F00007C0F38BF704729D512F0F00F1CBF00F1AD
:103F1000C04000F00040704700818283848586871E
:103F200088898B8C8D8E8F919293959697999A9C78
:103F30009D9FA0A2A3A5A7A8AAACAEB0B2B3B5B7E7
:103F4000B9BCBEC0C2C5C7C9CCCED1D4D7D9DCDFBD
:103F5000E2E6E9ECF0F3F7FAFE0000004FEA400C6D
:103F60000CF1807CBCF17E4F28BF7047B0F1C0409F
:103F700000F089B80CEAD11390EA010F48BF42F46F
:103F80008072624538BF634507D213F47F0F16D0A5
:103F900080EA010000F00040704710B500F02DF8F5
:103FA000097EFC3E00F005B880EA010000F0004008
:103FB000704780EA010000F0004000F064B812F49D
:103FC0007F0F04BF0248704780EA010000F05BB831
:103FD0000000C07FB0FA80F310FA03F2C3F19D0332
:103FE0000AD0D90501EB1220530638BF704700F103
:103FF000010008BF20F0010070470EF1020E2EF004
:10400000030E5EF8044B244204D44FEA4102B2F19D
:104010007F4F11D84FEA4003B3F17F4F0CD80ED138
:104020004FEAD07C0CEB4C0C0CF1020CB2F17F4F40
:1040300008BF4CEBD17C04E04FF0080C01E04FEAE4
:10404000D17C0CEB4C0324FA03F404F00704B4F124
:10405000040C06D20EEB840CBDE810404CF0010CB1
:104060006047DFE80CF0070802024FF00040A0F5BF
:10407000800010BD0846420018BFD2F1807288BF90
:1040800000F0004010BDFF2141EAD050C00570474C
:10409000FCF77FBA02400000000000A00000000012
:1040A00005400000000000C8000000000C400000B7
:1040B0000000409C00000000194000000020BCBE31
:1040C0000000000034400000BFC91B8E0000000447
:1040D000B5400000504BCFD06607E2CF0100000092
:1040E0006C4100003E8251AADFEEA73401000000BF
:1040F000D9420000DCB5A0E23A301F97FFFFFFFF76
:10410000B4450000FD25A0C8E9A3C14FFFFFFFFF94
:10411000FF3F00000000008000000000FF3F0000A3
:10412000000000800000000000000000000000000F
:10413000010203040607080900000000010203044D
:1041400001023F065B4F666D7D077F6F777C395EAE
:1041500079000000020000000400000008000000D8
:1041600010000000FDFFFFFFFBFFFFFFF7FFFFFF59
:10417000EFFFFFFFFFFDFFFFFFFBFFFFFFF7FFFF6D
:10418000FFEFFFFF02030405060708090A0B0C0DE9
:104190000E0F1010D0410008000000201000000099
:1041A00094010008E041000810000020C007000052
:1041B000B40100081C00000043000000F8FFFFFFEE
:1041C0000C0000000E0000000F0000002E00000098
:1041D000010000001000000000127A000100000041
:0400000508000131BD
:00000001FF
