:020000040800F2
:10000000E0060020F9010008F51800083117000883
:10001000F1180008B50200082D1A000800000000C1
:10002000000000000000000000000000FD180008B3
:10003000B902000800000000F9180008391900088A
:10004000130200081302000813020008130200083C
:10005000130200081302000813020008130200082C
:10006000130200081302000813020008130200081C
:10007000130200081302000813020008130200080C
:1000800013020008130200081302000813020008FC
:1000900013020008130200081302000813020008EC
:1000A00013020008130200081302000813020008DC
:1000B0001302000841190008130200081302000887
:1000C00013020008130200081302000813020008BC
:1000D00013020008130200081302000813020008AC
:1000E000130200081302000813020008130200089C
:1000F000130200081302000813020008130200088C
:10010000130200081302000813020008130200087B
:10011000130200081302000813020008130200086B
:10012000130200081302000813020008130200085B
:1001300000F002F800F050F814A696E8000CB24463
:10014000B344DA4501D100F047F8BAE80F000FA632
:1001500096E83000A5EB040504EB0607AAEB0704BC
:10016000A7F101074FEA15154FEA3414A4F1010471
:10017000AC4201D300F030F813F0010F18BFFB1AA6
:1001800043F0010300F001F8DBE71847741C00009E
:10019000941C0000103A24BF78C878C1FAD85207DE
:1001A00024BF30C830C144BF04680C6070470000F1
:1001B000704700000023002400250026103A28BFC5
:1001C00078C1FBD8520728BF30C148BF0B607047C9
:1001D0001FB51FBD10B510BD00F031F81146FFF777
:1001E000F7FF01F051FC00F04FF803B4FFF7F2FF06
:1001F00003BC00F057F80000094880470948004751
:10020000FEE7FEE7FEE7FEE7FEE7FEE7FEE7FEE7C6
:10021000FEE7FEE704480549054A064B7047000023
:100220003D19000831010008E0000020E006002030
:10023000E0020020E00200207047704770477546DA
:1002400000F02CF8AE4605006946534620F0070042
:10025000854618B020B5FFF7DDFFBDE820404FF020
:1002600000064FF000074FF000084FF0000BAC46BF
:10027000ACE8C009ACE8C009ACE8C009ACE8C0090A
:1002800021F007018D46704710B50446AFF300809A
:100290002046BDE81040FFF7A8BF000000487047A7
:1002A0001000002001491820ABBEFEE72600020026
:1002B00070470000FEE7000070470000EFF3108079
:1002C00072B600BFFEE700002DE9F04F82B00E6865
:1002D000002E00F0E980A0F1804241F6004540F296
:1002E0000043A2F58432C4F201050624C4F20103DE
:1002F0004FEAB227A84208BF05244FF0000E4FF086
:1003000001080F254FF0000A4FF0000B052F38BFF2
:100310004FEAB224009408E00E680AF1010A36FAA6
:100320000AF20EF1040E00F0BF8008FA0AFC16EA89
:100330000C09F1D04E684FF6FF72C1F210029642DE
:1003400012DC122E56D8DFE806F0350B4D49555514
:10035000555555555555555555555545510000BFA1
:10036000D1F80CB046E000BF4FF6FF72C1F2210297
:1003700096420FDC0022C1F2110296421AD00022EE
:10038000C1F21202964215D00022C1F22102964219
:1003900010D02FE00022C1F2220296420AD00022A1
:1003A000C1F23102964205D00022C1F232029642D9
:1003B00020D100BF8A684AB1012A14BFC0F814C016
:1003C000C0F810C04FF0080B14E000BF4FF0040B52
:1003D00010E000BFCA6802F1040B0BE04FF0000B05
:1003E00008E000BFCA6802F1080B03E0CA6802F126
:1003F0000C0B00BF02467446B9F5807F24BF04325F
:10040000203C166805FA04F726EA07070BFA04F6FB
:1004100037431760CA79D2067FF57EAF41F21807DD
:10042000C4F202073A684FF6084542F001023A600A
:100430003A68CFF6FF7502F001020192019A2AF0A4
:1004400003021A440F2457590EF00C06B440A74378
:10045000009C04FA06F6374357514E6840F20C44AC
:10046000F2029A6854BF22EA090242EA0902C4F27F
:1004700001049A602268B70254BF22EA090242EAE4
:10048000090222605A68B70354BF22EA090242EA0D
:1004900009025A600F251A68F70354BF22EA0902BD
:1004A00042EA09021A6037E702B0BDE8F08F0000A7
:1004B000002A08BF090401617047000040F2D8001B
:1004C000C2F200000068704740F2000040F2D8011C
:1004D000C2F20000C2F2000100780A68104408600D
:1004E0007047000080B542F20000C4F202000168CB
:1004F00041F010010160032000F08CF80F2000F0A3
:1005000005F800F027F8002080BD000070B540F22B
:100510000006C2F2000640F208013278C2F2000181
:100520004FF47A730968B3FBF2F20446B1FBF2F1BF
:10053000084600F05DFB0F2C4FF0010508D838B9D4
:100540004FF0FF3021460022002500F037F874609C
:10055000284670BD82B041F21800C4F20200016862
:10056000022241F001010160016801F001010191E5
:100570000199416841F080514160406800F080502D
:10058000009000980420C4F20100016862F31A612F
:10059000016002B070470000002848BF704700F0BB
:1005A0001F01012202FA01F11C2202EAD0004EF2E0
:1005B0000012CEF2000281507047000010B54EF6D6
:1005C0000C5CCEF2000CDCF80030C3F3022E8EF08F
:1005D0000704042C28BF0424BEF103034FF0FF3EA0
:1005E0000EFA04F438BF0023A14399400EFA03F336
:1005F0009A43114300F00F0200F160430901043AED
:1006000003F564436244002848BF02F10C031970EB
:1006100010BD00004EF60C51CEF200010A684FF6F4
:10062000FF031A4060F30A2242F0806040F0FD7040
:1006300008607047002804BF012070472DE9F0438F
:1006400081B042F20008C4F202080446D8F8000063
:100650000D4600F0070081420CD9D8F8000020F0C8
:1006600007002843C8F80000D8F8000000F0070091
:10067000A8426CD1206841F204098107C4F2020942
:1006800017D5410705D5D9F8001041F4E061C9F844
:100690000010010705D5D9F8001041F46051C9F8E0
:1006A0000010D9F80010A26821F0F0011143C9F838
:1006B0000010C00742D1D8F8000000F007008542C2
:1006C0000CD2D8F8000020F007002843C8F800003A
:1006D000D8F8000000F00700A84238D12068410790
:1006E00007D5D9F80010E26821F4E0611143C9F898
:1006F0000010000708D5D9F80000216920F46050E7
:1007000040EAC100C9F80000D9F8002002F00C004E
:10071000082841F20020C0F27A004DD141F6F05392
:10072000C2F38341C0F60003595CD20338D440F6CB
:100730000010C0F23D0048433EE000BF606859F839
:10074000041C022808D0012826D1890306D40120E0
:1007500001B0BDE8F08300BF8901F8D5D9F80010D9
:1007600021F003010843C9F80000FFF7A7FE064681
:1007700041F28837D9F80000616800F00C00B0EB56
:10078000810F98D0FFF79AFE801BB842F2D9032060
:1007900001B0BDE8F08300BF8907D8D5DEE700BF10
:1007A000D9F8002041F6AC53C2F34042C0F6000332
:1007B0009A5C4843B0FBF2F0D9F8001041F69C5225
:1007C000C1F30311C0F60002515C40F2080220FAA6
:1007D00001F140F20400C2F200000068C2F200021F
:1007E0001160FFF793FE002001B0BDE8F083000028
:1007F000002804BF012070472DE9F04182B0044673
:10080000007841F20006C007C4F202060CD07068FE
:1008100000F00C00042840F081803068800303D58C
:100820006068002800F04681207880071BD570683A
:1008300010F00C0F09D0706800F00C00082840F090
:1008400087807068C00300F183803068800703D51B
:100850002069012840F02E813068616920F0F8009D
:1008600040EAC10030602078000713D420784007A8
:100870002CD4E569002D00F01881706800F00C00A0
:10088000082840F0A780012D40F00481012002B02B
:10089000BDE8F081A069002800F084800020C4F247
:1008A00042200121C0F88014FFF708FE054600BF72
:1008B000706A800700F1B280FFF700FE401B02283B
:1008C000F6D9032002B0BDE8F08100BFF0695FEA0D
:1008D000C00808D4F06940F08050F061F06900F081
:1008E00080500090009847F20007C4F20007386873
:1008F000C00549D4386840F480703860FFF7DEFDE9
:10090000054600BF3868C0053ED4FFF7D7FD401B41
:100910006428F7D9032002B0BDE8F081706800F0C8
:100920000C00082803D17068C0033FF576AF6168FA
:100930003068002900F00C81B1F5A02F00F0008193
:10094000B1F5803F40F01A8140F480301CE100BFD7
:100950002069002840F20000C4F2422000F08880A4
:1009600001210160FFF7AAFD054600BF306880073E
:100970003FF572AFFFF7A2FD401B0228F6D9032016
:1009800002B0BDE8F08100BFE168306A002900F0E4
:100990009D80052900F09280012940F0AF8040F051
:1009A0000100B1E00020C4F242200021C0F8801410
:1009B000FFF784FD054600BF706A80077FF556AFDC
:1009C000FFF77CFD401B0228F6D9032002B0BDE8EA
:1009D000F08100BF0027C4F2422700203866FFF7ED
:1009E0006DFD022D05460DD13068800140F1DE809D
:1009F000FFF764FD401B02284FF00300F4D902B05A
:100A0000BDE8F081306880014FD5FFF757FD401BEE
:100A100002284FF00300F5D9F1E700BF40F20800CB
:100A2000C2F20000006844F6D351C1F26201A0FB9B
:100A30000101480A019000BF00BF0198411E002833
:100A400001913FF413AF00BF0198411E00280191AE
:100A50003FF40CAF00BF0198411E002801913FF404
:100A600005AF00BF0198411E00280191E4D1FDE6C9
:100A700000210160FFF722FD054600BF30688007B6
:100A80007FF5F1AEFFF71AFD401B02284FF003007F
:100A9000F4D9B4E77068216A00F480328A4209D13F
:100AA000616A00F47010884204D1002002B0BDE8F1
:100AB000F08100BF012002B0BDE8F08140F00400E9
:100AC0003062306A40F001001EE000BF20F00100FB
:100AD0003062306A20F004003062FFF7EFFC054618
:100AE00041F28837306A800720D5FFF7E7FC401BCA
:100AF000B8424FF00300F5D981E700BF20F00100B4
:100B00003062306A20F004003062FFF7D7FC0546FF
:100B100041F28837306A800708D4FFF7CFFC401BCA
:100B2000B842F7D9032002B0BDE8F081B8F1000F58
:100B30003FF59FAEF06920F08050F06199E600BF6C
:100B400040F480203060306840F480301CE000BF0A
:100B500020F480303060306820F480203060FFF76F
:100B6000ADFC0546306880037FF55EAEFFF7A6FC5E
:100B7000401B64284FF00300F4D940E720F4803094
:100B80003060306820F480203060FFF797FC054625
:100B9000306880033FF548AEFFF790FC401B6428A7
:100BA000F6D9032002B0BDE8F08100BF206AB0F59D
:100BB000803F05D17168A26821F400311143716052
:100BC0007168626A21F47411114308437060012056
:100BD0003866FFF773FC0446306880013FF565AF67
:100BE000FFF76CFC001B02284FF00300F4D906E766
:100BF000411E0020B0EB116F1CBF012070474EF268
:100C00001002CEF2000251604EF62351CEF20001E6
:100C1000F0230B700721906011607047704700004F
:100C20007047000090F83C20012A4FF0020242D0A9
:100C300010B580F83D200268D2F804E0D2F808C070
:100C40000C682EF07003234340F6FF34C4F2000416
:100C5000A242536010DCB2F1804F1FD040F200433B
:100C6000C4F200039A4219D040F60003C4F2000314
:100C70009A4213D017E000BF40F60043C4F20003CD
:100C80009A420BD043F20043C4F201039A4205D0CA
:100C900042F60043C4F201039A4204D149682CF0A1
:100CA0008003194391600121002280F83D1080F8F3
:100CB0003C20BDE81040104670470000002804BFEB
:100CC0000120704710B5044690F83D0028B9002077
:100CD00084F83C00204600F01FF8022084F83D0014
:100CE0002068211D00F032FE012084F8460084F8BF
:100CF0003E0084F83F0084F8400084F8410084F806
:100D0000420084F8430084F8440084F8450084F8E5
:100D10003D00002010BD000080B586B040F20041CB
:100D20000068C4F2000100228842CDE90422039247
:100D3000029201D006B080BD41F21800C4F2020058
:100D4000436843F002034360436803F002030193E6
:100D5000019B036843F008030360006800F008008B
:100D6000019001980220CDE9020201F5843002A928
:100D70000492FFF7A9FA1D2000210022FFF71EFCB4
:100D80001D20FFF709FC06B080BD000090F83D1063
:100D900001291CBF01207047022180F83D10006826
:100DA00040F6FF31C4F2000188420FDCB0F1804F01
:100DB0001ED040F20041C4F20001884218D040F633
:100DC0000001C4F20001884212D018E040F6004150
:100DD000C4F2000188420BD043F20041C4F2010189
:100DE000884205D042F60041C4F20101884206D192
:100DF000816801F00701062904BF002070470168DF
:100E000041F00101016000207047000090F83C2093
:100E1000012A4FF002026CD080B580F83D20D0F856
:100E200000C04FF67772DCF8083023EA0202CCF8F3
:100E300008200B684F2B29DC1F2B45DD202B46D0CB
:100E4000302B44D0402B40F0AF80D1F804E0C9688B
:100E5000DCF82030DCF8202022F00102CCF8202041
:100E6000DCF8182022F0F00242EA011123F00A0215
:100E700042EA0E02CCF81810CCF82020DCF808105A
:100E800041F0470121F0300128E000BF6F2B33DD36
:100E9000B3F5005F74D0B3F5805F21D0702B40F0C4
:100EA0008380D1E901E3C968DCF8082043EA0E0336
:100EB00022F47F4243EA01211143CCF80810DCF808
:100EC000081041F0770109E00BB1102B6CD1DCF870
:100ED000081021F07001194341F00701CCF8081007
:100EE0000022012180F83D10002180F83C10BDE86F
:100EF00080401046704700BF502B21D0602B53D14B
:100F0000D1F804E0C968DCF82030DCF8202022F0B9
:100F10001002CCF82020DCF8182022F4704242EABB
:100F2000013123F0A00242EA0E12CCF81810CCF8DE
:100F30002020DCF8081041F0670121F01001CDE716
:100F4000D1F804E0C968DCF82030DCF8202022F079
:100F50000102CCF82020DCF8182022F0F00242EA4E
:100F6000011123F00A0242EA0E02CCF81810CCF864
:100F70002020DCF8081041F0570121F02001ADE7F6
:100F8000D1E901E3C968DCF8082043EA0E0322F442
:100F90007F4243EA01211143CCF80810DCF8081025
:100FA00041F480419AE700BF01229AE7016840F2CC
:100FB0000042C4F20002914200D07047017F08292C
:100FC00006D0042918BF7047082100F00FBB00BFEE
:100FD00010B540F27004C2F2000421684CF6CD4C0A
:100FE000013121602168CCF6CC4CA1FB0C32D20837
:100FF00002EB820241F6AE5EA1EB4202C0F6000EA9
:101000001EF8022022772268A2FB0C2349F69A1CC4
:10101000DA08C1F6991CA2FB0C1303EB8301A2EBC7
:1010200041011EF8011048F21F52E1762168C5F215
:10103000EB12A1FB02125109A1FB0C2303EB83026B
:10104000A1EB42011EF8011044F6D352A1762168AB
:10105000C1F26202A1FB02129109A1FB0C2303EB76
:101060008302A1EB42011EF8011041F25972617630
:101070002168CDF2B712A1FB0212510BA1FB0C2388
:1010800003EB8302A1EB42011EF8011045F6C522D5
:1010900021762168C0F67C224909A1FB0212D10900
:1010A0004CF6CD424A43D20C02EB8202A1EB420144
:1010B00089B21EF801104DF68362E1752168C4F211
:1010C0001B32A1FB0212910C41F69A1201FB02F3B2
:1010D0001B0C03EB8303A1EB430189B21EF8011043
:1010E0004CF66B23A1752168C6F65F33A1FB031391
:1010F000990D4A43120C02EB8202A1EB420189B224
:101100001EF8011061750C2100F070FAA060A06853
:101110006168884204D9A0686168401A06E000BF8F
:101120006068A168081A4FF6FF710844E060A06883
:101130006060E06800F0D4FD014642F20040C4F671
:10114000741000F00BFD2061BDE8104070470000F6
:1011500090F83C30012B04BF022070474FEAB202E6
:10116000032A00F28D80F0B5DFE802F00264284621
:101170000368D1E900C5D1F80CE01C6A1A6A40F690
:10118000FF3722F001021A621A4652F8186FC4F2B1
:101190000007BB427ADCB3F1804F00F0898040F257
:1011A0000047C4F20007BB4200F0828040F600070F
:1011B000C4F20007BB427BD096E000BF0768D1E9CC
:1011C00000C5D1E902313C6A3A6A61F3071522F49D
:1011D00080723A623A4652F81C6F26F0F30645EAEE
:1011E00006014FEA5C0666F3492411603C6211680F
:1011F00021F00C0111606CE00368D1E900E6D1E94F
:1012000002C11C6A1A6A360222F480521A621A4615
:1012100052F81C5F4FF2FF07BE4325F4734561F39C
:101220000F364FEA5E0746EA050167F34D34116059
:101230001C621EE00368D1E900E6D1E902C11C6A24
:101240001A6A360222F010021A621A4652F8185F21
:101250004FF2FF07BE4325F4734561F30F3624F0C8
:10126000A0040EF00A0746EA050144EA07171160D8
:101270001F6211684FEA0C2321F44061116028E0DD
:101280000121002280F83C200846704740F60047C4
:10129000C4F20007BB420BD043F20047C4F201077F
:1012A000BB4205D042F60047C4F20107BB421BD146
:1012B00026F00306354324F00A070CF00A066EF305
:1012C000071537449D611F629F6927F00C079F61D6
:1012D0008B681168194311600021BDE8F0400022BD
:1012E00080F83C200846704746F00105E3E700001F
:1012F000002804BF0120704710B5044690F83D0057
:1013000028B9002084F83C00204600F01FF8022095
:1013100084F83D002068211D00F018FB012084F8AE
:10132000460084F83E0084F83F0084F8400084F8CA
:10133000410084F8420084F8430084F8440084F8B3
:10134000450084F83D00002010BD000070470000FB
:1013500031B3042908D0082919BF4FF0450C4123A7
:101360004FF0440C402302E04FF0430C3F23C25C9B
:1013700010F80C30012A4FF0010208BF012B65D193
:101380000222082922D0042956D180F83F2080F873
:1013900043204FEAB103032B4FF0010220D955E05F
:1013A00090F83E2090F84230012A4FF0010208BF29
:1013B000012B4BD1022280F83E2080F842204FEAD8
:1013C000B103032B4FF001020AD93FE080F840201F
:1013D00080F844204FEAB103032B4FF0010235D8C7
:1013E00041F6C05C0068C0F6000C5CF823C0C3681E
:1013F00001F01F0143EA0C03C360036A02FA01F122
:1014000023EA01020262026A114340F6FF32C4F28B
:101410000002904201621BDCB0F1804F2AD040F202
:101420000041C4F20001884224D040F60001C4F219
:10143000000188421ED024E080F8412080F8452039
:101440004FEAB103032B4FF00102C9D91046704790
:1014500040F60041C4F2000188420BD043F2004143
:10146000C4F20101884205D042F60041C4F20101F4
:10147000884206D1816801F00701062904BF0020D7
:101480007047016841F001010160002070470000D1
:1014900070B504460068C5680669B10716D515F031
:1014A000020113D06FF002010161012121778069EF
:1014B000800703D02046FFF779FD05E0204600F0C5
:1014C0008FF8204600F08EF800202077700719D59D
:1014D00015F0040016D020686FF0040101610221AC
:1014E0002177806910F4407F04D02046FFF75EFD2D
:1014F00006E000BF204600F073F8204600F072F8C6
:1015000000202077300717D515F0080014D0206888
:101510006FF00801016104212177C069800703D0C1
:101520002046FFF743FD05E0204600F059F820462D
:1015300000F058F800202077F00619D515F01000BB
:1015400016D020686FF01001016108212177C06971
:1015500010F4407F04D02046FFF728FD06E000BFCE
:10156000204600F03DF8204600F03CF800202077AF
:10157000F00718BF15F0010002D1300609D412E0BF
:1015800020686FF001010161204600F02DF830065F
:1015900009D515F0800006D020686FF08001016148
:1015A0002046FFF73BFB700609D515F0400006D03A
:1015B00020686FF040010161204600F023F8B0067A
:1015C00058BF70BD15F0200008D021686FF02002D0
:1015D00020460A61BDE87040FFF722BB70BD0000E5
:1015E0007047000070470000704700004FEAB101EB
:1015F000032984BF00207047006800EB8100406B26
:101600007047000070470000B0B540F60004C4F217
:1016100001040546C20920468021FEF749FF204605
:1016200020210122FEF744FF204620210022FEF760
:101630003FFFC5F3801220468021FEF739FF204688
:1016400020210122FEF734FF204620210022FEF750
:101650002FFFC5F3401220468021FEF729FF2046C8
:1016600020210122FEF724FF204620210022FEF740
:101670001FFFC5F3001220468021FEF719FF204608
:1016800020210122FEF714FF204620210022FEF730
:101690000FFFC5F3C00220468021FEF709FF204658
:1016A00020210122FEF704FF204620210022FEF720
:1016B000FFFEC5F3800220468021FEF7F9FE20469A
:1016C00020210122FEF7F4FE204620210022FEF711
:1016D000EFFEC5F3400220468021FEF7E9FE2046DA
:1016E00020210122FEF7E4FE204620210022FEF701
:1016F000DFFE05F0010220468021FEF7D9FE2046DC
:1017000020210122FEF7D4FE204620210022FEF7F0
:10171000CFFE20464FF480710122FEF7C9FE20461D
:101720004FF480710022BDE8B040FEF7C1BE00005A
:10173000FEE700002DE9F04F85B04FF0000B41F2BD
:101740001800CDE903BBCDE901BBC4F2020001687A
:1017500040F6000841F0800101600168C4F2010810
:1017600001F0800100910099016808F5A05641F050
:10177000040101600168002201F004010091009958
:1017800001684FF6FF7741F008010160016801F040
:10179000080100910099016841F020010160006892
:1017A0004FF6FF7100F02000009000983046FEF7E1
:1017B0007FFE40464FF4D0710022FEF779FE08F517
:1017C000406528464FF4405100224FF4405AFEF73E
:1017D0006FFE019701AF01244FF0020930463946F0
:1017E000CDE9024BCDF81090FEF76EFD4FF4D070AE
:1017F00001A981E8110840463946CDF81090FEF75E
:1018000063FD28463946CDE901A4CDE903B9FEF7C9
:101810005BFD05B0BDE8F08F10B58AB040F29000D6
:1018200040F200420021C2F20000C4F2000247234D
:101830004FF6FF740991CDE90711CDE90411CDE907
:101840000211CDE90011C0E90023C0E902140161D1
:101850008161FFF733FA002818BFFEF72FFD4FF420
:101860008050069040F29000C2F2000006A9FFF7F7
:10187000CDFA002818BFFEF721FD40F29000C2F219
:101880000000FFF735FD002818BFFEF717FD40F2F6
:1018900090000024C2F2000004A9CDE90444FFF73F
:1018A000C1F9002818BFFEF709FD0220CDE90000AC
:1018B00040F29000C2F2000069460822CDE90244DD
:1018C000FFF746FC002818BFFEF7F8FC0020009048
:1018D0000120019040F29000C2F2000069460C2203
:1018E000FFF736FC002818BFFEF7E8FC0AB010BD71
:1018F000FEE70000FEE700007047000070470000B0
:10190000B0B50C46FFF780FE601E4FF4004141F673
:10191000004521FA00F4C4F20105284621460022C0
:10192000FEF7C6FD012000F083F82846214601227B
:10193000BDE8B040FEF7BCBDFEF7C6BD7047000075
:1019400040F29000C2F20000FFF7A2BD10B540F6D1
:10195000FF320368C4F2000240F6004E43F2004C2E
:101960009042C4F2000EC4F2010C21DCB0F1804FB1
:1019700028D040F20044C4F20004A04222D040F635
:101980000004C4F20004A0421CD0904220DCB0F15C
:10199000804F27D040F20042C4F20002904221D092
:1019A00040F60002C4F2000290421BD01EE000BFCD
:1019B000704507D0604505D042F60044C4F20104EA
:1019C000A042E2D14C6823F0700323439042DEDD55
:1019D000704507D0604505D042F60042C4F20102CE
:1019E000904203D1CA6823F4407313434C6923F037
:1019F0008002D1F800E08B68224360450260C36238
:101A0000C0F828E005D042F60042C4F2010290423C
:101A100001D109690163012141610169C90708BF59
:101A200010BD016921F00101016110BDFEE7000058
:101A300040B340F20801C2F200010B6844F64032A4
:101A4000C0F24C02934238BF704710B54CF66B2C75
:101A50004FF6184EC6F65F3CCFF6FF7E934208D392
:101A6000A3FB0C34630D03FB0EF300BF013300BF77
:101A7000FCD3013804D00B689342F1D2F9E700BFE0
:101A8000BDE810407047000090B0FEF72BFD002429
:101A90000120CDE90B44CDE9094406900A904FF4AA
:101AA000E0104FF4803102250F9006A8CDE907140D
:101AB000CDE90D51FEF79CFE20B1EFF3108072B618
:101AC000FEE700BF0F20CDE901054FF48060CDE9AE
:101AD000040401A802210394FEF7ACFD20B1EFF34A
:101AE000108072B6FEE700BFFFF724FEFFF794FEFA
:101AF00040F29004C2F200042046FFF747F9204666
:101B00000821FFF725FC20460C21FFF721FC40F2BD
:101B10007004C2F2000400BF607D0121FFF7F0FEF7
:101B2000A07D0221FFF7ECFEE07D0321FFF7E8FE38
:101B3000207E0421FFF7E4FE607E0521FFF7E0FE32
:101B4000A07E0621FFF7DCFEE07E0721FFF7D8FE2E
:101B5000207F0821FFF7D4FEDEE700004FF47F0C62
:101B60001CEAD0121EBF1CEAD11392EA0C0F93EAB2
:101B70000C0F00F0858090EA010F48BF42F480729C
:101B800040F4000C41F400002CF07F4120F07F4035
:101B900000B5A2EB030281420FF2081CACEB504EE1
:101BA0009EF800E0C0F100004FEA4E0E00FB0EFC74
:101BB00038BF49004FEA2C1C0CFB0EF34FEACE1E37
:101BC0000EEB635E4FEA112C0EFB0CFC4FEAC121B9
:101BD0004FEA1C5300FB031102F5FA024FEA112CE5
:101BE0000EFB0CFC4FEA01314FEADC4C00FB0C1100
:101BF00042EB2242C14228BF09184CEB03335DF887
:101C000004EB10EB410143EBC250B2F57C0F38BF3F
:101C1000704729D512F0F00F1CBF00F1C04000F052
:101C200000407047008182838485868788898B8CF9
:101C30008D8E8F919293959697999A9C9D9FA0A235
:101C4000A3A5A7A8AAACAEB0B2B3B5B7B9BCBEC085
:101C5000C2C5C7C9CCCED1D4D7D9DCDFE2E6E9EC26
:101C6000F0F3F7FAFE0000004FEA400C0CF1807C24
:101C7000BCF17E4F28BF7047B0F1C04000F089B87A
:101C80000CEAD11390EA010F48BF42F4807262451A
:101C900038BF634507D213F47F0F16D080EA0100E6
:101CA00000F00040704710B500F02DF8097EFC3EB2
:101CB00000F005B880EA010000F00040704780EABB
:101CC000010000F0004000F064B812F47F0F04BF80
:101CD0000248704780EA010000F05BB80000C07F56
:101CE000B0FA80F310FA03F2C3F19D030AD0D905CC
:101CF00001EB1220530638BF704700F1010008BF06
:101D000020F0010070470EF1020E2EF0030E5EF877
:101D1000044B244204D44FEA4102B2F17F4F11D860
:101D20004FEA4003B3F17F4F0CD80ED14FEAD07C7D
:101D30000CEB4C0C0CF1020CB2F17F4F08BF4CEBDA
:101D4000D17C04E04FF0080C01E04FEAD17C0CEBB1
:101D50004C0324FA03F404F00704B4F1040C06D293
:101D60000EEB840CBDE810404CF0010C6047DFE83E
:101D70000CF0070802024FF00040A0F5800010BDF3
:101D80000846420018BFD2F1807288BF00F00040C0
:101D900010BDFF2141EAD050C0057047000000008F
:101DA00000000000010203040607080901023F06C3
:101DB0005B4F666D7D077F6F777C395E7900000031
:101DC00002000000040000000800000010000000F5
:101DD000FDFFFFFFFBFFFFFFF7FFFFFFEFFFFFFF31
:101DE000FFFDFFFFFFFBFFFFFFF7FFFFFFEFFFFF21
:101DF00002030405060708090A0B0C0D0E0F10104C
:101E0000201E0008000000201000000094010008BF
:101E1000301E000810000020D0060000B4010008A9
:101E2000010000001000000000127A000000000015
:0400000508000131BD
:00000001FF
