:020000040800F2
:100000000005002045010008951C00082D1B000874
:10001000911C0008990100084D2000080000000014
:100020000000000000000000000000009D1C00080F
:10003000B501000800000000991C0008F91C000828
:100040005F0100085F0100085F0100085F01000810
:100050005F0100085F010008B9010008C101000844
:100060005F0100085F0100085F0100085F010008F0
:100070005F0100085F0100089D010008A901000858
:100080005F0100085F0100085F0100085F010008D0
:100090005F0100085F0100085F0100085F010008C0
:1000A0005F0100085F0100085F0100085F010008B0
:1000B0005F0100085F0100085F0100085F010008A0
:1000C0005F0100085F0100085F0100085F01000890
:1000D0005F010008412000085F0100085F0100087F
:1000E0005F0100085F0100085F0100085F01000870
:1000F0005F0100085F0100085F0100085F01000860
:100100005F0100085F0100085F0100085F0100084F
:100110005F0100085F0100085F0100085F0100083F
:100120005F0100085F0100085F0100085F0100082F
:10013000DFF80CD000F018F800480047A9200008AC
:10014000000500200648804706480047FEE7FEE716
:10015000FEE7FEE7FEE7FEE7FEE7FEE7FEE7FEE777
:10016000FD1C0008310100081CB509480090094831
:1001700001900546009C06E0E06840F0010394E829
:10018000070098471034AC42F6D3FFF7D5FF0000C4
:100190000C2200082C220008FEE7000040F270004C
:1001A000C2F2000000F0D2B840F22C00C2F200000F
:1001B00000F0CCB870470000012000F029BB00001F
:1001C000022000F025BB0000EFF3108072B600BFE4
:1001D000FEE70000014690F82100022816D10868C9
:1001E000D1E90FC3026822F00E020260026822F019
:1001F00001020260012000FA03F2CCF8042081F829
:1002000021000020002281F820207047042088630C
:100210000120002281F820207047000090F8211072
:10022000022927D1026840F2040C1368C4F2020CC0
:1002300023F00E03136013680CF17C018A4223F053
:10024000010111601AD940F20841C4F202018A4248
:1002500050D040F21C41C4F202018A4242D040F226
:100260003041C4F202018A4248D14FF48073CCF885
:1002700000345CE004218163012070474321C4F213
:1002800002018A420EDD6B21C4F202018A421BDCAC
:100290004421C4F202018A423ED05821C4F2020134
:1002A0008A4223E00821C4F202018A4232D01C2192
:1002B000C4F202018A4237D03021C4F202018A42DC
:1002C00014D14FF4807230E06C21C4F202018A42F2
:1002D00026D08021C4F202018A4207D14FF08072F9
:1002E00023E000BF1023CCF8003420E04FF480322C
:1002F0001BE000BF0123CCF8003418E00CF5886146
:100300004FF480338A4208BF4FF48053CCF8003456
:100310000DE000BF012208E04FF4805205E000BF6D
:100320004FF4801201E000BF1022CCF80020012120
:1003300080F82110416B0022002980F8202004BFA2
:100340000020704780B58847002080BD10B5D0E9F7
:100350000FE3D0F800C0DEF80020DCF80010DA402F
:1003600054072DD511F004042AD0DCF800108906BA
:1003700005D4DCF8001021F00401CCF800100422B0
:10038000C4F2020202F17C018C4569D940F20841B5
:10039000C4F202018C4500F0B78040F21C41C4F267
:1003A00002018C4500F0A88040F23041C4F2020105
:1003B0008C4540F0AD804FF48061C2F80014F3E04A
:1003C00094072FD511F002042CD0DCF80010890618
:1003D00008D4DCF8001021F00A01CCF8001001214B
:1003E00080F821100422C4F2020202F17C018C4543
:1003F0004CD940F20841C4F202018C4500F0BC80A7
:1004000040F21C41C4F202018C4500F0AD8040F284
:100410003041C4F202018C4540F0B8804FF40071C5
:10042000BCE000BF120740F1D78011F0080108BFFF
:1004300010BDDCF8001021F00E01CCF800100121F5
:1004400001FA03F2CEF80420816380F82110016BD9
:100450000022002980F8202040F0A880BCE000BFE6
:100460004321C4F202018C4526DD6B21C4F2020156
:100470008C4533DC4421C4F202018C4500F07E80BF
:100480005821C4F202018C453AE000BF4321C4F276
:1004900002018C4548DD6B21C4F202018C4555DC1C
:1004A0004421C4F202018C4500F086805821C4F238
:1004B00002018C455CE000BF0821C4F202018C45BA
:1004C00054D01C21C4F202018C456BD03021C4F2FF
:1004D00002018C4514D14FF4806164E06C21C4F2B8
:1004E00002018C454ED08021C4F202018C4507D117
:1004F0004FF0806157E000BF4021C2F8001453E084
:100500004FF480214FE000BF0421C2F800144BE0FB
:1005100002F588634FF480219C4508BF4FF4804169
:10052000C2F8001440E000BF0821C4F202018C456B
:1005300040D01C21C4F202018C4545D03021C4F2C8
:1005400002018C4514D14FF400713EE06C21C4F2DD
:1005500002018C4534D08021C4F202018C4507D1C0
:100560004FF0007131E000BF202117E004211AE0B4
:100570004FF4003129E000BF02210FE04FF4804129
:1005800011E000BF4FF480010DE000BF02F5886369
:100590004FF400319C4508BF4FF40051C2F80014DD
:1005A00014E000BF40211160C16AA9B1BDE810404C
:1005B000084700BF022108E04FF4005105E000BFEA
:1005C0004FF4001101E000BF20211160816A002278
:1005D000002980F82020E9D110BD00000146002844
:1005E0004FF0010008BF70472DE9F04740F2000CC2
:1005F000C4F2020C0A684FF6F8330CF5816ECBF6A4
:10060000FD73724538BF03F5806303EB020E4CF6B1
:10061000CD43CCF6CC43AEFB033E0CF580636FF0CC
:100620000304D1E9019AD1F80C803CBF0023C4F245
:10063000020304EA9E04C1E90F34022381F8213049
:10064000136843F6F074A34301F1100743EA09036A
:10065000F0CF43EA0A0343EA080323432B4333431F
:100660003B43136000228A6381F8210081F8202037
:100670000020BDE8F047704790F820C0BCF1010FA2
:1006800004BF02207047F0B54FF0010E80F820E063
:1006900090F821C0BCF1010F26D14FF0020C80F878
:1006A00021C04FF0000CC0F838C0D0E900C4C56AC2
:1006B000C66BDCF80070102C27F00107CCF8007036
:1006C000006C0EFA00F070600846CCF8043004BFED
:1006D00010460A46CCF80800CCF80C20DCF80000E4
:1006E00045B140F00E000DE0002180F820100220FE
:1006F000F0BD00BF20F00400CCF80000DCF80000E2
:1007000040F00A00CCF80000DCF8000040F00100E6
:10071000CCF800000020F0BD10B502280ED0012852
:100720000AD1322001F094FC41F60000C4F201002D
:10073000012100F06DF9E8B110BD00BF322001F0D9
:1007400087FC41F60000C4F20100022100F060F9CC
:10075000002818BF10BD40F21000C2F2000000F1E6
:100760000B0C00F10A0E00F1090300F10802411C14
:100770000AE000BF40F21001C2F2000101F1070CD3
:1007800001F1060E4B1D0A1D08782924013008705E
:100790000878002010700A786243120B1A700A78E9
:1007A000CD235A43D20A1A245443240A44EA840427
:1007B000A2EB44028EF80020097801FB03F2D20A72
:1007C00002EB8202A1EB42018CF8001040F2100112
:1007D00045F2AA52C2F20001C0F20802CA600A78C9
:1007E0000A7808820A780A788A744B78C8744B7839
:1007F00008754B78487548788875504080F0F70048
:10080000C8754AF6552008830120887010BD000085
:1008100040F21441C4F201010A68024214BF0860A8
:100820007047FFF779BF00002DE9F04F82B00E68E6
:10083000002E00F0E980A0F1804241F6004540F230
:100840000043A2F58432C4F201050624C4F2010378
:100850004FEAB227A84208BF05244FF0000E4FF020
:1008600001080F254FF0000A4FF0000B052F38BF8D
:100870004FEAB224009408E00E680AF1010A36FA41
:100880000AF20EF1040E00F0BF8008FA0AFC16EA24
:100890000C09F1D04E684FF6FF72C1F21002964279
:1008A00012DC122E56D8DFE806F0350B4D495555AF
:1008B000555555555555555555555545510000BF3C
:1008C000D1F80CB046E000BF4FF6FF72C1F2210232
:1008D00096420FDC0022C1F2110296421AD0002289
:1008E000C1F21202964215D00022C1F221029642B4
:1008F00010D02FE00022C1F2220296420AD000223C
:10090000C1F23102964205D00022C1F23202964273
:1009100020D100BF8A684AB1012A14BFC0F814C0B0
:10092000C0F810C04FF0080B14E000BF4FF0040BEC
:1009300010E000BFCA6802F1040B0BE04FF0000B9F
:1009400008E000BFCA6802F1080B03E0CA6802F1C0
:100950000C0B00BF02467446B9F5807F24BF0432F9
:10096000203C166805FA04F726EA07070BFA04F696
:1009700037431760CA79D2067FF57EAF41F2180778
:10098000C4F202073A684FF6084542F001023A60A5
:100990003A68CFF6FF7502F001020192019A2AF03F
:1009A00003021A440F2457590EF00C06B440A74313
:1009B000009C04FA06F6374357514E6840F20C4447
:1009C000F2029A6854BF22EA090242EA0902C4F21A
:1009D00001049A602268B70254BF22EA090242EA7F
:1009E000090222605A68B70354BF22EA090242EAA8
:1009F00009025A600F251A68F70354BF22EA090258
:100A000042EA09021A6037E702B0BDE8F08F000041
:100A10008068084018BF012070470000002A08BF06
:100A2000090401617047000040F2FC00C2F20000BE
:100A30000068704740F2000040F2FC01C2F2000082
:100A4000C2F2000100780A68104408607047000094
:100A500080B542F20000C4F20200016841F01001CA
:100A60000160032000F08CF80F2000F005F800F082
:100A700027F8002080BD000070B540F20006C2F2E9
:100A8000000640F208013278C2F200014FF47A7396
:100A90000968B3FBF2F20446B1FBF2F1084600F03C
:100AA00085FB0F2C4FF0010508D838B94FF0FF3007
:100AB00021460022002500F037F87460284670BDFA
:100AC00082B041F21800C4F202000168022241F033
:100AD00001010160016801F0010101910199416882
:100AE00041F080514160406800F0805000900098D3
:100AF0000420C4F20100016862F31A61016002B0CF
:100B000070470000002848BF704700F01F01012215
:100B100002FA01F11C2202EAD0004EF20012CEF2DB
:100B2000000281507047000010B54EF60C5CCEF20A
:100B3000000CDCF80030C3F3022E8EF00704042C06
:100B400028BF0424BEF103034FF0FF3E0EFA04F465
:100B500038BF0023A14399400EFA03F39A4311438F
:100B600000F00F0200F160430901043A03F5644309
:100B70006244002848BF02F10C03197010BD000048
:100B80004EF60C51CEF200010A684FF6FF031A40F0
:100B900060F30A2242F0806040F0FD700860704708
:100BA000002804BF012070472DE9F04381B042F2D4
:100BB0000008C4F202080446D8F800000D4600F010
:100BC000070081420CD9D8F8000020F00700284324
:100BD000C8F80000D8F8000000F00700A8426CD167
:100BE000206841F204098107C4F2020917D54107C0
:100BF00005D5D9F8001041F4E061C9F800100107EB
:100C000005D5D9F8001041F46051C9F80010D9F8A1
:100C10000010A26821F0F0011143C9F80010C007CC
:100C200042D1D8F8000000F0070085420CD2D8F875
:100C3000000020F007002843C8F80000D8F80000A2
:100C400000F00700A84238D12068410707D5D9F83D
:100C50000010E26821F4E0611143C9F800100007B8
:100C600008D5D9F80000216920F4605040EAC1009D
:100C7000C9F80000D9F8002002F00C00082841F261
:100C80000020C0F27A004DD142F2FB13C2F383413F
:100C9000C0F60003595CD20338D440F60010C0F20D
:100CA0003D0048433EE000BF606859F8041C02283C
:100CB00008D0012826D1890306D4012001B0BDE85F
:100CC000F08300BF8901F8D5D9F8001021F00301A5
:100CD0000843C9F80000FFF7A7FE064641F288372F
:100CE000D9F80000616800F00C00B0EB810F98D0DB
:100CF000FFF79AFE801BB842F2D9032001B0BDE88D
:100D0000F08300BF8907D8D5DEE700BFD9F80020FF
:100D100042F2EA13C2F34042C0F600039A5C484331
:100D2000B0FBF2F0D9F8001042F2D212C1F3031175
:100D3000C0F60002515C40F2080220FA01F140F2D4
:100D40000400C2F200000068C2F200021160FFF766
:100D500093FE002001B0BDE8F083000040F20800DF
:100D600041F20401C2F20000C4F202010068096805
:100D700042F2E212C1F30221C0F60002515CC84007
:100D80007047000040F2080041F20401C2F2000086
:100D9000C4F202010068096842F2E212C1F3C22102
:100DA000C0F60002515CC84070470000002804BF34
:100DB000012070472DE9F04182B00446007841F2ED
:100DC0000006C007C4F202060CD0706800F00C00E8
:100DD000042840F081803068800303D560680028D3
:100DE00000F04681207880071BD5706810F00C0F4A
:100DF00009D0706800F00C00082840F08780706807
:100E0000C00300F183803068800703D52069012882
:100E100040F02E813068616920F0F80040EAC1009E
:100E200030602078000713D4207840072CD4E5697F
:100E3000002D00F01881706800F00C00082840F0C8
:100E4000A780012D40F00481012002B0BDE8F081AF
:100E5000A069002800F084800020C4F24220012113
:100E6000C0F88014FFF7E0FD054600BF706A8007F8
:100E700000F1B280FFF7D8FD401B0228F6D903200D
:100E800002B0BDE8F08100BFF0695FEAC00808D495
:100E9000F06940F08050F061F06900F080500090FF
:100EA000009847F20007C4F200073868C00549D42B
:100EB000386840F480703860FFF7B6FD054600BF23
:100EC0003868C0053ED4FFF7AFFD401B6428F7D952
:100ED000032002B0BDE8F081706800F00C00082823
:100EE00003D17068C0033FF576AF616830680029B0
:100EF00000F00C81B1F5A02F00F00081B1F5803F2A
:100F000040F01A8140F480301CE100BF20690028C5
:100F100040F20000C4F2422000F08880012101600C
:100F2000FFF782FD054600BF306880073FF572AFCE
:100F3000FFF77AFD401B0228F6D9032002B0BDE876
:100F4000F08100BFE168306A002900F09D8005292A
:100F500000F09280012940F0AF8040F00100B1E044
:100F60000020C4F242200021C0F88014FFF75CFD8D
:100F7000054600BF706A80077FF556AFFFF754FD46
:100F8000401B0228F6D9032002B0BDE8F08100BF63
:100F90000027C4F2422700203866FFF745FD022DE6
:100FA00005460DD13068800140F1DE80FFF73CFD41
:100FB000401B02284FF00300F4D902B0BDE8F081D5
:100FC000306880014FD5FFF72FFD401B02284FF0FE
:100FD0000300F5D9F1E700BF40F20800C2F20000BB
:100FE000006844F6D351C1F26201A0FB0101480A36
:100FF000019000BF00BF0198411E002801913FF4FD
:1010000013AF00BF0198411E002801913FF40CAFBF
:1010100000BF0198411E002801913FF405AF00BFB9
:101020000198411E00280191E4D1FDE600210160F4
:10103000FFF7FAFC054600BF306880077FF5F1AE88
:10104000FFF7F2FC401B02284FF00300F4D9B4E78D
:101050007068216A00F480328A4209D1616A00F422
:101060007010884204D1002002B0BDE8F08100BFBA
:10107000012002B0BDE8F08140F004003062306A27
:1010800040F001001EE000BF20F001003062306A35
:1010900020F004003062FFF7C7FC054641F28837B4
:1010A000306A800720D5FFF7BFFC401BB8424FF0E5
:1010B0000300F5D981E700BF20F001003062306AFB
:1010C00020F004003062FFF7AFFC054641F288379C
:1010D000306A800708D4FFF7A7FC401BB842F7D955
:1010E000032002B0BDE8F081B8F1000F3FF59FAEDC
:1010F000F06920F08050F06199E600BF40F4802054
:101100003060306840F480301CE000BF20F4803054
:101110003060306820F480203060FFF785FC0546A1
:10112000306880037FF55EAEFFF77EFC401B6428CD
:101130004FF00300F4D940E720F48030306030688D
:1011400020F480203060FFF76FFC05463068800394
:101150003FF548AEFFF768FC401B6428F6D9032032
:1011600002B0BDE8F08100BF206AB0F5803F05D134
:101170007168A26821F40031114371607168626A7C
:1011800021F4741111430843706001203866FFF7A1
:101190004BFC0446306880013FF565AFFFF744FC27
:1011A000001B02284FF00300F4D906E7411E00207F
:1011B000B0EB116F1CBF012070474EF21002CEF24F
:1011C000000251604EF62351CEF20001F0230B7065
:1011D0000721906011607047704700007047000061
:1011E000B0B582B001680A68CC684B6902F02F057F
:1011F000202D04F0200505D125B102B0BDE8B04096
:1012000000F09EBE5FEA027C1EBF03F0010E04F4F4
:10121000907313EB0E0341D1036BD50618D5012B48
:1012200016D114F0100313D0002201920A68019223
:101230004A680192019A496949064BD4818DC28D51
:10124000C38D002B18BF914240F0F48102B0B0BDB5
:1012500013062DD514F080032AD090F84120212ABE
:10126000F4D18268B2F5805F03D10269002A00F0F0
:101270006782026A531C036212784A60C28C013A88
:101280001304C284E2D1C86820F08000C860C86836
:1012900040F04000C86002B0B0BD00BFD30718BF27
:1012A00014F4807340F0D080530700F1D380D8E06D
:1012B0005206CBD514F04002C8D0CA6822F04002D2
:1012C000CA60202180F8411002B0BDE8B04000F0B3
:1012D00095BB00BFC16B0A68526893B2002BB5D0B2
:1012E000858DAB42B2D2C2858969202900F0A180E8
:1012F000016851E8031F026821F4807142E803137A
:10130000DBB1016851E8031F026821F4807142E8F3
:10131000031393B1016851E8031F026821F480713F
:1013200042E803134BB1016851E8031F026821F43E
:10133000807142E80313002BDAD1016851E8051FE0
:10134000026821F0010142E80513C3B3016851E8C6
:10135000051F026821F0010142E805137BB3016813
:1013600051E8051F026821F0010142E8051333B37B
:10137000016851E8051F026821F0010142E80513E8
:10138000002BDAD11BE000BF016851E8051F02689D
:1013900021F0400142E80513DBB1016851E8051F67
:1013A000026821F0400142E8051393B1016851E859
:1013B000051F026821F0400142E805134BB10168A6
:1013C00051E8051F026821F0400142E80513002B97
:1013D000DAD1202180F8421000210163016851E830
:1013E000031F026821F0100142E80313DBB101681A
:1013F00051E8031F026821F0100142E8031393B182
:10140000016851E8031F026821F0100142E803134C
:101410004BB1016851E8031F026821F0100142E856
:101420000313002BDAD1C16B04460846FEF7D2FE47
:10143000204602214163818DC28D891A89B202B092
:10144000BDE8B040FFF7C8BE436C43F001034364FE
:10145000530706D5BEF1000F03D0436C43F00203DF
:101460004364930706D5BEF1000F03D0436C43F0ED
:1014700004034364BCF1000F06D55EEA050303D004
:10148000436C43F008034364436C002B3FF4DEAE2F
:10149000920605D525B1044600F052FD216820468C
:1014A0004969426C01F0400102F00802891800F01D
:1014B000B98000BF016851E8031F026821F49071F0
:1014C00042E80313BBB3016851E8031F026821F42B
:1014D000907142E8031373B3016851E8031F026877
:1014E00021F4907142E803132BB3016851E8031F04
:1014F000026821F4907142E80313002BDAD11AE05C
:10150000016851E8051F026821F0010142E8051356
:10151000DBB1016851E8051F026821F0010142E8D2
:10152000051393B1016851E8051F026821F001011C
:1015300042E805134BB1016851E8051F026821F02C
:10154000010142E80513002BDAD1016B012924D1F6
:10155000016851E8031F026821F0100142E80313FB
:10156000DBB1016851E8031F026821F0100142E875
:10157000031393B1016851E8031F026821F01001C1
:1015800042E803134BB1016851E8031F026821F0E0
:10159000100142E80313002BDAD1202180F8421019
:1015A0000021016301684969490640F1C38001686F
:1015B00051E8051F026821F0400142E80513DBB144
:1015C000016851E8051F026821F0400142E8051357
:1015D00093B1016851E8051F026821F0400142E81B
:1015E00005134BB1016851E8051F026821F0400165
:1015F00042E80513002BDAD1C16B002900F09A8074
:1016000041F60152C0F60002044608464A63FEF75E
:1016100005FE00283FF41AAEE06B416B02B0BDE856
:10162000B04008470446FFF7D9FD0020606402B0CF
:10163000B0BD00BF891A00BF026852E8032F0368DB
:1016400022F4907243E80325BDB3026852E8032FE9
:10165000036822F4907243E8032575B3026852E8E8
:10166000032F036822F4907243E803252DB3026828
:1016700052E8032F036822F4907243E80325002DFB
:10168000DAD11AE0026852E8052F036822F001025D
:1016900043E80525DDB1026852E8052F036822F012
:1016A000010243E8052595B1026852E8052F036859
:1016B00022F0010243E805254DB1026852E8052FEA
:1016C000036822F0010243E80525002DDAD120222B
:1016D00080F8422000220263026852E8032F036868
:1016E00022F0100243E80325DDB1026852E8032F1F
:1016F000036822F0100243E8032595B1026852E81E
:10170000032F036822F0100243E803254DB102685D
:1017100052E8032F036822F0100243E80325002D4E
:10172000DAD1022289B2426302B0BDE8B040FFF7CD
:1017300053BD00BF02B0BDE8B040FFF74FBD00BFD2
:10174000026A32F8023B6FF35F234B60026295E559
:10175000002804BF0120704710B5044690F84100EE
:1017600028B9002084F84000204600F063F82420C7
:1017700084F841002068D4E90212C36823F40053BE
:10178000C360036923F440531A430261D4E904237C
:101790001143C268194341F20C639A431143C1607B
:1017A0004169A26921F44071114343F60002C4F279
:1017B00001029042416103D0FFF7D0FA02E000BF7E
:1017C000FFF7E0FAD4E90023192148439900B0FB60
:1017D000F1F048F21F5CC5F2EB1CA0FB0C314FF698
:1017E0009C734909C0F6FF7301FB0300322303EB2E
:1017F0000010A0FB0C03F02000EA531000EB0110D6
:10180000C3F34311084490601069202120F49040F4
:101810001061506920F02A005061D06840F40050F7
:10182000D0600020606484F8411084F84210606346
:1018300010BD00002DE9F04186B040F600050446D9
:10184000C4F20105006805F540510027884205975C
:10185000CDE90377029703D006B0BDE8F08100BF61
:1018600041F21800C4F20200016802AE41F4804166
:101870000160016840F2440801F48041019101993E
:101880000168C4F2020841F00401016000683146B9
:1018900000F00400019001984FF4007002900220C3
:1018A0000390032005902846FEF7BEFF4FF48060AA
:1018B000CDE90207284631460497FEF7B5FF40F20E
:1018C0002C0508F11400C2F200058026C5E90007C6
:1018D0002846C5E90276C5E90477C5E90677FEF72B
:1018E0007DFE002818BFFEF76FFCE5636C6240F2D6
:1018F0007005C2F2000510200021C5E900802846CD
:10190000C5E90216C5E90411C5E90611FEF766FE30
:10191000002818BFFEF758FC252000210022A563EF
:101920006C62FFF701F92520FFF7ECF806B0BDE87F
:10193000F08100007047000090F84130202B09D161
:10194000944600294FF0010218BFBCF1000F05D1E9
:101950001046704702221046704700BF70B5002243
:1019600021230162A0F824C0A0F826C0426480F8B8
:1019700041300468836B41F6896E41F6397541F652
:101980000D56C0F6000EC0F60005C0F60006C3E90D
:101990000AE5C3E90C62221D044618466346FEF7B9
:1019A0006BFE216820466FF040020A60016851E832
:1019B000051F026841F0800142E80513DBB10168B0
:1019C00051E8051F026841F0800142E8051393B118
:1019D000016851E8051F026841F0800142E80513E3
:1019E0004BB1016851E8051F026841F0800142E8EF
:1019F0000513002BDAD1002070BD000070470000F5
:101A000070470000B0B540F60004C4F2010405467A
:101A1000C20920468021FFF701F82046202101223B
:101A2000FEF7FCFF204620210022FEF7F7FFC5F35A
:101A3000801220468021FEF7F1FF2046202101225E
:101A4000FEF7ECFF204620210022FEF7E7FFC5F35A
:101A5000401220468021FEF7E1FF2046202101228E
:101A6000FEF7DCFF204620210022FEF7D7FFC5F35A
:101A7000001220468021FEF7D1FF204620210122BE
:101A8000FEF7CCFF204620210022FEF7C7FFC5F35A
:101A9000C00220468021FEF7C1FF204620210122FE
:101AA000FEF7BCFF204620210022FEF7B7FFC5F35A
:101AB000800220468021FEF7B1FF2046202101222E
:101AC000FEF7ACFF204620210022FEF7A7FFC5F35A
:101AD000400220468021FEF7A1FF2046202101225E
:101AE000FEF79CFF204620210022FEF797FF05F01D
:101AF000010220468021FEF791FF2046202101228D
:101B0000FEF78CFF204620210022FEF787FF2046AB
:101B10004FF480710122FEF781FF20464FF480715F
:101B20000022BDE8B040FEF779BF0000FEE70000EC
:101B300080B582B041F21400C4F2020001680022B4
:101B400041F0010101600068002100F001000190F6
:101B500001980E20FEF7E8FF0E20FEF7D3FF0F20BE
:101B600000210022FEF7E0FF0F2002B0BDE8804018
:101B7000FEF7C8BF2DE9F04786B0002741F21800F4
:101B8000CDE90477CDE90277C4F20200016840F69E
:101B9000000941F0800101600168C4F2010901F00F
:101BA000800101910199016809F5A05541F00401F6
:101BB00001600168002201F00401019101990168AE
:101BC0004FF6FF7641F04001016000684FF6FF716B
:101BD00000F04000019001982846FEF71FFF48469C
:101BE0004FF4D07100224FF4D078FEF717FF029621
:101BF00002AE4FF0010A022428463146CDE903A780
:101C00000594FEF711FE48463146CDE9028ACDE93A
:101C10000474FEF709FE032002900020C1F22100A7
:101C2000CDE9030A09F580503146FEF7FDFD062097
:101C300000210022FEF778FF0620FEF763FF072051
:101C400000210022FEF770FF0720FEF75BFF06B0C1
:101C5000BDE8F08780B540F2B40043F60001C2F25F
:101C60000000C4F2010100234FF00C0C4FF4E132EC
:101C700080E80E00C0E90333C0E905C3C361FFF784
:101C800067FD002808BF80BDBDE88040FEF79CBA14
:101C9000FEE70000FEE7000070470000704700000C
:101CA00041F60040C4F201004FF47F410122FEF7EB
:101CB000B5BE0000B0B542F2EC12C0F60002105CF6
:101CC0000C46FFF79FFE601E4FF4004141F60045B1
:101CD00021FA00F4C4F20105284621460022FEF74D
:101CE0009DFE012000F0B4F9284621460122BDE8FE
:101CF000B040FEF793BE0000FEF79CBE70470000A8
:101D0000406A0021C185C184FFF768BA406A016852
:101D10004A6990F84130212B2DD112F080022AD04F
:101D20000021C184016851E8031F026821F0C0014D
:101D300042E80313DBB1016851E8031F026821F098
:101D4000C00142E8031393B1016851E8031F026820
:101D500021F0C00142E803134BB1016851E8031FB1
:101D6000026821F0C00142E80313002BDAD12021E0
:101D700080F841100168496990F84220222A40F019
:101D80007D8011F0400179D00021C185016851E8C2
:101D9000031F026821F4907142E80313BBB301688A
:101DA00051E8031F026821F4907142E8031373B3F2
:101DB000016851E8031F026821F4907142E803139F
:101DC0002BB3016851E8031F026821F4907142E8C7
:101DD0000313002BDAD11AE0016851E8051F0268ED
:101DE00021F0010142E80513DBB1016851E8051F4C
:101DF000026821F0010142E8051393B1016851E83E
:101E0000051F026821F0010142E805134BB101688A
:101E100051E8051F026821F0010142E80513002B7B
:101E2000DAD1016B012924D1016851E8031F02684E
:101E300021F0100142E80313DBB1016851E8031FF0
:101E4000026821F0100142E8031393B1016851E8E0
:101E5000031F026821F0100142E803134BB101682F
:101E600051E8031F026821F0100142E80313002B20
:101E7000DAD1202180F8421000210163416C41F049
:101E800010014164FFF7AAB90168406A0968890630
:101E900048BFFFF7B3BD0021C18400BF016851E80E
:101EA000051F026821F0800142E8051383B3016831
:101EB00051E8051F026821F0800142E805133BB399
:101EC000016851E8051F026821F0800142E805130E
:101ED000F3B1016851E8051F026821F0800142E872
:101EE0000513002BDAD113E0016851E8031F0268E3
:101EF00041F0400142E80313002B08BF704701681E
:101F000051E8031F026841F0400142E8031393B116
:101F1000016851E8031F026841F0400142E80313E1
:101F20004BB1016851E8031F026841F0400142E8EB
:101F30000313002BD8D17047406AFFF761BD000042
:101F400081B090F84210222921D183680246B3F56E
:101F5000805F09D152F8281F52F8183C002B63D03B
:101F600003685B680AE000BF52F8281F13B90369D1
:101F7000002BF5D003685B6803F07F030B701168DA
:101F800001311160C18D01390A04C18502D001B04F
:101F9000704700BF0168CA6822F02002CA60CA68A0
:101FA00022F48072CA604A6922F001024A6120214B
:101FB00080F8421000214163026B012A3CD1016389
:101FC000016851E8031F026821F0100142E8031381
:101FD000DBB1016851E8031F026821F0100142E8FB
:101FE000031393B1016851E8031F026821F0100147
:101FF00042E803134BB1016851E8031F026821F066
:10200000100142E80313002BDAD101680A68D206F6
:1020100006D5002200920A68009249680091009952
:10202000818D01B0FFF7D8B8026852686FF35F2264
:1020300021F8022B8162A5E701B0FFF77BBC00000D
:1020400040F2B400C2F20000FFF7CAB8FEE7000099
:1020500040B340F20801C2F200010B6844F640327E
:10206000C0F24C02934238BF704710B54CF66B2C4F
:102070004FF6184EC6F65F3CCFF6FF7E934208D36C
:10208000A3FB0C34630D03FB0EF300BF013300BF51
:10209000FCD3013804D00B689342F1D2F9E700BFBA
:1020A000BDE810407047000090B0FEF7D1FC00245E
:1020B0000120CDE90B44CDE9094406900A904FF484
:1020C000E0104FF4803102250F9006A8CDE90714E7
:1020D000CDE90D51FEF76AFE20B1EFF3108072B624
:1020E000FEE700BF0F20CDE901054FF48060CDE988
:1020F000040401A802210394FEF752FD20B1EFF37E
:10210000108072B6FEE700BFFFF734FDFFF710FD49
:10211000FFF7A0FDFFF7C4FD40F21006C2F2000673
:1021200040F2B40506F10C04C2F20005002700BF1E
:1021300030790121FFF7BEFD0120FFF789FF70799B
:102140000221FFF7B7FD0120FFF782FFB0790321DD
:10215000FFF7B0FD0120FFF77BFFF0790421FFF7C7
:10216000A9FD0120FFF774FF307A0521FFF7A2FDDA
:102170000120FFF76DFF707A0621FFF79BFD01201C
:10218000FFF766FFB07A0721FFF794FD0120FFF704
:102190005FFFF07A0821FFF78DFD0120FFF758FF60
:1021A000B0780028C4D0284621461022FFF7C4FB8F
:1021B000B770BDE702E008C8121F08C1002AFAD1B3
:1021C00070477047002001E001C1121F002AFBD1B7
:1021D0007047000000000000000001020304060731
:1021E0000809000000000102030401023F065B4FE2
:1021F000666D7D077F6F777C395E79020304050683
:102200000708090A0B0C0D0E0F10100030220008F1
:102210000000002010000000B42100084022000847
:1022200010000020F0040000C4210008000000009D
:10223000010000001000000000127A000000000001
:0400000508000131BD
:00000001FF
