:020000040800F2
:10000000F8060020F90100083D220008012100083F
:1000100039220008C5030008692300080000000019
:100020000000000000000000000000004522000861
:10003000C90300080000000041220008492200080E
:10004000130200081302000813020008130200083C
:10005000130200081302000813020008130200082C
:10006000130200081302000813020008130200081C
:10007000130200081302000813020008130200080C
:100080001302000813020008B5020008130200085A
:1000900013020008130200081302000813020008EC
:1000A00013020008130200081302000813020008DC
:1000B00013020008130200081302000813020008CC
:1000C00013020008130200081302000813020008BC
:1000D000130200085D230008130200081302000841
:1000E000130200081302000813020008130200089C
:1000F000130200081302000813020008130200088C
:10010000130200081302000813020008130200087B
:10011000130200081302000813020008130200086B
:10012000130200081302000813020008130200085B
:1001300000F002F800F050F814A696E8000CB24463
:10014000B344DA4501D100F047F8BAE80F000FA632
:1001500096E83000A5EB040504EB0607AAEB0704BC
:10016000A7F101074FEA15154FEA3414A4F1010471
:10017000AC4201D300F030F813F0010F18BFFB1AA6
:1001800043F0010300F001F8DBE71847A02A000064
:10019000C02A0000103A24BF78C878C1FAD85207A4
:1001A00024BF30C830C144BF04680C6070470000F1
:1001B000704700000023002400250026103A28BFC5
:1001C00078C1FBD8520728BF30C148BF0B607047C9
:1001D0001FB51FBD10B510BD00F031F81146FFF777
:1001E000F7FF02F0C3F800F04FF803B4FFF7F2FF97
:1001F00003BC00F057F80000094880470948004751
:10020000FEE7FEE7FEE7FEE7FEE7FEE7FEE7FEE7C6
:10021000FEE7FEE704480549054A064B7047000023
:100220004D22000831010008F8000020F8060020E7
:10023000F8020020F80200207047704770477546AA
:1002400000F02CF8AE4605006946534620F0070042
:10025000854618B020B5FFF7DDFFBDE820404FF020
:1002600000064FF000074FF000084FF0000BAC46BF
:10027000ACE8C009ACE8C009ACE8C009ACE8C0090A
:1002800021F007018D46704710B50446AFF300809A
:100290002046BDE81040FFF7A8BF000000487047A7
:1002A0001000002001491820ABBEFEE72600020026
:1002B0007047000040F27800C2F2000000F0C2B9BE
:1002C000B0B5044600688168C90709D0816821F08B
:1002D0000101816000F08CFE21688968C90701D1A5
:1002E0000020B0BD054602E08068C007F8D000F0ED
:1002F0007FFE411B20680329F6D38168C907F3D02C
:10030000A06A40F01000A062E06A40F00100E062E4
:100310000120B0BDB0B582B0044600200190216834
:100320008A68D2074BD1886840F00100886040F2AB
:100330000800C2F2000000684DF68361C4F21B3170
:10034000A0FB0101880C01900198A0B1019801382F
:100350000190019878B1019801380190019850B14D
:10036000019801380190019828B101980138019055
:1003700001980028EAD100F03BFE21688968C9078E
:100380001CD1054603E000BF8068C00716D100F00D
:100390002FFE411B20680329F6D38168C907F3D1DA
:1003A000A06A40F01000A062E06A40F00100E06244
:1003B000002084F82400012002B0B0BD002002B06B
:1003C000B0BD0000FEE7000070470000EFF31080B2
:1003D00072B600BFFEE7000070B582B00446002090
:1003E000019094F82400012802D1022002B070BDCF
:1003F000012084F824002046FFF762FF2046FFF723
:1004000089FF28B1002184F8241002B070BD00BF1C
:100410000646A06A41F2021188430230A06240F20F
:100420000800C2F200000568022000F09DFEB5FB46
:10043000F0F0400001900198A8B100BF0198013888
:100440000190019878B1019801380190019850B15C
:10045000019801380190019828B101980138019064
:1004600001980028EAD12068816841F00801816084
:1004700000F0BEFD21688A6812070FD4886840F03A
:100480000400886000F0B4FD21688968490715D42C
:1004900001216FF00302304622E000BF054602E072
:1004A00088680007EAD500F0A3FD401B21680B28EF
:1004B000F6D388680007F3D50EE000BF054602E0DA
:1004C00080684007E4D500F093FD411B20680B29AC
:1004D000F6D381684907F3D5012010216FF012028D
:1004E000A36A1A401143A162002184F8241002B0CB
:1004F00070BD00007047000070B581B0002200920E
:1005000090F82420012A03D10221084601B070BDD1
:100510004A680123062A02EB820E80F8243007D8AD
:10052000D0F800C06FF004030CF134060CE000BFFB
:10053000D0F800C00C2A87BF0CF12C066FF04003E6
:100540000CF130066FF022030EEB03021F23346818
:1005500003FA02F50B6824EA050503FA02F22A43BE
:100560003260092B03EB43021AD9DCF80C601E3A07
:10057000072589689540AE43914023F0010231433D
:10058000102ACCF80C1015D142F20041C4F201013E
:100590008C4517D0816A41F02001816201210AE077
:1005A000DCF81030072689689640B3439140194320
:1005B000CCF810100021002280F82420084601B059
:1005C00070BD00BF89680902F4D4DCF80810102B54
:1005D00041F40001CCF80810ECD140F20801C2F25D
:1005E000000109684DF68362C4F21B32A1FB0212BE
:1005F000910C01EB81014900009100990029D9D0AB
:1006000000990139009100990029D3D0009901394E
:10061000009100990029CDD00099013900910099ED
:100620000029C7D0009901390091009900294FF0A5
:100630000001E5D1BFE70000704700000068C06C12
:100640007047000070B50446006805684668B1064A
:1006500027D515F0020124D0A16AC90603D4A16AE6
:1006600041F40071A162816801F46021B1F5602F4D
:1006700010D1217B71B9416821F020014160A06A4D
:1006800020F48070A062A06AC00403D4A06A40F085
:100690000100A0622046FFF7CFFF20686FF0120133
:1006A0000160310633D515F0040130D0A16AC906C6
:1006B00003D4A16A41F40051A162816801F4E041D0
:1006C000B1F5E04F10D1416821F080014160A06A8E
:1006D00020F48050A062A06AC00511D4A06A40F046
:1006E0000100A0620CE000BF4168490508D48168A0
:1006F00001F46021B1F5602F02D1217B0029E2D005
:100700002046FFF7F7FE20686FF00C0101607006CD
:100710000ED515F0010008BF70BDA06A40F480300E
:10072000A062204600F0BCF820686FF00101016073
:1007300070BD0000002804BF01207047B0B504461A
:10074000806A28B121688868C0070CD115E000BF15
:100750000020E06284F82400204600F0A3F821681D
:100760008868C00709D0886820F00100886000F020
:100770003FFC21688A68D20730D1A06AC00644D401
:10078000A06A41F2021290430230A062E36981F054
:10079000804080F49E3083F440221043D4E901026B
:1007A00008BF4FF4002343EA000C531EB3FA83F34F
:1007B0005D091346B2F5807F18BF2B02207D257B93
:1007C00001284CEA45002CD135B3A56A45F0200537
:1007D000A562E56A45F00105E56222E0054602E012
:1007E0008868C007C9D000F003FC401B21680328BB
:1007F000F6D38868C007F3D0A06A40F01000A0626A
:10080000E06A40F00100E062A06AA06A40F01000D7
:10081000A0620120B0BD00BFA56903EB4533A3F57D
:10082000C0534D68B2F5807F25F4694543EA05035E
:100830004B608B684FF2FD75CFF6E17503EA050357
:1008400043EA00038B6001D0012A07D1226900230B
:10085000CFF6F07303EB025201E000BF0022CB6A37
:1008600023F470031A43CA62896840F6FE62CFF629
:100870001F721140814207D10020E062A16A01226B
:1008800062F30101A162B0BDA06A40F0100020F047
:100890000200A062E06A40F00100E0620120B0BD09
:1008A0007047000080B586B0014640F60000C4F2F3
:1008B0000100096800F5E05291424FF00001CDE9D6
:1008C0000411CDE9021101D006B080BD41F218013A
:1008D000C4F202010A6842F400720A600A6802F473
:1008E00000720192019A0A6842F004020A600968E3
:1008F00001F0040101910199042102910321039166
:1009000002A900F07BFA12200021002200F0F0FB87
:10091000122000F0DBFB06B080BD00002DE9F041A5
:1009200082B000270D460446019700F061FB216864
:100930008A68D20544D406464868C00503D4C86A0C
:1009400010F4700F46D040F20800C2F200000768B1
:1009500042F292480220C1F2492800F005FC2168C9
:1009600044F624130A69B7FBF0F0C2F292431A422C
:1009700006D1CA6844F62413C0F292031A425BD02F
:100980000A6912EA080F07D1CA6842F29243C0F21C
:1009900049031A4200F0C0800A6949F24923C0F2B3
:1009A00024031A424FF0FC0254D1CF681F4208BF03
:1009B0005422019B02FB00F7BB4250D3C3E000BFAF
:1009C000A06A40F02000A06284F82470012002B0E8
:1009D000BDE8F0810868800700F1B580681C00F070
:1009E000A880FDB90868800770D50868800700F105
:1009F000AA800868800769D50868800700F1A3808D
:100A00000868800762D50868800700F19C80086844
:100A100080075BD508688007E4D594E00868800704
:100A200000F1918000F0E4FA801B2168A842F5D91A
:100A300008688007F2D449E00A6912EA080F4FF00B
:100A4000290207D1CB6842F29247C0F249073B42E4
:100A500008BF1422019B02FB00F7BB4273D2681C43
:100A600052D05DBB0198B84230D30198013001905B
:100A70000198B84267D20198B84227D30198013053
:100A800001900198B8425ED20198B8421ED30198F5
:100A9000013001900198B84255D20198B84215D35F
:100AA0000198013001900198B842DBD34BE000BFC0
:100AB0000198013001900198B84235D200F098FABF
:100AC000801BA842F4D90198B842F1D2A06A40F044
:100AD0000400A062002084F82400032002B0BDE8D6
:100AE000F08100BF0198013001900198B8422AD2EC
:100AF0000198013001900198B84224D20198013048
:100B000001900198B8421ED20198013001900198DD
:100B1000B842E7D317E000BF5422019B02FB00F765
:100B2000BB429CD30FE000BF21680CE0086880073F
:100B300009D40868800706D4086880075CBF086885
:100B40005FEA8070F2D56FF012000860A06A40F48E
:100B50000070A062886800F46020B0F5602F01D1B9
:100B6000207B18B1002002B0BDE8F081A06A20F41B
:100B70008070A062A06AC004F4D4A06A40F00100B2
:100B8000A062002002B0BDE8F081000010B504466C
:100B900090F82400012804BF022010BD012084F831
:100BA00024002046FFF7B6FB20B1002084F8240083
:100BB000012010BD42F2044C2068A16AC4F2010C6D
:100BC00040F2013291430CF57F7201F58071904241
:100BD000A16229D0A16A21F48011A162416849056E
:100BE00004D5A16A012363F30D31A162A16A002338
:100BF000C9044FF0000144BFE16A21F00601E1623F
:100C00006FF0020184F824300160816801F46021F2
:100C1000B1F5602F1BD1904214D0816841F4A0013E
:100C20008160002010BD00BFDCF8001011F4702FAF
:100C3000D0D0A16A41F48011A162DCF8001049050E
:100C4000CFD4D3E7DCF8001011F4702FE5D0816821
:100C500041F480118160002010BD0000014690F831
:100C60002100022816D10868D1E90FC3026822F0DA
:100C70000E020260026822F001020260012000FA06
:100C800003F2CCF8042081F821000020002281F832
:100C900020207047042088630120002281F8202052
:100CA0007047000090F82110022927D1026840F215
:100CB000040C1368C4F2020C23F00E0313601368D3
:100CC0000CF17C018A4223F0010111601AD940F233
:100CD0000841C4F202018A4250D040F21C41C4F2E1
:100CE00002018A4242D040F23041C4F202018A42FB
:100CF00048D14FF48073CCF800345CE00421816368
:100D0000012070474321C4F202018A420EDD6B21AB
:100D1000C4F202018A421BDC4421C4F202018A426D
:100D20003ED05821C4F202018A4223E00821C4F2D5
:100D300002018A4232D01C21C4F202018A4237D019
:100D40003021C4F202018A4214D14FF4807230E0A3
:100D50006C21C4F202018A4226D08021C4F2020131
:100D60008A4207D14FF0807223E000BF1023CCF8F5
:100D7000003420E04FF480321BE000BF0123CCF8A8
:100D8000003418E00CF588614FF480338A4208BFC4
:100D90004FF48053CCF800340DE000BF012208E08E
:100DA0004FF4805205E000BF4FF4801201E000BF15
:100DB0001022CCF80020012180F82110416B002284
:100DC000002980F8202004BF0020704780B58847A4
:100DD000002080BDB0B5044600F00AF9054640F297
:100DE0000000C2F200000078611C18BF044400BF7C
:100DF00000F0FEF8401BA042FAD3B0BD2DE9F04F41
:100E000082B00E68002E00F0E980A0F1804241F629
:100E1000004540F20043A2F58432C4F201050624E5
:100E2000C4F201034FEAB227A84208BF05244FF0DD
:100E3000000E4FF001080F254FF0000A4FF0000B95
:100E4000052F38BF4FEAB224009408E00E680AF17B
:100E5000010A36FA0AF20EF1040E00F0BF8008FA19
:100E60000AFC16EA0C09F1D04E684FF6FF72C1F287
:100E70001002964212DC122E56D8DFE806F0350B2F
:100E80004D49555555555555555555555555554536
:100E9000510000BFD1F80CB046E000BF4FF6FF7222
:100EA000C1F2210296420FDC0022C1F211029642E9
:100EB0001AD00022C1F21202964215D00022C1F2CD
:100EC0002102964210D02FE00022C1F22202964267
:100ED0000AD00022C1F23102964205D00022C1F2AE
:100EE0003202964220D100BF8A684AB1012A14BF5B
:100EF000C0F814C0C0F810C04FF0080B14E000BFD9
:100F00004FF0040B10E000BFCA6802F1040B0BE0C5
:100F10004FF0000B08E000BFCA6802F1080B03E0C5
:100F2000CA6802F10C0B00BF02467446B9F5807F17
:100F300024BF0432203C166805FA04F726EA0707A6
:100F40000BFA04F637431760CA79D2067FF57EAFF5
:100F500041F21807C4F202073A684FF6084542F01A
:100F600001023A603A68CFF6FF7502F00102019281
:100F7000019A2AF003021A440F2457590EF00C0666
:100F8000B440A743009C04FA06F6374357514E6815
:100F900040F20C44F2029A6854BF22EA090242EA83
:100FA0000902C4F201049A602268B70254BF22EA1F
:100FB000090242EA090222605A68B70354BF22EAD2
:100FC000090242EA09025A600F251A68F70354BF62
:100FD00022EA090242EA09021A6037E702B0BDE8D4
:100FE000F08F0000002A08BF09040161704700006B
:100FF00040F2F000C2F200000068704740F20000CA
:1010000040F2F001C2F20000C2F2000100780A686A
:10101000104408607047000080B542F20000C4F23E
:101020000200016841F010010160032000F08CF81B
:101030000F2000F005F800F027F8002080BD000028
:1010400070B540F20006C2F2000640F208013278A4
:10105000C2F200014FF47A730968B3FBF2F204465E
:10106000B1FBF2F1084600F0BBFC0F2C4FF001057C
:1010700008D838B94FF0FF3021460022002500F093
:1010800037F87460284670BD82B041F21800C4F28F
:1010900002000168022241F001010160016801F0D3
:1010A000010101910199416841F08051416040681E
:1010B00000F08050009000980420C4F20100016804
:1010C00062F31A61016002B070470000002848BF57
:1010D000704700F01F01012202FA01F11C2202EA0E
:1010E000D0004EF20012CEF2000281507047000094
:1010F00010B54EF60C5CCEF2000CDCF80030C3F3F9
:10110000022E8EF00704042C28BF0424BEF1030332
:101110004FF0FF3E0EFA04F438BF0023A14399407C
:101120000EFA03F39A43114300F00F0200F16043FB
:101130000901043A03F564436244002848BF02F100
:101140000C03197010BD00004EF60C51CEF20001D8
:101150000A684FF6FF031A4060F30A2242F08060EB
:1011600040F0FD7008607047411E0F294FF00000ED
:101170003DD8DFE801F00B2B3C093C3C3C093C3CF2
:101180003C3C3C3C3C3D00BF00F0FEB941F2040059
:10119000C4F20200C16940F202320A40B2F5817F16
:1011A00004BF4FF40040704701F44071B1F5407F37
:1011B00050D0B1F5007F1CBF00207047006A49F68F
:1011C0004041800701EAE070704700BF80B500F041
:1011D000C7F941F20401C4F2020109680222C1F315
:1011E000813102EB4101B0FBF1F0BDE88040704776
:1011F00041F20401C4F202010A6851F8040CC00172
:101200005CBF00207047C2F3834016A3185CD20372
:1012100006D440F60012C0F23D0250430CE000BF7D
:101220000A6814A3C2F340429A5C41F20023C0F260
:101230007A03B3FBF2F250430968490248BF704792
:101240004AF6AB214000CAF6AA21A0FB01014808DA
:10125000704700BF50F8040C4FF22441800301EAAC
:10126000E070704702030405060708090A0B0C0D1D
:101270000E0F1010010200002DE9F04182B004466B
:10128000007841F21C06C007C4F202064AD030685A
:101290005FEAC00808D4306840F0805030603068A1
:1012A00000F080500190019847F20007C4F2000757
:1012B0003868C00512D4386840F480703860FFF791
:1012C00097FE05463868C00508D4FFF791FE401B1D
:1012D0006428F7D9032002B0BDE8F081706810F4EB
:1012E000407012D0616801F4407188420DD070687E
:1012F00040F24042C4F24222012320F440711360C4
:101300000023C0071360716026D17068616820F403
:1013100040700843B8F1000F706003D4306820F0CB
:10132000805030602068810707D556F8181CA268E5
:1013300021F44041114346F8181CC00607D556F861
:10134000180C616920F48000084346F8180C00204E
:1013500002B0BDE8F08100BFFFF74AFE054641F24A
:10136000883700BF70688007CFD4FFF741FE401B6D
:10137000B8424FF00300F5D9EAE70000002804BFA7
:10138000012070472DE9F04381B042F20008C4F219
:1013900002080446D8F800000D4600F0070081421C
:1013A0000CD9D8F8000020F007002843C8F8000046
:1013B000D8F8000000F00700A8426CD1206841F284
:1013C00004098107C4F2020917D5410705D5D9F8E8
:1013D000001041F4E061C9F80010010705D5D9F803
:1013E000001041F46051C9F80010D9F80010A2684B
:1013F00021F0F0011143C9F80010C00742D1D8F81C
:10140000000000F0070085420CD2D8F8000020F060
:1014100007002843C8F80000D8F8000000F00700D3
:10142000A84238D12068410707D5D9F80010E268F2
:1014300021F4E0611143C9F80010000708D5D9F87C
:101440000000216920F4605040EAC100C9F80000A2
:10145000D9F8002002F00C00082841F20020C0F268
:101460007A004DD142F61C43C2F38341C0F600031B
:10147000595CD20338D440F60010C0F23D00484316
:101480003EE000BF606859F8041C022808D001281B
:1014900026D1890306D4012001B0BDE8F08300BF46
:1014A0008901F8D5D9F8001021F003010843C9F8E3
:1014B0000000FFF79DFD064641F28837D9F800008D
:1014C000616800F00C00B0EB810F98D0FFF790FD41
:1014D000801BB842F2D9032001B0BDE8F08300BF01
:1014E0008907D8D5DEE700BFD9F8002042F61A43B5
:1014F000C2F34042C0F600039A5C4843B0FBF2F0EE
:10150000D9F8001042F60242C1F30311C0F60002FE
:10151000515C40F2080220FA01F140F20400C2F2EC
:1015200000000068C2F200021160FFF789FD002090
:1015300001B0BDE8F083000040F2080041F2040170
:10154000C2F20000C4F202010068096842F61242C9
:10155000C1F30221C0F60002515CC8407047000090
:1015600040F2080041F20401C2F20000C4F202019C
:101570000068096842F61242C1F3C221C0F60002B7
:10158000515CC8407047000041F2040CC4F2020CE8
:10159000DCF8003003F00C00082841F20020C0F213
:1015A0007A0018BF704742F61C41C3F38342C0F66D
:1015B00000018A5CD90305D440F60010C0F23D005A
:1015C00050437047DCF8001042F61A43C1F3404123
:1015D000C0F60003595C5043B0FBF1F070470000C7
:1015E000002804BF012070472DE9F04182B0044675
:1015F000007841F20006C007C4F202060CD0706801
:1016000000F00C00042840F081803068800303D58E
:101610006068002800F04681207880071BD570683C
:1016200010F00C0F09D0706800F00C00082840F092
:1016300087807068C00300F183803068800703D51D
:101640002069012840F02E813068616920F0F8009F
:1016500040EAC10030602078000713D420784007AA
:101660002CD4E569002D00F01881706800F00C00A2
:10167000082840F0A780012D40F00481012002B02D
:10168000BDE8F081A069002800F084800020C4F249
:1016900042200121C0F88014FFF7AAFC054600BFD4
:1016A000706A800700F1B280FFF7A2FC401B02289D
:1016B000F6D9032002B0BDE8F08100BFF0695FEA0F
:1016C000C00808D4F06940F08050F061F06900F083
:1016D00080500090009847F20007C4F20007386875
:1016E000C00549D4386840F480703860FFF780FC4A
:1016F000054600BF3868C0053ED4FFF779FC401BA3
:101700006428F7D9032002B0BDE8F081706800F0CA
:101710000C00082803D17068C0033FF576AF6168FC
:101720003068002900F00C81B1F5A02F00F0008195
:10173000B1F5803F40F01A8140F480301CE100BFD9
:101740002069002840F20000C4F2422000F08880A6
:1017500001210160FFF74CFC054600BF306880079F
:101760003FF572AFFFF744FC401B0228F6D9032077
:1017700002B0BDE8F08100BFE168306A002900F0E6
:101780009D80052900F09280012940F0AF8040F053
:101790000100B1E00020C4F242200021C0F8801412
:1017A000FFF726FC054600BF706A80077FF556AF3D
:1017B000FFF71EFC401B0228F6D9032002B0BDE84B
:1017C000F08100BF0027C4F2422700203866FFF7EF
:1017D0000FFC022D05460DD13068800140F1DE80FE
:1017E000FFF706FC401B02284FF00300F4D902B0BB
:1017F000BDE8F081306880014FD5FFF7F9FB401B51
:1018000002284FF00300F5D9F1E700BF40F20800CD
:10181000C2F20000006844F6D351C1F26201A0FB9D
:101820000101480A019000BF00BF0198411E002835
:1018300001913FF413AF00BF0198411E00280191B0
:101840003FF40CAF00BF0198411E002801913FF406
:1018500005AF00BF0198411E00280191E4D1FDE6CB
:1018600000210160FFF7C4FB054600BF3068800718
:101870007FF5F1AEFFF7BCFB401B02284FF00300E1
:10188000F4D9B4E77068216A00F480328A4209D141
:10189000616A00F47010884204D1002002B0BDE8F3
:1018A000F08100BF012002B0BDE8F08140F00400EB
:1018B0003062306A40F001001EE000BF20F00100FD
:1018C0003062306A20F004003062FFF791FB054679
:1018D00041F28837306A800720D5FFF789FB401B2B
:1018E000B8424FF00300F5D981E700BF20F00100B6
:1018F0003062306A20F004003062FFF779FB054661
:1019000041F28837306A800708D4FFF771FB401B2B
:10191000B842F7D9032002B0BDE8F081B8F1000F5A
:101920003FF59FAEF06920F08050F06199E600BF6E
:1019300040F480203060306840F480301CE000BF0C
:1019400020F480303060306820F480203060FFF771
:101950004FFB0546306880037FF55EAEFFF748FB1E
:10196000401B64284FF00300F4D940E720F4803096
:101970003060306820F480203060FFF739FB054686
:10198000306880033FF548AEFFF732FB401B642808
:10199000F6D9032002B0BDE8F08100BF206AB0F59F
:1019A000803F05D17168A26821F400311143716054
:1019B0007168626A21F47411114308437060012058
:1019C0003866FFF715FB0446306880013FF565AFC8
:1019D000FFF70EFB001B02284FF00300F4D906E7C7
:1019E000411E0020B0EB116F1CBF012070474EF26A
:1019F0001002CEF2000251604EF62351CEF20001E9
:101A0000F0230B7007219060116070477047000051
:101A100070470000B0B582B001680A68CC684B69B5
:101A200002F02F05202D04F0200505D125B102B0CC
:101A3000BDE8B04000F012BC5FEA027C1EBF03F0BC
:101A4000010E04F4907313EB0E0341D1036BD50622
:101A500018D5012B16D114F0100313D000220192D7
:101A60000A6801924A680192019A496949064BD471
:101A7000818DC28DC38D002B18BF914240F0F4813F
:101A800002B0B0BD13062DD514F080032AD090F813
:101A90004120212AF4D18268B2F5805F03D1026926
:101AA000002A00F06782026A531C036212784A60BF
:101AB000C28C013A1304C284E2D1C86820F08000CD
:101AC000C860C86840F04000C86002B0B0BD00BF48
:101AD000D30718BF14F4807340F0D080530700F18F
:101AE000D380D8E05206CBD514F04002C8D0CA68E3
:101AF00022F04002CA60202180F8411002B0BDE807
:101B0000B04000F0FBBA00BFC16B0A68526893B2E4
:101B1000002BB5D0858DAB42B2D2C2858969202910
:101B200000F0A180016851E8031F026821F4807170
:101B300042E80313DBB1016851E8031F026821F496
:101B4000807142E8031393B1016851E8031F0268F2
:101B500021F4807142E803134BB1016851E8031F7F
:101B6000026821F4807142E80313002BDAD1016886
:101B700051E8051F026821F0010142E80513C3B3D3
:101B8000016851E8051F026821F0010142E80513D0
:101B90007BB3016851E8051F026821F0010142E8AA
:101BA000051333B3016851E8051F026821F00101F4
:101BB00042E80513002BDAD11BE000BF016851E8B1
:101BC000051F026821F0400142E80513DBB10168FE
:101BD00051E8051F026821F0400142E8051393B166
:101BE000016851E8051F026821F0400142E8051331
:101BF0004BB1016851E8051F026821F0400142E83D
:101C00000513002BDAD1202180F842100021016356
:101C1000016851E8031F026821F0100142E8031334
:101C2000DBB1016851E8031F026821F0100142E8AE
:101C3000031393B1016851E8031F026821F01001FA
:101C400042E803134BB1016851E8031F026821F019
:101C5000100142E80313002BDAD1C16B0446084699
:101C6000FEF7FCFF204602214163818DC28D891A57
:101C700089B202B0BDE8B040FFF7C8BE436C43F084
:101C800001034364530706D5BEF1000F03D0436C34
:101C900043F002034364930706D5BEF1000F03D05F
:101CA000436C43F004034364BCF1000F06D55EEAC5
:101CB000050303D0436C43F008034364436C002BDB
:101CC0003FF4DEAE920605D525B1044600F0C6FA13
:101CD000216820464969426C01F0400102F0080287
:101CE000891800F0B98000BF016851E8031F02683D
:101CF00021F4907142E80313BBB3016851E8031F5C
:101D0000026821F4907142E8031373B3016851E84B
:101D1000031F026821F4907142E803132BB301689A
:101D200051E8031F026821F4907142E80313002B6D
:101D3000DAD11AE0016851E8051F026821F00101BB
:101D400042E80513DBB1016851E8051F026821F084
:101D5000010142E8051393B1016851E8051F0268CB
:101D600021F0010142E805134BB1016851E8051F5C
:101D7000026821F0010142E80513002BDAD1016B62
:101D8000012924D1016851E8031F026821F01001E4
:101D900042E80313DBB1016851E8031F026821F038
:101DA000100142E8031393B1016851E8031F026870
:101DB00021F0100142E803134BB1016851E8031F01
:101DC000026821F0100142E80313002BDAD1202130
:101DD00080F842100021016301684969490640F119
:101DE000C380016851E8051F026821F0400142E804
:101DF0000513DBB1016851E8051F026821F04001BD
:101E000042E8051393B1016851E8051F026821F00B
:101E1000400142E805134BB1016851E8051F026813
:101E200021F0400142E80513002BDAD1C16B0029F3
:101E300000F09A8042F25122C0F6000204460846A1
:101E40004A63FEF72FFF00283FF41AAEE06B416BA8
:101E500002B0BDE8B04008470446FFF7D9FD0020B6
:101E6000606402B0B0BD00BF891A00BF026852E8CA
:101E7000032F036822F4907243E80325BDB3026880
:101E800052E8032F036822F4907243E8032575B3E8
:101E9000026852E8032F036822F4907243E8032596
:101EA0002DB3026852E8032F036822F4907243E8CE
:101EB0000325002DDAD11AE0026852E8052F0368E5
:101EC00022F0010243E80525DDB1026852E8052F42
:101ED000036822F0010243E8052595B1026852E843
:101EE000052F036822F0010243E805254DB1026881
:101EF00052E8052F036822F0010243E80525002D72
:101F0000DAD1202280F8422000220263026852E8DF
:101F1000032F036822F0100243E80325DDB10268B5
:101F200052E8032F036822F0100243E8032595B11D
:101F3000026852E8032F036822F0100243E80325E9
:101F40004DB1026852E8032F036822F0100243E803
:101F50000325002DDAD1022289B2426302B0BDE826
:101F6000B040FFF753BD00BF02B0BDE8B040FFF77F
:101F70004FBD00BF026A32F8023B6FF35F234B6034
:101F8000026295E5002804BF0120704710B50446A1
:101F900090F8410028B9002084F84000204600F065
:101FA00063F8242084F841002068D4E90212C36851
:101FB00023F40053C360036923F440531A430261BE
:101FC000D4E904231143C268194341F20C639A43D4
:101FD0001143C1604169A26921F44071114343F684
:101FE0000002C4F201029042416103D0FFF7A4FA5B
:101FF00002E000BFFFF7B4FAD4E9002319214843F7
:102000009900B0FBF1F048F21F5CC5F2EB1CA0FB9D
:102010000C314FF69C734909C0F6FF7301FB0300B6
:10202000322303EB0010A0FB0C03F02000EA531056
:1020300000EB0110C3F343110844906010692021A4
:1020400020F490401061506920F02A005061D0685F
:1020500040F40050D0600020606484F8411084F89F
:102060004210606310BD000070B586B040F60004F9
:10207000C4F20104006804F5405100268842059628
:10208000CDE90366029601D006B070BD41F218009A
:10209000C4F20200016802AD41F4804101600168B0
:1020A00001F4804101910199016841F0040101604E
:1020B0000068294600F00400019001984FF4007078
:1020C000029002200390032005902046FEF796FE22
:1020D0004FF48060CDE90206204629460496FEF7BB
:1020E0008DFE252000210022FFF702F82520FEF7B3
:1020F000EDFF06B070BD00007047000070470000A3
:10210000FEE70000B0B584B040F2780042F2004132
:10211000C2F20000C4F20101002401254FF4602244
:1021200005730475C261C0E9001484600561FEF79F
:1021300001FB002818BFFEF749F90220CDE901058F
:1021400040F27800C2F2000001A90394FEF7D4F92E
:10215000002818BFFEF73AF904B0B0BD2DE9F043EE
:1021600085B00020CDE90300CDE9010041F218005F
:10217000C4F20200016841F2004941F080010160AF
:102180000168C4F2010901F0800100910099016821
:1021900009F5006541F0040101600168002201F0C9
:1021A0000401009100990168012741F020010160BC
:1021B0000068012100F02000009000982846FEF7FA
:1021C00011FF48464FF4405100224FF44058FEF7AB
:1021D00009FF01AE022428463146CDE90177CDE959
:1021E0000344FEF70BFE48463146CDE90187CDE9B1
:1021F0000344FEF703FE05B0BDE8F08380B540F26E
:10220000A80043F60001C2F20000C4F2010100235D
:102210004FF00C0C4FF4E13280E80E00C0E90333BC
:10222000C0E905C3C361FFF7ADFE002808BF80BD4C
:10223000BDE88040FEF7CAB8FEE70000FEE70000F8
:102240007047000070470000FEF7D8BE70470000DE
:10225000406A0021C185C184FFF7DABB81B090F8E4
:102260004210222921D183680246B3F5805F09D14B
:1022700052F8281F52F8183C002B63D003685B68A3
:102280000AE000BF52F8281F13B90369002BF5D0EC
:1022900003685B6803F07F030B7011680131116004
:1022A000C18D01390A04C18502D001B0704700BF59
:1022B0000168CA6822F02002CA60CA6822F48072EB
:1022C000CA604A6922F001024A61202180F8421066
:1022D00000214163026B012A3CD10163016851E88E
:1022E000031F026821F0100142E80313DBB101680B
:1022F00051E8031F026821F0100142E8031393B173
:10230000016851E8031F026821F0100142E803133D
:102310004BB1016851E8031F026821F0100142E847
:102320000313002BDAD101680A68D20606D5002211
:1023300000920A680092496800910099818D01B06D
:10234000FFF764BB026852686FF35F2221F8022B2B
:102350008162A5E701B0FFF7CFBE000040F2A80000
:10236000C2F20000FFF756BBFEE7000096B0FEF792
:1023700053FE00240120CDE91144CDE90F440C9017
:1023800010904FF4E0104FF48031022515900CA806
:102390000694CDE90444CDE90244CDE90D14CDE91C
:1023A0001351FFF71DF928B1EFF3108072B600BF8B
:1023B000FEE700BF0F20CDE907054FF48060CDE9AF
:1023C0000A0407A802210994FEF7D8FF20B1EFF311
:1023D000108072B6FEE700BF022001904FF400406B
:1023E000039001A8FEF748FF20B1EFF3108072B60A
:1023F000FEE700BFFFF7B2FEFFF784FEFFF7FEFE29
:1024000040F27804C2F200042046FDF7E5FF2046C2
:10241000FEF7BCFB40F270054FF6006846F26666B8
:1024200041F60047C2F20005C4F2AF08C4F20A0642
:10243000C4F2010720464FF0FF31FEF76FFA204645
:10244000FEF7FCF8288080B200F0ACF90022434689
:1024500000F04CF84FF06632334600F0B7F900F068
:1024600013F84FF07F51686000F0BCFA0246002874
:1024700038464FF0010118BF0122FEF7B3FD4FF4BB
:102480009670FEF7A7FCD5E721F0004201F000436B
:10249000A2F16052B2F5801F28BFD2F17F6C0BD938
:1024A0005FEA001C43EAC20242EB507018BF70475B
:1024B00028BF20F001007047B2F5801FBCBF18464E
:1024C00070474FEA410C1CF5001F02D2084600F08D
:1024D00093BB70B500F024FA00000089FFF7F6BF47
:1024E0004FF00040A0F58000704700002DE9C0418A
:1024F00030B4DFF8A8C23CEA111418BF3CEA131448
:1025000000F0F0801CEA111481EA030544EAD57456
:1025100018BF1CEA131500F0CB80A4EB050404F1EE
:102520007F7404F500344FF0004545EAC12145EAC7
:10253000C32341EA505143EA52534FEAC0204FEAC5
:10254000C222994208BF904200F0A0804FEA136572
:102550000FF24816765D4FEA134506FB05F7C7F103
:10256000807706FB07F74FEAD737A7FB0368764269
:10257000A7FB06CEC8F5803838BFA8F1010807FBD5
:1025800008E6A6FB028C4FF0000EE6FB03CED8F166
:1025900000086FEA0C0C5CF1000C6FEA0E0E4EF1B5
:1025A000004EA6FB0C584FF00007E6FB0E87A1FB80
:1025B00008C6A0FB07CE16EB0E064FF0000545F14E
:1025C0000005E1FB076515F1E04E7EBFA4F5803400
:1025D0005FEA46066D4116F1800745F100054FEAB6
:1025E000172747EA05674FEA15254FEA0666A6F161
:1025F000DE46B6F1805F20D9384605EBC47124F081
:10260000010C01EB0C11BCF1FE6F02D8F0BCBDE86F
:10261000008124425CBF01F5801E9EEAC47F02D483
:10262000F0BCBDE80081244200F13980A1F1C04135
:10263000F0BCBDE8004100F0C1B94FEAD02040EA4B
:1026400041504FEAD1214FEAD22242EA43524FEAA7
:10265000D323A7FB028607FB036605FB02661EEA7F
:102660000E0F58BFA6EB0056B6EB00564FEA520EBF
:102670004EEAC37E18EB0E0E56EB530EBCD518EB8C
:1026800002085E417F1C55F10005B5E74FF4801547
:102690004FF000074FF000064FF00008ACE701F1E3
:1026A000C04101F000414FF00000F0BCBDE80081E6
:1026B0000CEA131511EA0C1F00D00CE013EA0C1FF2
:1026C00000F025804FF0000081EA030101F0004195
:1026D000F0BCBDE80081F0BCBDE8004181EA030127
:1026E00000F06CB9F0BCBDE8004170B500F018F91D
:1026F000097EFC3E00F007B84FF0000081EA0301BC
:1027000001F00041704781EA030100F057B9F0BCC5
:10271000BDE8004122494FF000007047FFFDFBF982
:10272000F7F5F4F2F0EEEDEBE9E8E6E4E3E1E0DE04
:10273000DDDBDAD8D7D5D4D3D1D0CFCDCCCBCAC876
:10274000C7C6C5C4C2C1C0BFBEBDBCBBBAB9B8B79D
:10275000B6B5B4B3B2B1B0AFAEADACABAAA9A8A890
:10276000A7A6A5A4A3A3A2A1A09F9F9E9D9C9C9B5E
:102770009A99999897979695959493939291919009
:102780008F8F8E8E8D8C8C8B8B8A8989888887879A
:102790008685858484838382828181800000FF070F
:1027A0000000F87FB0FA80F310FA03F10AD0C3F109
:1027B0001D0303F580634FEA03524FEA415002EBD9
:1027C000D12170474FF000007047000070B5DFF86E
:1027D00048C11CEA111E1EBF1CEA13159EEA0C0F0D
:1027E00095EA0C0F00F06F8081EA03044EEAD47E74
:1027F000AE4421EA4C1123EA4C1341F4801143F416
:102800008013AEF17F7EA1FB024CA0FB036536195D
:1028100055EB0C05A1FB034C4CF10003A0FB021C83
:1028200016EB0C06654153F10003094218BF46F050
:10283000010613F4007F0BD14FEA03314FEA053054
:1028400041EA155140EA165034036FF003020AE0E2
:102850004FEAC3214FEAC52041EA555140EA56509C
:10286000F4026FF0020202EB2E4201EB025585EA00
:10287000CE710AD05FEA440C18BF24F0004450F136
:10288000000041F1000120EAD47040F2FE7C624574
:1028900000D270BDA84214BF4FF080444FF04044B6
:1028A000002E08BF0024BEF1806FA8BFA1F1C04177
:1028B000BDE8704080F2828001F1C04101F000412A
:1028C0004FF0000070470CEA13159EEA0C0F18BF7A
:1028D00095EA0C0F06D081EA030E4FF000000EF0CF
:1028E000004170BD00F01CF88900013E00F007B8FF
:1028F00000F009B84FEA430C5FEA5C5C08D081EA5B
:10290000030100F05BB84FEA410C5FEA5C5CF6D172
:1029100002494FF0000070470000FF070000F87FF9
:102920000EF1020E2EF0030E5EF8046B364205D453
:10293000012A43EB030515F5001F12D8012841EBCE
:10294000010C1CF5001F0CD80ED14FEAD17C0CEB0A
:102950004C0C0CF1020C15F5001F08BF4CEBD37C9E
:1029600004E04FF0080C01E04FEAD37C0CEB4C057F
:1029700026FA05F606F00706B6F1040C06D20EEBB1
:10298000860CBDE870404CF0010C6047DFE80CF0AD
:10299000090B02024FF00041A1F500214FF00000A9
:1029A00070BD19461046012851EB010418BFD4F53B
:1029B000001484BF002001F0004170BD0808A0F59C
:1029C00000114FEA3101704710B500F033F80CBF29
:1029D0000120002010BD10B500F02CF814BF01201C
:1029E000002010BD10B500F059F88CBF0120002068
:1029F00010BD10B500F052F82CBF0120002010BD12
:102A000010B500F07FF894BF0120002010BD10B574
:102A100000F078F834BF0120002010BD401058BFEE
:102A2000C0F14040491058BFC1F140418142EFF32D
:102A30000080704750EA010C00F113801CF5000F74
:102A400058BFBCF5000F01D48842704707D710F576
:102A5000000F58BF11F5000F15D488427047894206
:102A600070471CF5000F04D5BCF5000FF7D5814267
:102A700070474FF0807C1CEB400F38BF1CEB410FC0
:102A800001D28142704710B500F070F892244900DD
:102A90004FF000504FF08051FFF7C0BF50EA010CDB
:102AA00000F113801CF5000F58BFBCF5000F01D4D6
:102AB0008842704707D710F5000F58BF11F5000F77
:102AC00015D488427047894270471CF5000F04D521
:102AD000BCF5000FF7D5814270474FF0807C1CEBAE
:102AE000400F38BF1CEB410F01D28142704710B537
:102AF00000F03CF8922449004FF080504FF0005114
:102B0000FFF78CBF50EA010C00F113801CF5000F99
:102B100058BFBCF5000F01D48842704707D710F5A5
:102B2000000F58BF11F5000F15D488427047894235
:102B300070471CF5000F04D5BCF5000FF7D5814296
:102B400070474FF0807C1CEB400F38BF1CEB410FEF
:102B500001D28142704710B500F008F89224490074
:102B60004FF000504FF08051FFF758BF0EF1020EAA
:102B70002EF0030E5EF8044B244204D44FEA4102C7
:102B8000B2F17F4F11D84FEA4003B3F17F4F0CD819
:102B90000ED14FEAD07C0CEB4C0C0CF1020CB2F1D4
:102BA0007F4F08BF4CEBD17C04E04FF0080C01E0F4
:102BB0004FEAD17C0CEB4C0324FA03F404F0070435
:102BC000B4F1040C06D20EEB840CBDE810404CF0BE
:102BD000010C6047DFE80CF0070802024FF00040EC
:102BE000A0F5800010BD0846420018BFD2F18072E7
:102BF00088BF00F0004010BDFF2141EAD050C00561
:102C000070470000000000000000010203040607F6
:102C10000809000000000102030401020203040588
:102C2000060708090A0B0C0D0E0F1010502C000897
:102C3000000000201000000094010008602C000833
:102C400010000020E8060000B401000800000000A9
:102C5000010000001000000000127A0000000000D7
:0400000508000131BD
:00000001FF
