:020000040800F2
:1000000020070020F90100080D1E0008711C0008DF
:10001000091E0008B50200085D200008000000006D
:10002000000000000000000000000000151E000895
:10003000B902000800000000111E0008511E00084F
:10004000130200081302000813020008130200083C
:10005000130200081302000813020008130200082C
:10006000130200081302000813020008130200081C
:10007000130200081302000813020008130200080C
:1000800013020008130200081302000813020008FC
:1000900013020008130200081302000813020008EC
:1000A00013020008130200081302000813020008DC
:1000B00013020008591E000813020008130200086A
:1000C00013020008130200081302000813020008BC
:1000D0001302000851200008130200081302000850
:1000E000130200081302000813020008130200089C
:1000F000130200081302000813020008130200088C
:10010000130200081302000813020008130200087B
:10011000130200081302000813020008130200086B
:10012000130200081302000813020008130200085B
:1001300000F002F800F050F814A696E8000CB24463
:10014000B344DA4501D100F047F8BAE80F000FA632
:1001500096E83000A5EB040504EB0607AAEB0704BC
:10016000A7F101074FEA15154FEA3414A4F1010471
:10017000AC4201D300F030F813F0010F18BFFB1AA6
:1001800043F0010300F001F8DBE7184758200000B6
:1001900078200000103A24BF78C878C1FAD85207F6
:1001A00024BF30C830C144BF04680C6070470000F1
:1001B000704700000023002400250026103A28BFC5
:1001C00078C1FBD8520728BF30C148BF0B607047C9
:1001D0001FB51FBD10B510BD00F031F81146FFF777
:1001E000F7FF01F091FF00F04FF803B4FFF7F2FFC3
:1001F00003BC00F057F80000094880470948004751
:10020000FEE7FEE7FEE7FEE7FEE7FEE7FEE7FEE7C6
:10021000FEE7FEE704480549054A064B7047000023
:10022000551E000831010008200100202007002091
:100230002003002020030020704770477047754658
:1002400000F02CF8AE4605006946534620F0070042
:10025000854618B020B5FFF7DDFFBDE820404FF020
:1002600000064FF000074FF000084FF0000BAC46BF
:10027000ACE8C009ACE8C009ACE8C009ACE8C0090A
:1002800021F007018D46704710B50446AFF300809A
:100290002046BDE81040FFF7A8BF000000487047A7
:1002A0001800002001491820ABBEFEE7260002001E
:1002B00070470000FEE7000070470000EFF3108079
:1002C00072B600BFFEE70000014690F82100022848
:1002D00016D10868D1E90FC3026822F00E0202604D
:1002E000026822F001020260012000FA03F2CCF859
:1002F000042081F821000020002281F8202070478E
:10030000042088630120002281F82020704700002B
:1003100090F82110022927D1026840F2040C1368DA
:10032000C4F2020C23F00E03136013680CF17C017D
:100330008A4223F0010111601AD940F20841C4F247
:1003400002018A4250D040F21C41C4F202018A42AA
:1003500042D040F23041C4F202018A4248D14FF407
:100360008073CCF800345CE0042181630120704785
:100370004321C4F202018A420EDD6B21C4F2020164
:100380008A421BDC4421C4F202018A423ED0582139
:10039000C4F202018A4223E00821C4F202018A4227
:1003A00032D01C21C4F202018A4237D03021C4F27B
:1003B00002018A4214D14FF4807230E06C21C4F201
:1003C00002018A4226D08021C4F202018A4207D16A
:1003D0004FF0807223E000BF1023CCF8003420E0FF
:1003E0004FF480321BE000BF0123CCF8003418E04A
:1003F0000CF588614FF480338A4208BF4FF4805374
:10040000CCF800340DE000BF012208E04FF4805228
:1004100005E000BF4FF4801201E000BF1022CCF8CD
:100420000020012180F82110416B0022002980F872
:10043000202004BF0020704780B58847002080BD81
:100440002DE9F04F82B00E68002E00F0E980A0F197
:10045000804241F6004540F20043A2F58432C4F2E6
:1004600001050624C4F201034FEAB227A84208BFDF
:1004700005244FF0000E4FF001080F254FF0000A41
:100480004FF0000B052F38BF4FEAB224009408E06C
:100490000E680AF1010A36FA0AF20EF1040E00F0B3
:1004A000BF8008FA0AFC16EA0C09F1D04E684FF634
:1004B000FF72C1F21002964212DC122E56D8DFE80B
:1004C00006F0350B4D49555555555555555555550E
:1004D00055555545510000BFD1F80CB046E000BF5E
:1004E0004FF6FF72C1F2210296420FDC0022C1F2E8
:1004F000110296421AD00022C1F21202964215D081
:100500000022C1F22102964210D02FE00022C1F257
:10051000220296420AD00022C1F23102964205D050
:100520000022C1F23202964220D100BF8A684AB14D
:10053000012A14BFC0F814C0C0F810C04FF0080B57
:1005400014E000BF4FF0040B10E000BFCA6802F1D6
:10055000040B0BE04FF0000B08E000BFCA6802F18B
:10056000080B03E0CA6802F10C0B00BF0246744698
:10057000B9F5807F24BF0432203C166805FA04F7E1
:1005800026EA07070BFA04F637431760CA79D20642
:100590007FF57EAF41F21807C4F202073A684FF6C2
:1005A000084542F001023A603A68CFF6FF7502F062
:1005B00001020192019A2AF003021A440F245759AA
:1005C0000EF00C06B440A743009C04FA06F637432D
:1005D00057514E6840F20C44F2029A6854BF22EA26
:1005E000090242EA0902C4F201049A602268B702D1
:1005F00054BF22EA090242EA090222605A68B7039C
:1006000054BF22EA090242EA09025A600F251A6819
:10061000F70354BF22EA090242EA09021A6037E7E7
:1006200002B0BDE8F08F00008068084018BF0120CC
:1006300070470000002A08BF0904016170470000EC
:1006400040F21C10C2F200000068704740F208003F
:1006500040F21C11C2F20000C2F2000100780A68E8
:10066000104408607047000080B542F20000C4F2F8
:100670000200016841F010010160032000F08CF8D5
:100680000F2000F005F800F027F8002080BD0000E2
:1006900070B540F20806C2F2000640F2100132784E
:1006A000C2F200014FF47A730968B3FBF2F2044618
:1006B000B1FBF2F1084600F085FB0F2C4FF001056D
:1006C00008D838B94FF0FF3021460022002500F04D
:1006D00037F87460284670BD82B041F21800C4F249
:1006E00002000168022241F001010160016801F08D
:1006F000010101910199416841F0805141604068D8
:1007000000F08050009000980420C4F201000168BD
:1007100062F31A61016002B070470000002848BF10
:10072000704700F01F01012202FA01F11C2202EAC7
:10073000D0004EF20012CEF200028150704700004D
:1007400010B54EF60C5CCEF2000CDCF80030C3F3B2
:10075000022E8EF00704042C28BF0424BEF10303EC
:100760004FF0FF3E0EFA04F438BF0023A143994036
:100770000EFA03F39A43114300F00F0200F16043B5
:100780000901043A03F564436244002848BF02F1BA
:100790000C03197010BD00004EF60C51CEF2000192
:1007A0000A684FF6FF031A4060F30A2242F08060A5
:1007B00040F0FD7008607047002804BF01207047BA
:1007C0002DE9F04381B042F20008C4F20208044669
:1007D000D8F800000D4600F0070081420CD9D8F887
:1007E000000020F007002843C8F80000D8F80000F7
:1007F00000F00700A8426CD1206841F2040981078B
:10080000C4F2020917D5410705D5D9F8001041F403
:10081000E061C9F80010010705D5D9F8001041F4CE
:100820006051C9F80010D9F80010A26821F0F00159
:100830001143C9F80010C00742D1D8F8000000F0F9
:10084000070085420CD2D8F8000020F007002843AA
:10085000C8F80000D8F8000000F00700A84238D11E
:100860002068410707D5D9F80010E26821F4E0615B
:100870001143C9F80010000708D5D9F80000216914
:1008800020F4605040EAC100C9F80000D9F8002007
:1008900002F00C00082841F20020C0F27A004DD18D
:1008A00042F2D313C2F38341C0F60003595CD20372
:1008B00038D440F60010C0F23D0048433EE000BF8F
:1008C000606859F8041C022808D0012826D1890341
:1008D00006D4012001B0BDE8F08300BF8901F8D53E
:1008E000D9F8001021F003010843C9F80000FFF710
:1008F000A7FE064641F28837D9F80000616800F08B
:100900000C00B0EB810F98D0FFF79AFE801BB84225
:10091000F2D9032001B0BDE8F08300BF8907D8D524
:10092000DEE700BFD9F8002042F2C213C2F3404212
:10093000C0F600039A5C4843B0FBF2F0D9F800100F
:1009400042F2AA12C1F30311C0F60002515C40F258
:10095000100220FA01F140F20C00C2F2000000681F
:10096000C2F200021160FFF793FE002001B0BDE863
:10097000F083000040F2100041F20401C2F20000D6
:10098000C4F202010068096842F2BA12C1F30221FE
:10099000C0F60002515CC8407047000040F21000F1
:1009A00041F20401C2F20000C4F2020100680968C9
:1009B00042F2BA12C1F3C221C0F60002515CC84033
:1009C00070470000002804BF012070472DE9F04166
:1009D00082B00446007841F20006C007C4F2020665
:1009E0000CD0706800F00C00042840F08180306862
:1009F000800303D56068002800F0468120788007D6
:100A00001BD5706810F00C0F09D0706800F00C0056
:100A1000082840F087807068C00300F18380306848
:100A2000800703D52069012840F02E813068616974
:100A300020F0F80040EAC10030602078000713D4AD
:100A4000207840072CD4E569002D00F018817068EB
:100A500000F00C00082840F0A780012D40F0048130
:100A6000012002B0BDE8F081A069002800F0848078
:100A70000020C4F242200121C0F88014FFF7E0FDFD
:100A8000054600BF706A800700F1B280FFF7D8FD0D
:100A9000401B0228F6D9032002B0BDE8F08100BF58
:100AA000F0695FEAC00808D4F06940F08050F06156
:100AB000F06900F080500090009847F20007C4F2FF
:100AC00000073868C00549D4386840F48070386041
:100AD000FFF7B6FD054600BF3868C0053ED4FFF7F6
:100AE000AFFD401B6428F7D9032002B0BDE8F081B8
:100AF000706800F00C00082803D17068C0033FF54F
:100B000076AF61683068002900F00C81B1F5A02F44
:100B100000F00081B1F5803F40F01A8140F4803050
:100B20001CE100BF2069002840F20000C4F242200E
:100B300000F0888001210160FFF782FD054600BFBB
:100B4000306880073FF572AFFFF77AFD401B02283F
:100B5000F6D9032002B0BDE8F08100BFE168306A39
:100B6000002900F09D80052900F09280012940F0C5
:100B7000AF8040F00100B1E00020C4F2422000212B
:100B8000C0F88014FFF75CFD054600BF706A80075F
:100B90007FF556AFFFF754FD401B0228F6D903201E
:100BA00002B0BDE8F08100BF0027C4F24227002058
:100BB0003866FFF745FD022D05460DD130688001EE
:100BC00040F1DE80FFF73CFD401B02284FF00300A0
:100BD000F4D902B0BDE8F081306880014FD5FFF74D
:100BE0002FFD401B02284FF00300F5D9F1E700BFAD
:100BF00040F21000C2F20000006844F6D351C1F286
:100C00006201A0FB0101480A019000BF00BF0198EA
:100C1000411E002801913FF413AF00BF0198411E0F
:100C2000002801913FF40CAF00BF0198411E00283D
:100C300001913FF405AF00BF0198411E00280191CA
:100C4000E4D1FDE600210160FFF7FAFC054600BF94
:100C5000306880077FF5F1AEFFF7F2FC401B0228F9
:100C60004FF00300F4D9B4E77068216A00F48032D1
:100C70008A4209D1616A00F47010884204D10020D0
:100C800002B0BDE8F08100BF012002B0BDE8F081F4
:100C900040F004003062306A40F001001EE000BF06
:100CA00020F001003062306A20F004003062FFF76B
:100CB000C7FC054641F28837306A800720D5FFF728
:100CC000BFFC401BB8424FF00300F5D981E700BFDD
:100CD00020F001003062306A20F004003062FFF73B
:100CE000AFFC054641F28837306A800708D4FFF729
:100CF000A7FC401BB842F7D9032002B0BDE8F08141
:100D0000B8F1000F3FF59FAEF06920F08050F06120
:100D100099E600BF40F480203060306840F48030B5
:100D20001CE000BF20F480303060306820F4802068
:100D30003060FFF785FC0546306880037FF55EAEC6
:100D4000FFF77EFC401B64284FF00300F4D940E716
:100D500020F480303060306820F480203060FFF76D
:100D60006FFC0546306880033FF548AEFFF768FC2E
:100D7000401B6428F6D9032002B0BDE8F08100BF13
:100D8000206AB0F5803F05D17168A26821F4003176
:100D9000114371607168626A21F474111143084350
:100DA000706001203866FFF74BFC04463068800114
:100DB0003FF565AFFFF744FC001B02284FF003002E
:100DC000F4D906E7411E0020B0EB116F1CBF0120D3
:100DD00070474EF21002CEF2000251604EF62351DF
:100DE000CEF20001F0230B70072190601160704774
:100DF000704700007047000090F83C20012A4FF037
:100E0000020242D010B580F83D200268D2F804E01A
:100E1000D2F808C00C682EF07003234340F6FF346C
:100E2000C4F20004A242536010DCB2F1804F1FD024
:100E300040F20043C4F200039A4219D040F6000386
:100E4000C4F200039A4213D017E000BF40F60043FB
:100E5000C4F200039A420BD043F20043C4F20103F0
:100E60009A4205D042F60043C4F201039A4204D1EB
:100E700049682CF08003194391600121002280F819
:100E80003D1080F83C20BDE810401046704700003F
:100E9000002804BF0120704710B5044690F83D00BB
:100EA00028B9002084F83C00204600F01FF80220FA
:100EB00084F83D002068211D00F0D4FF012084F853
:100EC000460084F83E0084F83F0084F8400084F82F
:100ED000410084F8420084F8430084F8440084F818
:100EE000450084F83D00002010BD0000006840F27D
:100EF0000041C4F20001884218BF704780B582B03B
:100F000041F21C00C4F202000168002241F002011B
:100F100001600068002100F00200019001981D208E
:100F2000FFF70EFC1D2002B0BDE88040FFF7F6BBC6
:100F300090F83D1001291CBF01207047022180F864
:100F40003D10006840F6FF32C168C4F200029042D2
:100F500041F00101C1600FDCB0F1804F1ED040F2C2
:100F60000041C4F20001884218D040F60001C4F2EA
:100F70000001884212D018E040F60041C4F200019E
:100F800088420BD043F20041C4F20101884205D0EF
:100F900042F60041C4F20101884206D1816801F0A5
:100FA0000701062904BF00207047016841F00101D4
:100FB000016000207047000090F83C20012A4FF0AB
:100FC00002026CD080B580F83D20D0F800C04FF60A
:100FD0007772DCF8083023EA0202CCF808200B68AC
:100FE0004F2B29DC1F2B45DD202B46D0302B44D046
:100FF000402B40F0AF80D1F804E0C968DCF8203025
:10100000DCF8202022F00102CCF82020DCF81820A7
:1010100022F0F00242EA011123F00A0242EA0E0233
:10102000CCF81810CCF82020DCF8081041F047016B
:1010300021F0300128E000BF6F2B33DDB3F5005FF6
:1010400074D0B3F5805F21D0702B40F08380D1E95C
:1010500001E3C968DCF8082043EA0E0322F47F426A
:1010600043EA01211143CCF80810DCF8081041F0E4
:10107000770109E00BB1102B6CD1DCF8081021F0DE
:101080007001194341F00701CCF80810002201213A
:1010900080F83D10002180F83C10BDE880401046EB
:1010A000704700BF502B21D0602B53D1D1F804E002
:1010B000C968DCF82030DCF8202022F01002CCF8DF
:1010C0002020DCF8182022F4704242EA013123F09B
:1010D000A00242EA0E12CCF81810CCF82020DCF85E
:1010E000081041F0670121F01001CDE7D1F804E0CC
:1010F000C968DCF82030DCF8202022F00102CCF8AE
:101100002020DCF8182022F0F00242EA011123F03E
:101110000A0242EA0E02CCF81810CCF82020DCF8C3
:10112000081041F0570121F02001ADE7D1E901E3BA
:10113000C968DCF8082043EA0E0322F47F4243EA40
:1011400001211143CCF80810DCF8081041F480416B
:101150009AE700BF01229AE77047000070B5044685
:101160000068C5680669B10716D515F0020113D0ED
:101170006FF002010161012121778069800703D0AE
:101180002046FFF7E9FF05E0204600F08FF82046F3
:1011900000F08EF800202077700719D515F00400B4
:1011A00016D020686FF00401016102212177806967
:1011B00010F4407F04D02046FFF7CEFF06E000BFCA
:1011C000204600F073F8204600F072F800202077E7
:1011D000300717D515F0080014D020686FF008010B
:1011E000016104212177C069800703D02046FFF701
:1011F000B3FF05E0204600F059F8204600F058F80B
:1012000000202077F00619D515F0100016D02068C0
:101210006FF01001016108212177C06910F4407F4F
:1012200004D02046FFF798FF06E000BF204600F0FC
:101230003DF8204600F03CF800202077F00718BF6A
:1012400015F0010002D1300609D412E020686FF0D9
:1012500001010161204600F02DF8300609D515F096
:10126000800006D020686FF0800101612046FFF702
:10127000BFFD700609D515F0400006D020686FF05C
:1012800040010161204600F0E3F8B00658BF70BD90
:1012900015F0200008D021686FF0200220460A6176
:1012A000BDE87040FFF7A6BD70BD000070470000AC
:1012B0007047000040F28C01C2F20001884218BF62
:1012C000704770B540F20005C2F20005E88840F2B0
:1012D00078040130E880E888C2F20004B0F57A7F33
:1012E00024D30026EE8020780121C0F10100207077
:1012F000C2B241F60040C4F20100FFF79BF9A078AA
:101300000130A070A0783C2810D3A670607801301E
:10131000607060783C2809D3002060702878013024
:10132000287028780D2824BF012028706888411C67
:101330006428698038D3002068802878CD2148430C
:10134000C20A42F2C410C0F60000825C62722A78BF
:1013500002FB01F3DB0A03EB8303A2EB4302D2B2ED
:10136000825CA2724022E27263784B43DB0AC35C68
:101370002373637803FB01F6F60A06EB8606A3EBFC
:101380004603DBB2C35C6373A273A2784A43D20AFA
:10139000825CE273A2785143C90A01EB8101A2EB9E
:1013A0004101C9B2405C2074A888411C6428A9800E
:1013B0003ED30020A88000F07FFE207120792179A3
:1013C000627951400840A0712079217962795140B9
:1013D00021EA0000E071207960712079032819D09A
:1013E000022809D0012823D12878013028702878D4
:1013F0000C281BD81CE000BF254615F8010F013052
:10140000287028783B2813D940F20000C2F200006F
:1014100009E000BF254615F8020F01302870287832
:101420003C2805D3681E0178013101700020287026
:10143000E0780130E070E078092804BF0120E07016
:10144000E0782044007AE178BDE8704000F0E4BC28
:10145000704700007047000070470000B0B582B0D0
:1014600001680A68CC684B6902F02F05202D04F052
:10147000200505D125B102B0BDE8B04000F068BD3F
:101480005FEA027C1EBF03F0010E04F4907313EBBD
:101490000E0341D1036BD50618D5012B16D114F0DC
:1014A000100313D0002201920A6801924A68019247
:1014B000019A496949064BD4818DC28DC38D002B99
:1014C00018BF914240F0F48102B0B0BD13062DD593
:1014D00014F080032AD090F84120212AF4D18268A8
:1014E000B2F5805F03D10269002A00F06782026AC8
:1014F000531C036212784A60C28C013A1304C284FE
:10150000E2D1C86820F08000C860C86840F04000A0
:10151000C86002B0B0BD00BFD30718BF14F4807319
:1015200040F0D080530700F1D380D8E05206CBD5ED
:1015300014F04002C8D0CA6822F04002CA602021DC
:1015400080F8411002B0BDE8B04000F0FBBA00BF27
:10155000C16B0A68526893B2002BB5D0858DAB423F
:10156000B2D2C2858969202900F0A180016851E8C2
:10157000031F026821F4807142E80313DBB10168A4
:1015800051E8031F026821F4807142E8031393B10C
:10159000016851E8031F026821F4807142E80313D7
:1015A0004BB1016851E8031F026821F4807142E8E1
:1015B0000313002BDAD1016851E8051F026821F0FE
:1015C000010142E80513C3B3016851E8051F026831
:1015D00021F0010142E805137BB3016851E8051FC2
:1015E000026821F0010142E8051333B3016851E8B4
:1015F000051F026821F0010142E80513002BDAD132
:101600001BE000BF016851E8051F026821F040019E
:1016100042E80513DBB1016851E8051F026821F0BB
:10162000400142E8051393B1016851E8051F0268C3
:1016300021F0400142E805134BB1016851E8051F54
:10164000026821F0400142E80513002BDAD1202185
:1016500080F8421000210163016851E8031F02680D
:1016600021F0100142E80313DBB1016851E8031FC8
:10167000026821F0100142E8031393B1016851E8B8
:10168000031F026821F0100142E803134BB1016807
:1016900051E8031F026821F0100142E80313002BF8
:1016A000DAD1C16B04460846FEF70EFE2046022141
:1016B0004163818DC28D891A89B202B0BDE8B04004
:1016C000FFF7C8BE436C43F001034364530706D5DC
:1016D000BEF1000F03D0436C43F002034364930751
:1016E00006D5BEF1000F03D0436C43F004034364FE
:1016F000BCF1000F06D55EEA050303D0436C43F04E
:1017000008034364436C002B3FF4DEAE920605D51C
:1017100025B1044600F01CFC216820464969426C52
:1017200001F0400102F00802891800F0B98000BF02
:10173000016851E8031F026821F4907142E8031325
:10174000BBB3016851E8031F026821F4907142E8BD
:10175000031373B3016851E8031F026821F4907109
:1017600042E803132BB3016851E8031F026821F418
:10177000907142E80313002BDAD11AE0016851E8B6
:10178000051F026821F0010142E80513DBB1016881
:1017900051E8051F026821F0010142E8051393B1E9
:1017A000016851E8051F026821F0010142E80513B4
:1017B0004BB1016851E8051F026821F0010142E8C0
:1017C0000513002BDAD1016B012924D1016851E8FE
:1017D000031F026821F0100142E80313DBB1016826
:1017E00051E8031F026821F0100142E8031393B18E
:1017F000016851E8031F026821F0100142E8031359
:101800004BB1016851E8031F026821F0100142E862
:101810000313002BDAD1202180F84210002101634C
:1018200001684969490640F1C380016851E8051F14
:10183000026821F0400142E80513DBB1016851E87C
:10184000051F026821F0400142E8051393B10168C9
:1018500051E8051F026821F0400142E805134BB131
:10186000016851E8051F026821F0400142E80513B4
:10187000002BDAD1C16B002900F09A8041F6457245
:10188000C0F60002044608464A63FEF741FD002800
:101890003FF41AAEE06B416B02B0BDE8B0400847C0
:1018A0000446FFF7D9FD0020606402B0B0BD00BF60
:1018B000891A00BF026852E8032F036822F490726D
:1018C00043E80325BDB3026852E8032F036822F4FE
:1018D000907243E8032575B3026852E8032F03684A
:1018E00022F4907243E803252DB3026852E8032FD7
:1018F000036822F4907243E80325002DDAD11AE040
:10190000026852E8052F036822F0010243E805252A
:10191000DDB1026852E8052F036822F0010243E8B6
:10192000052595B1026852E8052F036822F00102EF
:1019300043E805254DB1026852E8052F036822F0FF
:10194000010243E80525002DDAD1202280F842204B
:1019500000220263026852E8032F036822F010029B
:1019600043E80325DDB1026852E8032F036822F043
:10197000100243E8032595B1026852E8032F03687B
:1019800022F0100243E803254DB1026852E8032F0C
:10199000036822F0100243E80325002DDAD1022269
:1019A00089B2426302B0BDE8B040FFF753BD00BF4B
:1019B00002B0BDE8B040FFF74FBD00BF026A32F889
:1019C000023B6FF35F234B60026295E5002804BF82
:1019D0000120704710B5044690F8410028B9002056
:1019E00084F84000204600F063F8242084F8410089
:1019F0002068D4E90212C36823F40053C36003696A
:101A000023F440531A430261D4E904231143C2680A
:101A1000194341F20C639A431143C1604169A269C1
:101A200021F44071114343F60002C4F201029042D6
:101A3000416103D0FEF79EFF02E000BFFEF7AEFF5C
:101A4000D4E90023192148439900B0FBF1F048F292
:101A50001F5CC5F2EB1CA0FB0C314FF69C734909CF
:101A6000C0F6FF7301FB0300322303EB0010A0FB61
:101A70000C03F02000EA531000EB0110C3F34311F4
:101A8000084490601069202120F490401061506952
:101A900020F02A005061D06840F40050D06000204F
:101AA000606484F8411084F84210606310BD000047
:101AB00070B586B040F60004C4F20104006804F575
:101AC0004051002688420596CDE90366029601D072
:101AD00006B070BD41F21800C4F20200016802AD08
:101AE00041F480410160016801F480410191019954
:101AF000016841F0040101600068294600F004001B
:101B0000019001984FF4007002900220039003208E
:101B100005902046FEF794FC4FF48060CDE9020664
:101B2000204629460496FEF78BFC25200021002242
:101B3000FEF706FE2520FEF7F1FD06B070BD0000A1
:101B40007047000070470000B0B540F60004C4F2D2
:101B500001040546C20920468021FEF76BFD2046A0
:101B600020210122FEF766FD204620210022FEF7FB
:101B700061FDC5F3801220468021FEF75BFD204603
:101B800020210122FEF756FD204620210022FEF7EB
:101B900051FDC5F3401220468021FEF74BFD204643
:101BA00020210122FEF746FD204620210022FEF7DB
:101BB00041FDC5F3001220468021FEF73BFD204683
:101BC00020210122FEF736FD204620210022FEF7CB
:101BD00031FDC5F3C00220468021FEF72BFD2046D3
:101BE00020210122FEF726FD204620210022FEF7BB
:101BF00021FDC5F3800220468021FEF71BFD204613
:101C000020210122FEF716FD204620210022FEF7AA
:101C100011FDC5F3400220468021FEF70BFD204652
:101C200020210122FEF706FD204620210022FEF79A
:101C300001FD05F0010220468021FEF7FBFC204655
:101C400020210122FEF7F6FC204620210022FEF78B
:101C5000F1FC20464FF480710122FEF7EBFC204698
:101C60004FF480710022BDE8B040FEF7E3BC0000F5
:101C7000FEE700002DE9F04786B04FF0000A41F280
:101C80001800CDE904AACDE902AAC4F20200016855
:101C900040F6000841F0800101600168C4F20108CB
:101CA00001F0800101910199016808F5A05641F009
:101CB000040101600168002201F004010191019911
:101CC00001684FF6FF7441F020010160016801F0E6
:101CD000200101910199016841F040010160006813
:101CE0004FF6FF7100F04000019001983046FEF77A
:101CF000A1FC40464FF4D07100224FF4D079FEF79A
:101D000099FC02AD02940124022730462946CDE910
:101D1000034A0597FEF794FB40462946CDE9029415
:101D2000CDE904A7FEF78CFBC020CDE9020A08F537
:101D3000406029460494FEF783FB0320CDE9020AA4
:101D400008F5805029460494FEF77AFB06B0BDE8FA
:101D5000F087000080B586B040F28C0040F200426F
:101D60000021C2F20000C4F2000241F61F434FF00E
:101D7000090C0591CDE90311CDE90011C0E900235B
:101D8000C0E9021C01618161FFF782F8002818BFD9
:101D9000FEF794FA4FF48050029040F28C00C2F2A9
:101DA000000002A9FFF708F9002818BFFEF786FA1D
:101DB00040F28C00C2F200006946FFF71DF80028CF
:101DC00018BFFEF77BFA06B080BD000080B540F278
:101DD000D40043F60001C2F20000C4F20101002366
:101DE0004FF00C0C4FF4E13280E80E00C0E90333F1
:101DF000C0E905C3C361FFF7E9FD002808BF80BD46
:101E0000BDE88040FEF75ABAFEE70000FEE700009A
:101E10007047000070470000B0B50C46FFF794FE15
:101E2000601E4FF4004141F6004521FA00F4C4F26F
:101E30000105284621460022FEF7FCFB012000F0A8
:101E40000FF9284621460122BDE8B040FEF7F2BB5B
:101E5000FEF7FCBB7047000040F28C00C2F20000AD
:101E6000FFF77CB910B540F6FF320368C4F20002F8
:101E700040F6004E43F2004C9042C4F2000EC4F211
:101E8000010C21DCB0F1804F28D040F20044C4F2B4
:101E90000004A04222D040F60004C4F20004A04294
:101EA0001CD0904220DCB0F1804F27D040F200429D
:101EB000C4F20002904221D040F60002C4F20002B7
:101EC00090421BD01EE000BF704507D0604505D092
:101ED00042F60044C4F20104A042E2D14C6823F06F
:101EE000700323439042DEDD704507D0604505D086
:101EF00042F60042C4F20102904203D1CA6823F4C0
:101F0000407313434C6923F08002D1F800E08B68E2
:101F1000224360450260C362C0F828E005D042F663
:101F20000042C4F20102904201D10969016301211A
:101F300041610169C90708BF10BD016921F00101B4
:101F4000016110BD406A0021C185C184FFF784BAD8
:101F500081B090F84210222921D183680246B3F55E
:101F6000805F09D152F8281F52F8183C002B63D02B
:101F700003685B680AE000BF52F8281F13B90369C1
:101F8000002BF5D003685B6803F07F030B701168CA
:101F900001311160C18D01390A04C18502D001B03F
:101FA000704700BF0168CA6822F02002CA60CA6890
:101FB00022F48072CA604A6922F001024A6120213B
:101FC00080F8421000214163026B012A3CD1016379
:101FD000016851E8031F026821F0100142E8031371
:101FE000DBB1016851E8031F026821F0100142E8EB
:101FF000031393B1016851E8031F026821F0100137
:1020000042E803134BB1016851E8031F026821F055
:10201000100142E80313002BDAD101680A68D206E6
:1020200006D5002200920A68009249680091009942
:10203000818D01B0FFF70EBA026852686FF35F221C
:1020400021F8022B8162A5E701B0FFF779BD0000FE
:1020500040F2D400C2F20000FFF700BAFEE7000031
:1020600040B340F21001C2F200010B6844F6403266
:10207000C0F24C02934238BF704710B54CF66B2C3F
:102080004FF6184EC6F65F3CCFF6FF7E934208D35C
:10209000A3FB0C34630D03FB0EF300BF013300BF41
:1020A000FCD3013804D00B689342F1D2F9E700BFAA
:1020B000BDE810407047000070B541F20044C4F222
:1020C000010404F5806630460121FEF7ADFAB0FA4E
:1020D00080F0450930460221FEF7A6FA0028204686
:1020E0004FF0400108BF0225FEF79EFA0028204667
:1020F0004FF0800108BF0325FEF796FA002808BFBD
:102100000425284670BD000090B0FEF7ADFA00240B
:102110000120CDE90B44CDE9094406900A904FF423
:10212000E0104FF4803102250F9006A8CDE9071486
:10213000CDE90D51FEF746FC20B1EFF3108072B6E9
:10214000FEE700BF0F20CDE901054FF48060CDE927
:10215000040401A802210394FEF72EFB20B1EFF343
:10216000108072B6FEE700BFFFF784FDFFF7F2FDB7
:10217000FFF72CFE40F28C00C2F20000FEF7D8FE02
:1021800042F2C410C0F6000040F2780102784378B1
:102190008078C2F200014B7288724020C8720A73C4
:1021A0004A738873CA730A74FEE7000000000000D7
:1021B00000000102030406070809000000000102F4
:1021C000030401023F065B4F666D7D077F6F777CDE
:1021D000395E7902030405060708090A0B0C0D0E87
:1021E0000F10100008220008000000201800000056
:1021F00094010008202200081800002008070000B1
:10220000B4010008000000000C0001000100010002
:10221000010000001000000000127A000000000021
:0400000508000131BD
:00000001FF
